{"abi":[{"inputs":[{"internalType":"string","name":"_name","type":"string"},{"internalType":"string","name":"_symbol","type":"string"},{"internalType":"address","name":"_expcontract","type":"address"}],"stateMutability":"nonpayable","type":"constructor","name":"constructor"},{"inputs":[],"name":"ActionRestricted","type":"error"},{"anonymous":false,"inputs":[{"indexed":true,"internalType":"address","name":"owner","type":"address"},{"indexed":true,"internalType":"address","name":"approved","type":"address"},{"indexed":true,"internalType":"uint256","name":"tokenId","type":"uint256"}],"name":"Approval","type":"event"},{"anonymous":false,"inputs":[{"indexed":true,"internalType":"address","name":"owner","type":"address"},{"indexed":true,"internalType":"address","name":"operator","type":"address"},{"indexed":false,"internalType":"bool","name":"approved","type":"bool"}],"name":"ApprovalForAll","type":"event"},{"anonymous":false,"inputs":[{"indexed":true,"internalType":"address","name":"_experienceGainer","type":"address"}],"name":"ExperienceNFTGenerated","type":"event"},{"anonymous":false,"inputs":[{"indexed":true,"internalType":"address","name":"_admin","type":"address"},{"indexed":true,"internalType":"bool","name":"_isAdmin","type":"bool"}],"name":"TokenAdminSet","type":"event"},{"anonymous":false,"inputs":[{"indexed":true,"internalType":"address","name":"from","type":"address"},{"indexed":true,"internalType":"address","name":"to","type":"address"},{"indexed":true,"internalType":"uint256","name":"tokenId","type":"uint256"}],"name":"Transfer","type":"event"},{"inputs":[{"internalType":"address","name":"","type":"address"},{"internalType":"uint256","name":"","type":"uint256"}],"name":"approve","outputs":[],"stateMutability":"view","type":"function"},{"inputs":[{"internalType":"address","name":"owner","type":"address"}],"name":"balanceOf","outputs":[{"internalType":"uint256","name":"","type":"uint256"}],"stateMutability":"view","type":"function"},{"inputs":[{"internalType":"address","name":"_to","type":"address"}],"name":"genExperience","outputs":[],"stateMutability":"nonpayable","type":"function"},{"inputs":[{"internalType":"uint256","name":"","type":"uint256"}],"name":"getApproved","outputs":[{"internalType":"address","name":"","type":"address"}],"stateMutability":"view","type":"function"},{"inputs":[{"internalType":"address","name":"","type":"address"},{"internalType":"address","name":"","type":"address"}],"name":"isApprovedForAll","outputs":[{"internalType":"bool","name":"","type":"bool"}],"stateMutability":"view","type":"function"},{"inputs":[],"name":"name","outputs":[{"internalType":"string","name":"","type":"string"}],"stateMutability":"view","type":"function"},{"inputs":[],"name":"owner","outputs":[{"internalType":"address","name":"","type":"address"}],"stateMutability":"view","type":"function"},{"inputs":[{"internalType":"uint256","name":"tokenId","type":"uint256"}],"name":"ownerOf","outputs":[{"internalType":"address","name":"","type":"address"}],"stateMutability":"view","type":"function"},{"inputs":[{"internalType":"address","name":"","type":"address"},{"internalType":"address","name":"","type":"address"},{"internalType":"uint256","name":"","type":"uint256"}],"name":"safeTransferFrom","outputs":[],"stateMutability":"view","type":"function"},{"inputs":[{"internalType":"address","name":"","type":"address"},{"internalType":"address","name":"","type":"address"},{"internalType":"uint256","name":"","type":"uint256"},{"internalType":"bytes","name":"","type":"bytes"}],"name":"safeTransferFrom","outputs":[],"stateMutability":"view","type":"function"},{"inputs":[{"internalType":"address","name":"","type":"address"},{"internalType":"bool","name":"","type":"bool"}],"name":"setApprovalForAll","outputs":[],"stateMutability":"view","type":"function"},{"inputs":[{"internalType":"address","name":"_contract","type":"address"}],"name":"setExpContractAddress","outputs":[],"stateMutability":"nonpayable","type":"function"},{"inputs":[{"internalType":"address","name":"_admin","type":"address"},{"internalType":"bool","name":"_isAdmin","type":"bool"}],"name":"setTokenAdmin","outputs":[],"stateMutability":"nonpayable","type":"function"},{"inputs":[{"internalType":"bytes4","name":"interfaceId","type":"bytes4"}],"name":"supportsInterface","outputs":[{"internalType":"bool","name":"","type":"bool"}],"stateMutability":"view","type":"function"},{"inputs":[],"name":"symbol","outputs":[{"internalType":"string","name":"","type":"string"}],"stateMutability":"view","type":"function"},{"inputs":[{"internalType":"uint256","name":"_tokenID","type":"uint256"}],"name":"tokenURI","outputs":[{"internalType":"string","name":"","type":"string"}],"stateMutability":"view","type":"function"},{"inputs":[],"name":"totalSupply","outputs":[{"internalType":"uint256","name":"","type":"uint256"}],"stateMutability":"view","type":"function"},{"inputs":[{"internalType":"address","name":"","type":"address"},{"internalType":"address","name":"","type":"address"},{"internalType":"uint256","name":"","type":"uint256"}],"name":"transferFrom","outputs":[],"stateMutability":"view","type":"function"}],"bytecode":"600b6103008181526a4461726b204f72616e676560a81b610320526080908152600561034081815264426c61636b60d81b6103605260a0526007610380818152664d6167656e746160c81b6103a05260c05260066103c09081526526b0b937b7b760d11b6103e05260e0526004610400818152634772617960e01b6104205261010052600f6104408181526e14185b1948159a5bdb195d08149959608a1b61046052610120526011610480908152704d656469756d20536c61746520426c756560781b6104a052610140526104c09283526621b934b6b9b7b760c91b6104e052610160929092526105009485526a109b1d5948159a5bdb195d60aa1b6105205261018094909452600e6105409081526d4461726b2054757271756f69736560901b610560526101a052610580918252644f6c69766560d81b6105a0526101c091909152600d6105c09081526c4d69646e6967687420426c756560981b6105e0526101e052610600838152631519585b60e21b6106205261020052610640928352634e61767960e01b6106605261022092909252600a610680818152692634b6b29023b932b2b760b11b6106a0526102405260086106c0908152672630bb32b73232b960c11b6106e0526102605260106107009081526f26b2b234bab69029b2b09023b932b2b760811b61072052610280526107409283526e2634b3b43a1029b2b09023b932b2b760891b610760526102a09290925260096107809081526843686f636f6c61746560b81b6107a0526102c0526108006040526107c091825269417175616d6172696e6560b01b6107e0526102e0919091526200026690600c9060146200064a565b50604080516102c08101825260076102808201818152660234646384330360cc1b6102a0840152825282518084018452818152660233030303030360cc1b60208281019190915280840191909152835180850185528281526611a3231818232360c91b818301528385015283518085018552828152660233830303030360cc1b81830152606084015283518085018552828152660233830383038360cc1b81830152608084015283518085018552828152662344423730393360c81b8183015260a084015283518085018552828152662337423638454560c81b8183015260c084015283518085018552828152662344433134334360c81b8183015260e08401528351808501855282815266119c209921229960c91b8183015261010084015283518085018552828152662330304345443160c81b8183015261012084015283518085018552828152660233830383030360cc1b8183015261014084015283518085018552828152660233139313937360cc1b8183015261016084015283518085018552828152660233030383038360cc1b8183015261018084015283518085018552828152660233030303038360cc1b818301526101a0840152835180850185528281526611999921a2199960c91b818301526101c084015283518085018552828152662345364536464160c81b818301526101e084015283518085018552828152662333434233373160c81b8183015261020084015283518085018552828152662332304232414160c81b8183015261022084015283518085018552828152662344323639314560c81b8183015261024084015283518085019094529083526608cdd19191910d60ca1b83820152610260820192909252620004ed919060146200064a565b50348015620004fb57600080fd5b5060405162004e2f38038062004e2f8339810160408190526200051e9162000873565b82518390839062000537906001906020850190620006a1565b5080516200054d906002906020840190620006a1565b50620005606380ac58cd60e01b620005c6565b62000572635b5e139f60e01b620005c6565b505060078054336001600160a01b03199182168117909255600980549091166001600160a01b0393909316929092179091556000908152600b60205260409020805460ff19166001179055506200093c9050565b6001600160e01b03198082169003620006255760405162461bcd60e51b815260206004820152601b60248201527f4552433136353a20496e76616c696420496e7465726661636549440000000000604482015260640160405180910390fd5b6001600160e01b0319166000908152602081905260409020805460ff19166001179055565b82601481019282156200068f579160200282015b828111156200068f57825180516200067e918491602090910190620006a1565b50916020019190600101906200065e565b506200069d9291506200072c565b5090565b828054620006af9062000900565b90600052602060002090601f016020900481019282620006d357600085556200071e565b82601f10620006ee57805160ff19168380011785556200071e565b828001600101855582156200071e579182015b828111156200071e57825182559160200191906001019062000701565b506200069d9291506200074d565b808211156200069d57600062000743828262000764565b506001016200072c565b5b808211156200069d57600081556001016200074e565b508054620007729062000900565b6000825580601f1062000783575050565b601f016020900490600052602060002090810190620007a391906200074d565b50565b634e487b7160e01b600052604160045260246000fd5b600082601f830112620007ce57600080fd5b81516001600160401b0380821115620007eb57620007eb620007a6565b604051601f8301601f19908116603f01168101908282118183101715620008165762000816620007a6565b816040528381526020925086838588010111156200083357600080fd5b600091505b8382101562000857578582018301518183018401529082019062000838565b83821115620008695760008385830101525b9695505050505050565b6000806000606084860312156200088957600080fd5b83516001600160401b0380821115620008a157600080fd5b620008af87838801620007bc565b94506020860151915080821115620008c657600080fd5b50620008d586828701620007bc565b604086015190935090506001600160a01b0381168114620008f557600080fd5b809150509250925092565b600181811c908216806200091557607f821691505b6020821081036200093657634e487b7160e01b600052602260045260246000fd5b50919050565b6144e3806200094c6000396000f3fe608060405234801561001057600080fd5b50600436106101165760003560e01c806370a08231116100a2578063b88d4fde11610071578063b88d4fde14610218578063c87b56dd14610226578063ccd2d6f514610239578063e2fc14fb1461024c578063e985e9c51461025f57600080fd5b806370a08231146101de5780638da5cb5b146101f157806395d89b4114610202578063a22cb4651461020a57600080fd5b806318160ddd116100e957806318160ddd1461019857806323b872dd146101aa5780633789f8d1146101b857806342842e0e146101aa5780636352211e146101cb57600080fd5b806301ffc9a71461011b57806306fdde0314610143578063081812fc14610158578063095ea7b314610183575b600080fd5b61012e610129366004611431565b61026d565b60405190151581526020015b60405180910390f35b61014b61027e565b60405161013a919061148b565b61016b6101663660046114be565b610310565b6040516001600160a01b03909116815260200161013a565b6101966101913660046114ee565b61032b565b005b6008545b60405190815260200161013a565b610196610191366004611518565b6101966101c6366004611554565b610344565b61016b6101d93660046114be565b6103da565b61019c6101ec366004611590565b610451565b6007546001600160a01b031661016b565b61014b6104d7565b610196610191366004611554565b6101966101913660046115c1565b61014b6102343660046114be565b6104e6565b610196610247366004611590565b61071f565b61019661025a366004611590565b6108db565b61012e61016636600461169d565b600061027882610997565b92915050565b60606001805461028d906116d0565b80601f01602080910402602001604051908101604052809291908181526020018280546102b9906116d0565b80156103065780601f106102db57610100808354040283529160200191610306565b820191906000526020600020905b8154815290600101906020018083116102e957829003601f168201915b5050505050905090565b6000604051633991fca960e21b815260040160405180910390fd5b604051633991fca960e21b815260040160405180910390fd5b336103576007546001600160a01b031690565b6001600160a01b0316146103865760405162461bcd60e51b815260040161037d9061170a565b60405180910390fd5b6001600160a01b0382166000818152600b6020526040808220805460ff191685151590811790915590519092917fc8fa0f05244aec5faf5a72346ef525e3e3bf52f240e55bd42d0c44f7ce14f9c391a35050565b6000818152600360205260408120546001600160a01b0316806102785760405162461bcd60e51b815260206004820152602960248201527f4552433732313a206f776e657220717565727920666f72206e6f6e657869737460448201526832b73a103a37b5b2b760b91b606482015260840161037d565b60006001600160a01b0382166104bb5760405162461bcd60e51b815260206004820152602960248201527f4552433732313a2061646472657373207a65726f206973206e6f7420612076616044820152683634b21037bbb732b960b91b606482015260840161037d565b506001600160a01b031660009081526004602052604090205490565b60606002805461028d906116d0565b6000818152600360205260409020546060906001600160a01b031661054d5760405162461bcd60e51b815260206004820152601f60248201527f455850657269656e6365204e46543a20496e76616c696420546f6b656e494400604482015260640161037d565b6000610558836103da565b6009546040516370a0823160e01b81526001600160a01b038084166004830152929350600092909116906370a0823190602401602060405180830381865afa1580156105a8573d6000803e3d6000fd5b505050506040513d601f19601f820116820180604052508101906105cc9190611753565b9050610717848284600c603454601481106105e9576105e961176c565b0180546105f5906116d0565b80601f0160208091040260200160405190810160405280929190818152602001828054610621906116d0565b801561066e5780601f106106435761010080835404028352916020019161066e565b820191906000526020600020905b81548152906001019060200180831161065157829003601f168201915b50505050506020603454601481106106885761068861176c565b018054610694906116d0565b80601f01602080910402602001604051908101604052809291908181526020018280546106c0906116d0565b801561070d5780601f106106e25761010080835404028352916020019161070d565b820191906000526020600020905b8154815290600101906020018083116106f057829003601f168201915b50505050506109d3565b949350505050565b336000908152600b602052604090205460ff1615156001146107835760405162461bcd60e51b815260206004820152601f60248201527f455850657269656e63653a20596f75277265206e6f7420616e2061646d696e00604482015260640161037d565b600954600a80546001600160a01b0319166001600160a01b039283169081179091556040516370a0823160e01b815291831660048301526000916370a0823190602401602060405180830381865afa1580156107e3573d6000803e3d6000fd5b505050506040513d601f19601f820116820180604052508101906108079190611753565b9050600081116108655760405162461bcd60e51b8152602060048201526024808201527f455850657269656e63653a20496e73756666696369656e74204558502062616c604482015263616e636560e01b606482015260840161037d565b6000610872600143611798565b4090506108806014826117c5565b60345560088054906000610893836117d9565b909155506108a18482610af6565b6040516001600160a01b038516907fbd6e4913107c69e3c4fa02301595d1f386394fbefad6b73a2dbc6463ee96a19a90600090a250505050565b336108ee6007546001600160a01b031690565b6001600160a01b0316146109145760405162461bcd60e51b815260040161037d9061170a565b6001600160a01b0381166109755760405162461bcd60e51b815260206004820152602260248201527f496e76616c69642045585020546f6b656e20436f6e7472616374206164647265604482015261737360f01b606482015260840161037d565b600980546001600160a01b0319166001600160a01b0392909216919091179055565b60006301ffc9a760e01b6001600160e01b0319831614806102785750506001600160e01b03191660009081526020819052604090205460ff1690565b60606109e7670de0b6b3a7640000866117f2565b945060006109f58684610b14565b90506000610a2182604051602001610a0d9190611822565b604051602081830303815290604052610bf9565b604051602001610a3191906118c0565b60405160208183030381529060405290506000610a4d89610d4c565b610a5689610d4c565b87610a608b610e4d565b604051602001610a7394939291906118fe565b6040516020818303038152906040529050600081610a99896001600160a01b0316610f60565b8585604051602001610aae9493929190611b2f565b6040516020818303038152906040529050610ac881610bf9565b604051602001610ad89190611bcb565b60405160208183030381529060405294505050505095945050505050565b610b10828260405180602001604052806000815250610fb7565b5050565b60606000610bce604051806101a00160405280610178815260200161423f61017891398460405180610120016040528060f781526020016143b760f791398660405180610340016040528061031381526020016126676103139139610b788a610fc6565b60405180610240016040528061020d815260200161245a61020d9139610b9d8c610d4c565b604051806060016040528060288152602001611d6560289139604051602001610a0d99989796959493929190611c10565b905080604051602001610be19190611cd1565b60405160208183030381529060405291505092915050565b60608151600003610c1857505060408051602081019091526000815290565b600060405180606001604052806040815260200161297a6040913990506000600384516002610c479190611d16565b610c5191906117f2565b610c5c906004611d2e565b67ffffffffffffffff811115610c7457610c746115ab565b6040519080825280601f01601f191660200182016040528015610c9e576020820181803683370190505b509050600182016020820185865187015b80821015610d0a576003820191508151603f8160121c168501518453600184019350603f81600c1c168501518453600184019350603f8160061c168501518453600184019350603f8116850151845350600183019250610caf565b5050600386510660018114610d265760028114610d3957610d41565b603d6001830353603d6002830353610d41565b603d60018303535b509195945050505050565b606081600003610d735750506040805180820190915260018152600360fc1b602082015290565b8160005b8115610d9d5780610d87816117d9565b9150610d969050600a836117f2565b9150610d77565b60008167ffffffffffffffff811115610db857610db86115ab565b6040519080825280601f01601f191660200182016040528015610de2576020820181803683370190505b5090505b841561071757610df7600183611798565b9150610e04600a866117c5565b610e0f906030611d16565b60f81b818381518110610e2457610e2461176c565b60200101906001600160f81b031916908160001a905350610e46600a866117f2565b9450610de6565b6060600082118015610e60575060148211155b15610e895750506040805180820190915260088152672bb0b73232b932b960c11b602082015290565b601482118015610e9a575060288211155b15610ec25750506040805180820190915260078152662334b3b43a32b960c91b602082015290565b602882118015610ed35750603c8211155b15610f0157505060408051808201909152600d81526c5265766f6c7574696f6e61727960981b602082015290565b603c82118015610f12575060508211155b15610f3c5750506040805180820190915260098152684c6567656e6461727960b81b602082015290565b505060408051808201909152600381526211dbd960ea1b602082015290565b919050565b606081600003610f8a5750506040805180820190915260048152630307830360e41b602082015290565b8160005b8115610fad5780610f9e816117d9565b915050600882901c9150610f8e565b61071784826110ca565b610fc1838361126d565b505050565b6060600082118015610fd9575060148211155b15611000576040518061046001604052806104348152602001613e0b610434913992915050565b601482118015611011575060288211155b1561103857604051806106a00160405280610674815260200161317e610674913992915050565b6028821180156110495750603c8211155b156110705760405180610640016040528061061981526020016137f2610619913992915050565b603c82118015611081575060508211155b156110a8576040518061080001604052806107c481526020016129ba6107c4913992915050565b6040518061070001604052806106cd8152602001611d8d6106cd913992915050565b606060006110d9836002611d2e565b6110e4906002611d16565b67ffffffffffffffff8111156110fc576110fc6115ab565b6040519080825280601f01601f191660200182016040528015611126576020820181803683370190505b509050600360fc1b816000815181106111415761114161176c565b60200101906001600160f81b031916908160001a905350600f60fb1b816001815181106111705761117061176c565b60200101906001600160f81b031916908160001a9053506000611194846002611d2e565b61119f906001611d16565b90505b6001811115611217576f181899199a1a9b1b9c1cb0b131b232b360811b85600f16601081106111d3576111d361176c565b1a60f81b8282815181106111e9576111e961176c565b60200101906001600160f81b031916908160001a90535060049490941c9361121081611d4d565b90506111a2565b5083156112665760405162461bcd60e51b815260206004820181905260248201527f537472696e67733a20686578206c656e67746820696e73756666696369656e74604482015260640161037d565b9392505050565b6001600160a01b0382166112c35760405162461bcd60e51b815260206004820181905260248201527f4552433732313a206d696e7420746f20746865207a65726f2061646472657373604482015260640161037d565b6000818152600360205260409020546001600160a01b0316156113285760405162461bcd60e51b815260206004820152601c60248201527f4552433732313a20746f6b656e20616c7265616479206d696e74656400000000604482015260640161037d565b6001600160a01b038216600090815260046020526040902054156113aa5760405162461bcd60e51b815260206004820152603360248201527f4552433732313a204f6e6c79206f6e6520455850657269656e636556696577656044820152727220284e46542920706572206164647265737360681b606482015260840161037d565b6001600160a01b03821660009081526004602052604081208054600192906113d3908490611d16565b909155505060008181526003602052604080822080546001600160a01b0319166001600160a01b03861690811790915590518392907fddf252ad1be2c89b69c2b068fc378daa952ba7f163c4a11628f55a4df523b3ef908290a45050565b60006020828403121561144357600080fd5b81356001600160e01b03198116811461126657600080fd5b60005b8381101561147657818101518382015260200161145e565b83811115611485576000848401525b50505050565b60208152600082518060208401526114aa81604085016020870161145b565b601f01601f19169190910160400192915050565b6000602082840312156114d057600080fd5b5035919050565b80356001600160a01b0381168114610f5b57600080fd5b6000806040838503121561150157600080fd5b61150a836114d7565b946020939093013593505050565b60008060006060848603121561152d57600080fd5b611536846114d7565b9250611544602085016114d7565b9150604084013590509250925092565b6000806040838503121561156757600080fd5b611570836114d7565b91506020830135801515811461158557600080fd5b809150509250929050565b6000602082840312156115a257600080fd5b611266826114d7565b634e487b7160e01b600052604160045260246000fd5b600080600080608085870312156115d757600080fd5b6115e0856114d7565b93506115ee602086016114d7565b925060408501359150606085013567ffffffffffffffff8082111561161257600080fd5b818701915087601f83011261162657600080fd5b813581811115611638576116386115ab565b604051601f8201601f19908116603f01168101908382118183101715611660576116606115ab565b816040528281528a602084870101111561167957600080fd5b82602086016020830137600060208483010152809550505050505092959194509250565b600080604083850312156116b057600080fd5b6116b9836114d7565b91506116c7602084016114d7565b90509250929050565b600181811c908216806116e457607f821691505b60208210810361170457634e487b7160e01b600052602260045260246000fd5b50919050565b60208082526029908201527f455850546f6b656e2028416363657373436f6e74726f6c293a204e6f742061756040820152683a3437b934bd32b21760b91b606082015260800190565b60006020828403121561176557600080fd5b5051919050565b634e487b7160e01b600052603260045260246000fd5b634e487b7160e01b600052601160045260246000fd5b6000828210156117aa576117aa611782565b500390565b634e487b7160e01b600052601260045260246000fd5b6000826117d4576117d46117af565b500690565b6000600182016117eb576117eb611782565b5060010190565b600082611801576118016117af565b500490565b6000815161181881856020860161145b565b9290920192915050565b7f3c21444f43545950452068746d6c3e3c68746d6c3e3c6f626a6563742074797081527f653d22696d6167652f7376672b786d6c2220646174613d22000000000000000060208201526000825161188081603885016020870161145b565b7f2220616c743d22455850657269656e6365223e3c2f6f626a6563743e3c2f687460389390910192830152506236b61f60e91b6058820152605b01919050565b7519185d184e9d195e1d0bda1d1b5b0ed8985cd94d8d0b60521b8152600082516118f181601685016020870161145b565b9190910160160192915050565b7f7b20226e616d65223a2022455850657269656e6365204e4654202300000000008152600160fd1b601b8201526000855161194081601c850160208a0161145b565b7f222c20226465736372697074696f6e223a2022455850657269656e6365204e46601c918401918201527f542e2050617274206f662045746865726e6175742044414f20626f756e746965603c8201527f732e20536f756c626f756e6420746f6b656e2f61737365742065787065726965605c8201527f6e6365207468726f7567682045585020546f6b656e20616e6420455850657269607c8201526b032b731b29027232a171116160a51b609c8201527f2265787465726e616c5f75726c223a202268747470733a2f2f6769746875622e60a88201527f636f6d2f536f6c4465762d48502f455850657269656e63655f47616d6522000060c8820152611b24611b09611b03611ada611ad4611aab611aa560e688017f2c202261747472696275746573223a205b7b2274726169745f74797065223a2081527f224558502042616c616e6365222c202276616c7565223a202200000000000000602082015260390190565b8c611806565b7f222c2022436f6c6f72697a65642d6279222c202276616c7565223a20220000008152601d0190565b89611806565b7f222c20224558502d5374616765222c202276616c7565223a20220000000000008152601a0190565b86611806565b6e113eae96101137bbb732b9111d101160891b8152600f0190565b979650505050505050565b600085516020611b428285838b0161145b565b865191840191611b558184848b0161145b565b6b1116101134b6b0b3b2911d1160a11b92019182528551611b7c81600c8501848a0161145b565b731116101130b734b6b0ba34b7b72fbab936111d1160611b600c93909101928301528451611baf8183850184890161145b565b61227d60f01b9201908101919091526022019695505050505050565b7f646174613a6170706c69636174696f6e2f6a736f6e3b6261736536342c000000815260008251611c0381601d85016020870161145b565b91909101601d0192915050565b60008a51611c22818460208f0161145b565b8a51611c348183860160208f0161145b565b8a519184010190611c49818360208e0161145b565b8951611c5b8183850160208e0161145b565b8951929091010190611c71818360208c0161145b565b8751611c838183850160208c0161145b565b8751929091010190611c99818360208a0161145b565b8551611cab8183850160208a0161145b565b8551929091010190611cc181836020880161145b565b019b9a5050505050505050505050565b7f646174613a696d6167652f7376672b786d6c3b6261736536342c000000000000815260008251611d0981601a85016020870161145b565b91909101601a0192915050565b60008219821115611d2957611d29611782565b500190565b6000816000190483118215151615611d4857611d48611782565b500290565b600081611d5c57611d5c611782565b50600019019056fe3c2f6469763e3c2f6469763e3c2f6469763e3c2f666f726569676e4f626a6563743e3c2f7376673e3c737667206865696768743d223131357078222077696474683d22313235707822202076696577426f783d2230203020353132203531322220786d6c6e733d22687474703a2f2f7777772e77332e6f72672f323030302f737667223e3c706174682066696c6c3d22236666662220643d224d3236302e37322032392e303934632d35342e35333320302d39382e39372032312e3730342d39382e39372034382e33313220302032362e36312034342e3433372034382e32382039382e39372034382e32382035342e353320302039382e3936372d32312e36372039382e3936372d34382e3238533331352e32352032392e303934203236302e37322032392e3039347a6d302031332e32356334302e303720302037312e38312031352e3530382037312e38312033352e303632732d33312e37342033352e34372d37312e38312033352e3437632d34302e30373320302d37322e36392d31352e3931362d37322e36392d33352e343720302d31392e3535322033322e3631372d33352e3036342037322e36392d33352e3036327a4d38362e35332035372e313837632d31332e3234322d2e3039342d33322e3233342031342e35392d34322e33312033372e3638382d34332e332039392e3234342d392e353833203335392e3639352038372e383734203335312e39372d32322e3030322d35302e3439322d34332e382d3130372e3938332d35362e37322d3136382e37352032362e3333372037322e3439342037322e3333203133352e3538203131372e383435203132302e3138362d33322e3031372d34302e3138352d36362e3034382d38372e3236352d39302e3033322d3134302e3334322033352e3031362035392e3137352038352e3337203130352e383533203132332e30332038352e352d32392e3734322d32362e3538332d36312e3536382d35372e3532342d38382e3831322d39332e32352033392e3634372033372e33382038372e3039322036312e3334203131322e32352033372e37352d34372e36392d32312e30372d39342e33372d35332e36372d3132352e3036322d38392e37352d31362e3331322d31392e3137362d32382e3139352d33392e33392d33322e37322d36302d322e32362d31302e3330362d322e3530382d32302e3739362d2e3436382d33302e3933382e30322d2e3039352e3034332d2e3138362e3036332d2e32382e3030372d2e3034342e3032322d2e3038332e30332d2e31323620342e30352d32312e3236352031352e3034332d33352e34313320342e352d34352e39372d322e3438342d322e3438372d352e37362d332e36362d392e34372d332e3638377a6d3334372e3635382030632d332e37312e3032372d362e39353420312e322d392e34333820332e3638382d382e31373620382e3138362d332e3431362031382e35363420312e30332033322e373220362e3135332031342e31383720372e3134342032392e35363620332e3834352034342e3539332d342e3532342032302e36312d31362e34342034302e3832342d33322e37352036302d33302e3739382033362e3230362d37372e36372036382e3930372d3132352e35332038392e3936382032352e32322032332e3230382037322e3438322d2e3731203131322d33372e39372d32372e3234352033352e3732382d35392e30372036362e36372d38382e3831342039332e32352033372e3636322032302e3335352038382e3031362d32362e333233203132332e3033332d38352e3439382d32332e3938352035332e3037372d35382e303136203130302e3135372d39302e303332203134302e3334332034352e3531352031352e3339352039312e3437382d34372e3639203131372e3831342d3132302e3138362d31322e3931382036302e3736382d33342e363836203131382e32362d35362e363838203136382e37352039372e34353720372e373236203133312e3134322d3235322e3732352038372e3834342d3335312e39372d31302e3037372d32332e3039372d32392e30372d33372e37382d34322e3331332d33372e3638367a6d2d32322e32322037332e3937632d3130302e3339372036382e3232382d3230302e3733332038322e3436322d3330312e323520352e34363820342e30322031352e3635352031332e38392033322e3733332032382e3132362034392e34372032382e3932322033342037352e34382036362e333738203132312e3930362038362e33312034362e3432362d31392e3933322039322e3938342d35322e3331203132312e3930362d38362e33312031342e39382d31372e3631332032352e3133382d33352e3539342032382e37322d35312e3930372e3232332d312e30322e3431362d322e3032372e3539332d332e3033327a222f3e3c2f7376673e3c2f6469763e3c64697620636c6173733d22746578742220786d6c6e733d22687474703a2f2f7777772e77332e6f72672f313939392f7868746d6c223e20203c73766720783d22302220793d2230222076696577426f783d2230203020333030203330302220656e61626c652d6261636b67726f756e643d226e65772030203020333030203330302220786d6c3a73706163653d2270726573657276652220786d6c6e733d22687474703a2f2f7777772e77332e6f72672f323030302f737667223e203c646566733e203c706174682069643d22636972636c65506174682220643d22204d203135302c20313530206d202d3132302c20302061203132302c313230203020302c31203234302c302061203132302c313230203020302c31202d3234302c30202220202f3e203c2f646566733e203c673e203c746578743e203c746578745061746820687265663d2223636972636c65506174682220786d6c3a73706163653d227072657365727665223e455850657269656e6365204e4654212020202020202020202020202020202020466f722e45746865726e61757444414f2020203c2f74657874506174683e3c2f746578743e3c2f673e3c2f7376673e3c2f6469763e3c64697620636c6173733d22627574746f6e2220786d6c6e733d22687474703a2f2f7777772e77332e6f72672f313939392f7868746d6c223e5b4558505d204c6576656c202d203b20626f726465723a2032707820736f6c69643b20616e696d6174696f6e3a20736c69646520312e347320656173652d696e2d6f757420696e66696e6974653b20637572736f723a20706f696e7465723b7d202e627574746f6e3a686f766572207b20636f6c6f723a20233030303b206261636b67726f756e643a20236666663b20626f726465722d636f6c6f723a20233030303b7d20406b65796672616d657320736c696465207b203025207b207472616e73666f726d3a207472616e736c61746558283130707829207d20353025207b7472616e73666f726d3a207472616e736c61746558282d3130707829207d2031303025207b207472616e73666f726d3a207472616e736c61746558283130707829207d7d202e74657874207b20706f736974696f6e3a206162736f6c7574653b20746f703a20303b206c6566743a20303b2077696474683a20313030253b206865696768743a20313030253b20666f6e742d73697a653a20323470783b20666f6e742d7765696768743a20626f6c643b20746578742d7472616e73666f726d3a207570706572636173653b20616e696d6174696f6e3a20726f7461746520313473206c696e65617220696e66696e6974653b2066696c6c3a20236666663b7d20406b65796672616d657320726f74617465207b2066726f6d207b207472616e73666f726d3a20726f746174652830293b207d20746f207b207472616e73666f726d3a20726f7461746528333630646567293b207d7d205d5d3e203c2f7374796c653e203c666f726569676e4f626a65637420783d22302220793d2230222077696474683d2233303022206865696768743d22333030223e203c64697620636c6173733d2263656e7465722220786d6c6e733d22687474703a2f2f7777772e77332e6f72672f313939392f7868746d6c223e3c64697620636c6173733d22636972636c652220786d6c6e733d22687474703a2f2f7777772e77332e6f72672f313939392f7868746d6c223e3c64697620636c6173733d226c6f676f2220786d6c6e733d22687474703a2f2f7777772e77332e6f72672f313939392f7868746d6c223e4142434445464748494a4b4c4d4e4f505152535455565758595a6162636465666768696a6b6c6d6e6f707172737475767778797a303132333435363738392b2f3c7376672076696577426f783d22302030203530302035303022206865696768743d22313235222077696474683d223132352220786d6c3a73706163653d2270726573657276652220786d6c6e733d22687474703a2f2f7777772e77332e6f72672f323030302f737667223e3c706174682066696c6c3d22234646462220643d224d3138382e382032302e3338632d352e332032362e383520342e362035352e37342033342e312038362e35322031312e322d372e32392033312e362d31302e39342035302d382e31362d34362d32322e33312d36362e352d34372e31332d38342e312d37382e33367a4d32392e31392032362e36324334332e35362037332e30382038312e3039203132382e38203132392e36203136382e332039332e3531203136362034392e3933203135332e312031382e3736203134336332342e39362033352e322036342e31372035322e39203130332e33342036362e334339372e3133203232372036362e3939203234352031382e3636203234386335342e36342031392e32203130372e353420382e39203133312e33342e372d31372e392033342e392d3130302e37322036362e322d3132322e33312037372035332e323620342e32203132312e37312d3131203136372e30312d33322e392031302032342e362d312e362035332e322d31302e312037372e382d312e3920342e352d332e3820382e392d352e372031332e3320352e312d332e352031302e312d372031342e392d31302e362032332e362d31362e322034372e382d33312e392035392e352d35382e382032362e312033312e322036322e372036322e31203130372038352e342031372e342032322e312032382e332034392033342e322037332e3820382e332d31392e312031332e382d34302e3220392e372d36302e332032342e352d332e362033352e362d32392e372033352e352d35342e342d31322e3620362e322d31352e3120362e332d33312e3220382e3220302d31302e312e362d31322e352d332d32382e372d31302e3320382e342d32312031312e322d33302e382031312e3820322e312d372e3620332d31392e3520332e372d32372e332d313320372e312d31392e3220392e372d33302e312031302e382d2e342d31302e392d2e312d32302d342e312d33302e342d32392e362031392d34382e3620312e352d36382d32312e332031392e382d31372039362e342d32312e382039352e3120372e312031342d372e332031382e382d31312e322032332e362d31352e3920392e3120382e352031332e342032302e392031352e312033312e3420392e332d392e342031302e332d31302e352031372e312d32332e3820352e372031302e3120382e382031372031302e372033302e3620382e352d362e322031352e342d31332e312031392e382d32312e3420372e352031352e3520382e332031362031322e342033332031372e382d31332e312032312e382d33312e322032322e382d34372e3620322d33332d2e332d3130382e322d33312d3134322e3920312e372033362e332d31332e312037302d33332e382038302e372d31322e3620342e392d39362e352d37342e362d3133372e362d39332e332d32332e352d31302e322d34382e3120372e312d36372e3820392e3343313437203130362e322038332e35372037302e39342032392e31392032362e36327a4d3239362e31203135322e386331332e332032302e392033322e322033362e392036302e312035352d31392e3420322e392d36352e382d362e372d37372e372d32342d352e352d372e3920372e312d32312e332031372e362d33317a4d3138302e36203331392e31632d31342e3420362e322d32392e322031302e392d34332e382031342e332d322e3420332e362d342e3620372e312d362e372031302e352031342e3820352e332033312e3520372034342e3120322e3820332e332d392e3820352e352d31392e3320362e342d32372e367a6d2d36382031392e312d31302e3220312e35632d33312e38312033362e362d36312e39203130332e322d34382e3234203135312e396833362e3133632d31312e31322d33372e372d31362e35332d38372e312032322e33312d3135332e347a6d382e352032312e35632d352e392031312e342d31302e342032322e312d31332e382033322e312031322e3920362e372032392e3120382e392034342e3820382e3220342e362d31302e3520392e382d32312e382031342e362d33332e332d31352e3420312e382d33312e342d312e342d34352e362d377a6d3131312e3420362e36632d31322031302e352d32352e322032302e332d33382e392032392e3620372033342033332e342036332e342037332e392039352e376838332e33632d35372e322d33312e382d39342e362d37332e332d3131382e332d3132352e337a6d2d3133302034332e32632d322e352031312e382d332e332032322e372d332033322e392033372e332031342e322036322e352031332e352039372e3520342e312d372e322d31302e332d31332d32312d31362e392d33322e332d33322e3720392e342d35352e3420352e372d37372e362d342e377a6d3130362e362035322e34632d33382e312031302e392d36382e382031332e322d3130372e352e3320312e382031302e3420342e352032302e3120372e352032392e34683133302e31632d31312e332d392e382d32312e342d31392e362d33302e312d32392e377a222f3e3c2f7376673e3c7376672077696474683d22313235707822206865696768743d223132357078222076696577426f783d2230203020353132203531322220786d6c6e733d22687474703a2f2f7777772e77332e6f72672f323030302f737667223e3c706174682066696c6c3d22236666662220643d224d3236312e36312031372e303836632d312e35342d2e3034322d332e31322e3132372d342e3635372e3132372d31322e303920302d32332e333520342e3630382d33322e3735382031322e3531326c2d34372e3034352d392e3733372032352e3834362034302e393232632d312e35383520342e3330322d322e383720382e38322d332e3830332031332e35324c3135332e332039332e3932346c34362e3333332031392e36383563322e3931362031332e30303320382e3439332032342e3630342031352e38332033332e3830382d382e343420312e33312d31362e303620332e3931372d32322e39303420372e3633376c2d36312e382d33342e3931362033342e3437342036312e303338632d342e32373320362e36322d372e3838372031342e30312d31302e3838362032322e30316c2d37322e3532362e3637352036332e3238332033372e3334632d312e31383420382e3634332d312e3839372031372e3630342d322e3136372032362e37376c2d36352e3331372031382e31362036362e3436362031382e34383263312e30312031312e34363220322e3539322032322e39383520342e37332033342e3335386832322e36396c2d312e3032342d3130342e33382031382e3638382d2e31383320312e303834203131302e34393220312e3034372031352e3838372d36302e39392032322e3838382036332e3237322031312e37333220322e3732332034312e3330352d35352e3137382032302e3730372035372e3234322031302e36313520312e3634362032342e3937356834352e3637762d3137342e36336831382e363837763137342e36336834352e3534356c312e3832382d32342e35352035392e3532342d31312e30342d35372e3130342d32312e343320332d34302e3237372036342e3932322d31322e3033372d36322e3238332d32332e33373320312e33382d31382e35343520312e3035332d3130372e33352031382e36392e3138342d312e303236203130342e33386832342e37343463322e3336352d31312e33393320342e3033372d32322e38313720352e3033322d33342e3130336c36372e3338362d31382e3733372d36362e3631332d31382e3532632d2e34332d382e3730382d312e3330332d31372e3139382d322e36322d32352e33386c36352e30332d33382e33372d37352e3737322d2e373037632d322e3736352d362e3637362d352e3934332d31322e39312d392e35342d31382e36316c33362e3337362d36342e3430372d36342e33372033362e333638632d362e3638372d332e39312d31342e3031372d362e3730362d32312e3939352d382e32303720372e37322d392e3331332031332e36312d32312e3135342031362e36362d33342e3532336c34362e37332d31392e3835332d34362e3236362d31392e363533632d2e38342d342e32322d312e3934332d382e3330372d332e3330372d31322e3231376c32362e3536362d34322e3036352d34372e363820392e3837632d372e3930352d362e3835332d31372e31352d31312e3334382d32372e3133322d31322e3634352d2e352d2e3037352d312e3030382d2e3131332d312e35322d2e3132377a6d2d342e38372031382e3834346331302e36313720302032302e35353620352e36392032382e3337372031362e31393320362e31393620382e3332322031302e3732372031392e3537322031322e3334382033322e333037682d33312e3333386c2e3030322031382e36396833312e353534632d312e3339352031332e3531342d362e3036352032352e34372d31322e3536372033342e3230342d372e38322031302e3530352d31372e37362031362e3139342d32382e3337372031362e3139342d31302e36313720302d32302e3535362d352e36392d32382e3337372d31362e3139342d362e3530322d382e3733332d31312e3137322d32302e36392d31322e3536362d33342e3230356833312e3634326c2d2e3030322d31382e3639682d33312e34323263312e36322d31322e37333520362e31352d32332e3938352031322e3334372d33322e33303720372e38322d31302e3530342031372e37362d31362e3139332032382e3337372d31362e3139337a222f3e3c2f7376673e3c7376672077696474683d22313235707822206865696768743d223132357078222076696577426f783d2230203020353132203531322220786d6c6e733d22687474703a2f2f7777772e77332e6f72672f323030302f737667223e3c706174682066696c6c3d22236666662220643d224d3139352e33362032332e3636366c32382e3832342039352e3535332038392e32372036392e303635632d2e33322d2e3033382d2e3634322d2e30372d2e3936322d2e3130354c31332e3837322036352e376c3133382e3138203133392e3430342039332e3539382d392e363132632d2e3730332e3234342d312e3430332e3439352d322e312e373438762d2e3337336c2d3232352e3831322039342e3435203131332e3334342e352033312e3732332d33302e3839372d31322e3830372033302e39382e3236362e3030322d36322e383436203135332e3231352034332e32392d34322e39312031342e32342d34302e3633632e36313820342e33343420312e34313620382e36333620322e3339382031322e3836326c2e333620322e3839362d2e3232322d2e30362031322e3532322039322e3633382031312e34352d34312e39396332352e33392033352e3732322036352e3936382036302e3233203131332e312036332e35363220322e3939352e32313220352e3937352e33323820382e39342e3336362d35372e3234372d31382e3433342d3130302e3231362d37322e37332d39352e36332d3133352e38343620342e32382d35382e38372035322e34342d3130392e313937203131322d3131302e33323820332e3937322d2e30373620372e3939342e3036372031322e3035362e34342035322e363120342e38342039372e3136372035312e3130322039302e373137203130352e3830322d352034322e3339372d34332e3339332037382e3335362d38382e3132322037312e3230332d31362e32342d322e3539362d33302e3939322d31312e3336332d34312e30342d32332e3932382d31302e3034372d31322e3536342d31352e3330322d32392e3433332d31312e32342d34362e383520322e3635322d31312e33363720392e3537322d32312e3536322031392e3139342d32382e323920392e36322d362e37332032322e3736352d392e37322033352e3335352d342e363932682e30303263372e30313320322e382031322e35393720382e3034362031362e31372031352e313720312e37383820332e35363220332e30303720372e373820322e3536332031322e3435332d2e34343320342e3637322d322e38393420392e3535322d362e3738332031322e39376c2d31322e33342d31342e303334632e37332d2e36342e352d2e3437382e35322d2e3730332e30322d2e3232362d2e30352d312e3038362d2e3636322d322e3330382d312e3232362d322e3434332d342e3838322d352e3538372d362e342d362e3139332d362e3336362d322e3534332d31322e31332d312e3235372d31372e37313720322e36352d352e35383820332e39312d31302e3138322031302e3731332d31312e372031372e3232322d322e3637362031312e34372e35382032322e313120372e3633342033302e393320372e30353620382e3832342031382031352e3332362032392e3339352031372e3134382033332e323720352e33322036322e37372d32322e33372036362e36312d35342e39333820352e31322d34332e3431382d33312e31332d38312e3037332d37332e38372d38352e3030332d35332e39322d342e3936342d39392e3836362033392e3831352d3130332e3730342039322e36332d342e3636362036342e322034392e3037203131382e353133203131322e3338203132322e3330322037342e393120342e343833203133372e3732342d35372e393832203134312e3239322d3133312e35363220312e3238362d32362e35322d342e38352d35332e3330382d31372e33342d37362e38336c322e3037362d312e313032632d32302e3938322d35382e3530362d36372e3538322d3135352e3731332d36372e3538322d3135352e3731336c2d2e31322036312e3638322d34392e3535382d38342e383420372e3231332035302e382033332e3233382035332e3038334c3139352e33362032332e3636367a222f3e3c2f7376673e3c7376672077696474683d22313235707822206865696768743d223132357078222076696577426f783d2230203020353132203531322220786d6c6e733d22687474703a2f2f7777772e77332e6f72672f323030302f737667223e3c706174682066696c6c3d22236666662220643d224d3235372e36352031392e3033336c2d34372e3535322038352e353938632d35312e35332031362e3031362d39312e382035372e3637382d3130352e383737203131302e3032364c33332e343037203235322e32356c36392e3237362033382e34383663352e3934322032362e33332031382e3435362035302e31382033352e3732322036392e37333720352e36332d372e3935322031322e3433382d31352e30352032302e3534372d32312e3136322d31392e31392d32322e3531332d33302e3739342d35312e3638322d33302e3739342d38332e353120302d37312e3037342035372e3833382d3132382e343838203132382e3931322d3132382e3438382037312e3037372030203132382e34392035372e343132203132382e3439203132382e343920302033302e3030362d31302e3233342035372e36352d32372e3430382037392e35383320382e35323520352e38382031352e3631322031322e3739352032312e3431332032302e3539322031352e3137362d31382e3533322032362e3233352d34302e3536332033312e37372d36342e3639326c37302e3236332d33392e3033352d37312e3832362d33382e3133632d31342e3331322d35322e3437352d35342e3936382d39342e3132332d3130362e3835362d3130392e3832354c3235372e36352031392e3033337a6d2e323636203135302e3333632d31372e353620302d33332e36383620392e30322d34352e3930322032342e3634372d31322e3231372031352e3632362d32302e30392033372e3735342d32302e30392036322e33373320302032362e313220392e3231382034392e3334332032322e3834362036352e3134386c31302e31342031312e37362d31352e313420332e343532632d33382e30323720382e36372d35352e3936322032362e3339362d36362e34382035342e3236382d392e3738382032352e3933342d31312e37352036312e36372d31312e3939203130342e323336683235342e343733632d2e3034372d34322e37342d2e36362d37392e3334382d392e3638332d3130352e3831342d392e3639332d32382e3433322d32372e31312d34362e33382d36372e39392d35342e33386c2d31352e3237322d322e393920392e3831372d31322e3037366331322e3737382d31352e3731382032312e3236372d33382e3430342032312e3236372d36332e36303320302d32342e36322d372e3837352d34362e3734372d32302e3039322d36322e3337332d31322e3231362d31352e3632362d32382e3334332d32342e3634372d34352e3930322d32342e363437682d2e3030327a222f3e3c2f7376673e3c73766720786d6c6e733d22687474703a2f2f7777772e77332e6f72672f323030302f737667222076696577426f783d223020302033303020333030223e203c7374796c6520747970653d22746578742f637373223e203c215b43444154415b202a2c202a3a6265666f72652c202a3a6166746572207b20626f782d73697a696e673a20626f726465722d626f783b7d20626f6479207b206865696768743a2031303076683b206261636b67726f756e643a20233030303b7d202e63656e746572207b206865696768743a20313030253b20646973706c61793a20666c65783b20616c69676e2d6974656d733a2063656e7465723b206a7573746966792d636f6e74656e743a2063656e7465723b20746578742d616c69676e3a2063656e7465723b7d202e636972636c65207b20706f736974696f6e3a2072656c61746976653b2077696474683a2032303070783b206865696768743a2032303070783b20636f6c6f723a20236666663b206261636b67726f756e643a203b20626f726465722d7261646975733a203530253b20626f726465723a2032707820736f6c69643b7d202e6c6f676f207b20666f6e742d73697a653a2031323570783b206c696e652d6865696768743a2031393070783b20766572746963616c2d616c69676e3a206d6964646c653b7d202e627574746f6e207b20706f736974696f6e3a206162736f6c7574653b20626f74746f6d3a203070783b206c6566743a20303b2072696768743a20303b2070616464696e673a203870783b20666f6e742d7765696768743a20626f6c643b20746578742d7472616e73666f726d3a207570706572636173653b206261636b67726f756e643a20a2646970667358221220c847d65f7a76ba559748d9f5fcb6f00fcbd95c53bf6bba6a424b6d9e1d28fb5d64736f6c634300080d0033","bytecodeSha1":"988b3576c8fa297215d905304418a2b70ec0f0fa","compiler":{"evm_version":"istanbul","optimizer":{"enabled":true,"runs":200},"version":"0.8.13+commit.abaa5c0e"},"contractName":"EXPerienceNFT","language":"Solidity","natspec":{"kind":"dev","methods":{"approve(address,uint256)":{"details":"functions that are restricted  Overridden from ERC721 and modifier to reflect  Soulbound nature of the NFT"},"balanceOf(address)":{"details":"See {IERC721-balanceOf}. It'll always be between 0 and 1. We'll limit single nft per address"},"name()":{"details":"See {IERC721Metadata-name}."},"owner()":{"details":"Public function to check owner ","returns":{"_0":"address of the owner of this contract"}},"ownerOf(uint256)":{"details":"See {IERC721-ownerOf}."},"supportsInterface(bytes4)":{"details":"See {IERC165-supportsInterface}."},"symbol()":{"details":"See {IERC721Metadata-symbol}."}},"version":1},"opcodes":"PUSH1 0x80 PUSH1 0x40 MSTORE CALLVALUE DUP1 ISZERO PUSH2 0x10 JUMPI PUSH1 0x0 DUP1 REVERT JUMPDEST POP PUSH1 0x4 CALLDATASIZE LT PUSH2 0x116 JUMPI PUSH1 0x0 CALLDATALOAD PUSH1 0xE0 SHR DUP1 PUSH4 0x70A08231 GT PUSH2 0xA2 JUMPI DUP1 PUSH4 0xB88D4FDE GT PUSH2 0x71 JUMPI DUP1 PUSH4 0xB88D4FDE EQ PUSH2 0x218 JUMPI DUP1 PUSH4 0xC87B56DD EQ PUSH2 0x226 JUMPI DUP1 PUSH4 0xCCD2D6F5 EQ PUSH2 0x239 JUMPI DUP1 PUSH4 0xE2FC14FB EQ PUSH2 0x24C JUMPI DUP1 PUSH4 0xE985E9C5 EQ PUSH2 0x25F JUMPI PUSH1 0x0 DUP1 REVERT JUMPDEST DUP1 PUSH4 0x70A08231 EQ PUSH2 0x1DE JUMPI DUP1 PUSH4 0x8DA5CB5B EQ PUSH2 0x1F1 JUMPI DUP1 PUSH4 0x95D89B41 EQ PUSH2 0x202 JUMPI DUP1 PUSH4 0xA22CB465 EQ PUSH2 0x20A JUMPI PUSH1 0x0 DUP1 REVERT JUMPDEST DUP1 PUSH4 0x18160DDD GT PUSH2 0xE9 JUMPI DUP1 PUSH4 0x18160DDD EQ PUSH2 0x198 JUMPI DUP1 PUSH4 0x23B872DD EQ PUSH2 0x1AA JUMPI DUP1 PUSH4 0x3789F8D1 EQ PUSH2 0x1B8 JUMPI DUP1 PUSH4 0x42842E0E EQ PUSH2 0x1AA JUMPI DUP1 PUSH4 0x6352211E EQ PUSH2 0x1CB JUMPI PUSH1 0x0 DUP1 REVERT JUMPDEST DUP1 PUSH4 0x1FFC9A7 EQ PUSH2 0x11B JUMPI DUP1 PUSH4 0x6FDDE03 EQ PUSH2 0x143 JUMPI DUP1 PUSH4 0x81812FC EQ PUSH2 0x158 JUMPI DUP1 PUSH4 0x95EA7B3 EQ PUSH2 0x183 JUMPI JUMPDEST PUSH1 0x0 DUP1 REVERT JUMPDEST PUSH2 0x12E PUSH2 0x129 CALLDATASIZE PUSH1 0x4 PUSH2 0x1431 JUMP JUMPDEST PUSH2 0x26D JUMP JUMPDEST PUSH1 0x40 MLOAD SWAP1 ISZERO ISZERO DUP2 MSTORE PUSH1 0x20 ADD JUMPDEST PUSH1 0x40 MLOAD DUP1 SWAP2 SUB SWAP1 RETURN JUMPDEST PUSH2 0x14B PUSH2 0x27E JUMP JUMPDEST PUSH1 0x40 MLOAD PUSH2 0x13A SWAP2 SWAP1 PUSH2 0x148B JUMP JUMPDEST PUSH2 0x16B PUSH2 0x166 CALLDATASIZE PUSH1 0x4 PUSH2 0x14BE JUMP JUMPDEST PUSH2 0x310 JUMP JUMPDEST PUSH1 0x40 MLOAD PUSH1 0x1 PUSH1 0x1 PUSH1 0xA0 SHL SUB SWAP1 SWAP2 AND DUP2 MSTORE PUSH1 0x20 ADD PUSH2 0x13A JUMP JUMPDEST PUSH2 0x196 PUSH2 0x191 CALLDATASIZE PUSH1 0x4 PUSH2 0x14EE JUMP JUMPDEST PUSH2 0x32B JUMP JUMPDEST STOP JUMPDEST PUSH1 0x8 SLOAD JUMPDEST PUSH1 0x40 MLOAD SWAP1 DUP2 MSTORE PUSH1 0x20 ADD PUSH2 0x13A JUMP JUMPDEST PUSH2 0x196 PUSH2 0x191 CALLDATASIZE PUSH1 0x4 PUSH2 0x1518 JUMP JUMPDEST PUSH2 0x196 PUSH2 0x1C6 CALLDATASIZE PUSH1 0x4 PUSH2 0x1554 JUMP JUMPDEST PUSH2 0x344 JUMP JUMPDEST PUSH2 0x16B PUSH2 0x1D9 CALLDATASIZE PUSH1 0x4 PUSH2 0x14BE JUMP JUMPDEST PUSH2 0x3DA JUMP JUMPDEST PUSH2 0x19C PUSH2 0x1EC CALLDATASIZE PUSH1 0x4 PUSH2 0x1590 JUMP JUMPDEST PUSH2 0x451 JUMP JUMPDEST PUSH1 0x7 SLOAD PUSH1 0x1 PUSH1 0x1 PUSH1 0xA0 SHL SUB AND PUSH2 0x16B JUMP JUMPDEST PUSH2 0x14B PUSH2 0x4D7 JUMP JUMPDEST PUSH2 0x196 PUSH2 0x191 CALLDATASIZE PUSH1 0x4 PUSH2 0x1554 JUMP JUMPDEST PUSH2 0x196 PUSH2 0x191 CALLDATASIZE PUSH1 0x4 PUSH2 0x15C1 JUMP JUMPDEST PUSH2 0x14B PUSH2 0x234 CALLDATASIZE PUSH1 0x4 PUSH2 0x14BE JUMP JUMPDEST PUSH2 0x4E6 JUMP JUMPDEST PUSH2 0x196 PUSH2 0x247 CALLDATASIZE PUSH1 0x4 PUSH2 0x1590 JUMP JUMPDEST PUSH2 0x71F JUMP JUMPDEST PUSH2 0x196 PUSH2 0x25A CALLDATASIZE PUSH1 0x4 PUSH2 0x1590 JUMP JUMPDEST PUSH2 0x8DB JUMP JUMPDEST PUSH2 0x12E PUSH2 0x166 CALLDATASIZE PUSH1 0x4 PUSH2 0x169D JUMP JUMPDEST PUSH1 0x0 PUSH2 0x278 DUP3 PUSH2 0x997 JUMP JUMPDEST SWAP3 SWAP2 POP POP JUMP JUMPDEST PUSH1 0x60 PUSH1 0x1 DUP1 SLOAD PUSH2 0x28D SWAP1 PUSH2 0x16D0 JUMP JUMPDEST DUP1 PUSH1 0x1F ADD PUSH1 0x20 DUP1 SWAP2 DIV MUL PUSH1 0x20 ADD PUSH1 0x40 MLOAD SWAP1 DUP2 ADD PUSH1 0x40 MSTORE DUP1 SWAP3 SWAP2 SWAP1 DUP2 DUP2 MSTORE PUSH1 0x20 ADD DUP3 DUP1 SLOAD PUSH2 0x2B9 SWAP1 PUSH2 0x16D0 JUMP JUMPDEST DUP1 ISZERO PUSH2 0x306 JUMPI DUP1 PUSH1 0x1F LT PUSH2 0x2DB JUMPI PUSH2 0x100 DUP1 DUP4 SLOAD DIV MUL DUP4 MSTORE SWAP2 PUSH1 0x20 ADD SWAP2 PUSH2 0x306 JUMP JUMPDEST DUP3 ADD SWAP2 SWAP1 PUSH1 0x0 MSTORE PUSH1 0x20 PUSH1 0x0 KECCAK256 SWAP1 JUMPDEST DUP2 SLOAD DUP2 MSTORE SWAP1 PUSH1 0x1 ADD SWAP1 PUSH1 0x20 ADD DUP1 DUP4 GT PUSH2 0x2E9 JUMPI DUP3 SWAP1 SUB PUSH1 0x1F AND DUP3 ADD SWAP2 JUMPDEST POP POP POP POP POP SWAP1 POP SWAP1 JUMP JUMPDEST PUSH1 0x0 PUSH1 0x40 MLOAD PUSH4 0x3991FCA9 PUSH1 0xE2 SHL DUP2 MSTORE PUSH1 0x4 ADD PUSH1 0x40 MLOAD DUP1 SWAP2 SUB SWAP1 REVERT JUMPDEST PUSH1 0x40 MLOAD PUSH4 0x3991FCA9 PUSH1 0xE2 SHL DUP2 MSTORE PUSH1 0x4 ADD PUSH1 0x40 MLOAD DUP1 SWAP2 SUB SWAP1 REVERT JUMPDEST CALLER PUSH2 0x357 PUSH1 0x7 SLOAD PUSH1 0x1 PUSH1 0x1 PUSH1 0xA0 SHL SUB AND SWAP1 JUMP JUMPDEST PUSH1 0x1 PUSH1 0x1 PUSH1 0xA0 SHL SUB AND EQ PUSH2 0x386 JUMPI PUSH1 0x40 MLOAD PUSH3 0x461BCD PUSH1 0xE5 SHL DUP2 MSTORE PUSH1 0x4 ADD PUSH2 0x37D SWAP1 PUSH2 0x170A JUMP JUMPDEST PUSH1 0x40 MLOAD DUP1 SWAP2 SUB SWAP1 REVERT JUMPDEST PUSH1 0x1 PUSH1 0x1 PUSH1 0xA0 SHL SUB DUP3 AND PUSH1 0x0 DUP2 DUP2 MSTORE PUSH1 0xB PUSH1 0x20 MSTORE PUSH1 0x40 DUP1 DUP3 KECCAK256 DUP1 SLOAD PUSH1 0xFF NOT AND DUP6 ISZERO ISZERO SWAP1 DUP2 OR SWAP1 SWAP2 SSTORE SWAP1 MLOAD SWAP1 SWAP3 SWAP2 PUSH32 0xC8FA0F05244AEC5FAF5A72346EF525E3E3BF52F240E55BD42D0C44F7CE14F9C3 SWAP2 LOG3 POP POP JUMP JUMPDEST PUSH1 0x0 DUP2 DUP2 MSTORE PUSH1 0x3 PUSH1 0x20 MSTORE PUSH1 0x40 DUP2 KECCAK256 SLOAD PUSH1 0x1 PUSH1 0x1 PUSH1 0xA0 SHL SUB AND DUP1 PUSH2 0x278 JUMPI PUSH1 0x40 MLOAD PUSH3 0x461BCD PUSH1 0xE5 SHL DUP2 MSTORE PUSH1 0x20 PUSH1 0x4 DUP3 ADD MSTORE PUSH1 0x29 PUSH1 0x24 DUP3 ADD MSTORE PUSH32 0x4552433732313A206F776E657220717565727920666F72206E6F6E6578697374 PUSH1 0x44 DUP3 ADD MSTORE PUSH9 0x32B73A103A37B5B2B7 PUSH1 0xB9 SHL PUSH1 0x64 DUP3 ADD MSTORE PUSH1 0x84 ADD PUSH2 0x37D JUMP JUMPDEST PUSH1 0x0 PUSH1 0x1 PUSH1 0x1 PUSH1 0xA0 SHL SUB DUP3 AND PUSH2 0x4BB JUMPI PUSH1 0x40 MLOAD PUSH3 0x461BCD PUSH1 0xE5 SHL DUP2 MSTORE PUSH1 0x20 PUSH1 0x4 DUP3 ADD MSTORE PUSH1 0x29 PUSH1 0x24 DUP3 ADD MSTORE PUSH32 0x4552433732313A2061646472657373207A65726F206973206E6F742061207661 PUSH1 0x44 DUP3 ADD MSTORE PUSH9 0x3634B21037BBB732B9 PUSH1 0xB9 SHL PUSH1 0x64 DUP3 ADD MSTORE PUSH1 0x84 ADD PUSH2 0x37D JUMP JUMPDEST POP PUSH1 0x1 PUSH1 0x1 PUSH1 0xA0 SHL SUB AND PUSH1 0x0 SWAP1 DUP2 MSTORE PUSH1 0x4 PUSH1 0x20 MSTORE PUSH1 0x40 SWAP1 KECCAK256 SLOAD SWAP1 JUMP JUMPDEST PUSH1 0x60 PUSH1 0x2 DUP1 SLOAD PUSH2 0x28D SWAP1 PUSH2 0x16D0 JUMP JUMPDEST PUSH1 0x0 DUP2 DUP2 MSTORE PUSH1 0x3 PUSH1 0x20 MSTORE PUSH1 0x40 SWAP1 KECCAK256 SLOAD PUSH1 0x60 SWAP1 PUSH1 0x1 PUSH1 0x1 PUSH1 0xA0 SHL SUB AND PUSH2 0x54D JUMPI PUSH1 0x40 MLOAD PUSH3 0x461BCD PUSH1 0xE5 SHL DUP2 MSTORE PUSH1 0x20 PUSH1 0x4 DUP3 ADD MSTORE PUSH1 0x1F PUSH1 0x24 DUP3 ADD MSTORE PUSH32 0x455850657269656E6365204E46543A20496E76616C696420546F6B656E494400 PUSH1 0x44 DUP3 ADD MSTORE PUSH1 0x64 ADD PUSH2 0x37D JUMP JUMPDEST PUSH1 0x0 PUSH2 0x558 DUP4 PUSH2 0x3DA JUMP JUMPDEST PUSH1 0x9 SLOAD PUSH1 0x40 MLOAD PUSH4 0x70A08231 PUSH1 0xE0 SHL DUP2 MSTORE PUSH1 0x1 PUSH1 0x1 PUSH1 0xA0 SHL SUB DUP1 DUP5 AND PUSH1 0x4 DUP4 ADD MSTORE SWAP3 SWAP4 POP PUSH1 0x0 SWAP3 SWAP1 SWAP2 AND SWAP1 PUSH4 0x70A08231 SWAP1 PUSH1 0x24 ADD PUSH1 0x20 PUSH1 0x40 MLOAD DUP1 DUP4 SUB DUP2 DUP7 GAS STATICCALL ISZERO DUP1 ISZERO PUSH2 0x5A8 JUMPI RETURNDATASIZE PUSH1 0x0 DUP1 RETURNDATACOPY RETURNDATASIZE PUSH1 0x0 REVERT JUMPDEST POP POP POP POP PUSH1 0x40 MLOAD RETURNDATASIZE PUSH1 0x1F NOT PUSH1 0x1F DUP3 ADD AND DUP3 ADD DUP1 PUSH1 0x40 MSTORE POP DUP2 ADD SWAP1 PUSH2 0x5CC SWAP2 SWAP1 PUSH2 0x1753 JUMP JUMPDEST SWAP1 POP PUSH2 0x717 DUP5 DUP3 DUP5 PUSH1 0xC PUSH1 0x34 SLOAD PUSH1 0x14 DUP2 LT PUSH2 0x5E9 JUMPI PUSH2 0x5E9 PUSH2 0x176C JUMP JUMPDEST ADD DUP1 SLOAD PUSH2 0x5F5 SWAP1 PUSH2 0x16D0 JUMP JUMPDEST DUP1 PUSH1 0x1F ADD PUSH1 0x20 DUP1 SWAP2 DIV MUL PUSH1 0x20 ADD PUSH1 0x40 MLOAD SWAP1 DUP2 ADD PUSH1 0x40 MSTORE DUP1 SWAP3 SWAP2 SWAP1 DUP2 DUP2 MSTORE PUSH1 0x20 ADD DUP3 DUP1 SLOAD PUSH2 0x621 SWAP1 PUSH2 0x16D0 JUMP JUMPDEST DUP1 ISZERO PUSH2 0x66E JUMPI DUP1 PUSH1 0x1F LT PUSH2 0x643 JUMPI PUSH2 0x100 DUP1 DUP4 SLOAD DIV MUL DUP4 MSTORE SWAP2 PUSH1 0x20 ADD SWAP2 PUSH2 0x66E JUMP JUMPDEST DUP3 ADD SWAP2 SWAP1 PUSH1 0x0 MSTORE PUSH1 0x20 PUSH1 0x0 KECCAK256 SWAP1 JUMPDEST DUP2 SLOAD DUP2 MSTORE SWAP1 PUSH1 0x1 ADD SWAP1 PUSH1 0x20 ADD DUP1 DUP4 GT PUSH2 0x651 JUMPI DUP3 SWAP1 SUB PUSH1 0x1F AND DUP3 ADD SWAP2 JUMPDEST POP POP POP POP POP PUSH1 0x20 PUSH1 0x34 SLOAD PUSH1 0x14 DUP2 LT PUSH2 0x688 JUMPI PUSH2 0x688 PUSH2 0x176C JUMP JUMPDEST ADD DUP1 SLOAD PUSH2 0x694 SWAP1 PUSH2 0x16D0 JUMP JUMPDEST DUP1 PUSH1 0x1F ADD PUSH1 0x20 DUP1 SWAP2 DIV MUL PUSH1 0x20 ADD PUSH1 0x40 MLOAD SWAP1 DUP2 ADD PUSH1 0x40 MSTORE DUP1 SWAP3 SWAP2 SWAP1 DUP2 DUP2 MSTORE PUSH1 0x20 ADD DUP3 DUP1 SLOAD PUSH2 0x6C0 SWAP1 PUSH2 0x16D0 JUMP JUMPDEST DUP1 ISZERO PUSH2 0x70D JUMPI DUP1 PUSH1 0x1F LT PUSH2 0x6E2 JUMPI PUSH2 0x100 DUP1 DUP4 SLOAD DIV MUL DUP4 MSTORE SWAP2 PUSH1 0x20 ADD SWAP2 PUSH2 0x70D JUMP JUMPDEST DUP3 ADD SWAP2 SWAP1 PUSH1 0x0 MSTORE PUSH1 0x20 PUSH1 0x0 KECCAK256 SWAP1 JUMPDEST DUP2 SLOAD DUP2 MSTORE SWAP1 PUSH1 0x1 ADD SWAP1 PUSH1 0x20 ADD DUP1 DUP4 GT PUSH2 0x6F0 JUMPI DUP3 SWAP1 SUB PUSH1 0x1F AND DUP3 ADD SWAP2 JUMPDEST POP POP POP POP POP PUSH2 0x9D3 JUMP JUMPDEST SWAP5 SWAP4 POP POP POP POP JUMP JUMPDEST CALLER PUSH1 0x0 SWAP1 DUP2 MSTORE PUSH1 0xB PUSH1 0x20 MSTORE PUSH1 0x40 SWAP1 KECCAK256 SLOAD PUSH1 0xFF AND ISZERO ISZERO PUSH1 0x1 EQ PUSH2 0x783 JUMPI PUSH1 0x40 MLOAD PUSH3 0x461BCD PUSH1 0xE5 SHL DUP2 MSTORE PUSH1 0x20 PUSH1 0x4 DUP3 ADD MSTORE PUSH1 0x1F PUSH1 0x24 DUP3 ADD MSTORE PUSH32 0x455850657269656E63653A20596F75277265206E6F7420616E2061646D696E00 PUSH1 0x44 DUP3 ADD MSTORE PUSH1 0x64 ADD PUSH2 0x37D JUMP JUMPDEST PUSH1 0x9 SLOAD PUSH1 0xA DUP1 SLOAD PUSH1 0x1 PUSH1 0x1 PUSH1 0xA0 SHL SUB NOT AND PUSH1 0x1 PUSH1 0x1 PUSH1 0xA0 SHL SUB SWAP3 DUP4 AND SWAP1 DUP2 OR SWAP1 SWAP2 SSTORE PUSH1 0x40 MLOAD PUSH4 0x70A08231 PUSH1 0xE0 SHL DUP2 MSTORE SWAP2 DUP4 AND PUSH1 0x4 DUP4 ADD MSTORE PUSH1 0x0 SWAP2 PUSH4 0x70A08231 SWAP1 PUSH1 0x24 ADD PUSH1 0x20 PUSH1 0x40 MLOAD DUP1 DUP4 SUB DUP2 DUP7 GAS STATICCALL ISZERO DUP1 ISZERO PUSH2 0x7E3 JUMPI RETURNDATASIZE PUSH1 0x0 DUP1 RETURNDATACOPY RETURNDATASIZE PUSH1 0x0 REVERT JUMPDEST POP POP POP POP PUSH1 0x40 MLOAD RETURNDATASIZE PUSH1 0x1F NOT PUSH1 0x1F DUP3 ADD AND DUP3 ADD DUP1 PUSH1 0x40 MSTORE POP DUP2 ADD SWAP1 PUSH2 0x807 SWAP2 SWAP1 PUSH2 0x1753 JUMP JUMPDEST SWAP1 POP PUSH1 0x0 DUP2 GT PUSH2 0x865 JUMPI PUSH1 0x40 MLOAD PUSH3 0x461BCD PUSH1 0xE5 SHL DUP2 MSTORE PUSH1 0x20 PUSH1 0x4 DUP3 ADD MSTORE PUSH1 0x24 DUP1 DUP3 ADD MSTORE PUSH32 0x455850657269656E63653A20496E73756666696369656E74204558502062616C PUSH1 0x44 DUP3 ADD MSTORE PUSH4 0x616E6365 PUSH1 0xE0 SHL PUSH1 0x64 DUP3 ADD MSTORE PUSH1 0x84 ADD PUSH2 0x37D JUMP JUMPDEST PUSH1 0x0 PUSH2 0x872 PUSH1 0x1 NUMBER PUSH2 0x1798 JUMP JUMPDEST BLOCKHASH SWAP1 POP PUSH2 0x880 PUSH1 0x14 DUP3 PUSH2 0x17C5 JUMP JUMPDEST PUSH1 0x34 SSTORE PUSH1 0x8 DUP1 SLOAD SWAP1 PUSH1 0x0 PUSH2 0x893 DUP4 PUSH2 0x17D9 JUMP JUMPDEST SWAP1 SWAP2 SSTORE POP PUSH2 0x8A1 DUP5 DUP3 PUSH2 0xAF6 JUMP JUMPDEST PUSH1 0x40 MLOAD PUSH1 0x1 PUSH1 0x1 PUSH1 0xA0 SHL SUB DUP6 AND SWAP1 PUSH32 0xBD6E4913107C69E3C4FA02301595D1F386394FBEFAD6B73A2DBC6463EE96A19A SWAP1 PUSH1 0x0 SWAP1 LOG2 POP POP POP POP JUMP JUMPDEST CALLER PUSH2 0x8EE PUSH1 0x7 SLOAD PUSH1 0x1 PUSH1 0x1 PUSH1 0xA0 SHL SUB AND SWAP1 JUMP JUMPDEST PUSH1 0x1 PUSH1 0x1 PUSH1 0xA0 SHL SUB AND EQ PUSH2 0x914 JUMPI PUSH1 0x40 MLOAD PUSH3 0x461BCD PUSH1 0xE5 SHL DUP2 MSTORE PUSH1 0x4 ADD PUSH2 0x37D SWAP1 PUSH2 0x170A JUMP JUMPDEST PUSH1 0x1 PUSH1 0x1 PUSH1 0xA0 SHL SUB DUP2 AND PUSH2 0x975 JUMPI PUSH1 0x40 MLOAD PUSH3 0x461BCD PUSH1 0xE5 SHL DUP2 MSTORE PUSH1 0x20 PUSH1 0x4 DUP3 ADD MSTORE PUSH1 0x22 PUSH1 0x24 DUP3 ADD MSTORE PUSH32 0x496E76616C69642045585020546F6B656E20436F6E7472616374206164647265 PUSH1 0x44 DUP3 ADD MSTORE PUSH2 0x7373 PUSH1 0xF0 SHL PUSH1 0x64 DUP3 ADD MSTORE PUSH1 0x84 ADD PUSH2 0x37D JUMP JUMPDEST PUSH1 0x9 DUP1 SLOAD PUSH1 0x1 PUSH1 0x1 PUSH1 0xA0 SHL SUB NOT AND PUSH1 0x1 PUSH1 0x1 PUSH1 0xA0 SHL SUB SWAP3 SWAP1 SWAP3 AND SWAP2 SWAP1 SWAP2 OR SWAP1 SSTORE JUMP JUMPDEST PUSH1 0x0 PUSH4 0x1FFC9A7 PUSH1 0xE0 SHL PUSH1 0x1 PUSH1 0x1 PUSH1 0xE0 SHL SUB NOT DUP4 AND EQ DUP1 PUSH2 0x278 JUMPI POP POP PUSH1 0x1 PUSH1 0x1 PUSH1 0xE0 SHL SUB NOT AND PUSH1 0x0 SWAP1 DUP2 MSTORE PUSH1 0x20 DUP2 SWAP1 MSTORE PUSH1 0x40 SWAP1 KECCAK256 SLOAD PUSH1 0xFF AND SWAP1 JUMP JUMPDEST PUSH1 0x60 PUSH2 0x9E7 PUSH8 0xDE0B6B3A7640000 DUP7 PUSH2 0x17F2 JUMP JUMPDEST SWAP5 POP PUSH1 0x0 PUSH2 0x9F5 DUP7 DUP5 PUSH2 0xB14 JUMP JUMPDEST SWAP1 POP PUSH1 0x0 PUSH2 0xA21 DUP3 PUSH1 0x40 MLOAD PUSH1 0x20 ADD PUSH2 0xA0D SWAP2 SWAP1 PUSH2 0x1822 JUMP JUMPDEST PUSH1 0x40 MLOAD PUSH1 0x20 DUP2 DUP4 SUB SUB DUP2 MSTORE SWAP1 PUSH1 0x40 MSTORE PUSH2 0xBF9 JUMP JUMPDEST PUSH1 0x40 MLOAD PUSH1 0x20 ADD PUSH2 0xA31 SWAP2 SWAP1 PUSH2 0x18C0 JUMP JUMPDEST PUSH1 0x40 MLOAD PUSH1 0x20 DUP2 DUP4 SUB SUB DUP2 MSTORE SWAP1 PUSH1 0x40 MSTORE SWAP1 POP PUSH1 0x0 PUSH2 0xA4D DUP10 PUSH2 0xD4C JUMP JUMPDEST PUSH2 0xA56 DUP10 PUSH2 0xD4C JUMP JUMPDEST DUP8 PUSH2 0xA60 DUP12 PUSH2 0xE4D JUMP JUMPDEST PUSH1 0x40 MLOAD PUSH1 0x20 ADD PUSH2 0xA73 SWAP5 SWAP4 SWAP3 SWAP2 SWAP1 PUSH2 0x18FE JUMP JUMPDEST PUSH1 0x40 MLOAD PUSH1 0x20 DUP2 DUP4 SUB SUB DUP2 MSTORE SWAP1 PUSH1 0x40 MSTORE SWAP1 POP PUSH1 0x0 DUP2 PUSH2 0xA99 DUP10 PUSH1 0x1 PUSH1 0x1 PUSH1 0xA0 SHL SUB AND PUSH2 0xF60 JUMP JUMPDEST DUP6 DUP6 PUSH1 0x40 MLOAD PUSH1 0x20 ADD PUSH2 0xAAE SWAP5 SWAP4 SWAP3 SWAP2 SWAP1 PUSH2 0x1B2F JUMP JUMPDEST PUSH1 0x40 MLOAD PUSH1 0x20 DUP2 DUP4 SUB SUB DUP2 MSTORE SWAP1 PUSH1 0x40 MSTORE SWAP1 POP PUSH2 0xAC8 DUP2 PUSH2 0xBF9 JUMP JUMPDEST PUSH1 0x40 MLOAD PUSH1 0x20 ADD PUSH2 0xAD8 SWAP2 SWAP1 PUSH2 0x1BCB JUMP JUMPDEST PUSH1 0x40 MLOAD PUSH1 0x20 DUP2 DUP4 SUB SUB DUP2 MSTORE SWAP1 PUSH1 0x40 MSTORE SWAP5 POP POP POP POP POP SWAP6 SWAP5 POP POP POP POP POP JUMP JUMPDEST PUSH2 0xB10 DUP3 DUP3 PUSH1 0x40 MLOAD DUP1 PUSH1 0x20 ADD PUSH1 0x40 MSTORE DUP1 PUSH1 0x0 DUP2 MSTORE POP PUSH2 0xFB7 JUMP JUMPDEST POP POP JUMP JUMPDEST PUSH1 0x60 PUSH1 0x0 PUSH2 0xBCE PUSH1 0x40 MLOAD DUP1 PUSH2 0x1A0 ADD PUSH1 0x40 MSTORE DUP1 PUSH2 0x178 DUP2 MSTORE PUSH1 0x20 ADD PUSH2 0x423F PUSH2 0x178 SWAP2 CODECOPY DUP5 PUSH1 0x40 MLOAD DUP1 PUSH2 0x120 ADD PUSH1 0x40 MSTORE DUP1 PUSH1 0xF7 DUP2 MSTORE PUSH1 0x20 ADD PUSH2 0x43B7 PUSH1 0xF7 SWAP2 CODECOPY DUP7 PUSH1 0x40 MLOAD DUP1 PUSH2 0x340 ADD PUSH1 0x40 MSTORE DUP1 PUSH2 0x313 DUP2 MSTORE PUSH1 0x20 ADD PUSH2 0x2667 PUSH2 0x313 SWAP2 CODECOPY PUSH2 0xB78 DUP11 PUSH2 0xFC6 JUMP JUMPDEST PUSH1 0x40 MLOAD DUP1 PUSH2 0x240 ADD PUSH1 0x40 MSTORE DUP1 PUSH2 0x20D DUP2 MSTORE PUSH1 0x20 ADD PUSH2 0x245A PUSH2 0x20D SWAP2 CODECOPY PUSH2 0xB9D DUP13 PUSH2 0xD4C JUMP JUMPDEST PUSH1 0x40 MLOAD DUP1 PUSH1 0x60 ADD PUSH1 0x40 MSTORE DUP1 PUSH1 0x28 DUP2 MSTORE PUSH1 0x20 ADD PUSH2 0x1D65 PUSH1 0x28 SWAP2 CODECOPY PUSH1 0x40 MLOAD PUSH1 0x20 ADD PUSH2 0xA0D SWAP10 SWAP9 SWAP8 SWAP7 SWAP6 SWAP5 SWAP4 SWAP3 SWAP2 SWAP1 PUSH2 0x1C10 JUMP JUMPDEST SWAP1 POP DUP1 PUSH1 0x40 MLOAD PUSH1 0x20 ADD PUSH2 0xBE1 SWAP2 SWAP1 PUSH2 0x1CD1 JUMP JUMPDEST PUSH1 0x40 MLOAD PUSH1 0x20 DUP2 DUP4 SUB SUB DUP2 MSTORE SWAP1 PUSH1 0x40 MSTORE SWAP2 POP POP SWAP3 SWAP2 POP POP JUMP JUMPDEST PUSH1 0x60 DUP2 MLOAD PUSH1 0x0 SUB PUSH2 0xC18 JUMPI POP POP PUSH1 0x40 DUP1 MLOAD PUSH1 0x20 DUP2 ADD SWAP1 SWAP2 MSTORE PUSH1 0x0 DUP2 MSTORE SWAP1 JUMP JUMPDEST PUSH1 0x0 PUSH1 0x40 MLOAD DUP1 PUSH1 0x60 ADD PUSH1 0x40 MSTORE DUP1 PUSH1 0x40 DUP2 MSTORE PUSH1 0x20 ADD PUSH2 0x297A PUSH1 0x40 SWAP2 CODECOPY SWAP1 POP PUSH1 0x0 PUSH1 0x3 DUP5 MLOAD PUSH1 0x2 PUSH2 0xC47 SWAP2 SWAP1 PUSH2 0x1D16 JUMP JUMPDEST PUSH2 0xC51 SWAP2 SWAP1 PUSH2 0x17F2 JUMP JUMPDEST PUSH2 0xC5C SWAP1 PUSH1 0x4 PUSH2 0x1D2E JUMP JUMPDEST PUSH8 0xFFFFFFFFFFFFFFFF DUP2 GT ISZERO PUSH2 0xC74 JUMPI PUSH2 0xC74 PUSH2 0x15AB JUMP JUMPDEST PUSH1 0x40 MLOAD SWAP1 DUP1 DUP3 MSTORE DUP1 PUSH1 0x1F ADD PUSH1 0x1F NOT AND PUSH1 0x20 ADD DUP3 ADD PUSH1 0x40 MSTORE DUP1 ISZERO PUSH2 0xC9E JUMPI PUSH1 0x20 DUP3 ADD DUP2 DUP1 CALLDATASIZE DUP4 CALLDATACOPY ADD SWAP1 POP JUMPDEST POP SWAP1 POP PUSH1 0x1 DUP3 ADD PUSH1 0x20 DUP3 ADD DUP6 DUP7 MLOAD DUP8 ADD JUMPDEST DUP1 DUP3 LT ISZERO PUSH2 0xD0A JUMPI PUSH1 0x3 DUP3 ADD SWAP2 POP DUP2 MLOAD PUSH1 0x3F DUP2 PUSH1 0x12 SHR AND DUP6 ADD MLOAD DUP5 MSTORE8 PUSH1 0x1 DUP5 ADD SWAP4 POP PUSH1 0x3F DUP2 PUSH1 0xC SHR AND DUP6 ADD MLOAD DUP5 MSTORE8 PUSH1 0x1 DUP5 ADD SWAP4 POP PUSH1 0x3F DUP2 PUSH1 0x6 SHR AND DUP6 ADD MLOAD DUP5 MSTORE8 PUSH1 0x1 DUP5 ADD SWAP4 POP PUSH1 0x3F DUP2 AND DUP6 ADD MLOAD DUP5 MSTORE8 POP PUSH1 0x1 DUP4 ADD SWAP3 POP PUSH2 0xCAF JUMP JUMPDEST POP POP PUSH1 0x3 DUP7 MLOAD MOD PUSH1 0x1 DUP2 EQ PUSH2 0xD26 JUMPI PUSH1 0x2 DUP2 EQ PUSH2 0xD39 JUMPI PUSH2 0xD41 JUMP JUMPDEST PUSH1 0x3D PUSH1 0x1 DUP4 SUB MSTORE8 PUSH1 0x3D PUSH1 0x2 DUP4 SUB MSTORE8 PUSH2 0xD41 JUMP JUMPDEST PUSH1 0x3D PUSH1 0x1 DUP4 SUB MSTORE8 JUMPDEST POP SWAP2 SWAP6 SWAP5 POP POP POP POP POP JUMP JUMPDEST PUSH1 0x60 DUP2 PUSH1 0x0 SUB PUSH2 0xD73 JUMPI POP POP PUSH1 0x40 DUP1 MLOAD DUP1 DUP3 ADD SWAP1 SWAP2 MSTORE PUSH1 0x1 DUP2 MSTORE PUSH1 0x3 PUSH1 0xFC SHL PUSH1 0x20 DUP3 ADD MSTORE SWAP1 JUMP JUMPDEST DUP2 PUSH1 0x0 JUMPDEST DUP2 ISZERO PUSH2 0xD9D JUMPI DUP1 PUSH2 0xD87 DUP2 PUSH2 0x17D9 JUMP JUMPDEST SWAP2 POP PUSH2 0xD96 SWAP1 POP PUSH1 0xA DUP4 PUSH2 0x17F2 JUMP JUMPDEST SWAP2 POP PUSH2 0xD77 JUMP JUMPDEST PUSH1 0x0 DUP2 PUSH8 0xFFFFFFFFFFFFFFFF DUP2 GT ISZERO PUSH2 0xDB8 JUMPI PUSH2 0xDB8 PUSH2 0x15AB JUMP JUMPDEST PUSH1 0x40 MLOAD SWAP1 DUP1 DUP3 MSTORE DUP1 PUSH1 0x1F ADD PUSH1 0x1F NOT AND PUSH1 0x20 ADD DUP3 ADD PUSH1 0x40 MSTORE DUP1 ISZERO PUSH2 0xDE2 JUMPI PUSH1 0x20 DUP3 ADD DUP2 DUP1 CALLDATASIZE DUP4 CALLDATACOPY ADD SWAP1 POP JUMPDEST POP SWAP1 POP JUMPDEST DUP5 ISZERO PUSH2 0x717 JUMPI PUSH2 0xDF7 PUSH1 0x1 DUP4 PUSH2 0x1798 JUMP JUMPDEST SWAP2 POP PUSH2 0xE04 PUSH1 0xA DUP7 PUSH2 0x17C5 JUMP JUMPDEST PUSH2 0xE0F SWAP1 PUSH1 0x30 PUSH2 0x1D16 JUMP JUMPDEST PUSH1 0xF8 SHL DUP2 DUP4 DUP2 MLOAD DUP2 LT PUSH2 0xE24 JUMPI PUSH2 0xE24 PUSH2 0x176C JUMP JUMPDEST PUSH1 0x20 ADD ADD SWAP1 PUSH1 0x1 PUSH1 0x1 PUSH1 0xF8 SHL SUB NOT AND SWAP1 DUP2 PUSH1 0x0 BYTE SWAP1 MSTORE8 POP PUSH2 0xE46 PUSH1 0xA DUP7 PUSH2 0x17F2 JUMP JUMPDEST SWAP5 POP PUSH2 0xDE6 JUMP JUMPDEST PUSH1 0x60 PUSH1 0x0 DUP3 GT DUP1 ISZERO PUSH2 0xE60 JUMPI POP PUSH1 0x14 DUP3 GT ISZERO JUMPDEST ISZERO PUSH2 0xE89 JUMPI POP POP PUSH1 0x40 DUP1 MLOAD DUP1 DUP3 ADD SWAP1 SWAP2 MSTORE PUSH1 0x8 DUP2 MSTORE PUSH8 0x2BB0B73232B932B9 PUSH1 0xC1 SHL PUSH1 0x20 DUP3 ADD MSTORE SWAP1 JUMP JUMPDEST PUSH1 0x14 DUP3 GT DUP1 ISZERO PUSH2 0xE9A JUMPI POP PUSH1 0x28 DUP3 GT ISZERO JUMPDEST ISZERO PUSH2 0xEC2 JUMPI POP POP PUSH1 0x40 DUP1 MLOAD DUP1 DUP3 ADD SWAP1 SWAP2 MSTORE PUSH1 0x7 DUP2 MSTORE PUSH7 0x2334B3B43A32B9 PUSH1 0xC9 SHL PUSH1 0x20 DUP3 ADD MSTORE SWAP1 JUMP JUMPDEST PUSH1 0x28 DUP3 GT DUP1 ISZERO PUSH2 0xED3 JUMPI POP PUSH1 0x3C DUP3 GT ISZERO JUMPDEST ISZERO PUSH2 0xF01 JUMPI POP POP PUSH1 0x40 DUP1 MLOAD DUP1 DUP3 ADD SWAP1 SWAP2 MSTORE PUSH1 0xD DUP2 MSTORE PUSH13 0x5265766F6C7574696F6E617279 PUSH1 0x98 SHL PUSH1 0x20 DUP3 ADD MSTORE SWAP1 JUMP JUMPDEST PUSH1 0x3C DUP3 GT DUP1 ISZERO PUSH2 0xF12 JUMPI POP PUSH1 0x50 DUP3 GT ISZERO JUMPDEST ISZERO PUSH2 0xF3C JUMPI POP POP PUSH1 0x40 DUP1 MLOAD DUP1 DUP3 ADD SWAP1 SWAP2 MSTORE PUSH1 0x9 DUP2 MSTORE PUSH9 0x4C6567656E64617279 PUSH1 0xB8 SHL PUSH1 0x20 DUP3 ADD MSTORE SWAP1 JUMP JUMPDEST POP POP PUSH1 0x40 DUP1 MLOAD DUP1 DUP3 ADD SWAP1 SWAP2 MSTORE PUSH1 0x3 DUP2 MSTORE PUSH3 0x11DBD9 PUSH1 0xEA SHL PUSH1 0x20 DUP3 ADD MSTORE SWAP1 JUMP JUMPDEST SWAP2 SWAP1 POP JUMP JUMPDEST PUSH1 0x60 DUP2 PUSH1 0x0 SUB PUSH2 0xF8A JUMPI POP POP PUSH1 0x40 DUP1 MLOAD DUP1 DUP3 ADD SWAP1 SWAP2 MSTORE PUSH1 0x4 DUP2 MSTORE PUSH4 0x3078303 PUSH1 0xE4 SHL PUSH1 0x20 DUP3 ADD MSTORE SWAP1 JUMP JUMPDEST DUP2 PUSH1 0x0 JUMPDEST DUP2 ISZERO PUSH2 0xFAD JUMPI DUP1 PUSH2 0xF9E DUP2 PUSH2 0x17D9 JUMP JUMPDEST SWAP2 POP POP PUSH1 0x8 DUP3 SWAP1 SHR SWAP2 POP PUSH2 0xF8E JUMP JUMPDEST PUSH2 0x717 DUP5 DUP3 PUSH2 0x10CA JUMP JUMPDEST PUSH2 0xFC1 DUP4 DUP4 PUSH2 0x126D JUMP JUMPDEST POP POP POP JUMP JUMPDEST PUSH1 0x60 PUSH1 0x0 DUP3 GT DUP1 ISZERO PUSH2 0xFD9 JUMPI POP PUSH1 0x14 DUP3 GT ISZERO JUMPDEST ISZERO PUSH2 0x1000 JUMPI PUSH1 0x40 MLOAD DUP1 PUSH2 0x460 ADD PUSH1 0x40 MSTORE DUP1 PUSH2 0x434 DUP2 MSTORE PUSH1 0x20 ADD PUSH2 0x3E0B PUSH2 0x434 SWAP2 CODECOPY SWAP3 SWAP2 POP POP JUMP JUMPDEST PUSH1 0x14 DUP3 GT DUP1 ISZERO PUSH2 0x1011 JUMPI POP PUSH1 0x28 DUP3 GT ISZERO JUMPDEST ISZERO PUSH2 0x1038 JUMPI PUSH1 0x40 MLOAD DUP1 PUSH2 0x6A0 ADD PUSH1 0x40 MSTORE DUP1 PUSH2 0x674 DUP2 MSTORE PUSH1 0x20 ADD PUSH2 0x317E PUSH2 0x674 SWAP2 CODECOPY SWAP3 SWAP2 POP POP JUMP JUMPDEST PUSH1 0x28 DUP3 GT DUP1 ISZERO PUSH2 0x1049 JUMPI POP PUSH1 0x3C DUP3 GT ISZERO JUMPDEST ISZERO PUSH2 0x1070 JUMPI PUSH1 0x40 MLOAD DUP1 PUSH2 0x640 ADD PUSH1 0x40 MSTORE DUP1 PUSH2 0x619 DUP2 MSTORE PUSH1 0x20 ADD PUSH2 0x37F2 PUSH2 0x619 SWAP2 CODECOPY SWAP3 SWAP2 POP POP JUMP JUMPDEST PUSH1 0x3C DUP3 GT DUP1 ISZERO PUSH2 0x1081 JUMPI POP PUSH1 0x50 DUP3 GT ISZERO JUMPDEST ISZERO PUSH2 0x10A8 JUMPI PUSH1 0x40 MLOAD DUP1 PUSH2 0x800 ADD PUSH1 0x40 MSTORE DUP1 PUSH2 0x7C4 DUP2 MSTORE PUSH1 0x20 ADD PUSH2 0x29BA PUSH2 0x7C4 SWAP2 CODECOPY SWAP3 SWAP2 POP POP JUMP JUMPDEST PUSH1 0x40 MLOAD DUP1 PUSH2 0x700 ADD PUSH1 0x40 MSTORE DUP1 PUSH2 0x6CD DUP2 MSTORE PUSH1 0x20 ADD PUSH2 0x1D8D PUSH2 0x6CD SWAP2 CODECOPY SWAP3 SWAP2 POP POP JUMP JUMPDEST PUSH1 0x60 PUSH1 0x0 PUSH2 0x10D9 DUP4 PUSH1 0x2 PUSH2 0x1D2E JUMP JUMPDEST PUSH2 0x10E4 SWAP1 PUSH1 0x2 PUSH2 0x1D16 JUMP JUMPDEST PUSH8 0xFFFFFFFFFFFFFFFF DUP2 GT ISZERO PUSH2 0x10FC JUMPI PUSH2 0x10FC PUSH2 0x15AB JUMP JUMPDEST PUSH1 0x40 MLOAD SWAP1 DUP1 DUP3 MSTORE DUP1 PUSH1 0x1F ADD PUSH1 0x1F NOT AND PUSH1 0x20 ADD DUP3 ADD PUSH1 0x40 MSTORE DUP1 ISZERO PUSH2 0x1126 JUMPI PUSH1 0x20 DUP3 ADD DUP2 DUP1 CALLDATASIZE DUP4 CALLDATACOPY ADD SWAP1 POP JUMPDEST POP SWAP1 POP PUSH1 0x3 PUSH1 0xFC SHL DUP2 PUSH1 0x0 DUP2 MLOAD DUP2 LT PUSH2 0x1141 JUMPI PUSH2 0x1141 PUSH2 0x176C JUMP JUMPDEST PUSH1 0x20 ADD ADD SWAP1 PUSH1 0x1 PUSH1 0x1 PUSH1 0xF8 SHL SUB NOT AND SWAP1 DUP2 PUSH1 0x0 BYTE SWAP1 MSTORE8 POP PUSH1 0xF PUSH1 0xFB SHL DUP2 PUSH1 0x1 DUP2 MLOAD DUP2 LT PUSH2 0x1170 JUMPI PUSH2 0x1170 PUSH2 0x176C JUMP JUMPDEST PUSH1 0x20 ADD ADD SWAP1 PUSH1 0x1 PUSH1 0x1 PUSH1 0xF8 SHL SUB NOT AND SWAP1 DUP2 PUSH1 0x0 BYTE SWAP1 MSTORE8 POP PUSH1 0x0 PUSH2 0x1194 DUP5 PUSH1 0x2 PUSH2 0x1D2E JUMP JUMPDEST PUSH2 0x119F SWAP1 PUSH1 0x1 PUSH2 0x1D16 JUMP JUMPDEST SWAP1 POP JUMPDEST PUSH1 0x1 DUP2 GT ISZERO PUSH2 0x1217 JUMPI PUSH16 0x181899199A1A9B1B9C1CB0B131B232B3 PUSH1 0x81 SHL DUP6 PUSH1 0xF AND PUSH1 0x10 DUP2 LT PUSH2 0x11D3 JUMPI PUSH2 0x11D3 PUSH2 0x176C JUMP JUMPDEST BYTE PUSH1 0xF8 SHL DUP3 DUP3 DUP2 MLOAD DUP2 LT PUSH2 0x11E9 JUMPI PUSH2 0x11E9 PUSH2 0x176C JUMP JUMPDEST PUSH1 0x20 ADD ADD SWAP1 PUSH1 0x1 PUSH1 0x1 PUSH1 0xF8 SHL SUB NOT AND SWAP1 DUP2 PUSH1 0x0 BYTE SWAP1 MSTORE8 POP PUSH1 0x4 SWAP5 SWAP1 SWAP5 SHR SWAP4 PUSH2 0x1210 DUP2 PUSH2 0x1D4D JUMP JUMPDEST SWAP1 POP PUSH2 0x11A2 JUMP JUMPDEST POP DUP4 ISZERO PUSH2 0x1266 JUMPI PUSH1 0x40 MLOAD PUSH3 0x461BCD PUSH1 0xE5 SHL DUP2 MSTORE PUSH1 0x20 PUSH1 0x4 DUP3 ADD DUP2 SWAP1 MSTORE PUSH1 0x24 DUP3 ADD MSTORE PUSH32 0x537472696E67733A20686578206C656E67746820696E73756666696369656E74 PUSH1 0x44 DUP3 ADD MSTORE PUSH1 0x64 ADD PUSH2 0x37D JUMP JUMPDEST SWAP4 SWAP3 POP POP POP JUMP JUMPDEST PUSH1 0x1 PUSH1 0x1 PUSH1 0xA0 SHL SUB DUP3 AND PUSH2 0x12C3 JUMPI PUSH1 0x40 MLOAD PUSH3 0x461BCD PUSH1 0xE5 SHL DUP2 MSTORE PUSH1 0x20 PUSH1 0x4 DUP3 ADD DUP2 SWAP1 MSTORE PUSH1 0x24 DUP3 ADD MSTORE PUSH32 0x4552433732313A206D696E7420746F20746865207A65726F2061646472657373 PUSH1 0x44 DUP3 ADD MSTORE PUSH1 0x64 ADD PUSH2 0x37D JUMP JUMPDEST PUSH1 0x0 DUP2 DUP2 MSTORE PUSH1 0x3 PUSH1 0x20 MSTORE PUSH1 0x40 SWAP1 KECCAK256 SLOAD PUSH1 0x1 PUSH1 0x1 PUSH1 0xA0 SHL SUB AND ISZERO PUSH2 0x1328 JUMPI PUSH1 0x40 MLOAD PUSH3 0x461BCD PUSH1 0xE5 SHL DUP2 MSTORE PUSH1 0x20 PUSH1 0x4 DUP3 ADD MSTORE PUSH1 0x1C PUSH1 0x24 DUP3 ADD MSTORE PUSH32 0x4552433732313A20746F6B656E20616C7265616479206D696E74656400000000 PUSH1 0x44 DUP3 ADD MSTORE PUSH1 0x64 ADD PUSH2 0x37D JUMP JUMPDEST PUSH1 0x1 PUSH1 0x1 PUSH1 0xA0 SHL SUB DUP3 AND PUSH1 0x0 SWAP1 DUP2 MSTORE PUSH1 0x4 PUSH1 0x20 MSTORE PUSH1 0x40 SWAP1 KECCAK256 SLOAD ISZERO PUSH2 0x13AA JUMPI PUSH1 0x40 MLOAD PUSH3 0x461BCD PUSH1 0xE5 SHL DUP2 MSTORE PUSH1 0x20 PUSH1 0x4 DUP3 ADD MSTORE PUSH1 0x33 PUSH1 0x24 DUP3 ADD MSTORE PUSH32 0x4552433732313A204F6E6C79206F6E6520455850657269656E63655669657765 PUSH1 0x44 DUP3 ADD MSTORE PUSH19 0x7220284E465429207065722061646472657373 PUSH1 0x68 SHL PUSH1 0x64 DUP3 ADD MSTORE PUSH1 0x84 ADD PUSH2 0x37D JUMP JUMPDEST PUSH1 0x1 PUSH1 0x1 PUSH1 0xA0 SHL SUB DUP3 AND PUSH1 0x0 SWAP1 DUP2 MSTORE PUSH1 0x4 PUSH1 0x20 MSTORE PUSH1 0x40 DUP2 KECCAK256 DUP1 SLOAD PUSH1 0x1 SWAP3 SWAP1 PUSH2 0x13D3 SWAP1 DUP5 SWAP1 PUSH2 0x1D16 JUMP JUMPDEST SWAP1 SWAP2 SSTORE POP POP PUSH1 0x0 DUP2 DUP2 MSTORE PUSH1 0x3 PUSH1 0x20 MSTORE PUSH1 0x40 DUP1 DUP3 KECCAK256 DUP1 SLOAD PUSH1 0x1 PUSH1 0x1 PUSH1 0xA0 SHL SUB NOT AND PUSH1 0x1 PUSH1 0x1 PUSH1 0xA0 SHL SUB DUP7 AND SWAP1 DUP2 OR SWAP1 SWAP2 SSTORE SWAP1 MLOAD DUP4 SWAP3 SWAP1 PUSH32 0xDDF252AD1BE2C89B69C2B068FC378DAA952BA7F163C4A11628F55A4DF523B3EF SWAP1 DUP3 SWAP1 LOG4 POP POP JUMP JUMPDEST PUSH1 0x0 PUSH1 0x20 DUP3 DUP5 SUB SLT ISZERO PUSH2 0x1443 JUMPI PUSH1 0x0 DUP1 REVERT JUMPDEST DUP2 CALLDATALOAD PUSH1 0x1 PUSH1 0x1 PUSH1 0xE0 SHL SUB NOT DUP2 AND DUP2 EQ PUSH2 0x1266 JUMPI PUSH1 0x0 DUP1 REVERT JUMPDEST PUSH1 0x0 JUMPDEST DUP4 DUP2 LT ISZERO PUSH2 0x1476 JUMPI DUP2 DUP2 ADD MLOAD DUP4 DUP3 ADD MSTORE PUSH1 0x20 ADD PUSH2 0x145E JUMP JUMPDEST DUP4 DUP2 GT ISZERO PUSH2 0x1485 JUMPI PUSH1 0x0 DUP5 DUP5 ADD MSTORE JUMPDEST POP POP POP POP JUMP JUMPDEST PUSH1 0x20 DUP2 MSTORE PUSH1 0x0 DUP3 MLOAD DUP1 PUSH1 0x20 DUP5 ADD MSTORE PUSH2 0x14AA DUP2 PUSH1 0x40 DUP6 ADD PUSH1 0x20 DUP8 ADD PUSH2 0x145B JUMP JUMPDEST PUSH1 0x1F ADD PUSH1 0x1F NOT AND SWAP2 SWAP1 SWAP2 ADD PUSH1 0x40 ADD SWAP3 SWAP2 POP POP JUMP JUMPDEST PUSH1 0x0 PUSH1 0x20 DUP3 DUP5 SUB SLT ISZERO PUSH2 0x14D0 JUMPI PUSH1 0x0 DUP1 REVERT JUMPDEST POP CALLDATALOAD SWAP2 SWAP1 POP JUMP JUMPDEST DUP1 CALLDATALOAD PUSH1 0x1 PUSH1 0x1 PUSH1 0xA0 SHL SUB DUP2 AND DUP2 EQ PUSH2 0xF5B JUMPI PUSH1 0x0 DUP1 REVERT JUMPDEST PUSH1 0x0 DUP1 PUSH1 0x40 DUP4 DUP6 SUB SLT ISZERO PUSH2 0x1501 JUMPI PUSH1 0x0 DUP1 REVERT JUMPDEST PUSH2 0x150A DUP4 PUSH2 0x14D7 JUMP JUMPDEST SWAP5 PUSH1 0x20 SWAP4 SWAP1 SWAP4 ADD CALLDATALOAD SWAP4 POP POP POP JUMP JUMPDEST PUSH1 0x0 DUP1 PUSH1 0x0 PUSH1 0x60 DUP5 DUP7 SUB SLT ISZERO PUSH2 0x152D JUMPI PUSH1 0x0 DUP1 REVERT JUMPDEST PUSH2 0x1536 DUP5 PUSH2 0x14D7 JUMP JUMPDEST SWAP3 POP PUSH2 0x1544 PUSH1 0x20 DUP6 ADD PUSH2 0x14D7 JUMP JUMPDEST SWAP2 POP PUSH1 0x40 DUP5 ADD CALLDATALOAD SWAP1 POP SWAP3 POP SWAP3 POP SWAP3 JUMP JUMPDEST PUSH1 0x0 DUP1 PUSH1 0x40 DUP4 DUP6 SUB SLT ISZERO PUSH2 0x1567 JUMPI PUSH1 0x0 DUP1 REVERT JUMPDEST PUSH2 0x1570 DUP4 PUSH2 0x14D7 JUMP JUMPDEST SWAP2 POP PUSH1 0x20 DUP4 ADD CALLDATALOAD DUP1 ISZERO ISZERO DUP2 EQ PUSH2 0x1585 JUMPI PUSH1 0x0 DUP1 REVERT JUMPDEST DUP1 SWAP2 POP POP SWAP3 POP SWAP3 SWAP1 POP JUMP JUMPDEST PUSH1 0x0 PUSH1 0x20 DUP3 DUP5 SUB SLT ISZERO PUSH2 0x15A2 JUMPI PUSH1 0x0 DUP1 REVERT JUMPDEST PUSH2 0x1266 DUP3 PUSH2 0x14D7 JUMP JUMPDEST PUSH4 0x4E487B71 PUSH1 0xE0 SHL PUSH1 0x0 MSTORE PUSH1 0x41 PUSH1 0x4 MSTORE PUSH1 0x24 PUSH1 0x0 REVERT JUMPDEST PUSH1 0x0 DUP1 PUSH1 0x0 DUP1 PUSH1 0x80 DUP6 DUP8 SUB SLT ISZERO PUSH2 0x15D7 JUMPI PUSH1 0x0 DUP1 REVERT JUMPDEST PUSH2 0x15E0 DUP6 PUSH2 0x14D7 JUMP JUMPDEST SWAP4 POP PUSH2 0x15EE PUSH1 0x20 DUP7 ADD PUSH2 0x14D7 JUMP JUMPDEST SWAP3 POP PUSH1 0x40 DUP6 ADD CALLDATALOAD SWAP2 POP PUSH1 0x60 DUP6 ADD CALLDATALOAD PUSH8 0xFFFFFFFFFFFFFFFF DUP1 DUP3 GT ISZERO PUSH2 0x1612 JUMPI PUSH1 0x0 DUP1 REVERT JUMPDEST DUP2 DUP8 ADD SWAP2 POP DUP8 PUSH1 0x1F DUP4 ADD SLT PUSH2 0x1626 JUMPI PUSH1 0x0 DUP1 REVERT JUMPDEST DUP2 CALLDATALOAD DUP2 DUP2 GT ISZERO PUSH2 0x1638 JUMPI PUSH2 0x1638 PUSH2 0x15AB JUMP JUMPDEST PUSH1 0x40 MLOAD PUSH1 0x1F DUP3 ADD PUSH1 0x1F NOT SWAP1 DUP2 AND PUSH1 0x3F ADD AND DUP2 ADD SWAP1 DUP4 DUP3 GT DUP2 DUP4 LT OR ISZERO PUSH2 0x1660 JUMPI PUSH2 0x1660 PUSH2 0x15AB JUMP JUMPDEST DUP2 PUSH1 0x40 MSTORE DUP3 DUP2 MSTORE DUP11 PUSH1 0x20 DUP5 DUP8 ADD ADD GT ISZERO PUSH2 0x1679 JUMPI PUSH1 0x0 DUP1 REVERT JUMPDEST DUP3 PUSH1 0x20 DUP7 ADD PUSH1 0x20 DUP4 ADD CALLDATACOPY PUSH1 0x0 PUSH1 0x20 DUP5 DUP4 ADD ADD MSTORE DUP1 SWAP6 POP POP POP POP POP POP SWAP3 SWAP6 SWAP2 SWAP5 POP SWAP3 POP JUMP JUMPDEST PUSH1 0x0 DUP1 PUSH1 0x40 DUP4 DUP6 SUB SLT ISZERO PUSH2 0x16B0 JUMPI PUSH1 0x0 DUP1 REVERT JUMPDEST PUSH2 0x16B9 DUP4 PUSH2 0x14D7 JUMP JUMPDEST SWAP2 POP PUSH2 0x16C7 PUSH1 0x20 DUP5 ADD PUSH2 0x14D7 JUMP JUMPDEST SWAP1 POP SWAP3 POP SWAP3 SWAP1 POP JUMP JUMPDEST PUSH1 0x1 DUP2 DUP2 SHR SWAP1 DUP3 AND DUP1 PUSH2 0x16E4 JUMPI PUSH1 0x7F DUP3 AND SWAP2 POP JUMPDEST PUSH1 0x20 DUP3 LT DUP2 SUB PUSH2 0x1704 JUMPI PUSH4 0x4E487B71 PUSH1 0xE0 SHL PUSH1 0x0 MSTORE PUSH1 0x22 PUSH1 0x4 MSTORE PUSH1 0x24 PUSH1 0x0 REVERT JUMPDEST POP SWAP2 SWAP1 POP JUMP JUMPDEST PUSH1 0x20 DUP1 DUP3 MSTORE PUSH1 0x29 SWAP1 DUP3 ADD MSTORE PUSH32 0x455850546F6B656E2028416363657373436F6E74726F6C293A204E6F74206175 PUSH1 0x40 DUP3 ADD MSTORE PUSH9 0x3A3437B934BD32B217 PUSH1 0xB9 SHL PUSH1 0x60 DUP3 ADD MSTORE PUSH1 0x80 ADD SWAP1 JUMP JUMPDEST PUSH1 0x0 PUSH1 0x20 DUP3 DUP5 SUB SLT ISZERO PUSH2 0x1765 JUMPI PUSH1 0x0 DUP1 REVERT JUMPDEST POP MLOAD SWAP2 SWAP1 POP JUMP JUMPDEST PUSH4 0x4E487B71 PUSH1 0xE0 SHL PUSH1 0x0 MSTORE PUSH1 0x32 PUSH1 0x4 MSTORE PUSH1 0x24 PUSH1 0x0 REVERT JUMPDEST PUSH4 0x4E487B71 PUSH1 0xE0 SHL PUSH1 0x0 MSTORE PUSH1 0x11 PUSH1 0x4 MSTORE PUSH1 0x24 PUSH1 0x0 REVERT JUMPDEST PUSH1 0x0 DUP3 DUP3 LT ISZERO PUSH2 0x17AA JUMPI PUSH2 0x17AA PUSH2 0x1782 JUMP JUMPDEST POP SUB SWAP1 JUMP JUMPDEST PUSH4 0x4E487B71 PUSH1 0xE0 SHL PUSH1 0x0 MSTORE PUSH1 0x12 PUSH1 0x4 MSTORE PUSH1 0x24 PUSH1 0x0 REVERT JUMPDEST PUSH1 0x0 DUP3 PUSH2 0x17D4 JUMPI PUSH2 0x17D4 PUSH2 0x17AF JUMP JUMPDEST POP MOD SWAP1 JUMP JUMPDEST PUSH1 0x0 PUSH1 0x1 DUP3 ADD PUSH2 0x17EB JUMPI PUSH2 0x17EB PUSH2 0x1782 JUMP JUMPDEST POP PUSH1 0x1 ADD SWAP1 JUMP JUMPDEST PUSH1 0x0 DUP3 PUSH2 0x1801 JUMPI PUSH2 0x1801 PUSH2 0x17AF JUMP JUMPDEST POP DIV SWAP1 JUMP JUMPDEST PUSH1 0x0 DUP2 MLOAD PUSH2 0x1818 DUP2 DUP6 PUSH1 0x20 DUP7 ADD PUSH2 0x145B JUMP JUMPDEST SWAP3 SWAP1 SWAP3 ADD SWAP3 SWAP2 POP POP JUMP JUMPDEST PUSH32 0x3C21444F43545950452068746D6C3E3C68746D6C3E3C6F626A65637420747970 DUP2 MSTORE PUSH32 0x653D22696D6167652F7376672B786D6C2220646174613D220000000000000000 PUSH1 0x20 DUP3 ADD MSTORE PUSH1 0x0 DUP3 MLOAD PUSH2 0x1880 DUP2 PUSH1 0x38 DUP6 ADD PUSH1 0x20 DUP8 ADD PUSH2 0x145B JUMP JUMPDEST PUSH32 0x2220616C743D22455850657269656E6365223E3C2F6F626A6563743E3C2F6874 PUSH1 0x38 SWAP4 SWAP1 SWAP2 ADD SWAP3 DUP4 ADD MSTORE POP PUSH3 0x36B61F PUSH1 0xE9 SHL PUSH1 0x58 DUP3 ADD MSTORE PUSH1 0x5B ADD SWAP2 SWAP1 POP JUMP JUMPDEST PUSH22 0x19185D184E9D195E1D0BDA1D1B5B0ED8985CD94D8D0B PUSH1 0x52 SHL DUP2 MSTORE PUSH1 0x0 DUP3 MLOAD PUSH2 0x18F1 DUP2 PUSH1 0x16 DUP6 ADD PUSH1 0x20 DUP8 ADD PUSH2 0x145B JUMP JUMPDEST SWAP2 SWAP1 SWAP2 ADD PUSH1 0x16 ADD SWAP3 SWAP2 POP POP JUMP JUMPDEST PUSH32 0x7B20226E616D65223A2022455850657269656E6365204E465420230000000000 DUP2 MSTORE PUSH1 0x1 PUSH1 0xFD SHL PUSH1 0x1B DUP3 ADD MSTORE PUSH1 0x0 DUP6 MLOAD PUSH2 0x1940 DUP2 PUSH1 0x1C DUP6 ADD PUSH1 0x20 DUP11 ADD PUSH2 0x145B JUMP JUMPDEST PUSH32 0x222C20226465736372697074696F6E223A2022455850657269656E6365204E46 PUSH1 0x1C SWAP2 DUP5 ADD SWAP2 DUP3 ADD MSTORE PUSH32 0x542E2050617274206F662045746865726E6175742044414F20626F756E746965 PUSH1 0x3C DUP3 ADD MSTORE PUSH32 0x732E20536F756C626F756E6420746F6B656E2F61737365742065787065726965 PUSH1 0x5C DUP3 ADD MSTORE PUSH32 0x6E6365207468726F7567682045585020546F6B656E20616E6420455850657269 PUSH1 0x7C DUP3 ADD MSTORE PUSH12 0x32B731B29027232A1711161 PUSH1 0xA5 SHL PUSH1 0x9C DUP3 ADD MSTORE PUSH32 0x2265787465726E616C5F75726C223A202268747470733A2F2F6769746875622E PUSH1 0xA8 DUP3 ADD MSTORE PUSH32 0x636F6D2F536F6C4465762D48502F455850657269656E63655F47616D65220000 PUSH1 0xC8 DUP3 ADD MSTORE PUSH2 0x1B24 PUSH2 0x1B09 PUSH2 0x1B03 PUSH2 0x1ADA PUSH2 0x1AD4 PUSH2 0x1AAB PUSH2 0x1AA5 PUSH1 0xE6 DUP9 ADD PUSH32 0x2C202261747472696275746573223A205B7B2274726169745F74797065223A20 DUP2 MSTORE PUSH32 0x224558502042616C616E6365222C202276616C7565223A202200000000000000 PUSH1 0x20 DUP3 ADD MSTORE PUSH1 0x39 ADD SWAP1 JUMP JUMPDEST DUP13 PUSH2 0x1806 JUMP JUMPDEST PUSH32 0x222C2022436F6C6F72697A65642D6279222C202276616C7565223A2022000000 DUP2 MSTORE PUSH1 0x1D ADD SWAP1 JUMP JUMPDEST DUP10 PUSH2 0x1806 JUMP JUMPDEST PUSH32 0x222C20224558502D5374616765222C202276616C7565223A2022000000000000 DUP2 MSTORE PUSH1 0x1A ADD SWAP1 JUMP JUMPDEST DUP7 PUSH2 0x1806 JUMP JUMPDEST PUSH15 0x113EAE96101137BBB732B9111D1011 PUSH1 0x89 SHL DUP2 MSTORE PUSH1 0xF ADD SWAP1 JUMP JUMPDEST SWAP8 SWAP7 POP POP POP POP POP POP POP JUMP JUMPDEST PUSH1 0x0 DUP6 MLOAD PUSH1 0x20 PUSH2 0x1B42 DUP3 DUP6 DUP4 DUP12 ADD PUSH2 0x145B JUMP JUMPDEST DUP7 MLOAD SWAP2 DUP5 ADD SWAP2 PUSH2 0x1B55 DUP2 DUP5 DUP5 DUP12 ADD PUSH2 0x145B JUMP JUMPDEST PUSH12 0x1116101134B6B0B3B2911D11 PUSH1 0xA1 SHL SWAP3 ADD SWAP2 DUP3 MSTORE DUP6 MLOAD PUSH2 0x1B7C DUP2 PUSH1 0xC DUP6 ADD DUP5 DUP11 ADD PUSH2 0x145B JUMP JUMPDEST PUSH20 0x1116101130B734B6B0BA34B7B72FBAB936111D11 PUSH1 0x61 SHL PUSH1 0xC SWAP4 SWAP1 SWAP2 ADD SWAP3 DUP4 ADD MSTORE DUP5 MLOAD PUSH2 0x1BAF DUP2 DUP4 DUP6 ADD DUP5 DUP10 ADD PUSH2 0x145B JUMP JUMPDEST PUSH2 0x227D PUSH1 0xF0 SHL SWAP3 ADD SWAP1 DUP2 ADD SWAP2 SWAP1 SWAP2 MSTORE PUSH1 0x22 ADD SWAP7 SWAP6 POP POP POP POP POP POP JUMP JUMPDEST PUSH32 0x646174613A6170706C69636174696F6E2F6A736F6E3B6261736536342C000000 DUP2 MSTORE PUSH1 0x0 DUP3 MLOAD PUSH2 0x1C03 DUP2 PUSH1 0x1D DUP6 ADD PUSH1 0x20 DUP8 ADD PUSH2 0x145B JUMP JUMPDEST SWAP2 SWAP1 SWAP2 ADD PUSH1 0x1D ADD SWAP3 SWAP2 POP POP JUMP JUMPDEST PUSH1 0x0 DUP11 MLOAD PUSH2 0x1C22 DUP2 DUP5 PUSH1 0x20 DUP16 ADD PUSH2 0x145B JUMP JUMPDEST DUP11 MLOAD PUSH2 0x1C34 DUP2 DUP4 DUP7 ADD PUSH1 0x20 DUP16 ADD PUSH2 0x145B JUMP JUMPDEST DUP11 MLOAD SWAP2 DUP5 ADD ADD SWAP1 PUSH2 0x1C49 DUP2 DUP4 PUSH1 0x20 DUP15 ADD PUSH2 0x145B JUMP JUMPDEST DUP10 MLOAD PUSH2 0x1C5B DUP2 DUP4 DUP6 ADD PUSH1 0x20 DUP15 ADD PUSH2 0x145B JUMP JUMPDEST DUP10 MLOAD SWAP3 SWAP1 SWAP2 ADD ADD SWAP1 PUSH2 0x1C71 DUP2 DUP4 PUSH1 0x20 DUP13 ADD PUSH2 0x145B JUMP JUMPDEST DUP8 MLOAD PUSH2 0x1C83 DUP2 DUP4 DUP6 ADD PUSH1 0x20 DUP13 ADD PUSH2 0x145B JUMP JUMPDEST DUP8 MLOAD SWAP3 SWAP1 SWAP2 ADD ADD SWAP1 PUSH2 0x1C99 DUP2 DUP4 PUSH1 0x20 DUP11 ADD PUSH2 0x145B JUMP JUMPDEST DUP6 MLOAD PUSH2 0x1CAB DUP2 DUP4 DUP6 ADD PUSH1 0x20 DUP11 ADD PUSH2 0x145B JUMP JUMPDEST DUP6 MLOAD SWAP3 SWAP1 SWAP2 ADD ADD SWAP1 PUSH2 0x1CC1 DUP2 DUP4 PUSH1 0x20 DUP9 ADD PUSH2 0x145B JUMP JUMPDEST ADD SWAP12 SWAP11 POP POP POP POP POP POP POP POP POP POP POP JUMP JUMPDEST PUSH32 0x646174613A696D6167652F7376672B786D6C3B6261736536342C000000000000 DUP2 MSTORE PUSH1 0x0 DUP3 MLOAD PUSH2 0x1D09 DUP2 PUSH1 0x1A DUP6 ADD PUSH1 0x20 DUP8 ADD PUSH2 0x145B JUMP JUMPDEST SWAP2 SWAP1 SWAP2 ADD PUSH1 0x1A ADD SWAP3 SWAP2 POP POP JUMP JUMPDEST PUSH1 0x0 DUP3 NOT DUP3 GT ISZERO PUSH2 0x1D29 JUMPI PUSH2 0x1D29 PUSH2 0x1782 JUMP JUMPDEST POP ADD SWAP1 JUMP JUMPDEST PUSH1 0x0 DUP2 PUSH1 0x0 NOT DIV DUP4 GT DUP3 ISZERO ISZERO AND ISZERO PUSH2 0x1D48 JUMPI PUSH2 0x1D48 PUSH2 0x1782 JUMP JUMPDEST POP MUL SWAP1 JUMP JUMPDEST PUSH1 0x0 DUP2 PUSH2 0x1D5C JUMPI PUSH2 0x1D5C PUSH2 0x1782 JUMP JUMPDEST POP PUSH1 0x0 NOT ADD SWAP1 JUMP INVALID EXTCODECOPY 0x2F PUSH5 0x69763E3C2F PUSH5 0x69763E3C2F PUSH5 0x69763E3C2F PUSH7 0x6F726569676E4F PUSH3 0x6A6563 PUSH21 0x3E3C2F7376673E3C737667206865696768743D2231 BALANCE CALLDATALOAD PUSH17 0x78222077696474683D2231323570782220 KECCAK256 PUSH23 0x696577426F783D2230203020353132203531322220786D PUSH13 0x6E733D22687474703A2F2F7777 PUSH24 0x2E77332E6F72672F323030302F737667223E3C7061746820 PUSH7 0x696C6C3D222366 PUSH7 0x662220643D224D ORIGIN CALLDATASIZE ADDRESS 0x2E CALLDATACOPY ORIGIN KECCAK256 ORIGIN CODECOPY 0x2E ADDRESS CODECOPY CALLVALUE PUSH4 0x2D35342E CALLDATALOAD CALLER CALLER KECCAK256 ADDRESS 0x2D CODECOPY CODESIZE 0x2E CODECOPY CALLDATACOPY KECCAK256 ORIGIN BALANCE 0x2E CALLDATACOPY ADDRESS CALLVALUE 0x2D CODECOPY CODESIZE 0x2E CODECOPY CALLDATACOPY KECCAK256 CALLVALUE CODESIZE 0x2E CALLER BALANCE ORIGIN KECCAK256 ADDRESS KECCAK256 ORIGIN CALLDATASIZE 0x2E CALLDATASIZE BALANCE KECCAK256 CALLVALUE CALLVALUE 0x2E CALLVALUE CALLER CALLDATACOPY KECCAK256 CALLVALUE CODESIZE 0x2E ORIGIN CODESIZE KECCAK256 CODECOPY CODESIZE 0x2E CODECOPY CALLDATACOPY KECCAK256 CALLVALUE CODESIZE 0x2E ORIGIN CODESIZE KECCAK256 CALLDATALOAD CALLVALUE 0x2E CALLDATALOAD CALLER KECCAK256 ADDRESS KECCAK256 CODECOPY CODESIZE 0x2E CODECOPY CALLDATASIZE CALLDATACOPY 0x2D ORIGIN BALANCE 0x2E CALLDATASIZE CALLDATACOPY KECCAK256 CODECOPY CODESIZE 0x2E CODECOPY CALLDATASIZE CALLDATACOPY 0x2D CALLVALUE CODESIZE 0x2E ORIGIN CODESIZE MSTORE8 CALLER BALANCE CALLDATALOAD 0x2E ORIGIN CALLDATALOAD KECCAK256 ORIGIN CODECOPY 0x2E ADDRESS CODECOPY CALLVALUE KECCAK256 ORIGIN CALLDATASIZE ADDRESS 0x2E CALLDATACOPY ORIGIN KECCAK256 ORIGIN CODECOPY 0x2E ADDRESS CODECOPY CALLVALUE PUSH27 0x6D302031332E32356334302E303720302037312E38312031352E35 ADDRESS CODESIZE KECCAK256 CALLDATACOPY BALANCE 0x2E CODESIZE BALANCE KECCAK256 CALLER CALLDATALOAD 0x2E ADDRESS CALLDATASIZE ORIGIN PUSH20 0x2D33312E37342033352E34372D37312E38312033 CALLDATALOAD 0x2E CALLVALUE CALLDATACOPY PUSH4 0x2D34302E ADDRESS CALLDATACOPY CALLER KECCAK256 ADDRESS 0x2D CALLDATACOPY ORIGIN 0x2E CALLDATASIZE CODECOPY 0x2D BALANCE CALLDATALOAD 0x2E CODECOPY BALANCE CALLDATASIZE 0x2D CALLDATACOPY ORIGIN 0x2E CALLDATASIZE CODECOPY 0x2D CALLER CALLDATALOAD 0x2E CALLVALUE CALLDATACOPY KECCAK256 ADDRESS 0x2D BALANCE CODECOPY 0x2E CALLDATALOAD CALLDATALOAD ORIGIN KECCAK256 CALLER ORIGIN 0x2E CALLDATASIZE BALANCE CALLDATACOPY 0x2D CALLER CALLDATALOAD 0x2E ADDRESS CALLDATASIZE CALLVALUE KECCAK256 CALLDATACOPY ORIGIN 0x2E CALLDATASIZE CODECOPY 0x2D CALLER CALLDATALOAD 0x2E ADDRESS CALLDATASIZE ORIGIN PUSH27 0x4D38362E35332035372E313837632D31332E3234322D2E3039342D CALLER ORIGIN 0x2E ORIGIN CALLER CALLVALUE KECCAK256 BALANCE CALLVALUE 0x2E CALLDATALOAD CODECOPY 0x2D CALLVALUE ORIGIN 0x2E CALLER BALANCE KECCAK256 CALLER CALLDATACOPY 0x2E CALLDATASIZE CODESIZE CODESIZE 0x2D CALLVALUE CALLER 0x2E CALLER KECCAK256 CODECOPY CODECOPY 0x2E ORIGIN CALLVALUE CALLVALUE 0x2D CODECOPY 0x2E CALLDATALOAD CODESIZE CALLER KECCAK256 CALLER CALLDATALOAD CODECOPY 0x2E CALLDATASIZE CODECOPY CALLDATALOAD KECCAK256 CODESIZE CALLDATACOPY 0x2E CODESIZE CALLDATACOPY CALLVALUE KECCAK256 CALLER CALLDATALOAD BALANCE 0x2E CODECOPY CALLDATACOPY 0x2D ORIGIN ORIGIN 0x2E ADDRESS ADDRESS ORIGIN 0x2D CALLDATALOAD ADDRESS 0x2E CALLVALUE CODECOPY ORIGIN 0x2D CALLVALUE CALLER 0x2E CODESIZE 0x2D BALANCE ADDRESS CALLDATACOPY 0x2E CODECOPY CODESIZE CALLER 0x2D CALLDATALOAD CALLDATASIZE 0x2E CALLDATACOPY ORIGIN 0x2D BALANCE CALLDATASIZE CODESIZE 0x2E CALLDATACOPY CALLDATALOAD KECCAK256 ORIGIN CALLDATASIZE 0x2E CALLER CALLER CALLDATACOPY KECCAK256 CALLDATACOPY ORIGIN 0x2E CALLVALUE CODECOPY CALLVALUE KECCAK256 CALLDATACOPY ORIGIN 0x2E CALLER CALLER KECCAK256 BALANCE CALLER CALLDATALOAD 0x2E CALLDATALOAD CODESIZE KECCAK256 BALANCE BALANCE CALLDATACOPY 0x2E CODESIZE CALLVALUE CALLDATALOAD KECCAK256 BALANCE ORIGIN ADDRESS 0x2E BALANCE CODESIZE CALLDATASIZE 0x2D CALLER ORIGIN 0x2E ADDRESS BALANCE CALLDATACOPY 0x2D CALLVALUE ADDRESS 0x2E BALANCE CODESIZE CALLDATALOAD 0x2D CALLDATASIZE CALLDATASIZE 0x2E ADDRESS CALLVALUE CODESIZE 0x2D CODESIZE CALLDATACOPY 0x2E ORIGIN CALLDATASIZE CALLDATALOAD 0x2D CODECOPY ADDRESS 0x2E ADDRESS CALLER ORIGIN 0x2D BALANCE CALLVALUE ADDRESS 0x2E CALLER CALLVALUE ORIGIN KECCAK256 CALLER CALLDATALOAD 0x2E ADDRESS BALANCE CALLDATASIZE KECCAK256 CALLDATALOAD CODECOPY 0x2E BALANCE CALLDATACOPY CALLDATALOAD KECCAK256 CODESIZE CALLDATALOAD 0x2E CALLER CALLDATACOPY KECCAK256 BALANCE ADDRESS CALLDATALOAD 0x2E CODESIZE CALLDATALOAD CALLER KECCAK256 BALANCE ORIGIN CALLER 0x2E ADDRESS CALLER KECCAK256 CODESIZE CALLDATALOAD 0x2E CALLDATALOAD 0x2D ORIGIN CODECOPY 0x2E CALLDATACOPY CALLVALUE ORIGIN 0x2D ORIGIN CALLDATASIZE 0x2E CALLDATALOAD CODESIZE CALLER 0x2D CALLDATASIZE BALANCE 0x2E CALLDATALOAD CALLDATASIZE CODESIZE 0x2D CALLDATALOAD CALLDATACOPY 0x2E CALLDATALOAD ORIGIN CALLVALUE 0x2D CODESIZE CODESIZE 0x2E CODESIZE BALANCE ORIGIN 0x2D CODECOPY CALLER 0x2E ORIGIN CALLDATALOAD KECCAK256 CALLER CODECOPY 0x2E CALLDATASIZE CALLVALUE CALLDATACOPY KECCAK256 CALLER CALLDATACOPY 0x2E CALLER CODESIZE KECCAK256 CODESIZE CALLDATACOPY 0x2E ADDRESS CODECOPY ORIGIN KECCAK256 CALLDATASIZE BALANCE 0x2E CALLER CALLVALUE KECCAK256 BALANCE BALANCE ORIGIN 0x2E ORIGIN CALLDATALOAD KECCAK256 CALLER CALLDATACOPY 0x2E CALLDATACOPY CALLDATALOAD 0x2D CALLVALUE CALLDATACOPY 0x2E CALLDATASIZE CODECOPY 0x2D ORIGIN BALANCE 0x2E ADDRESS CALLDATACOPY 0x2D CODECOPY CALLVALUE 0x2E CALLER CALLDATACOPY 0x2D CALLDATALOAD CALLER 0x2E CALLDATASIZE CALLDATACOPY 0x2D BALANCE ORIGIN CALLDATALOAD 0x2E ADDRESS CALLDATASIZE ORIGIN 0x2D CODESIZE CODECOPY 0x2E CALLDATACOPY CALLDATALOAD 0x2D BALANCE CALLDATASIZE 0x2E CALLER BALANCE ORIGIN 0x2D BALANCE CODECOPY 0x2E BALANCE CALLDATACOPY CALLDATASIZE 0x2D ORIGIN CODESIZE 0x2E BALANCE CODECOPY CALLDATALOAD 0x2D CALLER CODECOPY 0x2E CALLER CODECOPY 0x2D CALLER ORIGIN 0x2E CALLDATACOPY ORIGIN 0x2D CALLDATASIZE ADDRESS 0x2D ORIGIN 0x2E ORIGIN CALLDATASIZE 0x2D BALANCE ADDRESS 0x2E CALLER ADDRESS CALLDATASIZE 0x2D ORIGIN 0x2E CALLDATALOAD ADDRESS CODESIZE 0x2D ORIGIN ADDRESS 0x2E CALLDATACOPY CODECOPY CALLDATASIZE 0x2D 0x2E CALLVALUE CALLDATASIZE CODESIZE 0x2D CALLER ADDRESS 0x2E CODECOPY CALLER CODESIZE 0x2E ADDRESS ORIGIN 0x2D 0x2E ADDRESS CODECOPY CALLDATALOAD 0x2E ADDRESS CALLVALUE CALLER 0x2D 0x2E BALANCE CODESIZE CALLDATASIZE 0x2E ADDRESS CALLDATASIZE CALLER 0x2D 0x2E ORIGIN CODESIZE 0x2E ADDRESS ADDRESS CALLDATACOPY 0x2D 0x2E ADDRESS CALLVALUE CALLVALUE 0x2E ADDRESS ORIGIN ORIGIN 0x2D 0x2E ADDRESS CODESIZE CALLER 0x2E ADDRESS CALLER 0x2D 0x2E BALANCE ORIGIN CALLDATASIZE KECCAK256 CALLVALUE 0x2E ADDRESS CALLDATALOAD 0x2D ORIGIN BALANCE 0x2E ORIGIN CALLDATASIZE CALLDATALOAD KECCAK256 BALANCE CALLDATALOAD 0x2E ADDRESS CALLVALUE CALLER 0x2D CALLER CALLDATALOAD 0x2E CALLVALUE BALANCE CALLER KECCAK256 CALLVALUE 0x2E CALLDATALOAD 0x2D CALLVALUE CALLDATALOAD 0x2E CODECOPY CALLDATACOPY 0x2D ORIGIN 0x2E CALLVALUE CODESIZE CALLVALUE 0x2D ORIGIN 0x2E CALLVALUE CODESIZE CALLDATACOPY 0x2D CALLDATALOAD 0x2E CALLDATACOPY CALLDATASIZE 0x2D CALLER 0x2E CALLDATASIZE CALLDATASIZE 0x2D CODECOPY 0x2E CALLVALUE CALLDATACOPY 0x2D CALLER 0x2E CALLDATASIZE CODESIZE CALLDATACOPY PUSH27 0x6D3334372E3635382030632D332E37312E3032372D362E39353420 BALANCE 0x2E ORIGIN 0x2D CODECOPY 0x2E CALLVALUE CALLER CODESIZE KECCAK256 CALLER 0x2E CALLDATASIZE CODESIZE CODESIZE 0x2D CODESIZE 0x2E BALANCE CALLDATACOPY CALLDATASIZE KECCAK256 CODESIZE 0x2E BALANCE CODESIZE CALLDATASIZE 0x2D CALLER 0x2E CALLVALUE BALANCE CALLDATASIZE KECCAK256 BALANCE CODESIZE 0x2E CALLDATALOAD CALLDATASIZE CALLVALUE KECCAK256 BALANCE 0x2E ADDRESS CALLER KECCAK256 CALLER ORIGIN 0x2E CALLDATACOPY ORIGIN KECCAK256 CALLDATASIZE 0x2E BALANCE CALLDATALOAD CALLER KECCAK256 BALANCE CALLVALUE 0x2E BALANCE CODESIZE CALLDATACOPY KECCAK256 CALLDATACOPY 0x2E BALANCE CALLVALUE CALLVALUE KECCAK256 ORIGIN CODECOPY 0x2E CALLDATALOAD CALLDATASIZE CALLDATASIZE KECCAK256 CALLER 0x2E CODESIZE CALLVALUE CALLDATALOAD KECCAK256 CALLVALUE CALLVALUE 0x2E CALLDATALOAD CODECOPY CALLER 0x2D CALLVALUE 0x2E CALLDATALOAD ORIGIN CALLVALUE KECCAK256 ORIGIN ADDRESS 0x2E CALLDATASIZE BALANCE 0x2D BALANCE CALLDATASIZE 0x2E CALLVALUE CALLVALUE KECCAK256 CALLVALUE ADDRESS 0x2E CODESIZE ORIGIN CALLVALUE 0x2D CALLER ORIGIN 0x2E CALLDATACOPY CALLDATALOAD KECCAK256 CALLDATASIZE ADDRESS 0x2D CALLER ADDRESS 0x2E CALLDATACOPY CODECOPY CODESIZE KECCAK256 CALLER CALLDATASIZE 0x2E ORIGIN ADDRESS CALLDATASIZE 0x2D CALLDATACOPY CALLDATACOPY 0x2E CALLDATASIZE CALLDATACOPY KECCAK256 CALLDATASIZE CODESIZE 0x2E CODECOPY ADDRESS CALLDATACOPY 0x2D BALANCE ORIGIN CALLDATALOAD 0x2E CALLDATALOAD CALLER KECCAK256 CODESIZE CODECOPY 0x2E CODECOPY CALLDATASIZE CODESIZE KECCAK256 ORIGIN CALLDATALOAD 0x2E ORIGIN ORIGIN KECCAK256 ORIGIN CALLER 0x2E ORIGIN ADDRESS CODESIZE KECCAK256 CALLDATACOPY ORIGIN 0x2E CALLVALUE CODESIZE ORIGIN 0x2D 0x2E CALLDATACOPY BALANCE KECCAK256 BALANCE BALANCE ORIGIN 0x2D CALLER CALLDATACOPY 0x2E CODECOPY CALLDATACOPY 0x2D ORIGIN CALLDATACOPY 0x2E ORIGIN CALLVALUE CALLDATALOAD KECCAK256 CALLER CALLDATALOAD 0x2E CALLDATACOPY ORIGIN CODESIZE 0x2D CALLDATALOAD CODECOPY 0x2E ADDRESS CALLDATACOPY KECCAK256 CALLDATASIZE CALLDATASIZE 0x2E CALLDATASIZE CALLDATACOPY 0x2D CODESIZE CODESIZE 0x2E CODESIZE BALANCE CALLVALUE KECCAK256 CODECOPY CALLER 0x2E ORIGIN CALLDATALOAD KECCAK256 CALLER CALLDATACOPY 0x2E CALLDATASIZE CALLDATASIZE ORIGIN KECCAK256 ORIGIN ADDRESS 0x2E CALLER CALLDATALOAD CALLDATALOAD KECCAK256 CODESIZE CODESIZE 0x2E ADDRESS BALANCE CALLDATASIZE 0x2D ORIGIN CALLDATASIZE 0x2E CALLER ORIGIN CALLER KECCAK256 BALANCE ORIGIN CALLER 0x2E ADDRESS CALLER CALLER 0x2D CODESIZE CALLDATALOAD 0x2E CALLVALUE CODECOPY CODESIZE 0x2D ORIGIN CALLER 0x2E CODECOPY CODESIZE CALLDATALOAD KECCAK256 CALLDATALOAD CALLER 0x2E ADDRESS CALLDATACOPY CALLDATACOPY 0x2D CALLDATALOAD CODESIZE 0x2E ADDRESS BALANCE CALLDATASIZE KECCAK256 BALANCE ADDRESS ADDRESS 0x2E BALANCE CALLDATALOAD CALLDATACOPY 0x2D CODECOPY ADDRESS 0x2E ADDRESS CALLER ORIGIN KECCAK256 BALANCE CALLVALUE ADDRESS 0x2E CALLER CALLVALUE CALLER KECCAK256 CALLVALUE CALLDATALOAD 0x2E CALLDATALOAD BALANCE CALLDATALOAD KECCAK256 BALANCE CALLDATALOAD 0x2E CALLER CODECOPY CALLDATALOAD KECCAK256 CODECOPY BALANCE 0x2E CALLVALUE CALLDATACOPY CODESIZE 0x2D CALLVALUE CALLDATACOPY 0x2E CALLDATASIZE CODECOPY KECCAK256 BALANCE BALANCE CALLDATACOPY 0x2E CODESIZE BALANCE CALLVALUE 0x2D BALANCE ORIGIN ADDRESS 0x2E BALANCE CODESIZE CALLDATASIZE 0x2D BALANCE ORIGIN 0x2E CODECOPY BALANCE CODESIZE KECCAK256 CALLDATASIZE ADDRESS 0x2E CALLDATACOPY CALLDATASIZE CODESIZE 0x2D CALLER CALLVALUE 0x2E CALLDATASIZE CODESIZE CALLDATASIZE KECCAK256 BALANCE BALANCE CODESIZE 0x2E ORIGIN CALLDATASIZE 0x2D CALLDATALOAD CALLDATASIZE 0x2E CALLDATASIZE CODESIZE CODESIZE KECCAK256 BALANCE CALLDATASIZE CODESIZE 0x2E CALLDATACOPY CALLDATALOAD KECCAK256 CODECOPY CALLDATACOPY 0x2E CALLVALUE CALLDATALOAD CALLDATACOPY KECCAK256 CALLDATACOPY 0x2E CALLDATACOPY ORIGIN CALLDATASIZE KECCAK256 BALANCE CALLER BALANCE 0x2E BALANCE CALLVALUE ORIGIN 0x2D ORIGIN CALLDATALOAD ORIGIN 0x2E CALLDATACOPY ORIGIN CALLDATALOAD KECCAK256 CODESIZE CALLDATACOPY 0x2E CODESIZE CALLVALUE CALLVALUE 0x2D CALLER CALLDATALOAD BALANCE 0x2E CODECOPY CALLDATACOPY 0x2D BALANCE ADDRESS 0x2E ADDRESS CALLDATACOPY CALLDATACOPY 0x2D ORIGIN CALLER 0x2E ADDRESS CODECOPY CALLDATACOPY 0x2D ORIGIN CODECOPY 0x2E ADDRESS CALLDATACOPY 0x2D CALLER CALLDATACOPY 0x2E CALLDATACOPY CODESIZE 0x2D CALLVALUE ORIGIN 0x2E CALLER BALANCE CALLER 0x2D CALLER CALLDATACOPY 0x2E CALLDATASIZE CODESIZE CALLDATASIZE PUSH27 0x6D2D32322E32322037332E3937632D3130302E3339372036382E32 ORIGIN CODESIZE 0x2D ORIGIN ADDRESS ADDRESS 0x2E CALLDATACOPY CALLER CALLER KECCAK256 CODESIZE ORIGIN 0x2E CALLVALUE CALLDATASIZE ORIGIN 0x2D CALLER ADDRESS BALANCE 0x2E ORIGIN CALLDATALOAD KECCAK256 CALLDATALOAD 0x2E CALLVALUE CALLDATASIZE CODESIZE KECCAK256 CALLVALUE 0x2E ADDRESS ORIGIN KECCAK256 BALANCE CALLDATALOAD 0x2E CALLDATASIZE CALLDATALOAD CALLDATALOAD KECCAK256 BALANCE CALLER 0x2E CODESIZE CODECOPY KECCAK256 CALLER ORIGIN 0x2E CALLDATACOPY CALLER CALLER KECCAK256 ORIGIN CODESIZE 0x2E BALANCE ORIGIN CALLDATASIZE KECCAK256 CALLVALUE CODECOPY 0x2E CALLVALUE CALLDATACOPY KECCAK256 ORIGIN CODESIZE 0x2E CODECOPY ORIGIN ORIGIN KECCAK256 CALLER CALLVALUE KECCAK256 CALLDATACOPY CALLDATALOAD 0x2E CALLVALUE CODESIZE KECCAK256 CALLDATASIZE CALLDATASIZE 0x2E CALLER CALLDATACOPY CODESIZE KECCAK256 BALANCE ORIGIN BALANCE 0x2E CODECOPY ADDRESS CALLDATASIZE KECCAK256 CODESIZE CALLDATASIZE 0x2E CALLER BALANCE KECCAK256 CALLVALUE CALLDATASIZE 0x2E CALLVALUE ORIGIN CALLDATASIZE 0x2D BALANCE CODECOPY 0x2E CODECOPY CALLER ORIGIN KECCAK256 CODECOPY ORIGIN 0x2E CODECOPY CODESIZE CALLVALUE 0x2D CALLDATALOAD ORIGIN 0x2E CALLER BALANCE KECCAK256 BALANCE ORIGIN BALANCE 0x2E CODECOPY ADDRESS CALLDATASIZE 0x2D CODESIZE CALLDATASIZE 0x2E CALLER BALANCE KECCAK256 BALANCE CALLVALUE 0x2E CODECOPY CODESIZE 0x2D BALANCE CALLDATACOPY 0x2E CALLDATASIZE BALANCE CALLER KECCAK256 ORIGIN CALLDATALOAD 0x2E BALANCE CALLER CODESIZE 0x2D CALLER CALLDATALOAD 0x2E CALLDATALOAD CODECOPY CALLVALUE KECCAK256 ORIGIN CODESIZE 0x2E CALLDATACOPY ORIGIN 0x2D CALLDATALOAD BALANCE 0x2E CODECOPY ADDRESS CALLDATACOPY 0x2E ORIGIN ORIGIN CALLER 0x2D BALANCE 0x2E ADDRESS ORIGIN 0x2E CALLVALUE BALANCE CALLDATASIZE 0x2D ORIGIN 0x2E ADDRESS ORIGIN CALLDATACOPY 0x2E CALLDATALOAD CODECOPY CALLER 0x2D CALLER 0x2E ADDRESS CALLER ORIGIN PUSH27 0x222F3E3C2F7376673E3C2F6469763E3C64697620636C6173733D22 PUSH21 0x6578742220786D6C6E733D22687474703A2F2F7777 PUSH24 0x2E77332E6F72672F313939392F7868746D6C223E20203C73 PUSH23 0x6720783D22302220793D2230222076696577426F783D22 ADDRESS KECCAK256 ADDRESS KECCAK256 CALLER ADDRESS ADDRESS KECCAK256 CALLER ADDRESS ADDRESS 0x22 KECCAK256 PUSH6 0x6E61626C652D PUSH3 0x61636B PUSH8 0x726F756E643D226E PUSH6 0x772030203020 CALLER ADDRESS ADDRESS KECCAK256 CALLER ADDRESS ADDRESS 0x22 KECCAK256 PUSH25 0x6D6C3A73706163653D2270726573657276652220786D6C6E73 RETURNDATASIZE 0x22 PUSH9 0x7474703A2F2F777777 0x2E PUSH24 0x332E6F72672F323030302F737667223E203C646566733E20 EXTCODECOPY PUSH17 0x6174682069643D22636972636C65506174 PUSH9 0x2220643D22204D2031 CALLDATALOAD ADDRESS 0x2C KECCAK256 BALANCE CALLDATALOAD ADDRESS KECCAK256 PUSH14 0x202D3132302C2030206120313230 0x2C BALANCE ORIGIN ADDRESS KECCAK256 ADDRESS KECCAK256 ADDRESS 0x2C BALANCE KECCAK256 ORIGIN CALLVALUE ADDRESS 0x2C ADDRESS KECCAK256 PUSH2 0x2031 ORIGIN ADDRESS 0x2C BALANCE ORIGIN ADDRESS KECCAK256 ADDRESS KECCAK256 ADDRESS 0x2C BALANCE KECCAK256 0x2D ORIGIN CALLVALUE ADDRESS 0x2C ADDRESS KECCAK256 0x22 KECCAK256 KECCAK256 0x2F RETURNDATACOPY KECCAK256 EXTCODECOPY 0x2F PUSH5 0x6566733E20 EXTCODECOPY PUSH8 0x3E203C746578743E KECCAK256 EXTCODECOPY PUSH21 0x6578745061746820687265663D2223636972636C65 POP PUSH2 0x7468 0x22 KECCAK256 PUSH25 0x6D6C3A73706163653D227072657365727665223E4558506572 PUSH10 0x656E6365204E46542120 KECCAK256 KECCAK256 KECCAK256 KECCAK256 KECCAK256 KECCAK256 KECCAK256 KECCAK256 KECCAK256 KECCAK256 KECCAK256 KECCAK256 KECCAK256 KECCAK256 KECCAK256 KECCAK256 CHAINID PUSH16 0x722E45746865726E61757444414F2020 KECCAK256 EXTCODECOPY 0x2F PUSH21 0x657874506174683E3C2F746578743E3C2F673E3C2F PUSH20 0x76673E3C2F6469763E3C64697620636C6173733D 0x22 PUSH3 0x757474 PUSH16 0x6E2220786D6C6E733D22687474703A2F 0x2F PUSH24 0x77772E77332E6F72672F313939392F7868746D6C223E5B45 PC POP 0x5D KECCAK256 0x4C PUSH6 0x76656C202D20 EXTCODESIZE KECCAK256 PUSH3 0x6F7264 PUSH6 0x723A20327078 KECCAK256 PUSH20 0x6F6C69643B20616E696D6174696F6E3A20736C69 PUSH5 0x6520312E34 PUSH20 0x20656173652D696E2D6F757420696E66696E6974 PUSH6 0x3B2063757273 PUSH16 0x723A20706F696E7465723B7D202E6275 PUSH21 0x746F6E3A686F766572207B20636F6C6F723A202330 ADDRESS ADDRESS EXTCODESIZE KECCAK256 PUSH3 0x61636B PUSH8 0x726F756E643A2023 PUSH7 0x66663B20626F72 PUSH5 0x65722D636F PUSH13 0x6F723A20233030303B7D20406B PUSH6 0x796672616D65 PUSH20 0x20736C696465207B203025207B207472616E7366 PUSH16 0x726D3A207472616E736C617465582831 ADDRESS PUSH17 0x7829207D20353025207B7472616E73666F PUSH19 0x6D3A207472616E736C61746558282D31307078 0x29 KECCAK256 PUSH30 0x2031303025207B207472616E73666F726D3A207472616E736C6174655828 BALANCE ADDRESS PUSH17 0x7829207D7D202E74657874207B20706F73 PUSH10 0x74696F6E3A206162736F PUSH13 0x7574653B20746F703A20303B20 PUSH13 0x6566743A20303B207769647468 GASPRICE KECCAK256 BALANCE ADDRESS ADDRESS 0x25 EXTCODESIZE KECCAK256 PUSH9 0x65696768743A203130 ADDRESS 0x25 EXTCODESIZE KECCAK256 PUSH7 0x6F6E742D73697A PUSH6 0x3A2032347078 EXTCODESIZE KECCAK256 PUSH7 0x6F6E742D776569 PUSH8 0x68743A20626F6C64 EXTCODESIZE KECCAK256 PUSH21 0x6578742D7472616E73666F726D3A20757070657263 PUSH2 0x7365 EXTCODESIZE KECCAK256 PUSH2 0x6E69 PUSH14 0x6174696F6E3A20726F7461746520 BALANCE CALLVALUE PUSH20 0x206C696E65617220696E66696E6974653B206669 PUSH13 0x6C3A20236666663B7D20406B65 PUSH26 0x6672616D657320726F74617465207B2066726F6D207B20747261 PUSH15 0x73666F726D3A20726F746174652830 0x29 EXTCODESIZE KECCAK256 PUSH30 0x20746F207B207472616E73666F726D3A20726F7461746528333630646567 0x29 EXTCODESIZE KECCAK256 PUSH30 0x7D205D5D3E203C2F7374796C653E203C666F726569676E4F626A65637420 PUSH25 0x3D22302220793D2230222077696474683D2233303022206865 PUSH10 0x6768743D22333030223E KECCAK256 EXTCODECOPY PUSH5 0x697620636C PUSH2 0x7373 RETURNDATASIZE 0x22 PUSH4 0x656E7465 PUSH19 0x2220786D6C6E733D22687474703A2F2F777777 0x2E PUSH24 0x332E6F72672F313939392F7868746D6C223E3C6469762063 PUSH13 0x6173733D22636972636C652220 PUSH25 0x6D6C6E733D22687474703A2F2F7777772E77332E6F72672F31 CODECOPY CODECOPY CODECOPY 0x2F PUSH25 0x68746D6C223E3C64697620636C6173733D226C6F676F222078 PUSH14 0x6C6E733D22687474703A2F2F7777 PUSH24 0x2E77332E6F72672F313939392F7868746D6C223E41424344 GASLIMIT CHAINID SELFBALANCE BASEFEE 0x49 0x4A 0x4B 0x4C 0x4D 0x4E 0x4F POP MLOAD MSTORE MSTORE8 SLOAD SSTORE JUMP JUMPI PC MSIZE GAS PUSH2 0x6263 PUSH5 0x6566676869 PUSH11 0x6B6C6D6E6F707172737475 PUSH23 0x7778797A303132333435363738392B2F3C737667207669 PUSH6 0x77426F783D22 ADDRESS KECCAK256 ADDRESS KECCAK256 CALLDATALOAD ADDRESS ADDRESS KECCAK256 CALLDATALOAD ADDRESS ADDRESS 0x22 KECCAK256 PUSH9 0x65696768743D223132 CALLDATALOAD 0x22 KECCAK256 PUSH24 0x696474683D223132352220786D6C3A73706163653D227072 PUSH6 0x736572766522 KECCAK256 PUSH25 0x6D6C6E733D22687474703A2F2F7777772E77332E6F72672F32 ADDRESS ADDRESS ADDRESS 0x2F PUSH20 0x7667223E3C706174682066696C6C3D2223464646 0x22 KECCAK256 PUSH5 0x3D224D3138 CODESIZE 0x2E CODESIZE KECCAK256 ORIGIN ADDRESS 0x2E CALLER CODESIZE PUSH4 0x2D352E33 KECCAK256 ORIGIN CALLDATASIZE 0x2E CODESIZE CALLDATALOAD KECCAK256 CALLVALUE 0x2E CALLDATASIZE KECCAK256 CALLDATALOAD CALLDATALOAD 0x2E CALLDATACOPY CALLVALUE KECCAK256 CALLER CALLVALUE 0x2E BALANCE KECCAK256 CODESIZE CALLDATASIZE 0x2E CALLDATALOAD ORIGIN KECCAK256 BALANCE BALANCE 0x2E ORIGIN 0x2D CALLDATACOPY 0x2E ORIGIN CODECOPY KECCAK256 CALLER BALANCE 0x2E CALLDATASIZE 0x2D BALANCE ADDRESS 0x2E CODECOPY CALLVALUE KECCAK256 CALLDATALOAD ADDRESS 0x2D CODESIZE 0x2E BALANCE CALLDATASIZE 0x2D CALLVALUE CALLDATASIZE 0x2D ORIGIN ORIGIN 0x2E CALLER BALANCE 0x2D CALLDATASIZE CALLDATASIZE 0x2E CALLDATALOAD 0x2D CALLVALUE CALLDATACOPY 0x2E BALANCE CALLER 0x2D CODESIZE CALLVALUE 0x2E BALANCE 0x2D CALLDATACOPY CODESIZE 0x2E CALLER CALLDATASIZE PUSH27 0x4D32392E31392032362E36324334332E35362037332E3038203831 0x2E ADDRESS CODECOPY KECCAK256 BALANCE ORIGIN CODESIZE 0x2E CODESIZE KECCAK256 BALANCE ORIGIN CODECOPY 0x2E CALLDATASIZE KECCAK256 BALANCE CALLDATASIZE CODESIZE 0x2E CALLER KECCAK256 CODECOPY CALLER 0x2E CALLDATALOAD BALANCE KECCAK256 BALANCE CALLDATASIZE CALLDATASIZE KECCAK256 CALLVALUE CODECOPY 0x2E CODECOPY CALLER KECCAK256 BALANCE CALLDATALOAD CALLER 0x2E BALANCE KECCAK256 BALANCE CODESIZE 0x2E CALLDATACOPY CALLDATASIZE KECCAK256 BALANCE CALLVALUE CALLER PUSH4 0x32342E39 CALLDATASIZE KECCAK256 CALLER CALLDATALOAD 0x2E ORIGIN KECCAK256 CALLDATASIZE CALLVALUE 0x2E BALANCE CALLDATACOPY KECCAK256 CALLDATALOAD ORIGIN 0x2E CODECOPY KECCAK256 BALANCE ADDRESS CALLER 0x2E CALLER CALLVALUE KECCAK256 CALLDATASIZE CALLDATASIZE 0x2E CALLER NUMBER CODECOPY CALLDATACOPY 0x2E BALANCE CALLER KECCAK256 ORIGIN ORIGIN CALLDATACOPY KECCAK256 CALLDATASIZE CALLDATASIZE 0x2E CODECOPY CODECOPY KECCAK256 ORIGIN CALLVALUE CALLDATALOAD KECCAK256 BALANCE CODESIZE 0x2E CALLDATASIZE CALLDATASIZE KECCAK256 ORIGIN CALLVALUE CODESIZE PUSH4 0x35342E36 CALLVALUE KECCAK256 BALANCE CODECOPY 0x2E ORIGIN KECCAK256 BALANCE ADDRESS CALLDATACOPY 0x2E CALLDATALOAD CALLVALUE KECCAK256 CODESIZE 0x2E CODECOPY KECCAK256 BALANCE CALLER BALANCE 0x2E CALLER CALLVALUE 0x2E CALLDATACOPY 0x2D BALANCE CALLDATACOPY 0x2E CODECOPY KECCAK256 CALLER CALLVALUE 0x2E CODECOPY 0x2D BALANCE ADDRESS ADDRESS 0x2E CALLDATACOPY ORIGIN KECCAK256 CALLDATASIZE CALLDATASIZE 0x2E ORIGIN 0x2D BALANCE ORIGIN ORIGIN 0x2E CALLER BALANCE KECCAK256 CALLDATACOPY CALLDATACOPY KECCAK256 CALLDATALOAD CALLER 0x2E ORIGIN CALLDATASIZE KECCAK256 CALLVALUE 0x2E ORIGIN KECCAK256 BALANCE ORIGIN BALANCE 0x2E CALLDATACOPY BALANCE 0x2D BALANCE BALANCE KECCAK256 BALANCE CALLDATASIZE CALLDATACOPY 0x2E ADDRESS BALANCE 0x2D CALLER ORIGIN 0x2E CODECOPY KECCAK256 BALANCE ADDRESS KECCAK256 ORIGIN CALLVALUE 0x2E CALLDATASIZE 0x2D BALANCE 0x2E CALLDATASIZE KECCAK256 CALLDATALOAD CALLER 0x2E ORIGIN 0x2D BALANCE ADDRESS 0x2E BALANCE KECCAK256 CALLDATACOPY CALLDATACOPY 0x2E CODESIZE 0x2D BALANCE 0x2E CODECOPY KECCAK256 CALLVALUE 0x2E CALLDATALOAD 0x2D CALLER 0x2E CODESIZE KECCAK256 CODESIZE 0x2E CODECOPY 0x2D CALLDATALOAD 0x2E CALLDATACOPY KECCAK256 BALANCE CALLER 0x2E CALLER KECCAK256 CALLDATALOAD 0x2E BALANCE 0x2D CALLER 0x2E CALLDATALOAD KECCAK256 BALANCE ADDRESS 0x2E BALANCE 0x2D CALLDATACOPY KECCAK256 BALANCE CALLVALUE 0x2E CODECOPY 0x2D BALANCE ADDRESS 0x2E CALLDATASIZE KECCAK256 ORIGIN CALLER 0x2E CALLDATASIZE 0x2D BALANCE CALLDATASIZE 0x2E ORIGIN KECCAK256 CALLVALUE CALLDATACOPY 0x2E CODESIZE 0x2D CALLER BALANCE 0x2E CODECOPY KECCAK256 CALLDATALOAD CODECOPY 0x2E CALLDATALOAD 0x2D CALLDATALOAD CODESIZE 0x2E CODESIZE KECCAK256 ORIGIN CALLDATASIZE 0x2E BALANCE KECCAK256 CALLER BALANCE 0x2E ORIGIN KECCAK256 CALLDATASIZE ORIGIN 0x2E CALLDATACOPY KECCAK256 CALLDATASIZE ORIGIN 0x2E BALANCE KECCAK256 BALANCE ADDRESS CALLDATACOPY KECCAK256 CODESIZE CALLDATALOAD 0x2E CALLVALUE KECCAK256 BALANCE CALLDATACOPY 0x2E CALLVALUE KECCAK256 ORIGIN ORIGIN 0x2E BALANCE KECCAK256 ORIGIN CODESIZE 0x2E CALLER KECCAK256 CALLVALUE CODECOPY KECCAK256 CALLER CALLVALUE 0x2E ORIGIN KECCAK256 CALLDATACOPY CALLER 0x2E CODESIZE KECCAK256 CODESIZE 0x2E CALLER 0x2D BALANCE CODECOPY 0x2E BALANCE KECCAK256 BALANCE CALLER 0x2E CODESIZE 0x2D CALLVALUE ADDRESS 0x2E ORIGIN KECCAK256 CODECOPY 0x2E CALLDATACOPY 0x2D CALLDATASIZE ADDRESS 0x2E CALLER KECCAK256 ORIGIN CALLVALUE 0x2E CALLDATALOAD 0x2D CALLER 0x2E CALLDATASIZE KECCAK256 CALLER CALLDATALOAD 0x2E CALLDATASIZE 0x2D ORIGIN CODECOPY 0x2E CALLDATACOPY KECCAK256 CALLER CALLDATALOAD 0x2E CALLDATALOAD 0x2D CALLDATALOAD CALLVALUE 0x2E CALLVALUE 0x2D BALANCE ORIGIN 0x2E CALLDATASIZE KECCAK256 CALLDATASIZE 0x2E ORIGIN 0x2D BALANCE CALLDATALOAD 0x2E BALANCE KECCAK256 CALLDATASIZE 0x2E CALLER 0x2D CALLER BALANCE 0x2E ORIGIN KECCAK256 CODESIZE 0x2E ORIGIN KECCAK256 ADDRESS 0x2D BALANCE ADDRESS 0x2E BALANCE 0x2E CALLDATASIZE 0x2D BALANCE ORIGIN 0x2E CALLDATALOAD 0x2D CALLER 0x2D ORIGIN CODESIZE 0x2E CALLDATACOPY 0x2D BALANCE ADDRESS 0x2E CALLER KECCAK256 CODESIZE 0x2E CALLVALUE 0x2D ORIGIN BALANCE KECCAK256 BALANCE BALANCE 0x2E ORIGIN 0x2D CALLER ADDRESS 0x2E CODESIZE KECCAK256 BALANCE BALANCE 0x2E CODESIZE KECCAK256 ORIGIN 0x2E BALANCE 0x2D CALLDATACOPY 0x2E CALLDATASIZE KECCAK256 CALLER 0x2D BALANCE CODECOPY 0x2E CALLDATALOAD KECCAK256 CALLER 0x2E CALLDATACOPY 0x2D ORIGIN CALLDATACOPY 0x2E CALLER 0x2D BALANCE CALLER KECCAK256 CALLDATACOPY 0x2E BALANCE 0x2D BALANCE CODECOPY 0x2E ORIGIN KECCAK256 CODECOPY 0x2E CALLDATACOPY 0x2D CALLER ADDRESS 0x2E BALANCE KECCAK256 BALANCE ADDRESS 0x2E CODESIZE 0x2D 0x2E CALLVALUE 0x2D BALANCE ADDRESS 0x2E CODECOPY 0x2D 0x2E BALANCE 0x2D ORIGIN ADDRESS 0x2D CALLVALUE 0x2E BALANCE 0x2D CALLER ADDRESS 0x2E CALLVALUE 0x2D ORIGIN CODECOPY 0x2E CALLDATASIZE KECCAK256 BALANCE CODECOPY 0x2D CALLVALUE CODESIZE 0x2E CALLDATASIZE KECCAK256 BALANCE 0x2E CALLDATALOAD 0x2D CALLDATASIZE CODESIZE 0x2D ORIGIN BALANCE 0x2E CALLER KECCAK256 BALANCE CODECOPY 0x2E CODESIZE 0x2D BALANCE CALLDATACOPY KECCAK256 CODECOPY CALLDATASIZE 0x2E CALLVALUE 0x2D ORIGIN BALANCE 0x2E CODESIZE KECCAK256 CODECOPY CALLDATALOAD 0x2E BALANCE KECCAK256 CALLDATACOPY 0x2E BALANCE KECCAK256 BALANCE CALLVALUE 0x2D CALLDATACOPY 0x2E CALLER KECCAK256 BALANCE CODESIZE 0x2E CODESIZE 0x2D BALANCE BALANCE 0x2E ORIGIN KECCAK256 ORIGIN CALLER 0x2E CALLDATASIZE 0x2D BALANCE CALLDATALOAD 0x2E CODECOPY KECCAK256 CODECOPY 0x2E BALANCE KECCAK256 CODESIZE 0x2E CALLDATALOAD KECCAK256 BALANCE CALLER 0x2E CALLVALUE KECCAK256 ORIGIN ADDRESS 0x2E CODECOPY KECCAK256 BALANCE CALLDATALOAD 0x2E BALANCE KECCAK256 CALLER BALANCE 0x2E CALLVALUE KECCAK256 CODECOPY 0x2E CALLER 0x2D CODECOPY 0x2E CALLVALUE KECCAK256 BALANCE ADDRESS 0x2E CALLER 0x2D BALANCE ADDRESS 0x2E CALLDATALOAD KECCAK256 BALANCE CALLDATACOPY 0x2E BALANCE 0x2D ORIGIN CALLER 0x2E CODESIZE KECCAK256 CALLDATALOAD 0x2E CALLDATACOPY KECCAK256 BALANCE ADDRESS 0x2E BALANCE KECCAK256 CODESIZE 0x2E CODESIZE KECCAK256 BALANCE CALLDATACOPY KECCAK256 BALANCE ADDRESS 0x2E CALLDATACOPY KECCAK256 CALLER ADDRESS 0x2E CALLDATASIZE KECCAK256 CODESIZE 0x2E CALLDATALOAD 0x2D CALLDATASIZE 0x2E ORIGIN KECCAK256 BALANCE CALLDATALOAD 0x2E CALLVALUE 0x2D BALANCE CALLER 0x2E BALANCE KECCAK256 BALANCE CODECOPY 0x2E CODESIZE 0x2D ORIGIN BALANCE 0x2E CALLVALUE KECCAK256 CALLDATACOPY 0x2E CALLDATALOAD KECCAK256 BALANCE CALLDATALOAD 0x2E CALLDATALOAD KECCAK256 CODESIZE 0x2E CALLER KECCAK256 BALANCE CALLDATASIZE KECCAK256 BALANCE ORIGIN 0x2E CALLVALUE KECCAK256 CALLER CALLER KECCAK256 BALANCE CALLDATACOPY 0x2E CODESIZE 0x2D BALANCE CALLER 0x2E BALANCE KECCAK256 ORIGIN BALANCE 0x2E CODESIZE 0x2D CALLER BALANCE 0x2E ORIGIN KECCAK256 ORIGIN ORIGIN 0x2E CODESIZE 0x2D CALLVALUE CALLDATACOPY 0x2E CALLDATASIZE KECCAK256 ORIGIN 0x2D CALLER CALLER 0x2D 0x2E CALLER 0x2D BALANCE ADDRESS CODESIZE 0x2E ORIGIN 0x2D CALLER BALANCE 0x2D BALANCE CALLVALUE ORIGIN 0x2E CODECOPY KECCAK256 BALANCE 0x2E CALLDATACOPY KECCAK256 CALLER CALLDATASIZE 0x2E CALLER 0x2D BALANCE CALLER 0x2E BALANCE KECCAK256 CALLDATACOPY ADDRESS 0x2D CALLER CALLER 0x2E CODESIZE KECCAK256 CODESIZE ADDRESS 0x2E CALLDATACOPY 0x2D BALANCE ORIGIN 0x2E CALLDATASIZE KECCAK256 CALLVALUE 0x2E CODECOPY 0x2D CODECOPY CALLDATASIZE 0x2E CALLDATALOAD 0x2D CALLDATACOPY CALLVALUE 0x2E CALLDATASIZE 0x2D BALANCE CALLER CALLDATACOPY 0x2E CALLDATASIZE 0x2D CODECOPY CALLER 0x2E CALLER 0x2D ORIGIN CALLER 0x2E CALLDATALOAD 0x2D BALANCE ADDRESS 0x2E ORIGIN 0x2D CALLVALUE CODESIZE 0x2E BALANCE KECCAK256 CALLDATACOPY 0x2E BALANCE 0x2D CALLDATASIZE CALLDATACOPY 0x2E CODESIZE KECCAK256 CODECOPY 0x2E CALLER NUMBER BALANCE CALLVALUE CALLDATACOPY KECCAK256 BALANCE ADDRESS CALLDATASIZE 0x2E ORIGIN KECCAK256 CODESIZE CALLER 0x2E CALLDATALOAD CALLDATACOPY KECCAK256 CALLDATACOPY ADDRESS 0x2E CODECOPY CALLVALUE KECCAK256 ORIGIN CODECOPY 0x2E BALANCE CODECOPY KECCAK256 ORIGIN CALLDATASIZE 0x2E CALLDATASIZE ORIGIN PUSH27 0x4D3239362E31203135322E386331332E332032302E392033322E32 KECCAK256 CALLER CALLDATASIZE 0x2E CODECOPY KECCAK256 CALLDATASIZE ADDRESS 0x2E BALANCE KECCAK256 CALLDATALOAD CALLDATALOAD 0x2D BALANCE CODECOPY 0x2E CALLVALUE KECCAK256 ORIGIN 0x2E CODECOPY 0x2D CALLDATASIZE CALLDATALOAD 0x2E CODESIZE 0x2D CALLDATASIZE 0x2E CALLDATACOPY 0x2D CALLDATACOPY CALLDATACOPY 0x2E CALLDATACOPY 0x2D ORIGIN CALLVALUE 0x2D CALLDATALOAD 0x2E CALLDATALOAD 0x2D CALLDATACOPY 0x2E CODECOPY KECCAK256 CALLDATACOPY 0x2E BALANCE 0x2D ORIGIN BALANCE 0x2E CALLER KECCAK256 BALANCE CALLDATACOPY 0x2E CALLDATASIZE 0x2D CALLER BALANCE PUSH27 0x4D3138302E36203331392E31632D31342E3420362E322D32392E32 KECCAK256 BALANCE ADDRESS 0x2E CODECOPY 0x2D CALLVALUE CALLER 0x2E CODESIZE KECCAK256 BALANCE CALLVALUE 0x2E CALLER 0x2D ORIGIN 0x2E CALLVALUE KECCAK256 CALLER 0x2E CALLDATASIZE 0x2D CALLVALUE 0x2E CALLDATASIZE KECCAK256 CALLDATACOPY 0x2E BALANCE 0x2D CALLDATASIZE 0x2E CALLDATACOPY KECCAK256 BALANCE ADDRESS 0x2E CALLDATALOAD KECCAK256 BALANCE CALLVALUE 0x2E CODESIZE KECCAK256 CALLDATALOAD 0x2E CALLER KECCAK256 CALLER BALANCE 0x2E CALLDATALOAD KECCAK256 CALLDATACOPY KECCAK256 CALLVALUE CALLVALUE 0x2E BALANCE KECCAK256 ORIGIN 0x2E CODESIZE KECCAK256 CALLER 0x2E CALLER 0x2D CODECOPY 0x2E CODESIZE KECCAK256 CALLDATALOAD 0x2E CALLDATALOAD 0x2D BALANCE CODECOPY 0x2E CALLER KECCAK256 CALLDATASIZE 0x2E CALLVALUE 0x2D ORIGIN CALLDATACOPY 0x2E CALLDATASIZE PUSH27 0x6D2D36382031392E312D31302E3220312E35632D33312E38312033 CALLDATASIZE 0x2E CALLDATASIZE 0x2D CALLDATASIZE BALANCE 0x2E CODECOPY KECCAK256 BALANCE ADDRESS CALLER 0x2E ORIGIN 0x2D CALLVALUE CODESIZE 0x2E ORIGIN CALLVALUE KECCAK256 BALANCE CALLDATALOAD BALANCE 0x2E CODECOPY PUSH9 0x33362E3133632D3131 0x2E BALANCE ORIGIN 0x2D CALLER CALLDATACOPY 0x2E CALLDATACOPY 0x2D BALANCE CALLDATASIZE 0x2E CALLDATALOAD CALLER 0x2D CODESIZE CALLDATACOPY 0x2E BALANCE KECCAK256 ORIGIN ORIGIN 0x2E CALLER BALANCE 0x2D BALANCE CALLDATALOAD CALLER 0x2E CALLVALUE PUSH27 0x6D382E352032312E35632D352E392031312E342D31302E34203232 0x2E BALANCE 0x2D BALANCE CALLER 0x2E CODESIZE KECCAK256 CALLER ORIGIN 0x2E BALANCE KECCAK256 BALANCE ORIGIN 0x2E CODECOPY KECCAK256 CALLDATASIZE 0x2E CALLDATACOPY KECCAK256 ORIGIN CODECOPY 0x2E BALANCE KECCAK256 CODESIZE 0x2E CODECOPY KECCAK256 CALLVALUE CALLVALUE 0x2E CODESIZE KECCAK256 CODESIZE 0x2E ORIGIN KECCAK256 CALLVALUE 0x2E CALLDATASIZE 0x2D BALANCE ADDRESS 0x2E CALLDATALOAD KECCAK256 CODECOPY 0x2E CODESIZE 0x2D ORIGIN BALANCE 0x2E CODESIZE KECCAK256 BALANCE CALLVALUE 0x2E CALLDATASIZE 0x2D CALLER CALLER 0x2E CALLER 0x2D BALANCE CALLDATALOAD 0x2E CALLVALUE KECCAK256 BALANCE 0x2E CODESIZE 0x2D CALLER BALANCE 0x2E CALLVALUE 0x2D BALANCE 0x2E CALLVALUE 0x2D CALLVALUE CALLDATALOAD 0x2E CALLDATASIZE 0x2D CALLDATACOPY PUSH27 0x6D3131312E3420362E36632D31322031302E352D32352E32203230 0x2E CALLER 0x2D CALLER CODESIZE 0x2E CODECOPY KECCAK256 ORIGIN CODECOPY 0x2E CALLDATASIZE KECCAK256 CALLDATACOPY KECCAK256 CALLER CALLVALUE KECCAK256 CALLER CALLER 0x2E CALLVALUE KECCAK256 CALLDATASIZE CALLER 0x2E CALLVALUE KECCAK256 CALLDATACOPY CALLER 0x2E CODECOPY KECCAK256 CODECOPY CALLDATALOAD 0x2E CALLDATACOPY PUSH9 0x38332E33632D35372E ORIGIN 0x2D CALLER BALANCE 0x2E CODESIZE 0x2D CODECOPY CALLVALUE 0x2E CALLDATASIZE 0x2D CALLDATACOPY CALLER 0x2E CALLER 0x2D BALANCE BALANCE CODESIZE 0x2E CALLER 0x2D BALANCE ORIGIN CALLDATALOAD 0x2E CALLER PUSH27 0x6D2D3133302034332E32632D322E352031312E382D332E33203232 0x2E CALLDATACOPY 0x2D CALLER KECCAK256 CALLER ORIGIN 0x2E CODECOPY KECCAK256 CALLER CALLDATACOPY 0x2E CALLER KECCAK256 BALANCE CALLVALUE 0x2E ORIGIN KECCAK256 CALLDATASIZE ORIGIN 0x2E CALLDATALOAD KECCAK256 BALANCE CALLER 0x2E CALLDATALOAD KECCAK256 CODECOPY CALLDATACOPY 0x2E CALLDATALOAD KECCAK256 CALLVALUE 0x2E BALANCE 0x2D CALLDATACOPY 0x2E ORIGIN 0x2D BALANCE ADDRESS 0x2E CALLER 0x2D BALANCE CALLER 0x2D ORIGIN BALANCE 0x2D BALANCE CALLDATASIZE 0x2E CODECOPY 0x2D CALLER ORIGIN 0x2E CALLER 0x2D CALLER ORIGIN 0x2E CALLDATACOPY KECCAK256 CODECOPY 0x2E CALLVALUE 0x2D CALLDATALOAD CALLDATALOAD 0x2E CALLVALUE KECCAK256 CALLDATALOAD 0x2E CALLDATACOPY 0x2D CALLDATACOPY CALLDATACOPY 0x2E CALLDATASIZE 0x2D CALLVALUE 0x2E CALLDATACOPY PUSH27 0x6D3130362E362035322E34632D33382E312031302E392D36382E38 KECCAK256 BALANCE CALLER 0x2E ORIGIN 0x2D BALANCE ADDRESS CALLDATACOPY 0x2E CALLDATALOAD 0x2E CALLER KECCAK256 BALANCE 0x2E CODESIZE KECCAK256 BALANCE ADDRESS 0x2E CALLVALUE KECCAK256 CALLVALUE 0x2E CALLDATALOAD KECCAK256 ORIGIN ADDRESS 0x2E BALANCE KECCAK256 CALLDATACOPY 0x2E CALLDATALOAD KECCAK256 ORIGIN CODECOPY 0x2E CALLVALUE PUSH9 0x3133302E31632D3131 0x2E CALLER 0x2D CODECOPY 0x2E CODESIZE 0x2D ORIGIN BALANCE 0x2E CALLVALUE 0x2D BALANCE CODECOPY 0x2E CALLDATASIZE 0x2D CALLER ADDRESS 0x2E BALANCE 0x2D ORIGIN CODECOPY 0x2E CALLDATACOPY PUSH27 0x222F3E3C2F7376673E3C7376672077696474683D22313235707822 KECCAK256 PUSH9 0x65696768743D223132 CALLDATALOAD PUSH17 0x78222076696577426F783D223020302035 BALANCE ORIGIN KECCAK256 CALLDATALOAD BALANCE ORIGIN 0x22 KECCAK256 PUSH25 0x6D6C6E733D22687474703A2F2F7777772E77332E6F72672F32 ADDRESS ADDRESS ADDRESS 0x2F PUSH20 0x7667223E3C706174682066696C6C3D2223666666 0x22 KECCAK256 PUSH5 0x3D224D3236 BALANCE 0x2E CALLDATASIZE BALANCE KECCAK256 BALANCE CALLDATACOPY 0x2E ADDRESS CODESIZE CALLDATASIZE PUSH4 0x2D312E35 CALLVALUE 0x2D 0x2E ADDRESS CALLVALUE ORIGIN 0x2D CALLER 0x2E BALANCE ORIGIN 0x2E BALANCE ORIGIN CALLDATACOPY 0x2D CALLVALUE 0x2E CALLDATASIZE CALLDATALOAD CALLDATACOPY 0x2E BALANCE ORIGIN CALLDATACOPY 0x2D BALANCE ORIGIN 0x2E ADDRESS CODECOPY KECCAK256 ADDRESS 0x2D ORIGIN CALLER 0x2E CALLER CALLDATALOAD KECCAK256 CALLVALUE 0x2E CALLDATASIZE ADDRESS CODESIZE 0x2D CALLER ORIGIN 0x2E CALLDATACOPY CALLDATALOAD CODESIZE KECCAK256 BALANCE ORIGIN 0x2E CALLDATALOAD BALANCE ORIGIN PUSH13 0x2D34372E3034352D392E373337 KECCAK256 ORIGIN CALLDATALOAD 0x2E CODESIZE CALLVALUE CALLDATASIZE KECCAK256 CALLVALUE ADDRESS 0x2E CODECOPY ORIGIN ORIGIN PUSH4 0x2D312E35 CODESIZE CALLDATALOAD KECCAK256 CALLVALUE 0x2E CALLER ADDRESS ORIGIN 0x2D ORIGIN 0x2E CODESIZE CALLDATACOPY KECCAK256 CODESIZE 0x2E CODESIZE ORIGIN 0x2D CALLER 0x2E CODESIZE ADDRESS CALLER KECCAK256 BALANCE CALLER 0x2E CALLDATALOAD ORIGIN 0x4C BALANCE CALLDATALOAD CALLER 0x2E CALLER KECCAK256 CODECOPY CALLER 0x2E CODECOPY ORIGIN CALLVALUE PUSH13 0x34362E3333332031392E363835 PUSH4 0x322E3931 CALLDATASIZE KECCAK256 BALANCE CALLER 0x2E ADDRESS ADDRESS CALLER KECCAK256 CODESIZE 0x2E CALLVALUE CODECOPY CALLER KECCAK256 ORIGIN CALLVALUE 0x2E CALLDATASIZE ADDRESS CALLVALUE KECCAK256 BALANCE CALLDATALOAD 0x2E CODESIZE CALLER KECCAK256 CALLER CALLER 0x2E CODESIZE ADDRESS CODESIZE 0x2D CODESIZE 0x2E CALLVALUE CALLVALUE KECCAK256 BALANCE 0x2E CALLER BALANCE 0x2D BALANCE CALLDATASIZE 0x2E ADDRESS CALLDATASIZE KECCAK256 CALLER 0x2E CODECOPY BALANCE CALLDATACOPY 0x2D ORIGIN ORIGIN 0x2E CODECOPY ADDRESS CALLVALUE KECCAK256 CALLDATACOPY 0x2E CALLDATASIZE CALLER CALLDATACOPY PUSH13 0x2D36312E382D33342E39313620 CALLER CALLVALUE 0x2E CALLVALUE CALLDATACOPY CALLVALUE KECCAK256 CALLDATASIZE BALANCE 0x2E ADDRESS CALLER CODESIZE PUSH4 0x2D342E32 CALLDATACOPY CALLER KECCAK256 CALLDATASIZE 0x2E CALLDATASIZE ORIGIN 0x2D CALLDATACOPY 0x2E CODESIZE CODESIZE CALLDATACOPY KECCAK256 BALANCE CALLVALUE 0x2E ADDRESS BALANCE 0x2D BALANCE ADDRESS 0x2E CODESIZE CODESIZE CALLDATASIZE KECCAK256 ORIGIN ORIGIN 0x2E ADDRESS BALANCE PUSH13 0x2D37322E3532362E3637352036 CALLER 0x2E ORIGIN CODESIZE CALLER KECCAK256 CALLER CALLDATACOPY 0x2E CALLER CALLVALUE PUSH4 0x2D312E31 CODESIZE CALLVALUE KECCAK256 CODESIZE 0x2E CALLDATASIZE CALLVALUE CALLER 0x2D BALANCE 0x2E CODESIZE CODECOPY CALLDATACOPY KECCAK256 BALANCE CALLDATACOPY 0x2E CALLDATASIZE ADDRESS CALLVALUE 0x2D ORIGIN 0x2E BALANCE CALLDATASIZE CALLDATACOPY KECCAK256 ORIGIN CALLDATASIZE 0x2E CALLDATACOPY CALLDATACOPY PUSH13 0x2D36352E3331372031382E3136 KECCAK256 CALLDATASIZE CALLDATASIZE 0x2E CALLVALUE CALLDATASIZE CALLDATASIZE KECCAK256 BALANCE CODESIZE 0x2E CALLVALUE CODESIZE ORIGIN PUSH4 0x312E3031 KECCAK256 BALANCE BALANCE 0x2E CALLVALUE CALLDATASIZE ORIGIN KECCAK256 ORIGIN 0x2E CALLDATALOAD CODECOPY ORIGIN KECCAK256 ORIGIN ORIGIN 0x2E CODECOPY CODESIZE CALLDATALOAD KECCAK256 CALLVALUE 0x2E CALLDATACOPY CALLER KECCAK256 CALLER CALLVALUE 0x2E CALLER CALLDATALOAD CODESIZE PUSH9 0x32322E36396C2D312E ADDRESS ORIGIN CALLVALUE 0x2D BALANCE ADDRESS CALLVALUE 0x2E CALLER CODESIZE KECCAK256 BALANCE CODESIZE 0x2E CALLDATASIZE CODESIZE CODESIZE 0x2D 0x2E BALANCE CODESIZE CALLER KECCAK256 BALANCE 0x2E ADDRESS CODESIZE CALLVALUE KECCAK256 BALANCE BALANCE ADDRESS 0x2E CALLVALUE CODECOPY ORIGIN KECCAK256 BALANCE 0x2E ADDRESS CALLVALUE CALLDATACOPY KECCAK256 BALANCE CALLDATALOAD 0x2E CODESIZE CODESIZE CALLDATACOPY 0x2D CALLDATASIZE ADDRESS 0x2E CODECOPY CODECOPY KECCAK256 ORIGIN ORIGIN 0x2E CODESIZE CODESIZE CODESIZE KECCAK256 CALLDATASIZE CALLER 0x2E ORIGIN CALLDATACOPY ORIGIN KECCAK256 BALANCE BALANCE 0x2E CALLDATACOPY CALLER ORIGIN KECCAK256 ORIGIN 0x2E CALLDATACOPY ORIGIN CALLER KECCAK256 CALLVALUE BALANCE 0x2E CALLER ADDRESS CALLDATALOAD 0x2D CALLDATALOAD CALLDATALOAD 0x2E BALANCE CALLDATACOPY CODESIZE KECCAK256 ORIGIN ADDRESS 0x2E CALLDATACOPY ADDRESS CALLDATACOPY KECCAK256 CALLDATALOAD CALLDATACOPY 0x2E ORIGIN CALLVALUE ORIGIN KECCAK256 BALANCE ADDRESS 0x2E CALLDATASIZE BALANCE CALLDATALOAD KECCAK256 BALANCE 0x2E CALLDATASIZE CALLVALUE CALLDATASIZE KECCAK256 ORIGIN CALLVALUE 0x2E CODECOPY CALLDATACOPY CALLDATALOAD PUSH9 0x34352E3637762D3137 CALLVALUE 0x2E CALLDATASIZE CALLER PUSH9 0x31382E363837763137 CALLVALUE 0x2E CALLDATASIZE CALLER PUSH9 0x34352E3534356C312E CODESIZE ORIGIN CODESIZE 0x2D ORIGIN CALLVALUE 0x2E CALLDATALOAD CALLDATALOAD KECCAK256 CALLDATALOAD CODECOPY 0x2E CALLDATALOAD ORIGIN CALLVALUE 0x2D BALANCE BALANCE 0x2E ADDRESS CALLVALUE 0x2D CALLDATALOAD CALLDATACOPY 0x2E BALANCE ADDRESS CALLVALUE 0x2D ORIGIN BALANCE 0x2E CALLVALUE CALLER KECCAK256 CALLER 0x2D CALLVALUE ADDRESS 0x2E ORIGIN CALLDATACOPY CALLDATACOPY KECCAK256 CALLDATASIZE CALLVALUE 0x2E CODECOPY ORIGIN ORIGIN 0x2D BALANCE ORIGIN 0x2E ADDRESS CALLER CALLDATACOPY 0x2D CALLDATASIZE ORIGIN 0x2E ORIGIN CODESIZE CALLER 0x2D ORIGIN CALLER 0x2E CALLER CALLDATACOPY CALLER KECCAK256 BALANCE 0x2E CALLER CODESIZE 0x2D BALANCE CODESIZE 0x2E CALLDATALOAD CALLVALUE CALLDATALOAD KECCAK256 BALANCE 0x2E ADDRESS CALLDATALOAD CALLER 0x2D BALANCE ADDRESS CALLDATACOPY 0x2E CALLER CALLDATALOAD KECCAK256 BALANCE CODESIZE 0x2E CALLDATASIZE CODECOPY 0x2E BALANCE CODESIZE CALLVALUE 0x2D BALANCE 0x2E ADDRESS ORIGIN CALLDATASIZE KECCAK256 BALANCE ADDRESS CALLVALUE 0x2E CALLER CODESIZE PUSH9 0x32342E37343463322E CALLER CALLDATASIZE CALLDATALOAD 0x2D BALANCE BALANCE 0x2E CALLER CODECOPY CALLER KECCAK256 CALLVALUE 0x2E ADDRESS CALLER CALLDATACOPY 0x2D ORIGIN ORIGIN 0x2E CODESIZE BALANCE CALLDATACOPY KECCAK256 CALLDATALOAD 0x2E ADDRESS CALLER ORIGIN 0x2D CALLER CALLVALUE 0x2E BALANCE ADDRESS CALLER PUSH13 0x36372E3338362D31382E373337 0x2D CALLDATASIZE CALLDATASIZE 0x2E CALLDATASIZE BALANCE CALLER 0x2D BALANCE CODESIZE 0x2E CALLDATALOAD ORIGIN PUSH4 0x2D2E3433 0x2D CODESIZE 0x2E CALLDATACOPY ADDRESS CODESIZE 0x2D BALANCE 0x2E CALLER ADDRESS CALLER 0x2D BALANCE CALLDATACOPY 0x2E BALANCE CODECOPY CODESIZE 0x2D ORIGIN 0x2E CALLDATASIZE ORIGIN 0x2D ORIGIN CALLDATALOAD 0x2E CALLER CODESIZE PUSH13 0x36352E30332D33382E33372D37 CALLDATALOAD 0x2E CALLDATACOPY CALLDATACOPY ORIGIN 0x2D 0x2E CALLDATACOPY ADDRESS CALLDATACOPY PUSH4 0x2D322E37 CALLDATASIZE CALLDATALOAD 0x2D CALLDATASIZE 0x2E CALLDATASIZE CALLDATACOPY CALLDATASIZE 0x2D CALLDATALOAD 0x2E CODECOPY CALLVALUE CALLER 0x2D BALANCE ORIGIN 0x2E CODECOPY BALANCE 0x2D CODECOPY 0x2E CALLDATALOAD CALLVALUE 0x2D BALANCE CODESIZE 0x2E CALLDATASIZE BALANCE PUSH13 0x33362E3337362D36342E343037 0x2D CALLDATASIZE CALLVALUE 0x2E CALLER CALLDATACOPY KECCAK256 CALLER CALLDATASIZE 0x2E CALLER CALLDATASIZE CODESIZE PUSH4 0x2D362E36 CODESIZE CALLDATACOPY 0x2D CALLER 0x2E CODECOPY BALANCE 0x2D BALANCE CALLVALUE 0x2E ADDRESS BALANCE CALLDATACOPY 0x2D CALLDATASIZE 0x2E CALLDATACOPY ADDRESS CALLDATASIZE 0x2D ORIGIN BALANCE 0x2E CODECOPY CODECOPY CALLDATALOAD 0x2D CODESIZE 0x2E ORIGIN ADDRESS CALLDATACOPY KECCAK256 CALLDATACOPY 0x2E CALLDATACOPY ORIGIN 0x2D CODECOPY 0x2E CALLER BALANCE CALLER KECCAK256 BALANCE CALLER 0x2E CALLDATASIZE BALANCE 0x2D ORIGIN BALANCE 0x2E BALANCE CALLDATALOAD CALLVALUE KECCAK256 BALANCE CALLDATASIZE 0x2E CALLDATASIZE CALLDATASIZE 0x2D CALLER CALLVALUE 0x2E CALLDATALOAD ORIGIN CALLER PUSH13 0x34362E37332D31392E3835332D CALLVALUE CALLDATASIZE 0x2E ORIGIN CALLDATASIZE CALLDATASIZE 0x2D BALANCE CODECOPY 0x2E CALLDATASIZE CALLDATALOAD CALLER PUSH4 0x2D2E3834 0x2D CALLVALUE 0x2E ORIGIN ORIGIN 0x2D BALANCE 0x2E CODECOPY CALLVALUE CALLER 0x2D CODESIZE 0x2E CALLER ADDRESS CALLDATACOPY 0x2D CALLER 0x2E CALLER ADDRESS CALLDATACOPY 0x2D BALANCE ORIGIN 0x2E ORIGIN BALANCE CALLDATACOPY PUSH13 0x32362E3536362D34322E303635 0x2D CALLVALUE CALLDATACOPY 0x2E CALLDATASIZE CODESIZE KECCAK256 CODECOPY 0x2E CODESIZE CALLDATACOPY PUSH4 0x2D372E39 ADDRESS CALLDATALOAD 0x2D CALLDATASIZE 0x2E CODESIZE CALLDATALOAD CALLER 0x2D BALANCE CALLDATACOPY 0x2E BALANCE CALLDATALOAD 0x2D BALANCE BALANCE 0x2E CALLER CALLVALUE CODESIZE 0x2D ORIGIN CALLDATACOPY 0x2E BALANCE CALLER ORIGIN 0x2D BALANCE ORIGIN 0x2E CALLDATASIZE CALLVALUE CALLDATALOAD 0x2D 0x2E CALLDATALOAD 0x2D 0x2E ADDRESS CALLDATACOPY CALLDATALOAD 0x2D BALANCE 0x2E ADDRESS ADDRESS CODESIZE 0x2D 0x2E BALANCE BALANCE CALLER 0x2D BALANCE 0x2E CALLDATALOAD ORIGIN 0x2D 0x2E BALANCE ORIGIN CALLDATACOPY PUSH27 0x6D2D342E38372031382E3834346331302E36313720302032302E35 CALLDATALOAD CALLDATASIZE KECCAK256 CALLDATALOAD 0x2E CALLDATASIZE CODECOPY KECCAK256 ORIGIN CODESIZE 0x2E CALLER CALLDATACOPY CALLDATACOPY KECCAK256 BALANCE CALLDATASIZE 0x2E BALANCE CODECOPY CALLER KECCAK256 CALLDATASIZE 0x2E BALANCE CODECOPY CALLDATASIZE KECCAK256 CODESIZE 0x2E CALLER ORIGIN ORIGIN KECCAK256 BALANCE ADDRESS 0x2E CALLDATACOPY ORIGIN CALLDATACOPY KECCAK256 BALANCE CODECOPY 0x2E CALLDATALOAD CALLDATACOPY ORIGIN KECCAK256 BALANCE ORIGIN 0x2E CALLER CALLVALUE CODESIZE KECCAK256 CALLER ORIGIN 0x2E CALLER ADDRESS CALLDATACOPY PUSH9 0x2D33312E3333386C2E ADDRESS ADDRESS ORIGIN KECCAK256 BALANCE CODESIZE 0x2E CALLDATASIZE CODECOPY PUSH9 0x33312E353534632D31 0x2E CALLER CODECOPY CALLDATALOAD KECCAK256 BALANCE CALLER 0x2E CALLDATALOAD BALANCE CALLVALUE 0x2D CALLDATASIZE 0x2E ADDRESS CALLDATASIZE CALLDATALOAD KECCAK256 ORIGIN CALLDATALOAD 0x2E CALLVALUE CALLDATACOPY 0x2D BALANCE ORIGIN 0x2E CALLDATALOAD CALLDATASIZE CALLDATACOPY KECCAK256 CALLER CALLVALUE 0x2E ORIGIN ADDRESS CALLVALUE 0x2D CALLDATACOPY 0x2E CODESIZE ORIGIN KECCAK256 BALANCE ADDRESS 0x2E CALLDATALOAD ADDRESS CALLDATALOAD 0x2D BALANCE CALLDATACOPY 0x2E CALLDATACOPY CALLDATASIZE KECCAK256 BALANCE CALLDATASIZE 0x2E BALANCE CODECOPY CALLVALUE 0x2D ORIGIN CODESIZE 0x2E CALLER CALLDATACOPY CALLDATACOPY KECCAK256 BALANCE CALLDATASIZE 0x2E BALANCE CODECOPY CALLVALUE 0x2D BALANCE ADDRESS 0x2E CALLDATASIZE BALANCE CALLDATACOPY KECCAK256 ADDRESS 0x2D ORIGIN ADDRESS 0x2E CALLDATALOAD CALLDATALOAD CALLDATASIZE 0x2D CALLDATALOAD 0x2E CALLDATASIZE CODECOPY 0x2D ORIGIN CODESIZE 0x2E CALLER CALLDATACOPY CALLDATACOPY 0x2D BALANCE CALLDATASIZE 0x2E BALANCE CODECOPY CALLVALUE 0x2D CALLDATASIZE 0x2E CALLDATALOAD ADDRESS ORIGIN 0x2D CODESIZE 0x2E CALLDATACOPY CALLER CALLER 0x2D BALANCE BALANCE 0x2E BALANCE CALLDATACOPY ORIGIN 0x2D ORIGIN ADDRESS 0x2E CALLDATASIZE CODECOPY 0x2D BALANCE ORIGIN 0x2E CALLDATALOAD CALLDATASIZE CALLDATASIZE 0x2D CALLER CALLVALUE 0x2E ORIGIN ADDRESS CALLDATALOAD PUSH9 0x33312E3634326C2D2E ADDRESS ADDRESS ORIGIN 0x2D BALANCE CODESIZE 0x2E CALLDATASIZE CODECOPY PUSH9 0x2D33312E3432326331 0x2E CALLDATASIZE ORIGIN 0x2D BALANCE ORIGIN 0x2E CALLDATACOPY CALLER CALLDATALOAD KECCAK256 CALLDATASIZE 0x2E BALANCE CALLDATALOAD 0x2D ORIGIN CALLER 0x2E CODECOPY CODESIZE CALLDATALOAD KECCAK256 BALANCE ORIGIN 0x2E CALLER CALLVALUE CALLDATACOPY 0x2D CALLER ORIGIN 0x2E CALLER ADDRESS CALLDATACOPY KECCAK256 CALLDATACOPY 0x2E CODESIZE ORIGIN 0x2D BALANCE ADDRESS 0x2E CALLDATALOAD ADDRESS CALLVALUE KECCAK256 BALANCE CALLDATACOPY 0x2E CALLDATACOPY CALLDATASIZE 0x2D BALANCE CALLDATASIZE 0x2E BALANCE CODECOPY CALLER KECCAK256 ORIGIN CODESIZE 0x2E CALLER CALLDATACOPY CALLDATACOPY 0x2D BALANCE CALLDATASIZE 0x2E BALANCE CODECOPY CALLER PUSH27 0x222F3E3C2F7376673E3C7376672077696474683D22313235707822 KECCAK256 PUSH9 0x65696768743D223132 CALLDATALOAD PUSH17 0x78222076696577426F783D223020302035 BALANCE ORIGIN KECCAK256 CALLDATALOAD BALANCE ORIGIN 0x22 KECCAK256 PUSH25 0x6D6C6E733D22687474703A2F2F7777772E77332E6F72672F32 ADDRESS ADDRESS ADDRESS 0x2F PUSH20 0x7667223E3C706174682066696C6C3D2223666666 0x22 KECCAK256 PUSH5 0x3D224D3139 CALLDATALOAD 0x2E CALLER CALLDATASIZE KECCAK256 ORIGIN CALLER 0x2E CALLDATASIZE CALLDATASIZE CALLDATASIZE PUSH13 0x32382E3832342039352E353533 KECCAK256 CODESIZE CODECOPY 0x2E ORIGIN CALLDATACOPY KECCAK256 CALLDATASIZE CODECOPY 0x2E ADDRESS CALLDATASIZE CALLDATALOAD PUSH4 0x2D2E3332 0x2D 0x2E ADDRESS CALLER CODESIZE 0x2D 0x2E CALLDATASIZE CALLVALUE ORIGIN 0x2D 0x2E ADDRESS CALLDATACOPY 0x2D 0x2E CODECOPY CALLDATASIZE ORIGIN 0x2D 0x2E BALANCE ADDRESS CALLDATALOAD 0x4C BALANCE CALLER 0x2E CODESIZE CALLDATACOPY ORIGIN KECCAK256 CALLDATASIZE CALLDATALOAD 0x2E CALLDATACOPY PUSH13 0x3133382E3138203133392E3430 CALLVALUE KECCAK256 CODECOPY CALLER 0x2E CALLDATALOAD CODECOPY CODESIZE 0x2D CODECOPY 0x2E CALLDATASIZE BALANCE ORIGIN PUSH4 0x2D2E3730 CALLER 0x2E ORIGIN CALLVALUE CALLVALUE 0x2D BALANCE 0x2E CALLVALUE ADDRESS CALLER 0x2E CALLVALUE CODECOPY CALLDATALOAD 0x2D ORIGIN 0x2E BALANCE 0x2E CALLDATACOPY CALLVALUE CODESIZE PUSH23 0x2D2E3337336C2D3232352E3831322039342E3435203131 CALLER 0x2E CALLER CALLVALUE CALLVALUE 0x2E CALLDATALOAD KECCAK256 CALLER BALANCE 0x2E CALLDATACOPY ORIGIN CALLER 0x2D CALLER ADDRESS 0x2E CODESIZE CODECOPY CALLDATACOPY 0x2D BALANCE ORIGIN 0x2E CODESIZE ADDRESS CALLDATACOPY KECCAK256 CALLER ADDRESS 0x2E CODECOPY CODESIZE 0x2E ORIGIN CALLDATASIZE CALLDATASIZE 0x2E ADDRESS ADDRESS ORIGIN 0x2D CALLDATASIZE ORIGIN 0x2E CODESIZE CALLVALUE CALLDATASIZE KECCAK256 BALANCE CALLDATALOAD CALLER 0x2E ORIGIN BALANCE CALLDATALOAD KECCAK256 CALLVALUE CALLER 0x2E ORIGIN CODECOPY 0x2D CALLVALUE ORIGIN 0x2E CODECOPY BALANCE KECCAK256 BALANCE CALLVALUE 0x2E ORIGIN CALLVALUE 0x2D CALLVALUE ADDRESS 0x2E CALLDATASIZE CALLER PUSH4 0x2E363138 KECCAK256 CALLVALUE 0x2E CALLER CALLVALUE CALLVALUE KECCAK256 BALANCE 0x2E CALLVALUE BALANCE CALLDATASIZE KECCAK256 CODESIZE 0x2E CALLDATASIZE CALLER CALLDATASIZE KECCAK256 ORIGIN 0x2E CALLER CODECOPY CODESIZE KECCAK256 BALANCE ORIGIN 0x2E CODESIZE CALLDATASIZE ORIGIN PUSH13 0x2E333620322E3839362D2E3232 ORIGIN 0x2D 0x2E ADDRESS CALLDATASIZE KECCAK256 BALANCE ORIGIN 0x2E CALLDATALOAD ORIGIN ORIGIN KECCAK256 CODECOPY ORIGIN 0x2E CALLDATASIZE CALLER CODESIZE KECCAK256 BALANCE BALANCE 0x2E CALLVALUE CALLDATALOAD 0x2D CALLVALUE BALANCE 0x2E CODECOPY CODECOPY PUSH4 0x32352E33 CODECOPY KECCAK256 CALLER CALLDATALOAD 0x2E CALLDATACOPY ORIGIN ORIGIN KECCAK256 CALLDATASIZE CALLDATALOAD 0x2E CODECOPY CALLDATASIZE CODESIZE KECCAK256 CALLDATASIZE ADDRESS 0x2E ORIGIN CALLER KECCAK256 BALANCE BALANCE CALLER 0x2E BALANCE KECCAK256 CALLDATASIZE CALLER 0x2E CALLDATALOAD CALLDATASIZE ORIGIN KECCAK256 ORIGIN 0x2E CODECOPY CODECOPY CALLDATALOAD 0x2E ORIGIN BALANCE ORIGIN KECCAK256 CALLDATALOAD 0x2E CODECOPY CALLDATACOPY CALLDATALOAD 0x2E CALLER ORIGIN CODESIZE KECCAK256 CODESIZE 0x2E CODECOPY CALLVALUE 0x2E CALLER CALLDATASIZE CALLDATASIZE 0x2D CALLDATALOAD CALLDATACOPY 0x2E ORIGIN CALLVALUE CALLDATACOPY 0x2D BALANCE CODESIZE 0x2E CALLVALUE CALLER CALLVALUE 0x2D BALANCE ADDRESS ADDRESS 0x2E ORIGIN BALANCE CALLDATASIZE 0x2D CALLDATACOPY ORIGIN 0x2E CALLDATACOPY CALLER 0x2D CODECOPY CALLDATALOAD 0x2E CALLDATASIZE CALLER 0x2D BALANCE CALLER CALLDATALOAD 0x2E CODESIZE CALLVALUE CALLDATASIZE KECCAK256 CALLVALUE 0x2E ORIGIN CODESIZE 0x2D CALLDATALOAD CODESIZE 0x2E CODESIZE CALLDATACOPY KECCAK256 CALLDATALOAD ORIGIN 0x2E CALLVALUE CALLVALUE 0x2D BALANCE ADDRESS CODECOPY 0x2E BALANCE CODECOPY CALLDATACOPY KECCAK256 BALANCE BALANCE ORIGIN 0x2D BALANCE BALANCE ADDRESS 0x2E CALLER ORIGIN CODESIZE KECCAK256 CALLER 0x2E CODECOPY CALLDATACOPY ORIGIN 0x2D 0x2E ADDRESS CALLDATACOPY CALLDATASIZE KECCAK256 CALLDATACOPY 0x2E CODECOPY CODECOPY CALLVALUE 0x2E ADDRESS CALLDATASIZE CALLDATACOPY KECCAK256 BALANCE ORIGIN 0x2E ADDRESS CALLDATALOAD CALLDATASIZE 0x2E CALLVALUE CALLVALUE KECCAK256 CALLDATALOAD ORIGIN 0x2E CALLDATASIZE BALANCE KECCAK256 CALLVALUE 0x2E CODESIZE CALLVALUE KECCAK256 CODECOPY CALLDATACOPY 0x2E BALANCE CALLDATASIZE CALLDATACOPY KECCAK256 CALLDATALOAD BALANCE 0x2E BALANCE ADDRESS ORIGIN KECCAK256 CODECOPY ADDRESS 0x2E CALLDATACOPY BALANCE CALLDATACOPY KECCAK256 BALANCE ADDRESS CALLDATALOAD 0x2E CODESIZE ADDRESS ORIGIN 0x2D CALLDATALOAD KECCAK256 CALLVALUE ORIGIN 0x2E CALLER CODECOPY CALLDATACOPY 0x2D CALLVALUE CALLER 0x2E CALLER CODECOPY CALLER KECCAK256 CALLDATACOPY CODESIZE 0x2E CALLER CALLDATALOAD CALLDATASIZE 0x2D CODESIZE CODESIZE 0x2E BALANCE ORIGIN ORIGIN KECCAK256 CALLDATACOPY BALANCE 0x2E ORIGIN ADDRESS CALLER 0x2D BALANCE CALLDATASIZE 0x2E ORIGIN CALLVALUE 0x2D ORIGIN 0x2E CALLDATALOAD CODECOPY CALLDATASIZE 0x2D CALLER ADDRESS 0x2E CODECOPY CODECOPY ORIGIN 0x2D BALANCE BALANCE 0x2E CALLER CALLDATASIZE CALLER 0x2D CALLVALUE BALANCE 0x2E ADDRESS CALLVALUE 0x2D ORIGIN CALLER 0x2E CODECOPY ORIGIN CODESIZE 0x2D BALANCE ADDRESS 0x2E ADDRESS CALLVALUE CALLDATACOPY 0x2D BALANCE ORIGIN 0x2E CALLDATALOAD CALLDATASIZE CALLVALUE 0x2D BALANCE CALLDATALOAD 0x2E CALLER ADDRESS ORIGIN 0x2D ORIGIN CODECOPY 0x2E CALLVALUE CALLER CALLER 0x2D BALANCE BALANCE 0x2E ORIGIN CALLVALUE 0x2D CALLVALUE CALLDATASIZE 0x2E CODESIZE CALLDATALOAD KECCAK256 ORIGIN 0x2E CALLDATASIZE CALLDATALOAD ORIGIN 0x2D BALANCE BALANCE 0x2E CALLER CALLDATASIZE CALLDATACOPY KECCAK256 CODECOPY 0x2E CALLDATALOAD CALLDATACOPY ORIGIN 0x2D ORIGIN BALANCE 0x2E CALLDATALOAD CALLDATASIZE ORIGIN KECCAK256 BALANCE CODECOPY 0x2E BALANCE CODECOPY CALLVALUE 0x2D ORIGIN CODESIZE 0x2E ORIGIN CODECOPY KECCAK256 CODECOPY 0x2E CALLDATASIZE ORIGIN 0x2D CALLDATASIZE 0x2E CALLDATACOPY CALLER KECCAK256 ORIGIN ORIGIN 0x2E CALLDATACOPY CALLDATASIZE CALLDATALOAD 0x2D CODECOPY 0x2E CALLDATACOPY ORIGIN KECCAK256 CALLER CALLDATALOAD 0x2E CALLER CALLDATALOAD CALLDATALOAD 0x2D CALLVALUE 0x2E CALLDATASIZE CODECOPY ORIGIN PUSH9 0x2E30303263372E3031 CALLER KECCAK256 ORIGIN 0x2E CODESIZE KECCAK256 BALANCE ORIGIN 0x2E CALLDATALOAD CODECOPY CALLDATACOPY KECCAK256 CODESIZE 0x2E ADDRESS CALLVALUE CALLDATASIZE KECCAK256 BALANCE CALLDATASIZE 0x2E BALANCE CALLDATACOPY KECCAK256 BALANCE CALLDATALOAD 0x2E BALANCE CALLDATACOPY KECCAK256 BALANCE 0x2E CALLDATACOPY CODESIZE CODESIZE KECCAK256 CALLER 0x2E CALLDATALOAD CALLDATASIZE ORIGIN KECCAK256 CALLER 0x2E ADDRESS ADDRESS CALLDATACOPY KECCAK256 CALLDATACOPY 0x2E CALLDATACOPY CODESIZE KECCAK256 ORIGIN 0x2E CALLDATALOAD CALLDATASIZE CALLER KECCAK256 BALANCE ORIGIN 0x2E CALLVALUE CALLDATALOAD CALLER 0x2D 0x2E CALLVALUE CALLVALUE CALLER KECCAK256 CALLVALUE 0x2E CALLDATASIZE CALLDATACOPY ORIGIN 0x2D ORIGIN 0x2E CODESIZE CODECOPY CALLVALUE KECCAK256 CODECOPY 0x2E CALLDATALOAD CALLDATALOAD ORIGIN 0x2D CALLDATASIZE 0x2E CALLDATACOPY CODESIZE CALLER KECCAK256 BALANCE ORIGIN 0x2E CODECOPY CALLDATACOPY PUSH13 0x2D31322E33342D31342E303334 PUSH4 0x2E37332D 0x2E CALLDATASIZE CALLVALUE 0x2E CALLDATALOAD 0x2D 0x2E CALLVALUE CALLDATACOPY CODESIZE 0x2E CALLDATALOAD ORIGIN 0x2D 0x2E CALLDATACOPY ADDRESS CALLER 0x2E ADDRESS ORIGIN 0x2D 0x2E ORIGIN ORIGIN CALLDATASIZE 0x2D 0x2E ADDRESS CALLDATALOAD 0x2D BALANCE 0x2E ADDRESS CODESIZE CALLDATASIZE 0x2D 0x2E CALLDATASIZE CALLDATASIZE ORIGIN 0x2D ORIGIN 0x2E CALLER ADDRESS CODESIZE 0x2D BALANCE 0x2E ORIGIN ORIGIN CALLDATASIZE 0x2D ORIGIN 0x2E CALLVALUE CALLVALUE CALLER 0x2D CALLVALUE 0x2E CODESIZE CODESIZE ORIGIN 0x2D CALLDATALOAD 0x2E CALLDATALOAD CODESIZE CALLDATACOPY 0x2D CALLDATASIZE 0x2E CALLVALUE 0x2D CALLDATASIZE 0x2E BALANCE CODECOPY CALLER 0x2D CALLDATASIZE 0x2E CALLER CALLDATASIZE CALLDATASIZE 0x2D ORIGIN 0x2E CALLDATALOAD CALLVALUE CALLER 0x2D BALANCE ORIGIN 0x2E BALANCE CALLER 0x2D BALANCE 0x2E ORIGIN CALLDATALOAD CALLDATACOPY 0x2D BALANCE CALLDATACOPY 0x2E CALLDATACOPY BALANCE CALLDATACOPY KECCAK256 ORIGIN 0x2E CALLDATASIZE CALLDATALOAD 0x2D CALLDATALOAD 0x2E CALLDATALOAD CODESIZE CODESIZE KECCAK256 CALLER 0x2E CODECOPY BALANCE 0x2D BALANCE ADDRESS 0x2E BALANCE CODESIZE ORIGIN KECCAK256 BALANCE ADDRESS 0x2E CALLDATACOPY BALANCE CALLER 0x2D BALANCE BALANCE 0x2E CALLDATACOPY KECCAK256 BALANCE CALLDATACOPY 0x2E ORIGIN ORIGIN ORIGIN 0x2D ORIGIN 0x2E CALLDATASIZE CALLDATACOPY CALLDATASIZE KECCAK256 BALANCE BALANCE 0x2E CALLVALUE CALLDATACOPY 0x2E CALLDATALOAD CODESIZE KECCAK256 ORIGIN ORIGIN 0x2E BALANCE BALANCE KECCAK256 CALLDATACOPY 0x2E CALLDATASIZE CALLER CALLVALUE KECCAK256 CALLER ADDRESS 0x2E CODECOPY CALLER KECCAK256 CALLDATACOPY 0x2E ADDRESS CALLDATALOAD CALLDATASIZE KECCAK256 CODESIZE 0x2E CODESIZE ORIGIN CALLVALUE KECCAK256 BALANCE CODESIZE KECCAK256 BALANCE CALLDATALOAD 0x2E CALLER ORIGIN CALLDATASIZE KECCAK256 ORIGIN CODECOPY 0x2E CALLER CODECOPY CALLDATALOAD KECCAK256 BALANCE CALLDATACOPY 0x2E BALANCE CALLVALUE CODESIZE KECCAK256 CALLER CALLER 0x2E ORIGIN CALLDATACOPY KECCAK256 CALLDATALOAD 0x2E CALLER ORIGIN KECCAK256 CALLDATASIZE ORIGIN 0x2E CALLDATACOPY CALLDATACOPY 0x2D ORIGIN ORIGIN 0x2E CALLER CALLDATACOPY KECCAK256 CALLDATASIZE CALLDATASIZE 0x2E CALLDATASIZE BALANCE 0x2D CALLDATALOAD CALLVALUE 0x2E CODECOPY CALLER CODESIZE KECCAK256 CALLDATALOAD 0x2E BALANCE ORIGIN 0x2D CALLVALUE CALLER 0x2E CALLVALUE BALANCE CODESIZE 0x2D CALLER BALANCE 0x2E BALANCE CALLER 0x2D CODESIZE BALANCE 0x2E ADDRESS CALLDATACOPY CALLER 0x2D CALLDATACOPY CALLER 0x2E CODESIZE CALLDATACOPY 0x2D CODESIZE CALLDATALOAD 0x2E ADDRESS ADDRESS CALLER 0x2D CALLDATALOAD CALLER 0x2E CODECOPY ORIGIN 0x2D CALLVALUE 0x2E CODECOPY CALLDATASIZE CALLVALUE 0x2D CODECOPY CODECOPY 0x2E CODESIZE CALLDATASIZE CALLDATASIZE KECCAK256 CALLER CODECOPY 0x2E CODESIZE BALANCE CALLDATALOAD 0x2D BALANCE ADDRESS CALLER 0x2E CALLDATACOPY ADDRESS CALLVALUE KECCAK256 CODECOPY ORIGIN 0x2E CALLDATASIZE CALLER 0x2D CALLVALUE 0x2E CALLDATASIZE CALLDATASIZE CALLDATASIZE KECCAK256 CALLDATASIZE CALLVALUE 0x2E ORIGIN KECCAK256 CALLVALUE CODECOPY 0x2E ADDRESS CALLDATACOPY KECCAK256 BALANCE BALANCE CODESIZE 0x2E CALLDATALOAD BALANCE CALLER KECCAK256 BALANCE BALANCE ORIGIN 0x2E CALLER CODESIZE KECCAK256 BALANCE ORIGIN ORIGIN 0x2E CALLER ADDRESS ORIGIN KECCAK256 CALLDATACOPY CALLVALUE 0x2E CODECOPY BALANCE KECCAK256 CALLVALUE 0x2E CALLVALUE CODESIZE CALLER KECCAK256 BALANCE CALLER CALLDATACOPY 0x2E CALLDATACOPY ORIGIN CALLVALUE 0x2D CALLDATALOAD CALLDATACOPY 0x2E CODECOPY CODESIZE ORIGIN KECCAK256 BALANCE CALLVALUE BALANCE 0x2E ORIGIN CODECOPY ORIGIN 0x2D BALANCE CALLER BALANCE 0x2E CALLDATALOAD CALLDATASIZE ORIGIN KECCAK256 BALANCE 0x2E ORIGIN CODESIZE CALLDATASIZE 0x2D ORIGIN CALLDATASIZE 0x2E CALLDATALOAD ORIGIN 0x2D CALLVALUE 0x2E CODESIZE CALLDATALOAD 0x2D CALLDATALOAD CALLER 0x2E CALLER ADDRESS CODESIZE 0x2D BALANCE CALLDATACOPY 0x2E CALLER CALLVALUE 0x2D CALLDATACOPY CALLDATASIZE 0x2E CODESIZE CALLER PUSH13 0x322E3037362D312E313032632D ORIGIN ADDRESS 0x2E CODECOPY CODESIZE ORIGIN 0x2D CALLDATALOAD CODESIZE 0x2E CALLDATALOAD ADDRESS CALLDATASIZE 0x2D CALLDATASIZE CALLDATACOPY 0x2E CALLDATALOAD CODESIZE ORIGIN 0x2D BALANCE CALLDATALOAD CALLDATALOAD 0x2E CALLDATACOPY BALANCE CALLER 0x2D CALLDATASIZE CALLDATACOPY 0x2E CALLDATALOAD CODESIZE ORIGIN 0x2D BALANCE CALLDATALOAD CALLDATALOAD 0x2E CALLDATACOPY BALANCE CALLER PUSH13 0x2D2E31322036312E3638322D34 CODECOPY 0x2E CALLDATALOAD CALLDATALOAD CODESIZE 0x2D CODESIZE CALLVALUE 0x2E CODESIZE CALLVALUE KECCAK256 CALLDATACOPY 0x2E ORIGIN BALANCE CALLER KECCAK256 CALLDATALOAD ADDRESS 0x2E CODESIZE KECCAK256 CALLER CALLER 0x2E ORIGIN CALLER CODESIZE KECCAK256 CALLDATALOAD CALLER 0x2E ADDRESS CODESIZE CALLER 0x4C BALANCE CODECOPY CALLDATALOAD 0x2E CALLER CALLDATASIZE KECCAK256 ORIGIN CALLER 0x2E CALLDATASIZE CALLDATASIZE CALLDATASIZE PUSH27 0x222F3E3C2F7376673E3C7376672077696474683D22313235707822 KECCAK256 PUSH9 0x65696768743D223132 CALLDATALOAD PUSH17 0x78222076696577426F783D223020302035 BALANCE ORIGIN KECCAK256 CALLDATALOAD BALANCE ORIGIN 0x22 KECCAK256 PUSH25 0x6D6C6E733D22687474703A2F2F7777772E77332E6F72672F32 ADDRESS ADDRESS ADDRESS 0x2F PUSH20 0x7667223E3C706174682066696C6C3D2223666666 0x22 KECCAK256 PUSH5 0x3D224D3235 CALLDATACOPY 0x2E CALLDATASIZE CALLDATALOAD KECCAK256 BALANCE CODECOPY 0x2E ADDRESS CALLER CALLER PUSH13 0x2D34372E3535322038352E3539 CODESIZE PUSH4 0x2D35312E CALLDATALOAD CALLER KECCAK256 BALANCE CALLDATASIZE 0x2E ADDRESS BALANCE CALLDATASIZE 0x2D CODECOPY BALANCE 0x2E CODESIZE KECCAK256 CALLDATALOAD CALLDATACOPY 0x2E CALLDATASIZE CALLDATACOPY CODESIZE 0x2D BALANCE ADDRESS CALLDATALOAD 0x2E CODESIZE CALLDATACOPY CALLDATACOPY KECCAK256 BALANCE BALANCE ADDRESS 0x2E ADDRESS ORIGIN CALLDATASIZE 0x4C CALLER CALLER 0x2E CALLVALUE ADDRESS CALLDATACOPY KECCAK256 ORIGIN CALLDATALOAD ORIGIN 0x2E ORIGIN CALLDATALOAD PUSH13 0x36392E3237362033382E343836 PUSH4 0x352E3934 ORIGIN KECCAK256 ORIGIN CALLDATASIZE 0x2E CALLER CALLER KECCAK256 BALANCE CODESIZE 0x2E CALLVALUE CALLDATALOAD CALLDATASIZE KECCAK256 CALLDATALOAD ADDRESS 0x2E BALANCE CODESIZE KECCAK256 CALLER CALLDATALOAD 0x2E CALLDATACOPY ORIGIN ORIGIN KECCAK256 CALLDATASIZE CODECOPY 0x2E CALLDATACOPY CALLER CALLDATACOPY KECCAK256 CALLDATALOAD 0x2E CALLDATASIZE CALLER 0x2D CALLDATACOPY 0x2E CODECOPY CALLDATALOAD ORIGIN KECCAK256 BALANCE ORIGIN 0x2E CALLVALUE CALLER CODESIZE 0x2D BALANCE CALLDATALOAD 0x2E ADDRESS CALLDATALOAD KECCAK256 ORIGIN ADDRESS 0x2E CALLDATALOAD CALLVALUE CALLDATACOPY 0x2D ORIGIN BALANCE 0x2E BALANCE CALLDATASIZE ORIGIN 0x2D BALANCE CODECOPY 0x2E BALANCE CODECOPY 0x2D ORIGIN ORIGIN 0x2E CALLDATALOAD BALANCE CALLER 0x2D CALLER ADDRESS 0x2E CALLDATACOPY CODECOPY CALLVALUE 0x2D CALLDATALOAD BALANCE 0x2E CALLDATASIZE CODESIZE ORIGIN 0x2D CALLER ADDRESS 0x2E CALLDATACOPY CODECOPY CALLVALUE 0x2D CODESIZE CALLER 0x2E CALLDATALOAD BALANCE KECCAK256 ADDRESS 0x2D CALLDATACOPY BALANCE 0x2E ADDRESS CALLDATACOPY CALLVALUE KECCAK256 CALLDATALOAD CALLDATACOPY 0x2E CODESIZE CALLER CODESIZE 0x2D BALANCE ORIGIN CODESIZE 0x2E CALLVALUE CODESIZE CODESIZE KECCAK256 BALANCE ORIGIN CODESIZE 0x2E CODECOPY BALANCE ORIGIN 0x2D BALANCE ORIGIN CODESIZE 0x2E CALLVALUE CODESIZE CODESIZE KECCAK256 CALLDATACOPY BALANCE 0x2E ADDRESS CALLDATACOPY CALLDATACOPY KECCAK256 ADDRESS KECCAK256 BALANCE ORIGIN CODESIZE 0x2E CALLVALUE CODECOPY KECCAK256 CALLDATALOAD CALLDATACOPY 0x2E CALLVALUE BALANCE ORIGIN KECCAK256 BALANCE ORIGIN CODESIZE 0x2E CALLVALUE CODECOPY KECCAK256 BALANCE ORIGIN CODESIZE 0x2E CALLVALUE CODECOPY KECCAK256 ADDRESS KECCAK256 CALLER ADDRESS 0x2E ADDRESS ADDRESS CALLDATASIZE 0x2D BALANCE ADDRESS 0x2E ORIGIN CALLER CALLVALUE KECCAK256 CALLDATALOAD CALLDATACOPY 0x2E CALLDATASIZE CALLDATALOAD 0x2D ORIGIN CALLDATACOPY 0x2E CALLVALUE ADDRESS CODESIZE KECCAK256 CALLDATACOPY CODECOPY 0x2E CALLDATALOAD CODESIZE CALLER KECCAK256 CODESIZE 0x2E CALLDATALOAD ORIGIN CALLDATALOAD KECCAK256 CALLDATALOAD 0x2E CODESIZE CODESIZE KECCAK256 BALANCE CALLDATALOAD 0x2E CALLDATASIZE BALANCE ORIGIN KECCAK256 BALANCE ORIGIN 0x2E CALLDATACOPY CODECOPY CALLDATALOAD KECCAK256 ORIGIN BALANCE 0x2E CALLVALUE BALANCE CALLER KECCAK256 ORIGIN ADDRESS 0x2E CALLDATALOAD CODECOPY ORIGIN KECCAK256 BALANCE CALLDATALOAD 0x2E BALANCE CALLDATACOPY CALLDATASIZE 0x2D BALANCE CODESIZE 0x2E CALLDATALOAD CALLER ORIGIN KECCAK256 ORIGIN CALLDATASIZE 0x2E ORIGIN CALLER CALLDATALOAD 0x2D CALLVALUE ADDRESS 0x2E CALLDATALOAD CALLDATASIZE CALLER KECCAK256 CALLER BALANCE 0x2E CALLDATACOPY CALLDATACOPY 0x2D CALLDATASIZE CALLVALUE 0x2E CALLDATASIZE CODECOPY ORIGIN PUSH13 0x37302E3236332D33392E303335 0x2D CALLDATACOPY BALANCE 0x2E CODESIZE ORIGIN CALLDATASIZE 0x2D CALLER CODESIZE 0x2E BALANCE CALLER PUSH4 0x2D31342E CALLER BALANCE ORIGIN 0x2D CALLDATALOAD ORIGIN 0x2E CALLVALUE CALLDATACOPY CALLDATALOAD 0x2D CALLDATALOAD CALLVALUE 0x2E CODECOPY CALLDATASIZE CODESIZE 0x2D CODECOPY CALLVALUE 0x2E BALANCE ORIGIN CALLER 0x2D BALANCE ADDRESS CALLDATASIZE 0x2E CODESIZE CALLDATALOAD CALLDATASIZE 0x2D BALANCE ADDRESS CODECOPY 0x2E CODESIZE ORIGIN CALLDATALOAD 0x4C ORIGIN CALLDATALOAD CALLDATACOPY 0x2E CALLDATASIZE CALLDATALOAD KECCAK256 BALANCE CODECOPY 0x2E ADDRESS CALLER CALLER PUSH27 0x6D2E323636203135302E3333632D31372E353620302D33332E3638 CALLDATASIZE KECCAK256 CODECOPY 0x2E ADDRESS ORIGIN 0x2D CALLVALUE CALLDATALOAD 0x2E CODECOPY ADDRESS ORIGIN KECCAK256 ORIGIN CALLVALUE 0x2E CALLDATASIZE CALLVALUE CALLDATACOPY 0x2D BALANCE ORIGIN 0x2E ORIGIN BALANCE CALLDATACOPY KECCAK256 BALANCE CALLDATALOAD 0x2E CALLDATASIZE ORIGIN CALLDATASIZE 0x2D ORIGIN ADDRESS 0x2E ADDRESS CODECOPY KECCAK256 CALLER CALLDATACOPY 0x2E CALLDATACOPY CALLDATALOAD CALLVALUE 0x2D ORIGIN ADDRESS 0x2E ADDRESS CODECOPY KECCAK256 CALLDATASIZE ORIGIN 0x2E CALLER CALLDATACOPY CALLER KECCAK256 ADDRESS KECCAK256 ORIGIN CALLDATASIZE 0x2E BALANCE ORIGIN KECCAK256 CODECOPY 0x2E ORIGIN BALANCE CODESIZE KECCAK256 CALLVALUE CODECOPY 0x2E CALLER CALLVALUE CALLER KECCAK256 ORIGIN ORIGIN 0x2E CODESIZE CALLVALUE CALLDATASIZE KECCAK256 CALLDATASIZE CALLDATALOAD 0x2E BALANCE CALLVALUE CODESIZE PUSH13 0x31302E31342031312E37362D31 CALLDATALOAD 0x2E BALANCE CALLVALUE KECCAK256 CALLER 0x2E CALLVALUE CALLDATALOAD ORIGIN PUSH4 0x2D33382E ADDRESS ORIGIN CALLDATACOPY KECCAK256 CODESIZE 0x2E CALLDATASIZE CALLDATACOPY 0x2D CALLDATALOAD CALLDATALOAD 0x2E CODECOPY CALLDATASIZE ORIGIN KECCAK256 ORIGIN CALLDATASIZE 0x2E CALLER CODECOPY CALLDATASIZE 0x2D CALLDATASIZE CALLDATASIZE 0x2E CALLVALUE CODESIZE KECCAK256 CALLDATALOAD CALLVALUE 0x2E ORIGIN CALLDATASIZE CODESIZE 0x2D CODECOPY 0x2E CALLDATACOPY CODESIZE CODESIZE KECCAK256 ORIGIN CALLDATALOAD 0x2E CODECOPY CALLER CALLVALUE 0x2D BALANCE BALANCE 0x2E CALLDATACOPY CALLDATALOAD KECCAK256 CALLDATASIZE BALANCE 0x2E CALLDATASIZE CALLDATACOPY 0x2D BALANCE BALANCE 0x2E CODECOPY CODECOPY KECCAK256 BALANCE ADDRESS CALLVALUE 0x2E ORIGIN CALLER CALLDATASIZE PUSH9 0x3235342E343733632D 0x2E ADDRESS CALLVALUE CALLDATACOPY 0x2D CALLVALUE ORIGIN 0x2E CALLDATACOPY CALLVALUE 0x2D 0x2E CALLDATASIZE CALLDATASIZE 0x2D CALLDATACOPY CODECOPY 0x2E CALLER CALLVALUE CODESIZE 0x2D CODECOPY 0x2E CALLDATASIZE CODESIZE CALLER 0x2D BALANCE ADDRESS CALLDATALOAD 0x2E CODESIZE BALANCE CALLVALUE 0x2D CODECOPY 0x2E CALLDATASIZE CODECOPY CALLER 0x2D ORIGIN CODESIZE 0x2E CALLVALUE CALLER ORIGIN 0x2D ORIGIN CALLDATACOPY 0x2E BALANCE BALANCE 0x2D CALLVALUE CALLDATASIZE 0x2E CALLER CODESIZE 0x2D CALLDATASIZE CALLDATACOPY 0x2E CODECOPY CODECOPY 0x2D CALLDATALOAD CALLVALUE 0x2E CALLER CODESIZE PUSH13 0x2D31352E3237322D322E393920 CODECOPY 0x2E CODESIZE BALANCE CALLDATACOPY 0x2D BALANCE ORIGIN 0x2E ADDRESS CALLDATACOPY CALLDATASIZE PUSH4 0x31322E37 CALLDATACOPY CODESIZE 0x2D BALANCE CALLDATALOAD 0x2E CALLDATACOPY BALANCE CODESIZE KECCAK256 ORIGIN BALANCE 0x2E ORIGIN CALLDATASIZE CALLDATACOPY 0x2D CALLER CODESIZE 0x2E CALLVALUE ADDRESS CALLVALUE KECCAK256 ORIGIN BALANCE 0x2E ORIGIN CALLDATASIZE CALLDATACOPY 0x2D CALLDATASIZE CALLER 0x2E CALLDATASIZE ADDRESS CALLER KECCAK256 ADDRESS 0x2D ORIGIN CALLVALUE 0x2E CALLDATASIZE ORIGIN 0x2D CALLDATACOPY 0x2E CODESIZE CALLDATACOPY CALLDATALOAD 0x2D CALLVALUE CALLDATASIZE 0x2E CALLDATACOPY CALLVALUE CALLDATACOPY 0x2D ORIGIN ADDRESS 0x2E ADDRESS CODECOPY ORIGIN 0x2D CALLDATASIZE ORIGIN 0x2E CALLER CALLDATACOPY CALLER 0x2D BALANCE ORIGIN 0x2E ORIGIN BALANCE CALLDATASIZE 0x2D BALANCE CALLDATALOAD 0x2E CALLDATASIZE ORIGIN CALLDATASIZE 0x2D ORIGIN CODESIZE 0x2E CALLER CALLVALUE CALLER 0x2D ORIGIN CALLVALUE 0x2E CALLDATASIZE CALLVALUE CALLDATACOPY 0x2D CALLVALUE CALLDATALOAD 0x2E CODECOPY ADDRESS ORIGIN 0x2D ORIGIN CALLVALUE 0x2E CALLDATASIZE CALLVALUE CALLDATACOPY PUSH9 0x2D2E3030327A222F3E EXTCODECOPY 0x2F PUSH20 0x76673E3C73766720786D6C6E733D22687474703A 0x2F 0x2F PUSH24 0x77772E77332E6F72672F323030302F737667222076696577 TIMESTAMP PUSH16 0x783D223020302033303020333030223E KECCAK256 EXTCODECOPY PUSH20 0x74796C6520747970653D22746578742F63737322 RETURNDATACOPY KECCAK256 EXTCODECOPY 0x21 JUMPDEST NUMBER DIFFICULTY COINBASE SLOAD COINBASE JUMPDEST KECCAK256 0x2A 0x2C KECCAK256 0x2A GASPRICE PUSH3 0x65666F PUSH19 0x652C202A3A6166746572207B20626F782D7369 PUSH27 0x696E673A20626F726465722D626F783B7D20626F6479207B206865 PUSH10 0x6768743A203130307668 EXTCODESIZE KECCAK256 PUSH3 0x61636B PUSH8 0x726F756E643A2023 ADDRESS ADDRESS ADDRESS EXTCODESIZE PUSH30 0x202E63656E746572207B206865696768743A20313030253B20646973706C PUSH2 0x793A KECCAK256 PUSH7 0x6C65783B20616C PUSH10 0x676E2D6974656D733A20 PUSH4 0x656E7465 PUSH19 0x3B206A7573746966792D636F6E74656E743A20 PUSH4 0x656E7465 PUSH19 0x3B20746578742D616C69676E3A2063656E7465 PUSH19 0x3B7D202E636972636C65207B20706F73697469 PUSH16 0x6E3A2072656C61746976653B20776964 PUSH21 0x683A2032303070783B206865696768743A20323030 PUSH17 0x783B20636F6C6F723A20236666663B2062 PUSH2 0x636B PUSH8 0x726F756E643A203B KECCAK256 PUSH3 0x6F7264 PUSH6 0x722D72616469 PUSH22 0x733A203530253B20626F726465723A2032707820736F PUSH13 0x69643B7D202E6C6F676F207B20 PUSH7 0x6F6E742D73697A PUSH6 0x3A2031323570 PUSH25 0x3B206C696E652D6865696768743A2031393070783B20766572 PUSH21 0x6963616C2D616C69676E3A206D6964646C653B7D20 0x2E PUSH3 0x757474 PUSH16 0x6E207B20706F736974696F6E3A206162 PUSH20 0x6F6C7574653B20626F74746F6D3A203070783B20 PUSH13 0x6566743A20303B207269676874 GASPRICE KECCAK256 ADDRESS EXTCODESIZE KECCAK256 PUSH17 0x616464696E673A203870783B20666F6E74 0x2D PUSH24 0x65696768743A20626F6C643B20746578742D7472616E7366 PUSH16 0x726D3A207570706572636173653B2062 PUSH2 0x636B PUSH8 0x726F756E643A20A2 PUSH5 0x6970667358 0x22 SLT KECCAK256 0xC8 SELFBALANCE 0xD6 0x5F PUSH27 0x76BA559748D9F5FCB6F00FCBD95C53BF6BBA6A424B6D9E1D28FB5D PUSH5 0x736F6C6343 STOP ADDMOD 0xD STOP CALLER ","sha1":"b6e8d6ddb761eb738b9c2fca371d72b30cbe8467","source":"// SPDX-License-Identifier: MIT\npragma solidity >=0.8.0;\npragma experimental ABIEncoderV2;   // literally for string[], for the lack of better understanding/ideas \nimport \"../interfaces/IERC20.sol\";\nimport \"./tokens/ERC721.sol\";\nimport \"./utils/Ownable.sol\";\nimport \"./libs/BadgeFactory.sol\";\n\n// Our source of randomness will be bloshhash \n// Block hash PRNG - the hash of a block as source of randomness\n// Potentially this can be manipulated with, but I doubt anyone would care to do that here, \n// this is a place holder until we move to Chainlink-VRF\ncontract EXPerienceNFT is ERC721, Ownable {\n    // Total supply - Should be exposed via getter\n    // Should start with zero anyway.\n    uint256 private _totalSupply;\n    // EXPToken contract address - To refer to EXP balance of the user \n    address private _EXPContractAddress;\n    // EXPToken Interface to get balanceOf\n    // Though we imported original IERC20 for this, we can potentially limit it to just balanceOf function\n    IERC20 private _expContract;\n    // Generator admins \n    mapping(address => bool) private _tokenAdmins;\n\n    // Events \n    event ExperienceNFTGenerated(address indexed _experienceGainer);\n    event TokenAdminSet(address indexed _admin, bool indexed _isAdmin);\n\n    // Our ugly _colorName => _colorHex \n    string[20] private _colorNames = [\n        'Dark Orange', 'Black', 'Magenta', 'Maroon', 'Gray',\n        'Pale Violet Red', 'Medium Slate Blue', 'Crimson', 'Blue Violet', 'Dark Turquoise',\n        'Olive', 'Midnight Blue', 'Teal', 'Navy', 'Lime Green',\n        'Lavender', 'Medium Sea Green', 'Light Sea Green', 'Chocolate', 'Aquamarine'\n    ];\n    string[20] private _colorsHex = [\n        '#FF8C00', '#000000', '#FF00FF', '#800000', '#808080',\n        '#DB7093', '#7B68EE', '#DC143C', '#8A2BE2', '#00CED1',\n        '#808000', '#191970', '#008080', '#000080', '#32CD32',\n        '#E6E6FA', '#3CB371', '#20B2AA', '#D2691E', '#7FFFD4'\n    ];\n    uint private _colorSelector;\n\n    // ================= ERRORS ======================\n    error ActionRestricted();\n\n    // Constructor of EXPerience NFT Contract, expects nama and symbol of the NFT Contract \n    // and address where EXP Token is deployed\n    constructor(string memory _name, string memory _symbol, address _expcontract) \n        ERC721(_name, _symbol) {\n        // Set EXP Contract address \n        _EXPContractAddress = _expcontract;\n        // Set msg sender the first admin \n        _tokenAdmins[msg.sender] = true;\n    }\n\n    // Add token admins who are allowed to mint NFT for any given address \n    function setTokenAdmin(address _admin, bool _isAdmin) public OnlyOwner {\n        _tokenAdmins[_admin] = _isAdmin;\n        emit TokenAdminSet(_admin, _isAdmin);\n    }\n\n    // A way to update EXPToken address (Keeping it for now)\n    function setExpContractAddress(address _contract) public OnlyOwner {\n        require(_contract != address(0), \"Invalid EXP Token Contract address\");\n        _EXPContractAddress = _contract;\n    }\n    // Generate EXPerience NFT for the address given \n    function genExperience(address _to) public {\n        // Make sure the message sender is one of the admins \n        require(_tokenAdmins[msg.sender] == true, \"EXPerience: You're not an admin\");\n        // We need to make sure _to actually holds some EXP \n        // Get the exp token contract  \n        _expContract = IERC20(_EXPContractAddress);\n        // Get _to's EXP token holdings \n        uint256 _expBalanceofTo = _expContract.balanceOf(_to);\n        // For Testing Only: Let's limit minting to address only if they any amount of exp token\n        require(_expBalanceofTo > 0, \"EXPerience: Insufficient EXP balance\");\n\n        // Source of randomness Blockhash \n        uint _aNumber = uint(blockhash(block.number - 1));\n        // We want our color selection to be within 0 and 20 (Excluding 20)\n        _colorSelector = _aNumber % 20;\n\n        // Get TokenID \n        uint256 _tokenID = _totalSupply;\n        // Increment for next tokenID\n        ++_totalSupply;\n        // Mint the EXPerience NFT for the address (If address already holds the NFT, _mint will revert)\n        _safeMint(_to, _tokenID);\n        // Emit the event \n        emit ExperienceNFTGenerated(_to);\n    }\n\n    // Total supply \n    function totalSupply() public view returns (uint256) {\n        return _totalSupply;\n    }\n\n    // TokenURI(), this is where we will implement all our logic\n    // - We need to generate ASCII NFT art\n    // - Art could be a trophie showing achievement/level \n    // --- Null trophie for 0 EXP tokens in the account \n    // --- Distinct 5 trophies, each trophie for certain EXP token held in the account \n    // --- Ex: Tier-1 trophie for users who have 1 to 20 EXP tokens\n    // --- Tier-2 trophies for users who have 21 to 40 EXP tokens and so on...\n    function tokenURI(uint256 _tokenID) public view override returns (string memory) {\n        // Make sure _tokenID is valid \n        require(_exists(_tokenID), \"EXPerience NFT: Invalid TokenID\");\n        // Get the owner of the _tokenID\n        address owner = ownerOf(_tokenID); \n        // We need owner's EXP token balance\n        // Based on balance, we can prepare a variable that denotes which \n        // Symbol should be written in the center of the circle. \n        // Get owner's EXP token holdings\n        uint256 ownerBal = IERC20(_EXPContractAddress).balanceOf(owner);\n\n        // Now we have following details required to generate a tokenURI \n        // owner of the nft, nft token ID, owner's EXP balance \n        // Added: Pass in the color details - according to the _colorSelector set while minting \n        return BadgeFactory._generateTokenURI(\n            _tokenID, \n            ownerBal, \n            owner, \n            //BadgeFactory.ColorDetails(_cName, _cHex) - Stack too deep?\n            _colorNames[_colorSelector],   // Selected color indexed at _colorSelector \n            _colorsHex[_colorSelector]\n        );\n    }\n\n    /// @dev functions that are restricted \n    /// Overridden from ERC721 and modifier to reflect \n    /// Soulbound nature of the NFT\n    function approve(address, uint256) public view override {\n        this; // silence state mutability warning without generating bytecode - see https://github.com/ethereum/solidity/issues/2691\n        revert ActionRestricted();\n    }\n\n    function getApproved(uint256) public view override returns (address) {\n        this;\n        revert ActionRestricted();\n    }\n\n    function setApprovalForAll(address, bool) public view override {\n        this;\n        revert ActionRestricted();\n    }\n\n    function isApprovedForAll(address, address) public view override returns (bool) {\n        this;\n        revert ActionRestricted();\n    }\n\n    function transferFrom(address, address, uint256) public view override {\n        this;\n        revert ActionRestricted();\n    }\n\n    function safeTransferFrom(address, address, uint256) public view override {\n        this;\n        revert ActionRestricted();\n    }\n\n    function safeTransferFrom(address, address, uint256, bytes memory) public view override {\n        this;\n        revert ActionRestricted();\n    }\n}","sourcePath":"contracts/EXPerienceNFT.sol","type":"contract","deployment":{"address":"0xc43598b376F4427F01683dB5BD3B144eA9dB2De5","chainid":"4","blockHeight":10719534}}