{
    "abi": [
        {
            "inputs": [
                {
                    "internalType": "string",
                    "name": "name_",
                    "type": "string"
                },
                {
                    "internalType": "string",
                    "name": "symbol_",
                    "type": "string"
                }
            ],
            "stateMutability": "nonpayable",
            "type": "constructor",
            "name": "constructor"
        },
        {
            "inputs": [],
            "name": "InternalFunctionError",
            "type": "error"
        },
        {
            "inputs": [],
            "name": "OperationNotAllowed",
            "type": "error"
        },
        {
            "inputs": [],
            "name": "PureFunctionError",
            "type": "error"
        },
        {
            "inputs": [],
            "name": "UnsupportedAction",
            "type": "error"
        },
        {
            "anonymous": false,
            "inputs": [
                {
                    "indexed": true,
                    "internalType": "address",
                    "name": "owner",
                    "type": "address"
                },
                {
                    "indexed": true,
                    "internalType": "address",
                    "name": "spender",
                    "type": "address"
                },
                {
                    "indexed": false,
                    "internalType": "uint256",
                    "name": "value",
                    "type": "uint256"
                }
            ],
            "name": "Approval",
            "type": "event"
        },
        {
            "anonymous": false,
            "inputs": [
                {
                    "indexed": true,
                    "internalType": "address",
                    "name": "admin_",
                    "type": "address"
                },
                {
                    "indexed": true,
                    "internalType": "bool",
                    "name": "isAdmin_",
                    "type": "bool"
                }
            ],
            "name": "TokenAdminUpdated",
            "type": "event"
        },
        {
            "anonymous": false,
            "inputs": [
                {
                    "indexed": true,
                    "internalType": "address",
                    "name": "from",
                    "type": "address"
                },
                {
                    "indexed": true,
                    "internalType": "address",
                    "name": "to",
                    "type": "address"
                },
                {
                    "indexed": false,
                    "internalType": "uint256",
                    "name": "value",
                    "type": "uint256"
                }
            ],
            "name": "Transfer",
            "type": "event"
        },
        {
            "inputs": [
                {
                    "internalType": "address",
                    "name": "",
                    "type": "address"
                },
                {
                    "internalType": "address",
                    "name": "",
                    "type": "address"
                }
            ],
            "name": "allowance",
            "outputs": [
                {
                    "internalType": "uint256",
                    "name": "",
                    "type": "uint256"
                }
            ],
            "stateMutability": "view",
            "type": "function"
        },
        {
            "inputs": [
                {
                    "internalType": "address",
                    "name": "",
                    "type": "address"
                },
                {
                    "internalType": "uint256",
                    "name": "",
                    "type": "uint256"
                }
            ],
            "name": "approve",
            "outputs": [
                {
                    "internalType": "bool",
                    "name": "",
                    "type": "bool"
                }
            ],
            "stateMutability": "nonpayable",
            "type": "function"
        },
        {
            "inputs": [
                {
                    "internalType": "address",
                    "name": "account",
                    "type": "address"
                }
            ],
            "name": "balanceOf",
            "outputs": [
                {
                    "internalType": "uint256",
                    "name": "",
                    "type": "uint256"
                }
            ],
            "stateMutability": "view",
            "type": "function"
        },
        {
            "inputs": [],
            "name": "decimals",
            "outputs": [
                {
                    "internalType": "uint8",
                    "name": "",
                    "type": "uint8"
                }
            ],
            "stateMutability": "view",
            "type": "function"
        },
        {
            "inputs": [
                {
                    "internalType": "address",
                    "name": "",
                    "type": "address"
                },
                {
                    "internalType": "uint256",
                    "name": "",
                    "type": "uint256"
                }
            ],
            "name": "decreaseAllowance",
            "outputs": [
                {
                    "internalType": "bool",
                    "name": "",
                    "type": "bool"
                }
            ],
            "stateMutability": "nonpayable",
            "type": "function"
        },
        {
            "inputs": [
                {
                    "internalType": "address",
                    "name": "gainer_",
                    "type": "address"
                },
                {
                    "internalType": "uint256",
                    "name": "gainAmount_",
                    "type": "uint256"
                }
            ],
            "name": "gainExperience",
            "outputs": [],
            "stateMutability": "nonpayable",
            "type": "function"
        },
        {
            "inputs": [
                {
                    "internalType": "address",
                    "name": "",
                    "type": "address"
                },
                {
                    "internalType": "uint256",
                    "name": "",
                    "type": "uint256"
                }
            ],
            "name": "increaseAllowance",
            "outputs": [
                {
                    "internalType": "bool",
                    "name": "",
                    "type": "bool"
                }
            ],
            "stateMutability": "nonpayable",
            "type": "function"
        },
        {
            "inputs": [
                {
                    "internalType": "address",
                    "name": "",
                    "type": "address"
                },
                {
                    "internalType": "address",
                    "name": "",
                    "type": "address"
                }
            ],
            "name": "isInAbi",
            "outputs": [
                {
                    "internalType": "bool",
                    "name": "",
                    "type": "bool"
                }
            ],
            "stateMutability": "pure",
            "type": "function"
        },
        {
            "inputs": [],
            "name": "name",
            "outputs": [
                {
                    "internalType": "string",
                    "name": "",
                    "type": "string"
                }
            ],
            "stateMutability": "view",
            "type": "function"
        },
        {
            "inputs": [],
            "name": "owner",
            "outputs": [
                {
                    "internalType": "address",
                    "name": "",
                    "type": "address"
                }
            ],
            "stateMutability": "view",
            "type": "function"
        },
        {
            "inputs": [
                {
                    "internalType": "address",
                    "name": "looser_",
                    "type": "address"
                },
                {
                    "internalType": "uint256",
                    "name": "lostAmount_",
                    "type": "uint256"
                }
            ],
            "name": "reduceExperience",
            "outputs": [],
            "stateMutability": "nonpayable",
            "type": "function"
        },
        {
            "inputs": [
                {
                    "internalType": "address",
                    "name": "admin_",
                    "type": "address"
                },
                {
                    "internalType": "bool",
                    "name": "isSet_",
                    "type": "bool"
                }
            ],
            "name": "setTokenAdmins",
            "outputs": [],
            "stateMutability": "nonpayable",
            "type": "function"
        },
        {
            "inputs": [
                {
                    "internalType": "bytes4",
                    "name": "interfaceId",
                    "type": "bytes4"
                }
            ],
            "name": "supportsInterface",
            "outputs": [
                {
                    "internalType": "bool",
                    "name": "",
                    "type": "bool"
                }
            ],
            "stateMutability": "view",
            "type": "function"
        },
        {
            "inputs": [],
            "name": "symbol",
            "outputs": [
                {
                    "internalType": "string",
                    "name": "",
                    "type": "string"
                }
            ],
            "stateMutability": "view",
            "type": "function"
        },
        {
            "inputs": [],
            "name": "totalSupply",
            "outputs": [
                {
                    "internalType": "uint256",
                    "name": "",
                    "type": "uint256"
                }
            ],
            "stateMutability": "view",
            "type": "function"
        },
        {
            "inputs": [
                {
                    "internalType": "address",
                    "name": "",
                    "type": "address"
                },
                {
                    "internalType": "uint256",
                    "name": "",
                    "type": "uint256"
                }
            ],
            "name": "transfer",
            "outputs": [
                {
                    "internalType": "bool",
                    "name": "",
                    "type": "bool"
                }
            ],
            "stateMutability": "nonpayable",
            "type": "function"
        },
        {
            "inputs": [
                {
                    "internalType": "address",
                    "name": "",
                    "type": "address"
                },
                {
                    "internalType": "address",
                    "name": "",
                    "type": "address"
                },
                {
                    "internalType": "uint256",
                    "name": "",
                    "type": "uint256"
                }
            ],
            "name": "transferFrom",
            "outputs": [
                {
                    "internalType": "bool",
                    "name": "",
                    "type": "bool"
                }
            ],
            "stateMutability": "nonpayable",
            "type": "function"
        }
    ],
    "bytecode": "60806040523480156200001157600080fd5b5060405162000e1838038062000e18833981016040819052620000349162000210565b8151829082906200004d9060029060208501906200009d565b508051620000639060039060208401906200009d565b5050600480546001600160a01b031916339081179091556000908152600560205260409020805460ff1916600117905550620002b6915050565b828054620000ab906200027a565b90600052602060002090601f016020900481019282620000cf57600085556200011a565b82601f10620000ea57805160ff19168380011785556200011a565b828001600101855582156200011a579182015b828111156200011a578251825591602001919060010190620000fd565b50620001289291506200012c565b5090565b5b808211156200012857600081556001016200012d565b634e487b7160e01b600052604160045260246000fd5b600082601f8301126200016b57600080fd5b81516001600160401b038082111562000188576200018862000143565b604051601f8301601f19908116603f01168101908282118183101715620001b357620001b362000143565b81604052838152602092508683858801011115620001d057600080fd5b600091505b83821015620001f45785820183015181830184015290820190620001d5565b83821115620002065760008385830101525b9695505050505050565b600080604083850312156200022457600080fd5b82516001600160401b03808211156200023c57600080fd5b6200024a8683870162000159565b935060208501519150808211156200026157600080fd5b50620002708582860162000159565b9150509250929050565b600181811c908216806200028f57607f821691505b602082108103620002b057634e487b7160e01b600052602260045260246000fd5b50919050565b610b5280620002c66000396000f3fe608060405234801561001057600080fd5b506004361061010b5760003560e01c80633f70c348116100a2578063a457c2d711610071578063a457c2d71461018f578063a9059cbb1461014d578063dd62ed3e14610216578063e0b1e94014610224578063f56bbc9c1461023757600080fd5b80633f70c348146101b757806370a08231146101ca5780638da5cb5b146101f357806395d89b411461020e57600080fd5b806323b872dd116100de57806323b872dd14610172578063313ce56714610180578063395093511461018f5780633d14b86c146101a257600080fd5b806301ffc9a71461011057806306fdde0314610138578063095ea7b31461014d57806318160ddd14610160575b600080fd5b61012361011e3660046108c2565b61024a565b60405190151581526020015b60405180910390f35b61014061029c565b60405161012f91906108f3565b61012361015b366004610964565b61032e565b6001545b60405190815260200161012f565b61012361015b36600461098e565b6040516012815260200161012f565b61012361019d366004610964565b610349565b6101b56101b03660046109ca565b610364565b005b6101236101c5366004610a06565b6103fa565b6101646101d8366004610a39565b6001600160a01b031660009081526020819052604090205490565b6004546040516001600160a01b03909116815260200161012f565b610140610415565b61016461019d366004610a06565b6101b5610232366004610964565b610424565b6101b5610245366004610964565b61054a565b60006001600160e01b031982166336372b0760e01b148061027b57506001600160e01b0319821663a219a02560e01b145b8061029657506301ffc9a760e01b6001600160e01b03198316145b92915050565b6060600280546102ab90610a54565b80601f01602080910402602001604051908101604052809291908181526020018280546102d790610a54565b80156103245780601f106102f957610100808354040283529160200191610324565b820191906000526020600020905b81548152906001019060200180831161030757829003601f168201915b5050505050905090565b6000604051637a851da960e11b815260040160405180910390fd5b60006040516325e9714f60e01b815260040160405180910390fd5b336103776004546001600160a01b031690565b6001600160a01b0316146103a65760405162461bcd60e51b815260040161039d90610a8e565b60405180910390fd5b6001600160a01b038216600081815260056020526040808220805460ff191685151590811790915590519092917f507c66f2fcbb2af591aed924c5f0865a477d80298478209850211a5653c00c9291a35050565b6000604051638a21a59960e01b815260040160405180910390fd5b6060600380546102ab90610a54565b3360009081526005602052604090205460ff1615156001146104585760405162461bcd60e51b815260040161039d90610a8e565b6001600160a01b038216600090815260208190526040902054806104cf5760405162461bcd60e51b815260206004820152602860248201527f455850546f6b656e202842616c616e6365293a20496e73756666696369656e746044820152672062616c616e636560c01b606482015260840161039d565b60006104db8383610aed565b1161053b5760405162461bcd60e51b815260206004820152602a60248201527f455850546f6b656e202842616c616e6365293a2043616e277420676f2062656c60448201526937bb9026b4b71418149760b11b606482015260840161039d565b6105458383610680565b505050565b3360009081526005602052604090205460ff16151560011461057e5760405162461bcd60e51b815260040161039d90610a8e565b6001600160a01b03821660009081526020819052604090205468056bc75e2d6310000081106106005760405162461bcd60e51b815260206004820152602860248201527f455850546f6b656e202842616c616e6365293a20416c7265616479206174204d60448201526730bc14189818149760c11b606482015260840161039d565b68056bc75e2d631000006106148383610b04565b11156106765760405162461bcd60e51b815260206004820152602b60248201527f455850546f6b656e202842616c616e6365293a2057696c6c20676f2061626f7660448201526a329026b0bc14189818149760a91b606482015260840161039d565b61054583836107d7565b6001600160a01b0382166106e55760405162461bcd60e51b815260206004820152602660248201527f455850546f6b656e20284275726e293a204275726e2066726f6d204164642830604482015265149016902c1760d11b606482015260840161039d565b6001600160a01b0382166000908152602081905260409020548181101561075d5760405162461bcd60e51b815260206004820152602660248201527f455850546f6b656e20284275726e293a20496e73756666696369656e742062616044820152653630b731b29760d11b606482015260840161039d565b6001600160a01b038316600090815260208190526040812083830390556001805484929061078c908490610aed565b90915550506040518281526000906001600160a01b038516907fddf252ad1be2c89b69c2b068fc378daa952ba7f163c4a11628f55a4df523b3ef9060200160405180910390a3505050565b6001600160a01b0382166108395760405162461bcd60e51b815260206004820152602360248201527f455850546f6b656e20284d696e74293a204d696e7420746f204164642830292060448201526205a40b60eb1b606482015260840161039d565b806001600082825461084b9190610b04565b90915550506001600160a01b03821660009081526020819052604081208054839290610878908490610b04565b90915550506040518181526001600160a01b038316906000907fddf252ad1be2c89b69c2b068fc378daa952ba7f163c4a11628f55a4df523b3ef9060200160405180910390a35050565b6000602082840312156108d457600080fd5b81356001600160e01b0319811681146108ec57600080fd5b9392505050565b600060208083528351808285015260005b8181101561092057858101830151858201604001528201610904565b81811115610932576000604083870101525b50601f01601f1916929092016040019392505050565b80356001600160a01b038116811461095f57600080fd5b919050565b6000806040838503121561097757600080fd5b61098083610948565b946020939093013593505050565b6000806000606084860312156109a357600080fd5b6109ac84610948565b92506109ba60208501610948565b9150604084013590509250925092565b600080604083850312156109dd57600080fd5b6109e683610948565b9150602083013580151581146109fb57600080fd5b809150509250929050565b60008060408385031215610a1957600080fd5b610a2283610948565b9150610a3060208401610948565b90509250929050565b600060208284031215610a4b57600080fd5b6108ec82610948565b600181811c90821680610a6857607f821691505b602082108103610a8857634e487b7160e01b600052602260045260246000fd5b50919050565b60208082526029908201527f455850546f6b656e2028416363657373436f6e74726f6c293a204e6f742061756040820152683a3437b934bd32b21760b91b606082015260800190565b634e487b7160e01b600052601160045260246000fd5b600082821015610aff57610aff610ad7565b500390565b60008219821115610b1757610b17610ad7565b50019056fea264697066735822122077745c5f6372c77dd8f2435a9b955bcdfa4eec22b1e1f34c9b6733e76bfd420964736f6c634300080d0033",
    "bytecodeSha1": "cda6425cd04e876abfdd91c840c6d29eab7f113b",
    "compiler": {
        "evm_version": "istanbul",
        "optimizer": {
            "enabled": true,
            "runs": 200
        },
        "version": "0.8.13+commit.abaa5c0e"
    },
    "contractName": "EXPToken",
    "language": "Solidity",
    "natspec": {
        "author": "0micronat_. - https://github.com/SolDev-HP (Playground)",
        "details": "EXPToken (EXP) contract that handles minting and assigning EXP to the users  Only primary admin can add other admins  All admin can _mint token to given address, and _burn token from given address ",
        "kind": "dev",
        "methods": {
            "allowance(address,address)": {
                "details": "See {IERC20-allowance}. Unsupported"
            },
            "approve(address,uint256)": {
                "details": "See {IERC20-approve}. Restricted "
            },
            "balanceOf(address)": {
                "details": "See {IERC20-balanceOf}."
            },
            "constructor": {
                "details": "Initialize contract by providing Token name ex: \"EXPToken\" and symbol ex: \"EXP\" This should be able to create ERC20 token, initiator will be the primary admin who  can add or remove other admins "
            },
            "decimals()": {
                "details": "Returns the number of decimals used to get its user representation. For example, if `decimals` equals `2`, a balance of `505` tokens should be displayed to a user as `5.05` (`505 / 10 ** 2`). Tokens usually opt for a value of 18, imitating the relationship between Ether and Wei. This is the value {ERC20} uses, unless this function is overridden; NOTE: This information is only used for _display_ purposes: it in no way affects any of the arithmetic of the contract, including {IERC20-balanceOf} and {IERC20-transfer}."
            },
            "decreaseAllowance(address,uint256)": {
                "details": "Atomically decreases the allowance granted to `spender` by the caller. Unsupported"
            },
            "gainExperience(address,uint256)": {
                "details": "gainExperience function to add experience points to user's EXP balance  Need to make sure we cap experience to max exp limit"
            },
            "increaseAllowance(address,uint256)": {
                "details": "Atomically increases the allowance granted to `spender` by the caller. Unsupported"
            },
            "name()": {
                "details": "Returns the name of the token."
            },
            "owner()": {
                "details": "Public function to check owner ",
                "returns": {
                    "_0": "address of the owner of this contract"
                }
            },
            "reduceExperience(address,uint256)": {
                "details": "reduceExperience function to remove exp from user's balance  Need to make sure, it doesn't go below 0 after deduction and user's balance isn't already zero"
            },
            "setTokenAdmins(address,bool)": {
                "details": "Allow adding/removing admins for EXPToken"
            },
            "supportsInterface(bytes4)": {
                "details": "See {IERC165-supportsInterface}."
            },
            "symbol()": {
                "details": "Returns the symbol of the token, usually a shorter version of the name."
            },
            "totalSupply()": {
                "details": "See {IERC20-totalSupply}."
            },
            "transfer(address,uint256)": {
                "details": "See {IERC20-transfer}. Restricted"
            },
            "transferFrom(address,address,uint256)": {
                "details": "See {IERC20-transferFrom}. Restricted"
            }
        },
        "version": 1
    },
    "opcodes": "PUSH1 0x80 PUSH1 0x40 MSTORE CALLVALUE DUP1 ISZERO PUSH2 0x10 JUMPI PUSH1 0x0 DUP1 REVERT JUMPDEST POP PUSH1 0x4 CALLDATASIZE LT PUSH2 0x10B JUMPI PUSH1 0x0 CALLDATALOAD PUSH1 0xE0 SHR DUP1 PUSH4 0x3F70C348 GT PUSH2 0xA2 JUMPI DUP1 PUSH4 0xA457C2D7 GT PUSH2 0x71 JUMPI DUP1 PUSH4 0xA457C2D7 EQ PUSH2 0x18F JUMPI DUP1 PUSH4 0xA9059CBB EQ PUSH2 0x14D JUMPI DUP1 PUSH4 0xDD62ED3E EQ PUSH2 0x216 JUMPI DUP1 PUSH4 0xE0B1E940 EQ PUSH2 0x224 JUMPI DUP1 PUSH4 0xF56BBC9C EQ PUSH2 0x237 JUMPI PUSH1 0x0 DUP1 REVERT JUMPDEST DUP1 PUSH4 0x3F70C348 EQ PUSH2 0x1B7 JUMPI DUP1 PUSH4 0x70A08231 EQ PUSH2 0x1CA JUMPI DUP1 PUSH4 0x8DA5CB5B EQ PUSH2 0x1F3 JUMPI DUP1 PUSH4 0x95D89B41 EQ PUSH2 0x20E JUMPI PUSH1 0x0 DUP1 REVERT JUMPDEST DUP1 PUSH4 0x23B872DD GT PUSH2 0xDE JUMPI DUP1 PUSH4 0x23B872DD EQ PUSH2 0x172 JUMPI DUP1 PUSH4 0x313CE567 EQ PUSH2 0x180 JUMPI DUP1 PUSH4 0x39509351 EQ PUSH2 0x18F JUMPI DUP1 PUSH4 0x3D14B86C EQ PUSH2 0x1A2 JUMPI PUSH1 0x0 DUP1 REVERT JUMPDEST DUP1 PUSH4 0x1FFC9A7 EQ PUSH2 0x110 JUMPI DUP1 PUSH4 0x6FDDE03 EQ PUSH2 0x138 JUMPI DUP1 PUSH4 0x95EA7B3 EQ PUSH2 0x14D JUMPI DUP1 PUSH4 0x18160DDD EQ PUSH2 0x160 JUMPI JUMPDEST PUSH1 0x0 DUP1 REVERT JUMPDEST PUSH2 0x123 PUSH2 0x11E CALLDATASIZE PUSH1 0x4 PUSH2 0x8C2 JUMP JUMPDEST PUSH2 0x24A JUMP JUMPDEST PUSH1 0x40 MLOAD SWAP1 ISZERO ISZERO DUP2 MSTORE PUSH1 0x20 ADD JUMPDEST PUSH1 0x40 MLOAD DUP1 SWAP2 SUB SWAP1 RETURN JUMPDEST PUSH2 0x140 PUSH2 0x29C JUMP JUMPDEST PUSH1 0x40 MLOAD PUSH2 0x12F SWAP2 SWAP1 PUSH2 0x8F3 JUMP JUMPDEST PUSH2 0x123 PUSH2 0x15B CALLDATASIZE PUSH1 0x4 PUSH2 0x964 JUMP JUMPDEST PUSH2 0x32E JUMP JUMPDEST PUSH1 0x1 SLOAD JUMPDEST PUSH1 0x40 MLOAD SWAP1 DUP2 MSTORE PUSH1 0x20 ADD PUSH2 0x12F JUMP JUMPDEST PUSH2 0x123 PUSH2 0x15B CALLDATASIZE PUSH1 0x4 PUSH2 0x98E JUMP JUMPDEST PUSH1 0x40 MLOAD PUSH1 0x12 DUP2 MSTORE PUSH1 0x20 ADD PUSH2 0x12F JUMP JUMPDEST PUSH2 0x123 PUSH2 0x19D CALLDATASIZE PUSH1 0x4 PUSH2 0x964 JUMP JUMPDEST PUSH2 0x349 JUMP JUMPDEST PUSH2 0x1B5 PUSH2 0x1B0 CALLDATASIZE PUSH1 0x4 PUSH2 0x9CA JUMP JUMPDEST PUSH2 0x364 JUMP JUMPDEST STOP JUMPDEST PUSH2 0x123 PUSH2 0x1C5 CALLDATASIZE PUSH1 0x4 PUSH2 0xA06 JUMP JUMPDEST PUSH2 0x3FA JUMP JUMPDEST PUSH2 0x164 PUSH2 0x1D8 CALLDATASIZE PUSH1 0x4 PUSH2 0xA39 JUMP JUMPDEST PUSH1 0x1 PUSH1 0x1 PUSH1 0xA0 SHL SUB AND PUSH1 0x0 SWAP1 DUP2 MSTORE PUSH1 0x20 DUP2 SWAP1 MSTORE PUSH1 0x40 SWAP1 KECCAK256 SLOAD SWAP1 JUMP JUMPDEST PUSH1 0x4 SLOAD PUSH1 0x40 MLOAD PUSH1 0x1 PUSH1 0x1 PUSH1 0xA0 SHL SUB SWAP1 SWAP2 AND DUP2 MSTORE PUSH1 0x20 ADD PUSH2 0x12F JUMP JUMPDEST PUSH2 0x140 PUSH2 0x415 JUMP JUMPDEST PUSH2 0x164 PUSH2 0x19D CALLDATASIZE PUSH1 0x4 PUSH2 0xA06 JUMP JUMPDEST PUSH2 0x1B5 PUSH2 0x232 CALLDATASIZE PUSH1 0x4 PUSH2 0x964 JUMP JUMPDEST PUSH2 0x424 JUMP JUMPDEST PUSH2 0x1B5 PUSH2 0x245 CALLDATASIZE PUSH1 0x4 PUSH2 0x964 JUMP JUMPDEST PUSH2 0x54A JUMP JUMPDEST PUSH1 0x0 PUSH1 0x1 PUSH1 0x1 PUSH1 0xE0 SHL SUB NOT DUP3 AND PUSH4 0x36372B07 PUSH1 0xE0 SHL EQ DUP1 PUSH2 0x27B JUMPI POP PUSH1 0x1 PUSH1 0x1 PUSH1 0xE0 SHL SUB NOT DUP3 AND PUSH4 0xA219A025 PUSH1 0xE0 SHL EQ JUMPDEST DUP1 PUSH2 0x296 JUMPI POP PUSH4 0x1FFC9A7 PUSH1 0xE0 SHL PUSH1 0x1 PUSH1 0x1 PUSH1 0xE0 SHL SUB NOT DUP4 AND EQ JUMPDEST SWAP3 SWAP2 POP POP JUMP JUMPDEST PUSH1 0x60 PUSH1 0x2 DUP1 SLOAD PUSH2 0x2AB SWAP1 PUSH2 0xA54 JUMP JUMPDEST DUP1 PUSH1 0x1F ADD PUSH1 0x20 DUP1 SWAP2 DIV MUL PUSH1 0x20 ADD PUSH1 0x40 MLOAD SWAP1 DUP2 ADD PUSH1 0x40 MSTORE DUP1 SWAP3 SWAP2 SWAP1 DUP2 DUP2 MSTORE PUSH1 0x20 ADD DUP3 DUP1 SLOAD PUSH2 0x2D7 SWAP1 PUSH2 0xA54 JUMP JUMPDEST DUP1 ISZERO PUSH2 0x324 JUMPI DUP1 PUSH1 0x1F LT PUSH2 0x2F9 JUMPI PUSH2 0x100 DUP1 DUP4 SLOAD DIV MUL DUP4 MSTORE SWAP2 PUSH1 0x20 ADD SWAP2 PUSH2 0x324 JUMP JUMPDEST DUP3 ADD SWAP2 SWAP1 PUSH1 0x0 MSTORE PUSH1 0x20 PUSH1 0x0 KECCAK256 SWAP1 JUMPDEST DUP2 SLOAD DUP2 MSTORE SWAP1 PUSH1 0x1 ADD SWAP1 PUSH1 0x20 ADD DUP1 DUP4 GT PUSH2 0x307 JUMPI DUP3 SWAP1 SUB PUSH1 0x1F AND DUP3 ADD SWAP2 JUMPDEST POP POP POP POP POP SWAP1 POP SWAP1 JUMP JUMPDEST PUSH1 0x0 PUSH1 0x40 MLOAD PUSH4 0x7A851DA9 PUSH1 0xE1 SHL DUP2 MSTORE PUSH1 0x4 ADD PUSH1 0x40 MLOAD DUP1 SWAP2 SUB SWAP1 REVERT JUMPDEST PUSH1 0x0 PUSH1 0x40 MLOAD PUSH4 0x25E9714F PUSH1 0xE0 SHL DUP2 MSTORE PUSH1 0x4 ADD PUSH1 0x40 MLOAD DUP1 SWAP2 SUB SWAP1 REVERT JUMPDEST CALLER PUSH2 0x377 PUSH1 0x4 SLOAD PUSH1 0x1 PUSH1 0x1 PUSH1 0xA0 SHL SUB AND SWAP1 JUMP JUMPDEST PUSH1 0x1 PUSH1 0x1 PUSH1 0xA0 SHL SUB AND EQ PUSH2 0x3A6 JUMPI PUSH1 0x40 MLOAD PUSH3 0x461BCD PUSH1 0xE5 SHL DUP2 MSTORE PUSH1 0x4 ADD PUSH2 0x39D SWAP1 PUSH2 0xA8E JUMP JUMPDEST PUSH1 0x40 MLOAD DUP1 SWAP2 SUB SWAP1 REVERT JUMPDEST PUSH1 0x1 PUSH1 0x1 PUSH1 0xA0 SHL SUB DUP3 AND PUSH1 0x0 DUP2 DUP2 MSTORE PUSH1 0x5 PUSH1 0x20 MSTORE PUSH1 0x40 DUP1 DUP3 KECCAK256 DUP1 SLOAD PUSH1 0xFF NOT AND DUP6 ISZERO ISZERO SWAP1 DUP2 OR SWAP1 SWAP2 SSTORE SWAP1 MLOAD SWAP1 SWAP3 SWAP2 PUSH32 0x507C66F2FCBB2AF591AED924C5F0865A477D80298478209850211A5653C00C92 SWAP2 LOG3 POP POP JUMP JUMPDEST PUSH1 0x0 PUSH1 0x40 MLOAD PUSH4 0x8A21A599 PUSH1 0xE0 SHL DUP2 MSTORE PUSH1 0x4 ADD PUSH1 0x40 MLOAD DUP1 SWAP2 SUB SWAP1 REVERT JUMPDEST PUSH1 0x60 PUSH1 0x3 DUP1 SLOAD PUSH2 0x2AB SWAP1 PUSH2 0xA54 JUMP JUMPDEST CALLER PUSH1 0x0 SWAP1 DUP2 MSTORE PUSH1 0x5 PUSH1 0x20 MSTORE PUSH1 0x40 SWAP1 KECCAK256 SLOAD PUSH1 0xFF AND ISZERO ISZERO PUSH1 0x1 EQ PUSH2 0x458 JUMPI PUSH1 0x40 MLOAD PUSH3 0x461BCD PUSH1 0xE5 SHL DUP2 MSTORE PUSH1 0x4 ADD PUSH2 0x39D SWAP1 PUSH2 0xA8E JUMP JUMPDEST PUSH1 0x1 PUSH1 0x1 PUSH1 0xA0 SHL SUB DUP3 AND PUSH1 0x0 SWAP1 DUP2 MSTORE PUSH1 0x20 DUP2 SWAP1 MSTORE PUSH1 0x40 SWAP1 KECCAK256 SLOAD DUP1 PUSH2 0x4CF JUMPI PUSH1 0x40 MLOAD PUSH3 0x461BCD PUSH1 0xE5 SHL DUP2 MSTORE PUSH1 0x20 PUSH1 0x4 DUP3 ADD MSTORE PUSH1 0x28 PUSH1 0x24 DUP3 ADD MSTORE PUSH32 0x455850546F6B656E202842616C616E6365293A20496E73756666696369656E74 PUSH1 0x44 DUP3 ADD MSTORE PUSH8 0x2062616C616E6365 PUSH1 0xC0 SHL PUSH1 0x64 DUP3 ADD MSTORE PUSH1 0x84 ADD PUSH2 0x39D JUMP JUMPDEST PUSH1 0x0 PUSH2 0x4DB DUP4 DUP4 PUSH2 0xAED JUMP JUMPDEST GT PUSH2 0x53B JUMPI PUSH1 0x40 MLOAD PUSH3 0x461BCD PUSH1 0xE5 SHL DUP2 MSTORE PUSH1 0x20 PUSH1 0x4 DUP3 ADD MSTORE PUSH1 0x2A PUSH1 0x24 DUP3 ADD MSTORE PUSH32 0x455850546F6B656E202842616C616E6365293A2043616E277420676F2062656C PUSH1 0x44 DUP3 ADD MSTORE PUSH10 0x37BB9026B4B714181497 PUSH1 0xB1 SHL PUSH1 0x64 DUP3 ADD MSTORE PUSH1 0x84 ADD PUSH2 0x39D JUMP JUMPDEST PUSH2 0x545 DUP4 DUP4 PUSH2 0x680 JUMP JUMPDEST POP POP POP JUMP JUMPDEST CALLER PUSH1 0x0 SWAP1 DUP2 MSTORE PUSH1 0x5 PUSH1 0x20 MSTORE PUSH1 0x40 SWAP1 KECCAK256 SLOAD PUSH1 0xFF AND ISZERO ISZERO PUSH1 0x1 EQ PUSH2 0x57E JUMPI PUSH1 0x40 MLOAD PUSH3 0x461BCD PUSH1 0xE5 SHL DUP2 MSTORE PUSH1 0x4 ADD PUSH2 0x39D SWAP1 PUSH2 0xA8E JUMP JUMPDEST PUSH1 0x1 PUSH1 0x1 PUSH1 0xA0 SHL SUB DUP3 AND PUSH1 0x0 SWAP1 DUP2 MSTORE PUSH1 0x20 DUP2 SWAP1 MSTORE PUSH1 0x40 SWAP1 KECCAK256 SLOAD PUSH9 0x56BC75E2D63100000 DUP2 LT PUSH2 0x600 JUMPI PUSH1 0x40 MLOAD PUSH3 0x461BCD PUSH1 0xE5 SHL DUP2 MSTORE PUSH1 0x20 PUSH1 0x4 DUP3 ADD MSTORE PUSH1 0x28 PUSH1 0x24 DUP3 ADD MSTORE PUSH32 0x455850546F6B656E202842616C616E6365293A20416C7265616479206174204D PUSH1 0x44 DUP3 ADD MSTORE PUSH8 0x30BC141898181497 PUSH1 0xC1 SHL PUSH1 0x64 DUP3 ADD MSTORE PUSH1 0x84 ADD PUSH2 0x39D JUMP JUMPDEST PUSH9 0x56BC75E2D63100000 PUSH2 0x614 DUP4 DUP4 PUSH2 0xB04 JUMP JUMPDEST GT ISZERO PUSH2 0x676 JUMPI PUSH1 0x40 MLOAD PUSH3 0x461BCD PUSH1 0xE5 SHL DUP2 MSTORE PUSH1 0x20 PUSH1 0x4 DUP3 ADD MSTORE PUSH1 0x2B PUSH1 0x24 DUP3 ADD MSTORE PUSH32 0x455850546F6B656E202842616C616E6365293A2057696C6C20676F2061626F76 PUSH1 0x44 DUP3 ADD MSTORE PUSH11 0x329026B0BC141898181497 PUSH1 0xA9 SHL PUSH1 0x64 DUP3 ADD MSTORE PUSH1 0x84 ADD PUSH2 0x39D JUMP JUMPDEST PUSH2 0x545 DUP4 DUP4 PUSH2 0x7D7 JUMP JUMPDEST PUSH1 0x1 PUSH1 0x1 PUSH1 0xA0 SHL SUB DUP3 AND PUSH2 0x6E5 JUMPI PUSH1 0x40 MLOAD PUSH3 0x461BCD PUSH1 0xE5 SHL DUP2 MSTORE PUSH1 0x20 PUSH1 0x4 DUP3 ADD MSTORE PUSH1 0x26 PUSH1 0x24 DUP3 ADD MSTORE PUSH32 0x455850546F6B656E20284275726E293A204275726E2066726F6D204164642830 PUSH1 0x44 DUP3 ADD MSTORE PUSH6 0x149016902C17 PUSH1 0xD1 SHL PUSH1 0x64 DUP3 ADD MSTORE PUSH1 0x84 ADD PUSH2 0x39D JUMP JUMPDEST PUSH1 0x1 PUSH1 0x1 PUSH1 0xA0 SHL SUB DUP3 AND PUSH1 0x0 SWAP1 DUP2 MSTORE PUSH1 0x20 DUP2 SWAP1 MSTORE PUSH1 0x40 SWAP1 KECCAK256 SLOAD DUP2 DUP2 LT ISZERO PUSH2 0x75D JUMPI PUSH1 0x40 MLOAD PUSH3 0x461BCD PUSH1 0xE5 SHL DUP2 MSTORE PUSH1 0x20 PUSH1 0x4 DUP3 ADD MSTORE PUSH1 0x26 PUSH1 0x24 DUP3 ADD MSTORE PUSH32 0x455850546F6B656E20284275726E293A20496E73756666696369656E74206261 PUSH1 0x44 DUP3 ADD MSTORE PUSH6 0x3630B731B297 PUSH1 0xD1 SHL PUSH1 0x64 DUP3 ADD MSTORE PUSH1 0x84 ADD PUSH2 0x39D JUMP JUMPDEST PUSH1 0x1 PUSH1 0x1 PUSH1 0xA0 SHL SUB DUP4 AND PUSH1 0x0 SWAP1 DUP2 MSTORE PUSH1 0x20 DUP2 SWAP1 MSTORE PUSH1 0x40 DUP2 KECCAK256 DUP4 DUP4 SUB SWAP1 SSTORE PUSH1 0x1 DUP1 SLOAD DUP5 SWAP3 SWAP1 PUSH2 0x78C SWAP1 DUP5 SWAP1 PUSH2 0xAED JUMP JUMPDEST SWAP1 SWAP2 SSTORE POP POP PUSH1 0x40 MLOAD DUP3 DUP2 MSTORE PUSH1 0x0 SWAP1 PUSH1 0x1 PUSH1 0x1 PUSH1 0xA0 SHL SUB DUP6 AND SWAP1 PUSH32 0xDDF252AD1BE2C89B69C2B068FC378DAA952BA7F163C4A11628F55A4DF523B3EF SWAP1 PUSH1 0x20 ADD PUSH1 0x40 MLOAD DUP1 SWAP2 SUB SWAP1 LOG3 POP POP POP JUMP JUMPDEST PUSH1 0x1 PUSH1 0x1 PUSH1 0xA0 SHL SUB DUP3 AND PUSH2 0x839 JUMPI PUSH1 0x40 MLOAD PUSH3 0x461BCD PUSH1 0xE5 SHL DUP2 MSTORE PUSH1 0x20 PUSH1 0x4 DUP3 ADD MSTORE PUSH1 0x23 PUSH1 0x24 DUP3 ADD MSTORE PUSH32 0x455850546F6B656E20284D696E74293A204D696E7420746F2041646428302920 PUSH1 0x44 DUP3 ADD MSTORE PUSH3 0x5A40B PUSH1 0xEB SHL PUSH1 0x64 DUP3 ADD MSTORE PUSH1 0x84 ADD PUSH2 0x39D JUMP JUMPDEST DUP1 PUSH1 0x1 PUSH1 0x0 DUP3 DUP3 SLOAD PUSH2 0x84B SWAP2 SWAP1 PUSH2 0xB04 JUMP JUMPDEST SWAP1 SWAP2 SSTORE POP POP PUSH1 0x1 PUSH1 0x1 PUSH1 0xA0 SHL SUB DUP3 AND PUSH1 0x0 SWAP1 DUP2 MSTORE PUSH1 0x20 DUP2 SWAP1 MSTORE PUSH1 0x40 DUP2 KECCAK256 DUP1 SLOAD DUP4 SWAP3 SWAP1 PUSH2 0x878 SWAP1 DUP5 SWAP1 PUSH2 0xB04 JUMP JUMPDEST SWAP1 SWAP2 SSTORE POP POP PUSH1 0x40 MLOAD DUP2 DUP2 MSTORE PUSH1 0x1 PUSH1 0x1 PUSH1 0xA0 SHL SUB DUP4 AND SWAP1 PUSH1 0x0 SWAP1 PUSH32 0xDDF252AD1BE2C89B69C2B068FC378DAA952BA7F163C4A11628F55A4DF523B3EF SWAP1 PUSH1 0x20 ADD PUSH1 0x40 MLOAD DUP1 SWAP2 SUB SWAP1 LOG3 POP POP JUMP JUMPDEST PUSH1 0x0 PUSH1 0x20 DUP3 DUP5 SUB SLT ISZERO PUSH2 0x8D4 JUMPI PUSH1 0x0 DUP1 REVERT JUMPDEST DUP2 CALLDATALOAD PUSH1 0x1 PUSH1 0x1 PUSH1 0xE0 SHL SUB NOT DUP2 AND DUP2 EQ PUSH2 0x8EC JUMPI PUSH1 0x0 DUP1 REVERT JUMPDEST SWAP4 SWAP3 POP POP POP JUMP JUMPDEST PUSH1 0x0 PUSH1 0x20 DUP1 DUP4 MSTORE DUP4 MLOAD DUP1 DUP3 DUP6 ADD MSTORE PUSH1 0x0 JUMPDEST DUP2 DUP2 LT ISZERO PUSH2 0x920 JUMPI DUP6 DUP2 ADD DUP4 ADD MLOAD DUP6 DUP3 ADD PUSH1 0x40 ADD MSTORE DUP3 ADD PUSH2 0x904 JUMP JUMPDEST DUP2 DUP2 GT ISZERO PUSH2 0x932 JUMPI PUSH1 0x0 PUSH1 0x40 DUP4 DUP8 ADD ADD MSTORE JUMPDEST POP PUSH1 0x1F ADD PUSH1 0x1F NOT AND SWAP3 SWAP1 SWAP3 ADD PUSH1 0x40 ADD SWAP4 SWAP3 POP POP POP JUMP JUMPDEST DUP1 CALLDATALOAD PUSH1 0x1 PUSH1 0x1 PUSH1 0xA0 SHL SUB DUP2 AND DUP2 EQ PUSH2 0x95F JUMPI PUSH1 0x0 DUP1 REVERT JUMPDEST SWAP2 SWAP1 POP JUMP JUMPDEST PUSH1 0x0 DUP1 PUSH1 0x40 DUP4 DUP6 SUB SLT ISZERO PUSH2 0x977 JUMPI PUSH1 0x0 DUP1 REVERT JUMPDEST PUSH2 0x980 DUP4 PUSH2 0x948 JUMP JUMPDEST SWAP5 PUSH1 0x20 SWAP4 SWAP1 SWAP4 ADD CALLDATALOAD SWAP4 POP POP POP JUMP JUMPDEST PUSH1 0x0 DUP1 PUSH1 0x0 PUSH1 0x60 DUP5 DUP7 SUB SLT ISZERO PUSH2 0x9A3 JUMPI PUSH1 0x0 DUP1 REVERT JUMPDEST PUSH2 0x9AC DUP5 PUSH2 0x948 JUMP JUMPDEST SWAP3 POP PUSH2 0x9BA PUSH1 0x20 DUP6 ADD PUSH2 0x948 JUMP JUMPDEST SWAP2 POP PUSH1 0x40 DUP5 ADD CALLDATALOAD SWAP1 POP SWAP3 POP SWAP3 POP SWAP3 JUMP JUMPDEST PUSH1 0x0 DUP1 PUSH1 0x40 DUP4 DUP6 SUB SLT ISZERO PUSH2 0x9DD JUMPI PUSH1 0x0 DUP1 REVERT JUMPDEST PUSH2 0x9E6 DUP4 PUSH2 0x948 JUMP JUMPDEST SWAP2 POP PUSH1 0x20 DUP4 ADD CALLDATALOAD DUP1 ISZERO ISZERO DUP2 EQ PUSH2 0x9FB JUMPI PUSH1 0x0 DUP1 REVERT JUMPDEST DUP1 SWAP2 POP POP SWAP3 POP SWAP3 SWAP1 POP JUMP JUMPDEST PUSH1 0x0 DUP1 PUSH1 0x40 DUP4 DUP6 SUB SLT ISZERO PUSH2 0xA19 JUMPI PUSH1 0x0 DUP1 REVERT JUMPDEST PUSH2 0xA22 DUP4 PUSH2 0x948 JUMP JUMPDEST SWAP2 POP PUSH2 0xA30 PUSH1 0x20 DUP5 ADD PUSH2 0x948 JUMP JUMPDEST SWAP1 POP SWAP3 POP SWAP3 SWAP1 POP JUMP JUMPDEST PUSH1 0x0 PUSH1 0x20 DUP3 DUP5 SUB SLT ISZERO PUSH2 0xA4B JUMPI PUSH1 0x0 DUP1 REVERT JUMPDEST PUSH2 0x8EC DUP3 PUSH2 0x948 JUMP JUMPDEST PUSH1 0x1 DUP2 DUP2 SHR SWAP1 DUP3 AND DUP1 PUSH2 0xA68 JUMPI PUSH1 0x7F DUP3 AND SWAP2 POP JUMPDEST PUSH1 0x20 DUP3 LT DUP2 SUB PUSH2 0xA88 JUMPI PUSH4 0x4E487B71 PUSH1 0xE0 SHL PUSH1 0x0 MSTORE PUSH1 0x22 PUSH1 0x4 MSTORE PUSH1 0x24 PUSH1 0x0 REVERT JUMPDEST POP SWAP2 SWAP1 POP JUMP JUMPDEST PUSH1 0x20 DUP1 DUP3 MSTORE PUSH1 0x29 SWAP1 DUP3 ADD MSTORE PUSH32 0x455850546F6B656E2028416363657373436F6E74726F6C293A204E6F74206175 PUSH1 0x40 DUP3 ADD MSTORE PUSH9 0x3A3437B934BD32B217 PUSH1 0xB9 SHL PUSH1 0x60 DUP3 ADD MSTORE PUSH1 0x80 ADD SWAP1 JUMP JUMPDEST PUSH4 0x4E487B71 PUSH1 0xE0 SHL PUSH1 0x0 MSTORE PUSH1 0x11 PUSH1 0x4 MSTORE PUSH1 0x24 PUSH1 0x0 REVERT JUMPDEST PUSH1 0x0 DUP3 DUP3 LT ISZERO PUSH2 0xAFF JUMPI PUSH2 0xAFF PUSH2 0xAD7 JUMP JUMPDEST POP SUB SWAP1 JUMP JUMPDEST PUSH1 0x0 DUP3 NOT DUP3 GT ISZERO PUSH2 0xB17 JUMPI PUSH2 0xB17 PUSH2 0xAD7 JUMP JUMPDEST POP ADD SWAP1 JUMP INVALID LOG2 PUSH5 0x6970667358 0x22 SLT KECCAK256 PUSH24 0x745C5F6372C77DD8F2435A9B955BCDFA4EEC22B1E1F34C9B PUSH8 0x33E76BFD42096473 PUSH16 0x6C634300080D00330000000000000000 ",
    "sha1": "267ff8c37dee0ee63f06f92cd5cf645ee74e0b07",
    "source": "// SPDX-License-Identifier: MIT\npragma solidity >=0.8.0;\nimport \"./ERC20.sol\";\nimport \"./utils/Ownable.sol\";\n\n/// @author 0micronat_. - https://github.com/SolDev-HP (Playground)\n/// @dev EXPToken (EXP) contract that handles minting and assigning EXP to the users \n/// Only primary admin can add other admins \n/// All admin can _mint token to given address, and _burn token from given address \n\ncontract EXPToken is ERC20, Ownable {\n    // ================= State Vars ==================\n    // Token admins \n    mapping(address => bool) internal _TokenAdmins;\n    // Per user experience point capping = 100 * 10 ** 18\n    uint256 internal constant MAXEXP = 100000000000000000000;\n\n    // Testing error with pure functions\n    error PureFunctionError();\n    error InternalFunctionError();\n    // ================= EVENTS ======================\n    event TokenAdminUpdated(address indexed admin_, bool indexed isAdmin_);\n\n    /// @dev Initialize contract by providing Token name ex: \"EXPToken\" and symbol ex: \"EXP\"\n    /// This should be able to create ERC20 token, initiator will be the primary admin who \n    /// can add or remove other admins \n    constructor(string memory name_, string memory symbol_) ERC20(name_, symbol_) {\n        /// Make msg sender the first admin \n        _TokenAdmins[msg.sender] = true;\n    }\n\n    /// @dev Allow adding/removing admins for EXPToken\n    function setTokenAdmins(address admin_, bool isSet_) public OnlyOwner {\n        // Add/Remove token admins \n        _TokenAdmins[admin_] = isSet_;\n        // Emit the admin update event \n        emit TokenAdminUpdated(admin_, isSet_);\n    }\n\n    /// @dev gainExperience function to add experience points to user's EXP balance \n    /// Need to make sure we cap experience to max exp limit\n    function gainExperience(address gainer_, uint256 gainAmount_) public {\n        // Make sure only admins can call this function \n        require(_TokenAdmins[msg.sender] == true, \"EXPToken (AccessControl): Not authorized.\");\n        // Make use of state variable only once if it's being used multiple times within function\n        // In this case, balanceOf will access user's balance state var \n        uint256 _balance = balanceOf(gainer_);\n        // Make sure user doesn't already have max exprience points \n        require(_balance < MAXEXP, \"EXPToken (Balance): Already at Max(100).\");\n        // Make sure it doesn't go above capped possible points after _minting \n        require(_balance + gainAmount_ <= MAXEXP, \"EXPToken (Balance): Will go above Max(100).\");\n        // Mint tokens to the address\n        _mint(gainer_, gainAmount_);\n    }\n\n    /// @dev reduceExperience function to remove exp from user's balance \n    /// Need to make sure, it doesn't go below 0 after deduction and user's balance isn't already zero\n    function reduceExperience(address looser_, uint256 lostAmount_) public {\n        // Make sure only admins can call this function \n        require(_TokenAdmins[msg.sender] == true, \"EXPToken (AccessControl): Not authorized.\");\n        // Make use of state variable only once if it's being used multiple times within function\n        // In this case, balanceOf will access user's balance state var \n        uint256 _balance = balanceOf(looser_);\n        // Make sure user's balance isn't already zero \n        require(_balance > 0, \"EXPToken (Balance): Insufficient balance\");\n        // Make sure our calculation doesn't bring it below zero \n        require(_balance - lostAmount_ > 0, \"EXPToken (Balance): Can't go below Min(0).\");\n        // Burn given amount from user's balance \n        _burn(looser_, lostAmount_);\n    }\n\n    function isInAbi(address, address) public pure returns (bool) {\n        revert PureFunctionError();\n    }\n\n    function isInternal(address, string memory) internal pure returns (address) {\n        revert InternalFunctionError();\n    }\n}",
    "sourcePath": "contracts/EXPToken.sol",
    "type": "contract",
    "deployment": {
        "address": "0x07926Db53bf84786E6f6374546e35324DDCb74eA",
        "chainid": "dev",
        "blockHeight": 50
    }
}