{"abi":[{"inputs":[{"internalType":"string","name":"_name","type":"string"},{"internalType":"string","name":"_symbol","type":"string"},{"internalType":"address","name":"_expcontract","type":"address"}],"stateMutability":"nonpayable","type":"constructor","name":"constructor"},{"inputs":[],"name":"ActionRestricted","type":"error"},{"anonymous":false,"inputs":[{"indexed":true,"internalType":"address","name":"owner","type":"address"},{"indexed":true,"internalType":"address","name":"approved","type":"address"},{"indexed":true,"internalType":"uint256","name":"tokenId","type":"uint256"}],"name":"Approval","type":"event"},{"anonymous":false,"inputs":[{"indexed":true,"internalType":"address","name":"owner","type":"address"},{"indexed":true,"internalType":"address","name":"operator","type":"address"},{"indexed":false,"internalType":"bool","name":"approved","type":"bool"}],"name":"ApprovalForAll","type":"event"},{"anonymous":false,"inputs":[{"indexed":true,"internalType":"address","name":"_experienceGainer","type":"address"}],"name":"ExperienceNFTGenerated","type":"event"},{"anonymous":false,"inputs":[{"indexed":true,"internalType":"address","name":"_admin","type":"address"},{"indexed":true,"internalType":"bool","name":"_isAdmin","type":"bool"}],"name":"TokenAdminSet","type":"event"},{"anonymous":false,"inputs":[{"indexed":true,"internalType":"address","name":"from","type":"address"},{"indexed":true,"internalType":"address","name":"to","type":"address"},{"indexed":true,"internalType":"uint256","name":"tokenId","type":"uint256"}],"name":"Transfer","type":"event"},{"inputs":[{"internalType":"address","name":"","type":"address"},{"internalType":"uint256","name":"","type":"uint256"}],"name":"approve","outputs":[],"stateMutability":"view","type":"function"},{"inputs":[{"internalType":"address","name":"owner","type":"address"}],"name":"balanceOf","outputs":[{"internalType":"uint256","name":"","type":"uint256"}],"stateMutability":"view","type":"function"},{"inputs":[{"internalType":"address","name":"_to","type":"address"}],"name":"genExperience","outputs":[],"stateMutability":"nonpayable","type":"function"},{"inputs":[{"internalType":"uint256","name":"","type":"uint256"}],"name":"getApproved","outputs":[{"internalType":"address","name":"","type":"address"}],"stateMutability":"view","type":"function"},{"inputs":[{"internalType":"address","name":"","type":"address"},{"internalType":"address","name":"","type":"address"}],"name":"isApprovedForAll","outputs":[{"internalType":"bool","name":"","type":"bool"}],"stateMutability":"view","type":"function"},{"inputs":[],"name":"name","outputs":[{"internalType":"string","name":"","type":"string"}],"stateMutability":"view","type":"function"},{"inputs":[],"name":"owner","outputs":[{"internalType":"address","name":"","type":"address"}],"stateMutability":"view","type":"function"},{"inputs":[{"internalType":"uint256","name":"tokenId","type":"uint256"}],"name":"ownerOf","outputs":[{"internalType":"address","name":"","type":"address"}],"stateMutability":"view","type":"function"},{"inputs":[{"internalType":"address","name":"","type":"address"},{"internalType":"address","name":"","type":"address"},{"internalType":"uint256","name":"","type":"uint256"}],"name":"safeTransferFrom","outputs":[],"stateMutability":"view","type":"function"},{"inputs":[{"internalType":"address","name":"","type":"address"},{"internalType":"address","name":"","type":"address"},{"internalType":"uint256","name":"","type":"uint256"},{"internalType":"bytes","name":"","type":"bytes"}],"name":"safeTransferFrom","outputs":[],"stateMutability":"view","type":"function"},{"inputs":[{"internalType":"address","name":"","type":"address"},{"internalType":"bool","name":"","type":"bool"}],"name":"setApprovalForAll","outputs":[],"stateMutability":"view","type":"function"},{"inputs":[{"internalType":"address","name":"_contract","type":"address"}],"name":"setExpContractAddress","outputs":[],"stateMutability":"nonpayable","type":"function"},{"inputs":[{"internalType":"address","name":"_admin","type":"address"},{"internalType":"bool","name":"_isAdmin","type":"bool"}],"name":"setTokenAdmin","outputs":[],"stateMutability":"nonpayable","type":"function"},{"inputs":[{"internalType":"bytes4","name":"interfaceId","type":"bytes4"}],"name":"supportsInterface","outputs":[{"internalType":"bool","name":"","type":"bool"}],"stateMutability":"view","type":"function"},{"inputs":[],"name":"symbol","outputs":[{"internalType":"string","name":"","type":"string"}],"stateMutability":"view","type":"function"},{"inputs":[{"internalType":"uint256","name":"_tokenID","type":"uint256"}],"name":"testURI","outputs":[{"internalType":"string","name":"","type":"string"}],"stateMutability":"pure","type":"function"},{"inputs":[{"internalType":"uint256","name":"_tokenID","type":"uint256"}],"name":"tokenURI","outputs":[{"internalType":"string","name":"","type":"string"}],"stateMutability":"view","type":"function"},{"inputs":[],"name":"totalSupply","outputs":[{"internalType":"uint256","name":"","type":"uint256"}],"stateMutability":"view","type":"function"},{"inputs":[{"internalType":"address","name":"","type":"address"},{"internalType":"address","name":"","type":"address"},{"internalType":"uint256","name":"","type":"uint256"}],"name":"transferFrom","outputs":[],"stateMutability":"view","type":"function"}],"bytecode":"60806040523480156200001157600080fd5b5060405162002602380380620026028339810160408190526200003491620002d3565b8251839083906200004d90600190602085019062000160565b5080516200006390600290602084019062000160565b50620000766380ac58cd60e01b620000dc565b62000088635b5e139f60e01b620000dc565b505060078054336001600160a01b03199182168117909255600980549091166001600160a01b0393909316929092179091556000908152600b60205260409020805460ff19166001179055506200039c9050565b6001600160e01b031980821690036200013b5760405162461bcd60e51b815260206004820152601b60248201527f4552433136353a20496e76616c696420496e7465726661636549440000000000604482015260640160405180910390fd5b6001600160e01b0319166000908152602081905260409020805460ff19166001179055565b8280546200016e9062000360565b90600052602060002090601f016020900481019282620001925760008555620001dd565b82601f10620001ad57805160ff1916838001178555620001dd565b82800160010185558215620001dd579182015b82811115620001dd578251825591602001919060010190620001c0565b50620001eb929150620001ef565b5090565b5b80821115620001eb5760008155600101620001f0565b634e487b7160e01b600052604160045260246000fd5b600082601f8301126200022e57600080fd5b81516001600160401b03808211156200024b576200024b62000206565b604051601f8301601f19908116603f0116810190828211818310171562000276576200027662000206565b816040528381526020925086838588010111156200029357600080fd5b600091505b83821015620002b7578582018301518183018401529082019062000298565b83821115620002c95760008385830101525b9695505050505050565b600080600060608486031215620002e957600080fd5b83516001600160401b03808211156200030157600080fd5b6200030f878388016200021c565b945060208601519150808211156200032657600080fd5b5062000335868287016200021c565b604086015190935090506001600160a01b03811681146200035557600080fd5b809150509250925092565b600181811c908216806200037557607f821691505b6020821081036200039657634e487b7160e01b600052602260045260246000fd5b50919050565b61225680620003ac6000396000f3fe608060405234801561001057600080fd5b50600436106101215760003560e01c806370a08231116100ad578063c87b56dd11610071578063c87b56dd14610231578063ccd2d6f514610244578063e2fc14fb14610257578063e985e9c51461026a578063f04c92581461027857600080fd5b806370a08231146101e95780638da5cb5b146101fc57806395d89b411461020d578063a22cb46514610215578063b88d4fde1461022357600080fd5b806318160ddd116100f457806318160ddd146101a357806323b872dd146101b55780633789f8d1146101c357806342842e0e146101b55780636352211e146101d657600080fd5b806301ffc9a71461012657806306fdde031461014e578063081812fc14610163578063095ea7b31461018e575b600080fd5b6101396101343660046111b7565b61028b565b60405190151581526020015b60405180910390f35b61015661029c565b6040516101459190611211565b610176610171366004611244565b61032e565b6040516001600160a01b039091168152602001610145565b6101a161019c366004611274565b610349565b005b6008545b604051908152602001610145565b6101a161019c36600461129e565b6101a16101d13660046112da565b610362565b6101766101e4366004611244565b6103f8565b6101a76101f7366004611316565b61046f565b6007546001600160a01b0316610176565b6101566104f5565b6101a161019c3660046112da565b6101a161019c366004611347565b61015661023f366004611244565b610504565b6101a1610252366004611316565b6105ff565b6101a1610265366004611316565b61079c565b610139610171366004611423565b610156610286366004611244565b610858565b600061029682610863565b92915050565b6060600180546102ab90611456565b80601f01602080910402602001604051908101604052809291908181526020018280546102d790611456565b80156103245780601f106102f957610100808354040283529160200191610324565b820191906000526020600020905b81548152906001019060200180831161030757829003601f168201915b5050505050905090565b6000604051633991fca960e21b815260040160405180910390fd5b604051633991fca960e21b815260040160405180910390fd5b336103756007546001600160a01b031690565b6001600160a01b0316146103a45760405162461bcd60e51b815260040161039b90611490565b60405180910390fd5b6001600160a01b0382166000818152600b6020526040808220805460ff191685151590811790915590519092917fc8fa0f05244aec5faf5a72346ef525e3e3bf52f240e55bd42d0c44f7ce14f9c391a35050565b6000818152600360205260408120546001600160a01b0316806102965760405162461bcd60e51b815260206004820152602960248201527f4552433732313a206f776e657220717565727920666f72206e6f6e657869737460448201526832b73a103a37b5b2b760b91b606482015260840161039b565b60006001600160a01b0382166104d95760405162461bcd60e51b815260206004820152602960248201527f4552433732313a2061646472657373207a65726f206973206e6f7420612076616044820152683634b21037bbb732b960b91b606482015260840161039b565b506001600160a01b031660009081526004602052604090205490565b6060600280546102ab90611456565b6000818152600360205260409020546060906001600160a01b031661056b5760405162461bcd60e51b815260206004820152601f60248201527f455850657269656e6365204e46543a20496e76616c696420546f6b656e494400604482015260640161039b565b6000610576836103f8565b6009546040516370a0823160e01b81526001600160a01b038084166004830152929350600092909116906370a0823190602401602060405180830381865afa1580156105c6573d6000803e3d6000fd5b505050506040513d601f19601f820116820180604052508101906105ea91906114d9565b90506105f784828461089f565b949350505050565b336000908152600b602052604090205460ff1615156001146106635760405162461bcd60e51b815260206004820152601f60248201527f455850657269656e63653a20596f75277265206e6f7420616e2061646d696e00604482015260640161039b565b600954600a80546001600160a01b0319166001600160a01b039283169081179091556040516370a0823160e01b815291831660048301526000916370a0823190602401602060405180830381865afa1580156106c3573d6000803e3d6000fd5b505050506040513d601f19601f820116820180604052508101906106e791906114d9565b9050600081116107455760405162461bcd60e51b8152602060048201526024808201527f455850657269656e63653a20496e73756666696369656e74204558502062616c604482015263616e636560e01b606482015260840161039b565b6008805490600061075583611508565b9091555061076383826109a5565b6040516001600160a01b038416907fbd6e4913107c69e3c4fa02301595d1f386394fbefad6b73a2dbc6463ee96a19a90600090a2505050565b336107af6007546001600160a01b031690565b6001600160a01b0316146107d55760405162461bcd60e51b815260040161039b90611490565b6001600160a01b0381166108365760405162461bcd60e51b815260206004820152602260248201527f496e76616c69642045585020546f6b656e20436f6e7472616374206164647265604482015261737360f01b606482015260840161039b565b600980546001600160a01b0319166001600160a01b0392909216919091179055565b6060610296826109c3565b60006301ffc9a760e01b6001600160e01b0319831614806102965750506001600160e01b03191660009081526020819052604090205460ff1690565b606060006108ac846109c3565b905060006108b985610a68565b905060006108e5836040516020016108d1919061153d565b604051602081830303815290604052610b96565b6040516020016108f591906115db565b6040516020818303038152906040529050600061091188610ce9565b83604051602001610923929190611619565b6040516020818303038152906040529050600081610949886001600160a01b0316610dea565b868560405160200161095e94939291906117cb565b604051602081830303815290604052905061097881610b96565b6040516020016109889190611867565b604051602081830303815290604052955050505050509392505050565b6109bf828260405180602001604052806000815250610e41565b5050565b60606000610a3e6040518061076001604052806107388152602001611a3e61073891396109ef85610a68565b6040518060a00160405280606b81526020016121b6606b9139610a1187610ce9565b604051806060016040528060288152602001611a16602891396040516020016108d19594939291906118ac565b905080604051602001610a519190611917565b604051602081830303815290604052915050919050565b6060600082118015610a8357506801158e460913d000008211155b15610aa55750506040805180820190915260018152604960f81b602082015290565b6801158e460913d0000082118015610ac6575068022b1c8c1227a000008211155b15610ae9575050604080518082019091526002815261494960f01b602082015290565b68022b1c8c1227a0000082118015610b0a5750680340aad21b3b7000008211155b15610b2e57505060408051808201909152600381526249494960e81b602082015290565b680340aad21b3b70000082118015610b4f57506804563918244f4000008211155b15610b7257505060408051808201909152600281526124ab60f11b602082015290565b50506040805180820190915260038152622d472d60e81b602082015290565b919050565b60608151600003610bb557505060408051602081019091526000815290565b60006040518060600160405280604081526020016121766040913990506000600384516002610be4919061195c565b610bee919061198a565b610bf990600461199e565b67ffffffffffffffff811115610c1157610c11611331565b6040519080825280601f01601f191660200182016040528015610c3b576020820181803683370190505b509050600182016020820185865187015b80821015610ca7576003820191508151603f8160121c168501518453600184019350603f81600c1c168501518453600184019350603f8160061c168501518453600184019350603f8116850151845350600183019250610c4c565b5050600386510660018114610cc35760028114610cd657610cde565b603d6001830353603d6002830353610cde565b603d60018303535b509195945050505050565b606081600003610d105750506040805180820190915260018152600360fc1b602082015290565b8160005b8115610d3a5780610d2481611508565b9150610d339050600a8361198a565b9150610d14565b60008167ffffffffffffffff811115610d5557610d55611331565b6040519080825280601f01601f191660200182016040528015610d7f576020820181803683370190505b5090505b84156105f757610d946001836119bd565b9150610da1600a866119d4565b610dac90603061195c565b60f81b818381518110610dc157610dc16119e8565b60200101906001600160f81b031916908160001a905350610de3600a8661198a565b9450610d83565b606081600003610e145750506040805180820190915260048152630307830360e41b602082015290565b8160005b8115610e375780610e2881611508565b915050600882901c9150610e18565b6105f78482610e50565b610e4b8383610ff3565b505050565b60606000610e5f83600261199e565b610e6a90600261195c565b67ffffffffffffffff811115610e8257610e82611331565b6040519080825280601f01601f191660200182016040528015610eac576020820181803683370190505b509050600360fc1b81600081518110610ec757610ec76119e8565b60200101906001600160f81b031916908160001a905350600f60fb1b81600181518110610ef657610ef66119e8565b60200101906001600160f81b031916908160001a9053506000610f1a84600261199e565b610f2590600161195c565b90505b6001811115610f9d576f181899199a1a9b1b9c1cb0b131b232b360811b85600f1660108110610f5957610f596119e8565b1a60f81b828281518110610f6f57610f6f6119e8565b60200101906001600160f81b031916908160001a90535060049490941c93610f96816119fe565b9050610f28565b508315610fec5760405162461bcd60e51b815260206004820181905260248201527f537472696e67733a20686578206c656e67746820696e73756666696369656e74604482015260640161039b565b9392505050565b6001600160a01b0382166110495760405162461bcd60e51b815260206004820181905260248201527f4552433732313a206d696e7420746f20746865207a65726f2061646472657373604482015260640161039b565b6000818152600360205260409020546001600160a01b0316156110ae5760405162461bcd60e51b815260206004820152601c60248201527f4552433732313a20746f6b656e20616c7265616479206d696e74656400000000604482015260640161039b565b6001600160a01b038216600090815260046020526040902054156111305760405162461bcd60e51b815260206004820152603360248201527f4552433732313a204f6e6c79206f6e6520455850657269656e636556696577656044820152727220284e46542920706572206164647265737360681b606482015260840161039b565b6001600160a01b038216600090815260046020526040812080546001929061115990849061195c565b909155505060008181526003602052604080822080546001600160a01b0319166001600160a01b03861690811790915590518392907fddf252ad1be2c89b69c2b068fc378daa952ba7f163c4a11628f55a4df523b3ef908290a45050565b6000602082840312156111c957600080fd5b81356001600160e01b031981168114610fec57600080fd5b60005b838110156111fc5781810151838201526020016111e4565b8381111561120b576000848401525b50505050565b60208152600082518060208401526112308160408501602087016111e1565b601f01601f19169190910160400192915050565b60006020828403121561125657600080fd5b5035919050565b80356001600160a01b0381168114610b9157600080fd5b6000806040838503121561128757600080fd5b6112908361125d565b946020939093013593505050565b6000806000606084860312156112b357600080fd5b6112bc8461125d565b92506112ca6020850161125d565b9150604084013590509250925092565b600080604083850312156112ed57600080fd5b6112f68361125d565b91506020830135801515811461130b57600080fd5b809150509250929050565b60006020828403121561132857600080fd5b610fec8261125d565b634e487b7160e01b600052604160045260246000fd5b6000806000806080858703121561135d57600080fd5b6113668561125d565b93506113746020860161125d565b925060408501359150606085013567ffffffffffffffff8082111561139857600080fd5b818701915087601f8301126113ac57600080fd5b8135818111156113be576113be611331565b604051601f8201601f19908116603f011681019083821181831017156113e6576113e6611331565b816040528281528a60208487010111156113ff57600080fd5b82602086016020830137600060208483010152809550505050505092959194509250565b6000806040838503121561143657600080fd5b61143f8361125d565b915061144d6020840161125d565b90509250929050565b600181811c9082168061146a57607f821691505b60208210810361148a57634e487b7160e01b600052602260045260246000fd5b50919050565b60208082526029908201527f455850546f6b656e2028416363657373436f6e74726f6c293a204e6f742061756040820152683a3437b934bd32b21760b91b606082015260800190565b6000602082840312156114eb57600080fd5b5051919050565b634e487b7160e01b600052601160045260246000fd5b60006001820161151a5761151a6114f2565b5060010190565b600081516115338185602086016111e1565b9290920192915050565b7f3c21444f43545950452068746d6c3e3c68746d6c3e3c6f626a6563742074797081527f653d22696d6167652f7376672b786d6c2220646174613d22000000000000000060208201526000825161159b8160388501602087016111e1565b7f2220616c743d22455850657269656e6365223e3c2f6f626a6563743e3c2f687460389390910192830152506236b61f60e91b6058820152605b01919050565b7519185d184e9d195e1d0bda1d1b5b0ed8985cd94d8d0b60521b81526000825161160c8160168501602087016111e1565b9190910160160192915050565b7f7b20226e616d65223a2022455850657269656e6365204e46542023200000000081526000835161165181601c8501602088016111e1565b7f226465736372697074696f6e223a2022455850657269656e6365204e46542e20601c918401918201527f50617274206f662045746865726e6175742044414f20626f756e746965732e20603c8201527f536f756c626f756e6420746f6b656e2f617373657420657870657269656e6365605c8201527f207468726f7567682045585020546f6b656e20616e6420455850657269656e63607c82015266329027232a171160c91b609c8201527f2265787465726e616c5f75726c223a202268747470733a2f2f6769746875622e60a38201527f636f6d2f536f6c4465762d48502f455850657269656e63655f47616d6522000060c38201527f2c202261747472696275746573223a205b7b2274726169745f74797065223a2060e18201527f22455850657269656e6365204c6576656c222c202276616c7565223a202200006101018201526117c26117a761011f830186611521565b6e113eae96101137bbb732b9111d101160891b8152600f0190565b95945050505050565b6000855160206117de8285838b016111e1565b8651918401916117f18184848b016111e1565b6b1116101134b6b0b3b2911d1160a11b9201918252855161181881600c8501848a016111e1565b731116101130b734b6b0ba34b7b72fbab936111d1160611b600c9390910192830152845161184b818385018489016111e1565b61227d60f01b9201908101919091526022019695505050505050565b7f646174613a6170706c69636174696f6e2f6a736f6e3b6261736536342c00000081526000825161189f81601d8501602087016111e1565b91909101601d0192915050565b600086516118be818460208b016111e1565b8651908301906118d2818360208b016111e1565b86519101906118e5818360208a016111e1565b85519101906118f88183602089016111e1565b845191019061190b8183602088016111e1565b01979650505050505050565b7f646174613a696d6167652f7376672b786d6c3b6261736536342c00000000000081526000825161194f81601a8501602087016111e1565b91909101601a0192915050565b6000821982111561196f5761196f6114f2565b500190565b634e487b7160e01b600052601260045260246000fd5b60008261199957611999611974565b500490565b60008160001904831182151516156119b8576119b86114f2565b500290565b6000828210156119cf576119cf6114f2565b500390565b6000826119e3576119e3611974565b500690565b634e487b7160e01b600052603260045260246000fd5b600081611a0d57611a0d6114f2565b50600019019056fe3c2f6469763e3c2f6469763e3c2f6469763e3c2f666f726569676e4f626a6563743e3c2f7376673e3c73766720786d6c6e733d22687474703a2f2f7777772e77332e6f72672f323030302f737667222076696577426f783d223020302033303020333030223e203c7374796c6520747970653d22746578742f637373223e203c215b43444154415b202a2c202a3a6265666f72652c202a3a6166746572207b20626f782d73697a696e673a20626f726465722d626f783b7d20626f6479207b206865696768743a2031303076683b206261636b67726f756e643a20233030303b7d202e63656e746572207b206865696768743a20313030253b20646973706c61793a20666c65783b20616c69676e2d6974656d733a2063656e7465723b206a7573746966792d636f6e74656e743a2063656e7465723b20746578742d616c69676e3a2063656e7465723b7d202e636972636c65207b20706f736974696f6e3a2072656c61746976653b2077696474683a2032303070783b206865696768743a2032303070783b20636f6c6f723a20236666663b206261636b67726f756e643a20233030303b20626f726465722d7261646975733a203530253b20626f726465723a2032707820736f6c69643b7d202e6c6f676f207b20666f6e742d73697a653a2031323570783b206c696e652d6865696768743a2031393070783b20766572746963616c2d616c69676e3a206d6964646c653b7d202e627574746f6e207b20706f736974696f6e3a206162736f6c7574653b20626f74746f6d3a203070783b206c6566743a20303b2072696768743a20303b2070616464696e673a203870783b20666f6e742d7765696768743a20626f6c643b20746578742d7472616e73666f726d3a207570706572636173653b206261636b67726f756e643a20233030303b20626f726465723a2032707820736f6c69643b20616e696d6174696f6e3a20736c69646520312e347320656173652d696e2d6f757420696e66696e6974653b20637572736f723a20706f696e7465723b7d202e627574746f6e3a686f766572207b20636f6c6f723a20233030303b206261636b67726f756e643a20236666663b20626f726465722d636f6c6f723a20236666663b7d20406b65796672616d657320736c696465207b203025207b207472616e73666f726d3a207472616e736c61746558283130707829207d20353025207b7472616e73666f726d3a207472616e736c61746558282d3130707829207d2031303025207b207472616e73666f726d3a207472616e736c61746558283130707829207d7d202e74657874207b20706f736974696f6e3a206162736f6c7574653b20746f703a20303b206c6566743a20303b2077696474683a20313030253b206865696768743a20313030253b20666f6e742d73697a653a20323470783b20666f6e742d7765696768743a20626f6c643b20746578742d7472616e73666f726d3a207570706572636173653b20616e696d6174696f6e3a20726f7461746520313473206c696e65617220696e66696e6974653b2066696c6c3a20236666663b7d20406b65796672616d657320726f74617465207b2066726f6d207b207472616e73666f726d3a20726f746174652830293b207d20746f207b207472616e73666f726d3a20726f7461746528333630646567293b207d7d205d5d3e203c2f7374796c653e203c666f726569676e4f626a65637420783d2232302220793d223230222077696474683d2233303022206865696768743d22333030223e203c64697620636c6173733d2263656e7465722220786d6c6e733d22687474703a2f2f7777772e77332e6f72672f313939392f7868746d6c223e3c64697620636c6173733d22636972636c652220786d6c6e733d22687474703a2f2f7777772e77332e6f72672f313939392f7868746d6c223e3c64697620636c6173733d226c6f676f2220786d6c6e733d22687474703a2f2f7777772e77332e6f72672f313939392f7868746d6c223e49493c2f6469763e3c64697620636c6173733d22746578742220786d6c6e733d22687474703a2f2f7777772e77332e6f72672f313939392f7868746d6c223e20203c73766720783d22302220793d2230222076696577426f783d2230203020333030203330302220656e61626c652d6261636b67726f756e643d226e65772030203020333030203330302220786d6c3a73706163653d2270726573657276652220786d6c6e733d22687474703a2f2f7777772e77332e6f72672f323030302f737667223e203c646566733e203c706174682069643d22636972636c65506174682220643d22204d203135302c20313530206d202d3132302c20302061203132302c313230203020302c31203234302c302061203132302c313230203020302c31202d3234302c30202220202f3e203c2f646566733e203c673e203c746578743e203c746578745061746820687265663d2223636972636c65506174682220786d6c3a73706163653d227072657365727665223e455850657269656e6365204e465421202020202020202020466f722e45746865726e61757444414f2020202020202020204c6576656c202d204142434445464748494a4b4c4d4e4f505152535455565758595a6162636465666768696a6b6c6d6e6f707172737475767778797a303132333435363738392b2f3c2f74657874506174683e3c2f746578743e3c2f673e3c2f7376673e3c2f6469763e3c64697620636c6173733d22627574746f6e2220786d6c6e733d22687474703a2f2f7777772e77332e6f72672f313939392f7868746d6c223e5b4558505d2042616c616e6365202d20a2646970667358221220bcb160b410747623c2b71a9c2be937fbc91585ddf2c1d05fb58f2c1af6c335ae64736f6c634300080d0033","bytecodeSha1":"8b4b14116d658054dd39882e55c0ffdbee48a008","compiler":{"evm_version":"istanbul","optimizer":{"enabled":true,"runs":200},"version":"0.8.13+commit.abaa5c0e"},"contractName":"EXPerienceNFT","language":"Solidity","natspec":{"kind":"dev","methods":{"approve(address,uint256)":{"details":"functions that are restricted  Overridden from ERC721 and modifier to reflect  Soulbound nature of the NFT"},"balanceOf(address)":{"details":"See {IERC721-balanceOf}. It'll always be between 0 and 1. We'll limit single nft per address"},"name()":{"details":"See {IERC721Metadata-name}."},"owner()":{"details":"Public function to check owner ","returns":{"_0":"address of the owner of this contract"}},"ownerOf(uint256)":{"details":"See {IERC721-ownerOf}."},"supportsInterface(bytes4)":{"details":"See {IERC165-supportsInterface}."},"symbol()":{"details":"See {IERC721Metadata-symbol}."}},"version":1},"opcodes":"PUSH1 0x80 PUSH1 0x40 MSTORE CALLVALUE DUP1 ISZERO PUSH2 0x10 JUMPI PUSH1 0x0 DUP1 REVERT JUMPDEST POP PUSH1 0x4 CALLDATASIZE LT PUSH2 0x121 JUMPI PUSH1 0x0 CALLDATALOAD PUSH1 0xE0 SHR DUP1 PUSH4 0x70A08231 GT PUSH2 0xAD JUMPI DUP1 PUSH4 0xC87B56DD GT PUSH2 0x71 JUMPI DUP1 PUSH4 0xC87B56DD EQ PUSH2 0x231 JUMPI DUP1 PUSH4 0xCCD2D6F5 EQ PUSH2 0x244 JUMPI DUP1 PUSH4 0xE2FC14FB EQ PUSH2 0x257 JUMPI DUP1 PUSH4 0xE985E9C5 EQ PUSH2 0x26A JUMPI DUP1 PUSH4 0xF04C9258 EQ PUSH2 0x278 JUMPI PUSH1 0x0 DUP1 REVERT JUMPDEST DUP1 PUSH4 0x70A08231 EQ PUSH2 0x1E9 JUMPI DUP1 PUSH4 0x8DA5CB5B EQ PUSH2 0x1FC JUMPI DUP1 PUSH4 0x95D89B41 EQ PUSH2 0x20D JUMPI DUP1 PUSH4 0xA22CB465 EQ PUSH2 0x215 JUMPI DUP1 PUSH4 0xB88D4FDE EQ PUSH2 0x223 JUMPI PUSH1 0x0 DUP1 REVERT JUMPDEST DUP1 PUSH4 0x18160DDD GT PUSH2 0xF4 JUMPI DUP1 PUSH4 0x18160DDD EQ PUSH2 0x1A3 JUMPI DUP1 PUSH4 0x23B872DD EQ PUSH2 0x1B5 JUMPI DUP1 PUSH4 0x3789F8D1 EQ PUSH2 0x1C3 JUMPI DUP1 PUSH4 0x42842E0E EQ PUSH2 0x1B5 JUMPI DUP1 PUSH4 0x6352211E EQ PUSH2 0x1D6 JUMPI PUSH1 0x0 DUP1 REVERT JUMPDEST DUP1 PUSH4 0x1FFC9A7 EQ PUSH2 0x126 JUMPI DUP1 PUSH4 0x6FDDE03 EQ PUSH2 0x14E JUMPI DUP1 PUSH4 0x81812FC EQ PUSH2 0x163 JUMPI DUP1 PUSH4 0x95EA7B3 EQ PUSH2 0x18E JUMPI JUMPDEST PUSH1 0x0 DUP1 REVERT JUMPDEST PUSH2 0x139 PUSH2 0x134 CALLDATASIZE PUSH1 0x4 PUSH2 0x11B7 JUMP JUMPDEST PUSH2 0x28B JUMP JUMPDEST PUSH1 0x40 MLOAD SWAP1 ISZERO ISZERO DUP2 MSTORE PUSH1 0x20 ADD JUMPDEST PUSH1 0x40 MLOAD DUP1 SWAP2 SUB SWAP1 RETURN JUMPDEST PUSH2 0x156 PUSH2 0x29C JUMP JUMPDEST PUSH1 0x40 MLOAD PUSH2 0x145 SWAP2 SWAP1 PUSH2 0x1211 JUMP JUMPDEST PUSH2 0x176 PUSH2 0x171 CALLDATASIZE PUSH1 0x4 PUSH2 0x1244 JUMP JUMPDEST PUSH2 0x32E JUMP JUMPDEST PUSH1 0x40 MLOAD PUSH1 0x1 PUSH1 0x1 PUSH1 0xA0 SHL SUB SWAP1 SWAP2 AND DUP2 MSTORE PUSH1 0x20 ADD PUSH2 0x145 JUMP JUMPDEST PUSH2 0x1A1 PUSH2 0x19C CALLDATASIZE PUSH1 0x4 PUSH2 0x1274 JUMP JUMPDEST PUSH2 0x349 JUMP JUMPDEST STOP JUMPDEST PUSH1 0x8 SLOAD JUMPDEST PUSH1 0x40 MLOAD SWAP1 DUP2 MSTORE PUSH1 0x20 ADD PUSH2 0x145 JUMP JUMPDEST PUSH2 0x1A1 PUSH2 0x19C CALLDATASIZE PUSH1 0x4 PUSH2 0x129E JUMP JUMPDEST PUSH2 0x1A1 PUSH2 0x1D1 CALLDATASIZE PUSH1 0x4 PUSH2 0x12DA JUMP JUMPDEST PUSH2 0x362 JUMP JUMPDEST PUSH2 0x176 PUSH2 0x1E4 CALLDATASIZE PUSH1 0x4 PUSH2 0x1244 JUMP JUMPDEST PUSH2 0x3F8 JUMP JUMPDEST PUSH2 0x1A7 PUSH2 0x1F7 CALLDATASIZE PUSH1 0x4 PUSH2 0x1316 JUMP JUMPDEST PUSH2 0x46F JUMP JUMPDEST PUSH1 0x7 SLOAD PUSH1 0x1 PUSH1 0x1 PUSH1 0xA0 SHL SUB AND PUSH2 0x176 JUMP JUMPDEST PUSH2 0x156 PUSH2 0x4F5 JUMP JUMPDEST PUSH2 0x1A1 PUSH2 0x19C CALLDATASIZE PUSH1 0x4 PUSH2 0x12DA JUMP JUMPDEST PUSH2 0x1A1 PUSH2 0x19C CALLDATASIZE PUSH1 0x4 PUSH2 0x1347 JUMP JUMPDEST PUSH2 0x156 PUSH2 0x23F CALLDATASIZE PUSH1 0x4 PUSH2 0x1244 JUMP JUMPDEST PUSH2 0x504 JUMP JUMPDEST PUSH2 0x1A1 PUSH2 0x252 CALLDATASIZE PUSH1 0x4 PUSH2 0x1316 JUMP JUMPDEST PUSH2 0x5FF JUMP JUMPDEST PUSH2 0x1A1 PUSH2 0x265 CALLDATASIZE PUSH1 0x4 PUSH2 0x1316 JUMP JUMPDEST PUSH2 0x79C JUMP JUMPDEST PUSH2 0x139 PUSH2 0x171 CALLDATASIZE PUSH1 0x4 PUSH2 0x1423 JUMP JUMPDEST PUSH2 0x156 PUSH2 0x286 CALLDATASIZE PUSH1 0x4 PUSH2 0x1244 JUMP JUMPDEST PUSH2 0x858 JUMP JUMPDEST PUSH1 0x0 PUSH2 0x296 DUP3 PUSH2 0x863 JUMP JUMPDEST SWAP3 SWAP2 POP POP JUMP JUMPDEST PUSH1 0x60 PUSH1 0x1 DUP1 SLOAD PUSH2 0x2AB SWAP1 PUSH2 0x1456 JUMP JUMPDEST DUP1 PUSH1 0x1F ADD PUSH1 0x20 DUP1 SWAP2 DIV MUL PUSH1 0x20 ADD PUSH1 0x40 MLOAD SWAP1 DUP2 ADD PUSH1 0x40 MSTORE DUP1 SWAP3 SWAP2 SWAP1 DUP2 DUP2 MSTORE PUSH1 0x20 ADD DUP3 DUP1 SLOAD PUSH2 0x2D7 SWAP1 PUSH2 0x1456 JUMP JUMPDEST DUP1 ISZERO PUSH2 0x324 JUMPI DUP1 PUSH1 0x1F LT PUSH2 0x2F9 JUMPI PUSH2 0x100 DUP1 DUP4 SLOAD DIV MUL DUP4 MSTORE SWAP2 PUSH1 0x20 ADD SWAP2 PUSH2 0x324 JUMP JUMPDEST DUP3 ADD SWAP2 SWAP1 PUSH1 0x0 MSTORE PUSH1 0x20 PUSH1 0x0 KECCAK256 SWAP1 JUMPDEST DUP2 SLOAD DUP2 MSTORE SWAP1 PUSH1 0x1 ADD SWAP1 PUSH1 0x20 ADD DUP1 DUP4 GT PUSH2 0x307 JUMPI DUP3 SWAP1 SUB PUSH1 0x1F AND DUP3 ADD SWAP2 JUMPDEST POP POP POP POP POP SWAP1 POP SWAP1 JUMP JUMPDEST PUSH1 0x0 PUSH1 0x40 MLOAD PUSH4 0x3991FCA9 PUSH1 0xE2 SHL DUP2 MSTORE PUSH1 0x4 ADD PUSH1 0x40 MLOAD DUP1 SWAP2 SUB SWAP1 REVERT JUMPDEST PUSH1 0x40 MLOAD PUSH4 0x3991FCA9 PUSH1 0xE2 SHL DUP2 MSTORE PUSH1 0x4 ADD PUSH1 0x40 MLOAD DUP1 SWAP2 SUB SWAP1 REVERT JUMPDEST CALLER PUSH2 0x375 PUSH1 0x7 SLOAD PUSH1 0x1 PUSH1 0x1 PUSH1 0xA0 SHL SUB AND SWAP1 JUMP JUMPDEST PUSH1 0x1 PUSH1 0x1 PUSH1 0xA0 SHL SUB AND EQ PUSH2 0x3A4 JUMPI PUSH1 0x40 MLOAD PUSH3 0x461BCD PUSH1 0xE5 SHL DUP2 MSTORE PUSH1 0x4 ADD PUSH2 0x39B SWAP1 PUSH2 0x1490 JUMP JUMPDEST PUSH1 0x40 MLOAD DUP1 SWAP2 SUB SWAP1 REVERT JUMPDEST PUSH1 0x1 PUSH1 0x1 PUSH1 0xA0 SHL SUB DUP3 AND PUSH1 0x0 DUP2 DUP2 MSTORE PUSH1 0xB PUSH1 0x20 MSTORE PUSH1 0x40 DUP1 DUP3 KECCAK256 DUP1 SLOAD PUSH1 0xFF NOT AND DUP6 ISZERO ISZERO SWAP1 DUP2 OR SWAP1 SWAP2 SSTORE SWAP1 MLOAD SWAP1 SWAP3 SWAP2 PUSH32 0xC8FA0F05244AEC5FAF5A72346EF525E3E3BF52F240E55BD42D0C44F7CE14F9C3 SWAP2 LOG3 POP POP JUMP JUMPDEST PUSH1 0x0 DUP2 DUP2 MSTORE PUSH1 0x3 PUSH1 0x20 MSTORE PUSH1 0x40 DUP2 KECCAK256 SLOAD PUSH1 0x1 PUSH1 0x1 PUSH1 0xA0 SHL SUB AND DUP1 PUSH2 0x296 JUMPI PUSH1 0x40 MLOAD PUSH3 0x461BCD PUSH1 0xE5 SHL DUP2 MSTORE PUSH1 0x20 PUSH1 0x4 DUP3 ADD MSTORE PUSH1 0x29 PUSH1 0x24 DUP3 ADD MSTORE PUSH32 0x4552433732313A206F776E657220717565727920666F72206E6F6E6578697374 PUSH1 0x44 DUP3 ADD MSTORE PUSH9 0x32B73A103A37B5B2B7 PUSH1 0xB9 SHL PUSH1 0x64 DUP3 ADD MSTORE PUSH1 0x84 ADD PUSH2 0x39B JUMP JUMPDEST PUSH1 0x0 PUSH1 0x1 PUSH1 0x1 PUSH1 0xA0 SHL SUB DUP3 AND PUSH2 0x4D9 JUMPI PUSH1 0x40 MLOAD PUSH3 0x461BCD PUSH1 0xE5 SHL DUP2 MSTORE PUSH1 0x20 PUSH1 0x4 DUP3 ADD MSTORE PUSH1 0x29 PUSH1 0x24 DUP3 ADD MSTORE PUSH32 0x4552433732313A2061646472657373207A65726F206973206E6F742061207661 PUSH1 0x44 DUP3 ADD MSTORE PUSH9 0x3634B21037BBB732B9 PUSH1 0xB9 SHL PUSH1 0x64 DUP3 ADD MSTORE PUSH1 0x84 ADD PUSH2 0x39B JUMP JUMPDEST POP PUSH1 0x1 PUSH1 0x1 PUSH1 0xA0 SHL SUB AND PUSH1 0x0 SWAP1 DUP2 MSTORE PUSH1 0x4 PUSH1 0x20 MSTORE PUSH1 0x40 SWAP1 KECCAK256 SLOAD SWAP1 JUMP JUMPDEST PUSH1 0x60 PUSH1 0x2 DUP1 SLOAD PUSH2 0x2AB SWAP1 PUSH2 0x1456 JUMP JUMPDEST PUSH1 0x0 DUP2 DUP2 MSTORE PUSH1 0x3 PUSH1 0x20 MSTORE PUSH1 0x40 SWAP1 KECCAK256 SLOAD PUSH1 0x60 SWAP1 PUSH1 0x1 PUSH1 0x1 PUSH1 0xA0 SHL SUB AND PUSH2 0x56B JUMPI PUSH1 0x40 MLOAD PUSH3 0x461BCD PUSH1 0xE5 SHL DUP2 MSTORE PUSH1 0x20 PUSH1 0x4 DUP3 ADD MSTORE PUSH1 0x1F PUSH1 0x24 DUP3 ADD MSTORE PUSH32 0x455850657269656E6365204E46543A20496E76616C696420546F6B656E494400 PUSH1 0x44 DUP3 ADD MSTORE PUSH1 0x64 ADD PUSH2 0x39B JUMP JUMPDEST PUSH1 0x0 PUSH2 0x576 DUP4 PUSH2 0x3F8 JUMP JUMPDEST PUSH1 0x9 SLOAD PUSH1 0x40 MLOAD PUSH4 0x70A08231 PUSH1 0xE0 SHL DUP2 MSTORE PUSH1 0x1 PUSH1 0x1 PUSH1 0xA0 SHL SUB DUP1 DUP5 AND PUSH1 0x4 DUP4 ADD MSTORE SWAP3 SWAP4 POP PUSH1 0x0 SWAP3 SWAP1 SWAP2 AND SWAP1 PUSH4 0x70A08231 SWAP1 PUSH1 0x24 ADD PUSH1 0x20 PUSH1 0x40 MLOAD DUP1 DUP4 SUB DUP2 DUP7 GAS STATICCALL ISZERO DUP1 ISZERO PUSH2 0x5C6 JUMPI RETURNDATASIZE PUSH1 0x0 DUP1 RETURNDATACOPY RETURNDATASIZE PUSH1 0x0 REVERT JUMPDEST POP POP POP POP PUSH1 0x40 MLOAD RETURNDATASIZE PUSH1 0x1F NOT PUSH1 0x1F DUP3 ADD AND DUP3 ADD DUP1 PUSH1 0x40 MSTORE POP DUP2 ADD SWAP1 PUSH2 0x5EA SWAP2 SWAP1 PUSH2 0x14D9 JUMP JUMPDEST SWAP1 POP PUSH2 0x5F7 DUP5 DUP3 DUP5 PUSH2 0x89F JUMP JUMPDEST SWAP5 SWAP4 POP POP POP POP JUMP JUMPDEST CALLER PUSH1 0x0 SWAP1 DUP2 MSTORE PUSH1 0xB PUSH1 0x20 MSTORE PUSH1 0x40 SWAP1 KECCAK256 SLOAD PUSH1 0xFF AND ISZERO ISZERO PUSH1 0x1 EQ PUSH2 0x663 JUMPI PUSH1 0x40 MLOAD PUSH3 0x461BCD PUSH1 0xE5 SHL DUP2 MSTORE PUSH1 0x20 PUSH1 0x4 DUP3 ADD MSTORE PUSH1 0x1F PUSH1 0x24 DUP3 ADD MSTORE PUSH32 0x455850657269656E63653A20596F75277265206E6F7420616E2061646D696E00 PUSH1 0x44 DUP3 ADD MSTORE PUSH1 0x64 ADD PUSH2 0x39B JUMP JUMPDEST PUSH1 0x9 SLOAD PUSH1 0xA DUP1 SLOAD PUSH1 0x1 PUSH1 0x1 PUSH1 0xA0 SHL SUB NOT AND PUSH1 0x1 PUSH1 0x1 PUSH1 0xA0 SHL SUB SWAP3 DUP4 AND SWAP1 DUP2 OR SWAP1 SWAP2 SSTORE PUSH1 0x40 MLOAD PUSH4 0x70A08231 PUSH1 0xE0 SHL DUP2 MSTORE SWAP2 DUP4 AND PUSH1 0x4 DUP4 ADD MSTORE PUSH1 0x0 SWAP2 PUSH4 0x70A08231 SWAP1 PUSH1 0x24 ADD PUSH1 0x20 PUSH1 0x40 MLOAD DUP1 DUP4 SUB DUP2 DUP7 GAS STATICCALL ISZERO DUP1 ISZERO PUSH2 0x6C3 JUMPI RETURNDATASIZE PUSH1 0x0 DUP1 RETURNDATACOPY RETURNDATASIZE PUSH1 0x0 REVERT JUMPDEST POP POP POP POP PUSH1 0x40 MLOAD RETURNDATASIZE PUSH1 0x1F NOT PUSH1 0x1F DUP3 ADD AND DUP3 ADD DUP1 PUSH1 0x40 MSTORE POP DUP2 ADD SWAP1 PUSH2 0x6E7 SWAP2 SWAP1 PUSH2 0x14D9 JUMP JUMPDEST SWAP1 POP PUSH1 0x0 DUP2 GT PUSH2 0x745 JUMPI PUSH1 0x40 MLOAD PUSH3 0x461BCD PUSH1 0xE5 SHL DUP2 MSTORE PUSH1 0x20 PUSH1 0x4 DUP3 ADD MSTORE PUSH1 0x24 DUP1 DUP3 ADD MSTORE PUSH32 0x455850657269656E63653A20496E73756666696369656E74204558502062616C PUSH1 0x44 DUP3 ADD MSTORE PUSH4 0x616E6365 PUSH1 0xE0 SHL PUSH1 0x64 DUP3 ADD MSTORE PUSH1 0x84 ADD PUSH2 0x39B JUMP JUMPDEST PUSH1 0x8 DUP1 SLOAD SWAP1 PUSH1 0x0 PUSH2 0x755 DUP4 PUSH2 0x1508 JUMP JUMPDEST SWAP1 SWAP2 SSTORE POP PUSH2 0x763 DUP4 DUP3 PUSH2 0x9A5 JUMP JUMPDEST PUSH1 0x40 MLOAD PUSH1 0x1 PUSH1 0x1 PUSH1 0xA0 SHL SUB DUP5 AND SWAP1 PUSH32 0xBD6E4913107C69E3C4FA02301595D1F386394FBEFAD6B73A2DBC6463EE96A19A SWAP1 PUSH1 0x0 SWAP1 LOG2 POP POP POP JUMP JUMPDEST CALLER PUSH2 0x7AF PUSH1 0x7 SLOAD PUSH1 0x1 PUSH1 0x1 PUSH1 0xA0 SHL SUB AND SWAP1 JUMP JUMPDEST PUSH1 0x1 PUSH1 0x1 PUSH1 0xA0 SHL SUB AND EQ PUSH2 0x7D5 JUMPI PUSH1 0x40 MLOAD PUSH3 0x461BCD PUSH1 0xE5 SHL DUP2 MSTORE PUSH1 0x4 ADD PUSH2 0x39B SWAP1 PUSH2 0x1490 JUMP JUMPDEST PUSH1 0x1 PUSH1 0x1 PUSH1 0xA0 SHL SUB DUP2 AND PUSH2 0x836 JUMPI PUSH1 0x40 MLOAD PUSH3 0x461BCD PUSH1 0xE5 SHL DUP2 MSTORE PUSH1 0x20 PUSH1 0x4 DUP3 ADD MSTORE PUSH1 0x22 PUSH1 0x24 DUP3 ADD MSTORE PUSH32 0x496E76616C69642045585020546F6B656E20436F6E7472616374206164647265 PUSH1 0x44 DUP3 ADD MSTORE PUSH2 0x7373 PUSH1 0xF0 SHL PUSH1 0x64 DUP3 ADD MSTORE PUSH1 0x84 ADD PUSH2 0x39B JUMP JUMPDEST PUSH1 0x9 DUP1 SLOAD PUSH1 0x1 PUSH1 0x1 PUSH1 0xA0 SHL SUB NOT AND PUSH1 0x1 PUSH1 0x1 PUSH1 0xA0 SHL SUB SWAP3 SWAP1 SWAP3 AND SWAP2 SWAP1 SWAP2 OR SWAP1 SSTORE JUMP JUMPDEST PUSH1 0x60 PUSH2 0x296 DUP3 PUSH2 0x9C3 JUMP JUMPDEST PUSH1 0x0 PUSH4 0x1FFC9A7 PUSH1 0xE0 SHL PUSH1 0x1 PUSH1 0x1 PUSH1 0xE0 SHL SUB NOT DUP4 AND EQ DUP1 PUSH2 0x296 JUMPI POP POP PUSH1 0x1 PUSH1 0x1 PUSH1 0xE0 SHL SUB NOT AND PUSH1 0x0 SWAP1 DUP2 MSTORE PUSH1 0x20 DUP2 SWAP1 MSTORE PUSH1 0x40 SWAP1 KECCAK256 SLOAD PUSH1 0xFF AND SWAP1 JUMP JUMPDEST PUSH1 0x60 PUSH1 0x0 PUSH2 0x8AC DUP5 PUSH2 0x9C3 JUMP JUMPDEST SWAP1 POP PUSH1 0x0 PUSH2 0x8B9 DUP6 PUSH2 0xA68 JUMP JUMPDEST SWAP1 POP PUSH1 0x0 PUSH2 0x8E5 DUP4 PUSH1 0x40 MLOAD PUSH1 0x20 ADD PUSH2 0x8D1 SWAP2 SWAP1 PUSH2 0x153D JUMP JUMPDEST PUSH1 0x40 MLOAD PUSH1 0x20 DUP2 DUP4 SUB SUB DUP2 MSTORE SWAP1 PUSH1 0x40 MSTORE PUSH2 0xB96 JUMP JUMPDEST PUSH1 0x40 MLOAD PUSH1 0x20 ADD PUSH2 0x8F5 SWAP2 SWAP1 PUSH2 0x15DB JUMP JUMPDEST PUSH1 0x40 MLOAD PUSH1 0x20 DUP2 DUP4 SUB SUB DUP2 MSTORE SWAP1 PUSH1 0x40 MSTORE SWAP1 POP PUSH1 0x0 PUSH2 0x911 DUP9 PUSH2 0xCE9 JUMP JUMPDEST DUP4 PUSH1 0x40 MLOAD PUSH1 0x20 ADD PUSH2 0x923 SWAP3 SWAP2 SWAP1 PUSH2 0x1619 JUMP JUMPDEST PUSH1 0x40 MLOAD PUSH1 0x20 DUP2 DUP4 SUB SUB DUP2 MSTORE SWAP1 PUSH1 0x40 MSTORE SWAP1 POP PUSH1 0x0 DUP2 PUSH2 0x949 DUP9 PUSH1 0x1 PUSH1 0x1 PUSH1 0xA0 SHL SUB AND PUSH2 0xDEA JUMP JUMPDEST DUP7 DUP6 PUSH1 0x40 MLOAD PUSH1 0x20 ADD PUSH2 0x95E SWAP5 SWAP4 SWAP3 SWAP2 SWAP1 PUSH2 0x17CB JUMP JUMPDEST PUSH1 0x40 MLOAD PUSH1 0x20 DUP2 DUP4 SUB SUB DUP2 MSTORE SWAP1 PUSH1 0x40 MSTORE SWAP1 POP PUSH2 0x978 DUP2 PUSH2 0xB96 JUMP JUMPDEST PUSH1 0x40 MLOAD PUSH1 0x20 ADD PUSH2 0x988 SWAP2 SWAP1 PUSH2 0x1867 JUMP JUMPDEST PUSH1 0x40 MLOAD PUSH1 0x20 DUP2 DUP4 SUB SUB DUP2 MSTORE SWAP1 PUSH1 0x40 MSTORE SWAP6 POP POP POP POP POP POP SWAP4 SWAP3 POP POP POP JUMP JUMPDEST PUSH2 0x9BF DUP3 DUP3 PUSH1 0x40 MLOAD DUP1 PUSH1 0x20 ADD PUSH1 0x40 MSTORE DUP1 PUSH1 0x0 DUP2 MSTORE POP PUSH2 0xE41 JUMP JUMPDEST POP POP JUMP JUMPDEST PUSH1 0x60 PUSH1 0x0 PUSH2 0xA3E PUSH1 0x40 MLOAD DUP1 PUSH2 0x760 ADD PUSH1 0x40 MSTORE DUP1 PUSH2 0x738 DUP2 MSTORE PUSH1 0x20 ADD PUSH2 0x1A3E PUSH2 0x738 SWAP2 CODECOPY PUSH2 0x9EF DUP6 PUSH2 0xA68 JUMP JUMPDEST PUSH1 0x40 MLOAD DUP1 PUSH1 0xA0 ADD PUSH1 0x40 MSTORE DUP1 PUSH1 0x6B DUP2 MSTORE PUSH1 0x20 ADD PUSH2 0x21B6 PUSH1 0x6B SWAP2 CODECOPY PUSH2 0xA11 DUP8 PUSH2 0xCE9 JUMP JUMPDEST PUSH1 0x40 MLOAD DUP1 PUSH1 0x60 ADD PUSH1 0x40 MSTORE DUP1 PUSH1 0x28 DUP2 MSTORE PUSH1 0x20 ADD PUSH2 0x1A16 PUSH1 0x28 SWAP2 CODECOPY PUSH1 0x40 MLOAD PUSH1 0x20 ADD PUSH2 0x8D1 SWAP6 SWAP5 SWAP4 SWAP3 SWAP2 SWAP1 PUSH2 0x18AC JUMP JUMPDEST SWAP1 POP DUP1 PUSH1 0x40 MLOAD PUSH1 0x20 ADD PUSH2 0xA51 SWAP2 SWAP1 PUSH2 0x1917 JUMP JUMPDEST PUSH1 0x40 MLOAD PUSH1 0x20 DUP2 DUP4 SUB SUB DUP2 MSTORE SWAP1 PUSH1 0x40 MSTORE SWAP2 POP POP SWAP2 SWAP1 POP JUMP JUMPDEST PUSH1 0x60 PUSH1 0x0 DUP3 GT DUP1 ISZERO PUSH2 0xA83 JUMPI POP PUSH9 0x1158E460913D00000 DUP3 GT ISZERO JUMPDEST ISZERO PUSH2 0xAA5 JUMPI POP POP PUSH1 0x40 DUP1 MLOAD DUP1 DUP3 ADD SWAP1 SWAP2 MSTORE PUSH1 0x1 DUP2 MSTORE PUSH1 0x49 PUSH1 0xF8 SHL PUSH1 0x20 DUP3 ADD MSTORE SWAP1 JUMP JUMPDEST PUSH9 0x1158E460913D00000 DUP3 GT DUP1 ISZERO PUSH2 0xAC6 JUMPI POP PUSH9 0x22B1C8C1227A00000 DUP3 GT ISZERO JUMPDEST ISZERO PUSH2 0xAE9 JUMPI POP POP PUSH1 0x40 DUP1 MLOAD DUP1 DUP3 ADD SWAP1 SWAP2 MSTORE PUSH1 0x2 DUP2 MSTORE PUSH2 0x4949 PUSH1 0xF0 SHL PUSH1 0x20 DUP3 ADD MSTORE SWAP1 JUMP JUMPDEST PUSH9 0x22B1C8C1227A00000 DUP3 GT DUP1 ISZERO PUSH2 0xB0A JUMPI POP PUSH9 0x340AAD21B3B700000 DUP3 GT ISZERO JUMPDEST ISZERO PUSH2 0xB2E JUMPI POP POP PUSH1 0x40 DUP1 MLOAD DUP1 DUP3 ADD SWAP1 SWAP2 MSTORE PUSH1 0x3 DUP2 MSTORE PUSH3 0x494949 PUSH1 0xE8 SHL PUSH1 0x20 DUP3 ADD MSTORE SWAP1 JUMP JUMPDEST PUSH9 0x340AAD21B3B700000 DUP3 GT DUP1 ISZERO PUSH2 0xB4F JUMPI POP PUSH9 0x4563918244F400000 DUP3 GT ISZERO JUMPDEST ISZERO PUSH2 0xB72 JUMPI POP POP PUSH1 0x40 DUP1 MLOAD DUP1 DUP3 ADD SWAP1 SWAP2 MSTORE PUSH1 0x2 DUP2 MSTORE PUSH2 0x24AB PUSH1 0xF1 SHL PUSH1 0x20 DUP3 ADD MSTORE SWAP1 JUMP JUMPDEST POP POP PUSH1 0x40 DUP1 MLOAD DUP1 DUP3 ADD SWAP1 SWAP2 MSTORE PUSH1 0x3 DUP2 MSTORE PUSH3 0x2D472D PUSH1 0xE8 SHL PUSH1 0x20 DUP3 ADD MSTORE SWAP1 JUMP JUMPDEST SWAP2 SWAP1 POP JUMP JUMPDEST PUSH1 0x60 DUP2 MLOAD PUSH1 0x0 SUB PUSH2 0xBB5 JUMPI POP POP PUSH1 0x40 DUP1 MLOAD PUSH1 0x20 DUP2 ADD SWAP1 SWAP2 MSTORE PUSH1 0x0 DUP2 MSTORE SWAP1 JUMP JUMPDEST PUSH1 0x0 PUSH1 0x40 MLOAD DUP1 PUSH1 0x60 ADD PUSH1 0x40 MSTORE DUP1 PUSH1 0x40 DUP2 MSTORE PUSH1 0x20 ADD PUSH2 0x2176 PUSH1 0x40 SWAP2 CODECOPY SWAP1 POP PUSH1 0x0 PUSH1 0x3 DUP5 MLOAD PUSH1 0x2 PUSH2 0xBE4 SWAP2 SWAP1 PUSH2 0x195C JUMP JUMPDEST PUSH2 0xBEE SWAP2 SWAP1 PUSH2 0x198A JUMP JUMPDEST PUSH2 0xBF9 SWAP1 PUSH1 0x4 PUSH2 0x199E JUMP JUMPDEST PUSH8 0xFFFFFFFFFFFFFFFF DUP2 GT ISZERO PUSH2 0xC11 JUMPI PUSH2 0xC11 PUSH2 0x1331 JUMP JUMPDEST PUSH1 0x40 MLOAD SWAP1 DUP1 DUP3 MSTORE DUP1 PUSH1 0x1F ADD PUSH1 0x1F NOT AND PUSH1 0x20 ADD DUP3 ADD PUSH1 0x40 MSTORE DUP1 ISZERO PUSH2 0xC3B JUMPI PUSH1 0x20 DUP3 ADD DUP2 DUP1 CALLDATASIZE DUP4 CALLDATACOPY ADD SWAP1 POP JUMPDEST POP SWAP1 POP PUSH1 0x1 DUP3 ADD PUSH1 0x20 DUP3 ADD DUP6 DUP7 MLOAD DUP8 ADD JUMPDEST DUP1 DUP3 LT ISZERO PUSH2 0xCA7 JUMPI PUSH1 0x3 DUP3 ADD SWAP2 POP DUP2 MLOAD PUSH1 0x3F DUP2 PUSH1 0x12 SHR AND DUP6 ADD MLOAD DUP5 MSTORE8 PUSH1 0x1 DUP5 ADD SWAP4 POP PUSH1 0x3F DUP2 PUSH1 0xC SHR AND DUP6 ADD MLOAD DUP5 MSTORE8 PUSH1 0x1 DUP5 ADD SWAP4 POP PUSH1 0x3F DUP2 PUSH1 0x6 SHR AND DUP6 ADD MLOAD DUP5 MSTORE8 PUSH1 0x1 DUP5 ADD SWAP4 POP PUSH1 0x3F DUP2 AND DUP6 ADD MLOAD DUP5 MSTORE8 POP PUSH1 0x1 DUP4 ADD SWAP3 POP PUSH2 0xC4C JUMP JUMPDEST POP POP PUSH1 0x3 DUP7 MLOAD MOD PUSH1 0x1 DUP2 EQ PUSH2 0xCC3 JUMPI PUSH1 0x2 DUP2 EQ PUSH2 0xCD6 JUMPI PUSH2 0xCDE JUMP JUMPDEST PUSH1 0x3D PUSH1 0x1 DUP4 SUB MSTORE8 PUSH1 0x3D PUSH1 0x2 DUP4 SUB MSTORE8 PUSH2 0xCDE JUMP JUMPDEST PUSH1 0x3D PUSH1 0x1 DUP4 SUB MSTORE8 JUMPDEST POP SWAP2 SWAP6 SWAP5 POP POP POP POP POP JUMP JUMPDEST PUSH1 0x60 DUP2 PUSH1 0x0 SUB PUSH2 0xD10 JUMPI POP POP PUSH1 0x40 DUP1 MLOAD DUP1 DUP3 ADD SWAP1 SWAP2 MSTORE PUSH1 0x1 DUP2 MSTORE PUSH1 0x3 PUSH1 0xFC SHL PUSH1 0x20 DUP3 ADD MSTORE SWAP1 JUMP JUMPDEST DUP2 PUSH1 0x0 JUMPDEST DUP2 ISZERO PUSH2 0xD3A JUMPI DUP1 PUSH2 0xD24 DUP2 PUSH2 0x1508 JUMP JUMPDEST SWAP2 POP PUSH2 0xD33 SWAP1 POP PUSH1 0xA DUP4 PUSH2 0x198A JUMP JUMPDEST SWAP2 POP PUSH2 0xD14 JUMP JUMPDEST PUSH1 0x0 DUP2 PUSH8 0xFFFFFFFFFFFFFFFF DUP2 GT ISZERO PUSH2 0xD55 JUMPI PUSH2 0xD55 PUSH2 0x1331 JUMP JUMPDEST PUSH1 0x40 MLOAD SWAP1 DUP1 DUP3 MSTORE DUP1 PUSH1 0x1F ADD PUSH1 0x1F NOT AND PUSH1 0x20 ADD DUP3 ADD PUSH1 0x40 MSTORE DUP1 ISZERO PUSH2 0xD7F JUMPI PUSH1 0x20 DUP3 ADD DUP2 DUP1 CALLDATASIZE DUP4 CALLDATACOPY ADD SWAP1 POP JUMPDEST POP SWAP1 POP JUMPDEST DUP5 ISZERO PUSH2 0x5F7 JUMPI PUSH2 0xD94 PUSH1 0x1 DUP4 PUSH2 0x19BD JUMP JUMPDEST SWAP2 POP PUSH2 0xDA1 PUSH1 0xA DUP7 PUSH2 0x19D4 JUMP JUMPDEST PUSH2 0xDAC SWAP1 PUSH1 0x30 PUSH2 0x195C JUMP JUMPDEST PUSH1 0xF8 SHL DUP2 DUP4 DUP2 MLOAD DUP2 LT PUSH2 0xDC1 JUMPI PUSH2 0xDC1 PUSH2 0x19E8 JUMP JUMPDEST PUSH1 0x20 ADD ADD SWAP1 PUSH1 0x1 PUSH1 0x1 PUSH1 0xF8 SHL SUB NOT AND SWAP1 DUP2 PUSH1 0x0 BYTE SWAP1 MSTORE8 POP PUSH2 0xDE3 PUSH1 0xA DUP7 PUSH2 0x198A JUMP JUMPDEST SWAP5 POP PUSH2 0xD83 JUMP JUMPDEST PUSH1 0x60 DUP2 PUSH1 0x0 SUB PUSH2 0xE14 JUMPI POP POP PUSH1 0x40 DUP1 MLOAD DUP1 DUP3 ADD SWAP1 SWAP2 MSTORE PUSH1 0x4 DUP2 MSTORE PUSH4 0x3078303 PUSH1 0xE4 SHL PUSH1 0x20 DUP3 ADD MSTORE SWAP1 JUMP JUMPDEST DUP2 PUSH1 0x0 JUMPDEST DUP2 ISZERO PUSH2 0xE37 JUMPI DUP1 PUSH2 0xE28 DUP2 PUSH2 0x1508 JUMP JUMPDEST SWAP2 POP POP PUSH1 0x8 DUP3 SWAP1 SHR SWAP2 POP PUSH2 0xE18 JUMP JUMPDEST PUSH2 0x5F7 DUP5 DUP3 PUSH2 0xE50 JUMP JUMPDEST PUSH2 0xE4B DUP4 DUP4 PUSH2 0xFF3 JUMP JUMPDEST POP POP POP JUMP JUMPDEST PUSH1 0x60 PUSH1 0x0 PUSH2 0xE5F DUP4 PUSH1 0x2 PUSH2 0x199E JUMP JUMPDEST PUSH2 0xE6A SWAP1 PUSH1 0x2 PUSH2 0x195C JUMP JUMPDEST PUSH8 0xFFFFFFFFFFFFFFFF DUP2 GT ISZERO PUSH2 0xE82 JUMPI PUSH2 0xE82 PUSH2 0x1331 JUMP JUMPDEST PUSH1 0x40 MLOAD SWAP1 DUP1 DUP3 MSTORE DUP1 PUSH1 0x1F ADD PUSH1 0x1F NOT AND PUSH1 0x20 ADD DUP3 ADD PUSH1 0x40 MSTORE DUP1 ISZERO PUSH2 0xEAC JUMPI PUSH1 0x20 DUP3 ADD DUP2 DUP1 CALLDATASIZE DUP4 CALLDATACOPY ADD SWAP1 POP JUMPDEST POP SWAP1 POP PUSH1 0x3 PUSH1 0xFC SHL DUP2 PUSH1 0x0 DUP2 MLOAD DUP2 LT PUSH2 0xEC7 JUMPI PUSH2 0xEC7 PUSH2 0x19E8 JUMP JUMPDEST PUSH1 0x20 ADD ADD SWAP1 PUSH1 0x1 PUSH1 0x1 PUSH1 0xF8 SHL SUB NOT AND SWAP1 DUP2 PUSH1 0x0 BYTE SWAP1 MSTORE8 POP PUSH1 0xF PUSH1 0xFB SHL DUP2 PUSH1 0x1 DUP2 MLOAD DUP2 LT PUSH2 0xEF6 JUMPI PUSH2 0xEF6 PUSH2 0x19E8 JUMP JUMPDEST PUSH1 0x20 ADD ADD SWAP1 PUSH1 0x1 PUSH1 0x1 PUSH1 0xF8 SHL SUB NOT AND SWAP1 DUP2 PUSH1 0x0 BYTE SWAP1 MSTORE8 POP PUSH1 0x0 PUSH2 0xF1A DUP5 PUSH1 0x2 PUSH2 0x199E JUMP JUMPDEST PUSH2 0xF25 SWAP1 PUSH1 0x1 PUSH2 0x195C JUMP JUMPDEST SWAP1 POP JUMPDEST PUSH1 0x1 DUP2 GT ISZERO PUSH2 0xF9D JUMPI PUSH16 0x181899199A1A9B1B9C1CB0B131B232B3 PUSH1 0x81 SHL DUP6 PUSH1 0xF AND PUSH1 0x10 DUP2 LT PUSH2 0xF59 JUMPI PUSH2 0xF59 PUSH2 0x19E8 JUMP JUMPDEST BYTE PUSH1 0xF8 SHL DUP3 DUP3 DUP2 MLOAD DUP2 LT PUSH2 0xF6F JUMPI PUSH2 0xF6F PUSH2 0x19E8 JUMP JUMPDEST PUSH1 0x20 ADD ADD SWAP1 PUSH1 0x1 PUSH1 0x1 PUSH1 0xF8 SHL SUB NOT AND SWAP1 DUP2 PUSH1 0x0 BYTE SWAP1 MSTORE8 POP PUSH1 0x4 SWAP5 SWAP1 SWAP5 SHR SWAP4 PUSH2 0xF96 DUP2 PUSH2 0x19FE JUMP JUMPDEST SWAP1 POP PUSH2 0xF28 JUMP JUMPDEST POP DUP4 ISZERO PUSH2 0xFEC JUMPI PUSH1 0x40 MLOAD PUSH3 0x461BCD PUSH1 0xE5 SHL DUP2 MSTORE PUSH1 0x20 PUSH1 0x4 DUP3 ADD DUP2 SWAP1 MSTORE PUSH1 0x24 DUP3 ADD MSTORE PUSH32 0x537472696E67733A20686578206C656E67746820696E73756666696369656E74 PUSH1 0x44 DUP3 ADD MSTORE PUSH1 0x64 ADD PUSH2 0x39B JUMP JUMPDEST SWAP4 SWAP3 POP POP POP JUMP JUMPDEST PUSH1 0x1 PUSH1 0x1 PUSH1 0xA0 SHL SUB DUP3 AND PUSH2 0x1049 JUMPI PUSH1 0x40 MLOAD PUSH3 0x461BCD PUSH1 0xE5 SHL DUP2 MSTORE PUSH1 0x20 PUSH1 0x4 DUP3 ADD DUP2 SWAP1 MSTORE PUSH1 0x24 DUP3 ADD MSTORE PUSH32 0x4552433732313A206D696E7420746F20746865207A65726F2061646472657373 PUSH1 0x44 DUP3 ADD MSTORE PUSH1 0x64 ADD PUSH2 0x39B JUMP JUMPDEST PUSH1 0x0 DUP2 DUP2 MSTORE PUSH1 0x3 PUSH1 0x20 MSTORE PUSH1 0x40 SWAP1 KECCAK256 SLOAD PUSH1 0x1 PUSH1 0x1 PUSH1 0xA0 SHL SUB AND ISZERO PUSH2 0x10AE JUMPI PUSH1 0x40 MLOAD PUSH3 0x461BCD PUSH1 0xE5 SHL DUP2 MSTORE PUSH1 0x20 PUSH1 0x4 DUP3 ADD MSTORE PUSH1 0x1C PUSH1 0x24 DUP3 ADD MSTORE PUSH32 0x4552433732313A20746F6B656E20616C7265616479206D696E74656400000000 PUSH1 0x44 DUP3 ADD MSTORE PUSH1 0x64 ADD PUSH2 0x39B JUMP JUMPDEST PUSH1 0x1 PUSH1 0x1 PUSH1 0xA0 SHL SUB DUP3 AND PUSH1 0x0 SWAP1 DUP2 MSTORE PUSH1 0x4 PUSH1 0x20 MSTORE PUSH1 0x40 SWAP1 KECCAK256 SLOAD ISZERO PUSH2 0x1130 JUMPI PUSH1 0x40 MLOAD PUSH3 0x461BCD PUSH1 0xE5 SHL DUP2 MSTORE PUSH1 0x20 PUSH1 0x4 DUP3 ADD MSTORE PUSH1 0x33 PUSH1 0x24 DUP3 ADD MSTORE PUSH32 0x4552433732313A204F6E6C79206F6E6520455850657269656E63655669657765 PUSH1 0x44 DUP3 ADD MSTORE PUSH19 0x7220284E465429207065722061646472657373 PUSH1 0x68 SHL PUSH1 0x64 DUP3 ADD MSTORE PUSH1 0x84 ADD PUSH2 0x39B JUMP JUMPDEST PUSH1 0x1 PUSH1 0x1 PUSH1 0xA0 SHL SUB DUP3 AND PUSH1 0x0 SWAP1 DUP2 MSTORE PUSH1 0x4 PUSH1 0x20 MSTORE PUSH1 0x40 DUP2 KECCAK256 DUP1 SLOAD PUSH1 0x1 SWAP3 SWAP1 PUSH2 0x1159 SWAP1 DUP5 SWAP1 PUSH2 0x195C JUMP JUMPDEST SWAP1 SWAP2 SSTORE POP POP PUSH1 0x0 DUP2 DUP2 MSTORE PUSH1 0x3 PUSH1 0x20 MSTORE PUSH1 0x40 DUP1 DUP3 KECCAK256 DUP1 SLOAD PUSH1 0x1 PUSH1 0x1 PUSH1 0xA0 SHL SUB NOT AND PUSH1 0x1 PUSH1 0x1 PUSH1 0xA0 SHL SUB DUP7 AND SWAP1 DUP2 OR SWAP1 SWAP2 SSTORE SWAP1 MLOAD DUP4 SWAP3 SWAP1 PUSH32 0xDDF252AD1BE2C89B69C2B068FC378DAA952BA7F163C4A11628F55A4DF523B3EF SWAP1 DUP3 SWAP1 LOG4 POP POP JUMP JUMPDEST PUSH1 0x0 PUSH1 0x20 DUP3 DUP5 SUB SLT ISZERO PUSH2 0x11C9 JUMPI PUSH1 0x0 DUP1 REVERT JUMPDEST DUP2 CALLDATALOAD PUSH1 0x1 PUSH1 0x1 PUSH1 0xE0 SHL SUB NOT DUP2 AND DUP2 EQ PUSH2 0xFEC JUMPI PUSH1 0x0 DUP1 REVERT JUMPDEST PUSH1 0x0 JUMPDEST DUP4 DUP2 LT ISZERO PUSH2 0x11FC JUMPI DUP2 DUP2 ADD MLOAD DUP4 DUP3 ADD MSTORE PUSH1 0x20 ADD PUSH2 0x11E4 JUMP JUMPDEST DUP4 DUP2 GT ISZERO PUSH2 0x120B JUMPI PUSH1 0x0 DUP5 DUP5 ADD MSTORE JUMPDEST POP POP POP POP JUMP JUMPDEST PUSH1 0x20 DUP2 MSTORE PUSH1 0x0 DUP3 MLOAD DUP1 PUSH1 0x20 DUP5 ADD MSTORE PUSH2 0x1230 DUP2 PUSH1 0x40 DUP6 ADD PUSH1 0x20 DUP8 ADD PUSH2 0x11E1 JUMP JUMPDEST PUSH1 0x1F ADD PUSH1 0x1F NOT AND SWAP2 SWAP1 SWAP2 ADD PUSH1 0x40 ADD SWAP3 SWAP2 POP POP JUMP JUMPDEST PUSH1 0x0 PUSH1 0x20 DUP3 DUP5 SUB SLT ISZERO PUSH2 0x1256 JUMPI PUSH1 0x0 DUP1 REVERT JUMPDEST POP CALLDATALOAD SWAP2 SWAP1 POP JUMP JUMPDEST DUP1 CALLDATALOAD PUSH1 0x1 PUSH1 0x1 PUSH1 0xA0 SHL SUB DUP2 AND DUP2 EQ PUSH2 0xB91 JUMPI PUSH1 0x0 DUP1 REVERT JUMPDEST PUSH1 0x0 DUP1 PUSH1 0x40 DUP4 DUP6 SUB SLT ISZERO PUSH2 0x1287 JUMPI PUSH1 0x0 DUP1 REVERT JUMPDEST PUSH2 0x1290 DUP4 PUSH2 0x125D JUMP JUMPDEST SWAP5 PUSH1 0x20 SWAP4 SWAP1 SWAP4 ADD CALLDATALOAD SWAP4 POP POP POP JUMP JUMPDEST PUSH1 0x0 DUP1 PUSH1 0x0 PUSH1 0x60 DUP5 DUP7 SUB SLT ISZERO PUSH2 0x12B3 JUMPI PUSH1 0x0 DUP1 REVERT JUMPDEST PUSH2 0x12BC DUP5 PUSH2 0x125D JUMP JUMPDEST SWAP3 POP PUSH2 0x12CA PUSH1 0x20 DUP6 ADD PUSH2 0x125D JUMP JUMPDEST SWAP2 POP PUSH1 0x40 DUP5 ADD CALLDATALOAD SWAP1 POP SWAP3 POP SWAP3 POP SWAP3 JUMP JUMPDEST PUSH1 0x0 DUP1 PUSH1 0x40 DUP4 DUP6 SUB SLT ISZERO PUSH2 0x12ED JUMPI PUSH1 0x0 DUP1 REVERT JUMPDEST PUSH2 0x12F6 DUP4 PUSH2 0x125D JUMP JUMPDEST SWAP2 POP PUSH1 0x20 DUP4 ADD CALLDATALOAD DUP1 ISZERO ISZERO DUP2 EQ PUSH2 0x130B JUMPI PUSH1 0x0 DUP1 REVERT JUMPDEST DUP1 SWAP2 POP POP SWAP3 POP SWAP3 SWAP1 POP JUMP JUMPDEST PUSH1 0x0 PUSH1 0x20 DUP3 DUP5 SUB SLT ISZERO PUSH2 0x1328 JUMPI PUSH1 0x0 DUP1 REVERT JUMPDEST PUSH2 0xFEC DUP3 PUSH2 0x125D JUMP JUMPDEST PUSH4 0x4E487B71 PUSH1 0xE0 SHL PUSH1 0x0 MSTORE PUSH1 0x41 PUSH1 0x4 MSTORE PUSH1 0x24 PUSH1 0x0 REVERT JUMPDEST PUSH1 0x0 DUP1 PUSH1 0x0 DUP1 PUSH1 0x80 DUP6 DUP8 SUB SLT ISZERO PUSH2 0x135D JUMPI PUSH1 0x0 DUP1 REVERT JUMPDEST PUSH2 0x1366 DUP6 PUSH2 0x125D JUMP JUMPDEST SWAP4 POP PUSH2 0x1374 PUSH1 0x20 DUP7 ADD PUSH2 0x125D JUMP JUMPDEST SWAP3 POP PUSH1 0x40 DUP6 ADD CALLDATALOAD SWAP2 POP PUSH1 0x60 DUP6 ADD CALLDATALOAD PUSH8 0xFFFFFFFFFFFFFFFF DUP1 DUP3 GT ISZERO PUSH2 0x1398 JUMPI PUSH1 0x0 DUP1 REVERT JUMPDEST DUP2 DUP8 ADD SWAP2 POP DUP8 PUSH1 0x1F DUP4 ADD SLT PUSH2 0x13AC JUMPI PUSH1 0x0 DUP1 REVERT JUMPDEST DUP2 CALLDATALOAD DUP2 DUP2 GT ISZERO PUSH2 0x13BE JUMPI PUSH2 0x13BE PUSH2 0x1331 JUMP JUMPDEST PUSH1 0x40 MLOAD PUSH1 0x1F DUP3 ADD PUSH1 0x1F NOT SWAP1 DUP2 AND PUSH1 0x3F ADD AND DUP2 ADD SWAP1 DUP4 DUP3 GT DUP2 DUP4 LT OR ISZERO PUSH2 0x13E6 JUMPI PUSH2 0x13E6 PUSH2 0x1331 JUMP JUMPDEST DUP2 PUSH1 0x40 MSTORE DUP3 DUP2 MSTORE DUP11 PUSH1 0x20 DUP5 DUP8 ADD ADD GT ISZERO PUSH2 0x13FF JUMPI PUSH1 0x0 DUP1 REVERT JUMPDEST DUP3 PUSH1 0x20 DUP7 ADD PUSH1 0x20 DUP4 ADD CALLDATACOPY PUSH1 0x0 PUSH1 0x20 DUP5 DUP4 ADD ADD MSTORE DUP1 SWAP6 POP POP POP POP POP POP SWAP3 SWAP6 SWAP2 SWAP5 POP SWAP3 POP JUMP JUMPDEST PUSH1 0x0 DUP1 PUSH1 0x40 DUP4 DUP6 SUB SLT ISZERO PUSH2 0x1436 JUMPI PUSH1 0x0 DUP1 REVERT JUMPDEST PUSH2 0x143F DUP4 PUSH2 0x125D JUMP JUMPDEST SWAP2 POP PUSH2 0x144D PUSH1 0x20 DUP5 ADD PUSH2 0x125D JUMP JUMPDEST SWAP1 POP SWAP3 POP SWAP3 SWAP1 POP JUMP JUMPDEST PUSH1 0x1 DUP2 DUP2 SHR SWAP1 DUP3 AND DUP1 PUSH2 0x146A JUMPI PUSH1 0x7F DUP3 AND SWAP2 POP JUMPDEST PUSH1 0x20 DUP3 LT DUP2 SUB PUSH2 0x148A JUMPI PUSH4 0x4E487B71 PUSH1 0xE0 SHL PUSH1 0x0 MSTORE PUSH1 0x22 PUSH1 0x4 MSTORE PUSH1 0x24 PUSH1 0x0 REVERT JUMPDEST POP SWAP2 SWAP1 POP JUMP JUMPDEST PUSH1 0x20 DUP1 DUP3 MSTORE PUSH1 0x29 SWAP1 DUP3 ADD MSTORE PUSH32 0x455850546F6B656E2028416363657373436F6E74726F6C293A204E6F74206175 PUSH1 0x40 DUP3 ADD MSTORE PUSH9 0x3A3437B934BD32B217 PUSH1 0xB9 SHL PUSH1 0x60 DUP3 ADD MSTORE PUSH1 0x80 ADD SWAP1 JUMP JUMPDEST PUSH1 0x0 PUSH1 0x20 DUP3 DUP5 SUB SLT ISZERO PUSH2 0x14EB JUMPI PUSH1 0x0 DUP1 REVERT JUMPDEST POP MLOAD SWAP2 SWAP1 POP JUMP JUMPDEST PUSH4 0x4E487B71 PUSH1 0xE0 SHL PUSH1 0x0 MSTORE PUSH1 0x11 PUSH1 0x4 MSTORE PUSH1 0x24 PUSH1 0x0 REVERT JUMPDEST PUSH1 0x0 PUSH1 0x1 DUP3 ADD PUSH2 0x151A JUMPI PUSH2 0x151A PUSH2 0x14F2 JUMP JUMPDEST POP PUSH1 0x1 ADD SWAP1 JUMP JUMPDEST PUSH1 0x0 DUP2 MLOAD PUSH2 0x1533 DUP2 DUP6 PUSH1 0x20 DUP7 ADD PUSH2 0x11E1 JUMP JUMPDEST SWAP3 SWAP1 SWAP3 ADD SWAP3 SWAP2 POP POP JUMP JUMPDEST PUSH32 0x3C21444F43545950452068746D6C3E3C68746D6C3E3C6F626A65637420747970 DUP2 MSTORE PUSH32 0x653D22696D6167652F7376672B786D6C2220646174613D220000000000000000 PUSH1 0x20 DUP3 ADD MSTORE PUSH1 0x0 DUP3 MLOAD PUSH2 0x159B DUP2 PUSH1 0x38 DUP6 ADD PUSH1 0x20 DUP8 ADD PUSH2 0x11E1 JUMP JUMPDEST PUSH32 0x2220616C743D22455850657269656E6365223E3C2F6F626A6563743E3C2F6874 PUSH1 0x38 SWAP4 SWAP1 SWAP2 ADD SWAP3 DUP4 ADD MSTORE POP PUSH3 0x36B61F PUSH1 0xE9 SHL PUSH1 0x58 DUP3 ADD MSTORE PUSH1 0x5B ADD SWAP2 SWAP1 POP JUMP JUMPDEST PUSH22 0x19185D184E9D195E1D0BDA1D1B5B0ED8985CD94D8D0B PUSH1 0x52 SHL DUP2 MSTORE PUSH1 0x0 DUP3 MLOAD PUSH2 0x160C DUP2 PUSH1 0x16 DUP6 ADD PUSH1 0x20 DUP8 ADD PUSH2 0x11E1 JUMP JUMPDEST SWAP2 SWAP1 SWAP2 ADD PUSH1 0x16 ADD SWAP3 SWAP2 POP POP JUMP JUMPDEST PUSH32 0x7B20226E616D65223A2022455850657269656E6365204E465420232000000000 DUP2 MSTORE PUSH1 0x0 DUP4 MLOAD PUSH2 0x1651 DUP2 PUSH1 0x1C DUP6 ADD PUSH1 0x20 DUP9 ADD PUSH2 0x11E1 JUMP JUMPDEST PUSH32 0x226465736372697074696F6E223A2022455850657269656E6365204E46542E20 PUSH1 0x1C SWAP2 DUP5 ADD SWAP2 DUP3 ADD MSTORE PUSH32 0x50617274206F662045746865726E6175742044414F20626F756E746965732E20 PUSH1 0x3C DUP3 ADD MSTORE PUSH32 0x536F756C626F756E6420746F6B656E2F617373657420657870657269656E6365 PUSH1 0x5C DUP3 ADD MSTORE PUSH32 0x207468726F7567682045585020546F6B656E20616E6420455850657269656E63 PUSH1 0x7C DUP3 ADD MSTORE PUSH7 0x329027232A1711 PUSH1 0xC9 SHL PUSH1 0x9C DUP3 ADD MSTORE PUSH32 0x2265787465726E616C5F75726C223A202268747470733A2F2F6769746875622E PUSH1 0xA3 DUP3 ADD MSTORE PUSH32 0x636F6D2F536F6C4465762D48502F455850657269656E63655F47616D65220000 PUSH1 0xC3 DUP3 ADD MSTORE PUSH32 0x2C202261747472696275746573223A205B7B2274726169745F74797065223A20 PUSH1 0xE1 DUP3 ADD MSTORE PUSH32 0x22455850657269656E6365204C6576656C222C202276616C7565223A20220000 PUSH2 0x101 DUP3 ADD MSTORE PUSH2 0x17C2 PUSH2 0x17A7 PUSH2 0x11F DUP4 ADD DUP7 PUSH2 0x1521 JUMP JUMPDEST PUSH15 0x113EAE96101137BBB732B9111D1011 PUSH1 0x89 SHL DUP2 MSTORE PUSH1 0xF ADD SWAP1 JUMP JUMPDEST SWAP6 SWAP5 POP POP POP POP POP JUMP JUMPDEST PUSH1 0x0 DUP6 MLOAD PUSH1 0x20 PUSH2 0x17DE DUP3 DUP6 DUP4 DUP12 ADD PUSH2 0x11E1 JUMP JUMPDEST DUP7 MLOAD SWAP2 DUP5 ADD SWAP2 PUSH2 0x17F1 DUP2 DUP5 DUP5 DUP12 ADD PUSH2 0x11E1 JUMP JUMPDEST PUSH12 0x1116101134B6B0B3B2911D11 PUSH1 0xA1 SHL SWAP3 ADD SWAP2 DUP3 MSTORE DUP6 MLOAD PUSH2 0x1818 DUP2 PUSH1 0xC DUP6 ADD DUP5 DUP11 ADD PUSH2 0x11E1 JUMP JUMPDEST PUSH20 0x1116101130B734B6B0BA34B7B72FBAB936111D11 PUSH1 0x61 SHL PUSH1 0xC SWAP4 SWAP1 SWAP2 ADD SWAP3 DUP4 ADD MSTORE DUP5 MLOAD PUSH2 0x184B DUP2 DUP4 DUP6 ADD DUP5 DUP10 ADD PUSH2 0x11E1 JUMP JUMPDEST PUSH2 0x227D PUSH1 0xF0 SHL SWAP3 ADD SWAP1 DUP2 ADD SWAP2 SWAP1 SWAP2 MSTORE PUSH1 0x22 ADD SWAP7 SWAP6 POP POP POP POP POP POP JUMP JUMPDEST PUSH32 0x646174613A6170706C69636174696F6E2F6A736F6E3B6261736536342C000000 DUP2 MSTORE PUSH1 0x0 DUP3 MLOAD PUSH2 0x189F DUP2 PUSH1 0x1D DUP6 ADD PUSH1 0x20 DUP8 ADD PUSH2 0x11E1 JUMP JUMPDEST SWAP2 SWAP1 SWAP2 ADD PUSH1 0x1D ADD SWAP3 SWAP2 POP POP JUMP JUMPDEST PUSH1 0x0 DUP7 MLOAD PUSH2 0x18BE DUP2 DUP5 PUSH1 0x20 DUP12 ADD PUSH2 0x11E1 JUMP JUMPDEST DUP7 MLOAD SWAP1 DUP4 ADD SWAP1 PUSH2 0x18D2 DUP2 DUP4 PUSH1 0x20 DUP12 ADD PUSH2 0x11E1 JUMP JUMPDEST DUP7 MLOAD SWAP2 ADD SWAP1 PUSH2 0x18E5 DUP2 DUP4 PUSH1 0x20 DUP11 ADD PUSH2 0x11E1 JUMP JUMPDEST DUP6 MLOAD SWAP2 ADD SWAP1 PUSH2 0x18F8 DUP2 DUP4 PUSH1 0x20 DUP10 ADD PUSH2 0x11E1 JUMP JUMPDEST DUP5 MLOAD SWAP2 ADD SWAP1 PUSH2 0x190B DUP2 DUP4 PUSH1 0x20 DUP9 ADD PUSH2 0x11E1 JUMP JUMPDEST ADD SWAP8 SWAP7 POP POP POP POP POP POP POP JUMP JUMPDEST PUSH32 0x646174613A696D6167652F7376672B786D6C3B6261736536342C000000000000 DUP2 MSTORE PUSH1 0x0 DUP3 MLOAD PUSH2 0x194F DUP2 PUSH1 0x1A DUP6 ADD PUSH1 0x20 DUP8 ADD PUSH2 0x11E1 JUMP JUMPDEST SWAP2 SWAP1 SWAP2 ADD PUSH1 0x1A ADD SWAP3 SWAP2 POP POP JUMP JUMPDEST PUSH1 0x0 DUP3 NOT DUP3 GT ISZERO PUSH2 0x196F JUMPI PUSH2 0x196F PUSH2 0x14F2 JUMP JUMPDEST POP ADD SWAP1 JUMP JUMPDEST PUSH4 0x4E487B71 PUSH1 0xE0 SHL PUSH1 0x0 MSTORE PUSH1 0x12 PUSH1 0x4 MSTORE PUSH1 0x24 PUSH1 0x0 REVERT JUMPDEST PUSH1 0x0 DUP3 PUSH2 0x1999 JUMPI PUSH2 0x1999 PUSH2 0x1974 JUMP JUMPDEST POP DIV SWAP1 JUMP JUMPDEST PUSH1 0x0 DUP2 PUSH1 0x0 NOT DIV DUP4 GT DUP3 ISZERO ISZERO AND ISZERO PUSH2 0x19B8 JUMPI PUSH2 0x19B8 PUSH2 0x14F2 JUMP JUMPDEST POP MUL SWAP1 JUMP JUMPDEST PUSH1 0x0 DUP3 DUP3 LT ISZERO PUSH2 0x19CF JUMPI PUSH2 0x19CF PUSH2 0x14F2 JUMP JUMPDEST POP SUB SWAP1 JUMP JUMPDEST PUSH1 0x0 DUP3 PUSH2 0x19E3 JUMPI PUSH2 0x19E3 PUSH2 0x1974 JUMP JUMPDEST POP MOD SWAP1 JUMP JUMPDEST PUSH4 0x4E487B71 PUSH1 0xE0 SHL PUSH1 0x0 MSTORE PUSH1 0x32 PUSH1 0x4 MSTORE PUSH1 0x24 PUSH1 0x0 REVERT JUMPDEST PUSH1 0x0 DUP2 PUSH2 0x1A0D JUMPI PUSH2 0x1A0D PUSH2 0x14F2 JUMP JUMPDEST POP PUSH1 0x0 NOT ADD SWAP1 JUMP INVALID EXTCODECOPY 0x2F PUSH5 0x69763E3C2F PUSH5 0x69763E3C2F PUSH5 0x69763E3C2F PUSH7 0x6F726569676E4F PUSH3 0x6A6563 PUSH21 0x3E3C2F7376673E3C73766720786D6C6E733D226874 PUSH21 0x703A2F2F7777772E77332E6F72672F323030302F73 PUSH23 0x67222076696577426F783D223020302033303020333030 0x22 RETURNDATACOPY KECCAK256 EXTCODECOPY PUSH20 0x74796C6520747970653D22746578742F63737322 RETURNDATACOPY KECCAK256 EXTCODECOPY 0x21 JUMPDEST NUMBER DIFFICULTY COINBASE SLOAD COINBASE JUMPDEST KECCAK256 0x2A 0x2C KECCAK256 0x2A GASPRICE PUSH3 0x65666F PUSH19 0x652C202A3A6166746572207B20626F782D7369 PUSH27 0x696E673A20626F726465722D626F783B7D20626F6479207B206865 PUSH10 0x6768743A203130307668 EXTCODESIZE KECCAK256 PUSH3 0x61636B PUSH8 0x726F756E643A2023 ADDRESS ADDRESS ADDRESS EXTCODESIZE PUSH30 0x202E63656E746572207B206865696768743A20313030253B20646973706C PUSH2 0x793A KECCAK256 PUSH7 0x6C65783B20616C PUSH10 0x676E2D6974656D733A20 PUSH4 0x656E7465 PUSH19 0x3B206A7573746966792D636F6E74656E743A20 PUSH4 0x656E7465 PUSH19 0x3B20746578742D616C69676E3A2063656E7465 PUSH19 0x3B7D202E636972636C65207B20706F73697469 PUSH16 0x6E3A2072656C61746976653B20776964 PUSH21 0x683A2032303070783B206865696768743A20323030 PUSH17 0x783B20636F6C6F723A20236666663B2062 PUSH2 0x636B PUSH8 0x726F756E643A2023 ADDRESS ADDRESS ADDRESS EXTCODESIZE KECCAK256 PUSH3 0x6F7264 PUSH6 0x722D72616469 PUSH22 0x733A203530253B20626F726465723A2032707820736F PUSH13 0x69643B7D202E6C6F676F207B20 PUSH7 0x6F6E742D73697A PUSH6 0x3A2031323570 PUSH25 0x3B206C696E652D6865696768743A2031393070783B20766572 PUSH21 0x6963616C2D616C69676E3A206D6964646C653B7D20 0x2E PUSH3 0x757474 PUSH16 0x6E207B20706F736974696F6E3A206162 PUSH20 0x6F6C7574653B20626F74746F6D3A203070783B20 PUSH13 0x6566743A20303B207269676874 GASPRICE KECCAK256 ADDRESS EXTCODESIZE KECCAK256 PUSH17 0x616464696E673A203870783B20666F6E74 0x2D PUSH24 0x65696768743A20626F6C643B20746578742D7472616E7366 PUSH16 0x726D3A207570706572636173653B2062 PUSH2 0x636B PUSH8 0x726F756E643A2023 ADDRESS ADDRESS ADDRESS EXTCODESIZE KECCAK256 PUSH3 0x6F7264 PUSH6 0x723A20327078 KECCAK256 PUSH20 0x6F6C69643B20616E696D6174696F6E3A20736C69 PUSH5 0x6520312E34 PUSH20 0x20656173652D696E2D6F757420696E66696E6974 PUSH6 0x3B2063757273 PUSH16 0x723A20706F696E7465723B7D202E6275 PUSH21 0x746F6E3A686F766572207B20636F6C6F723A202330 ADDRESS ADDRESS EXTCODESIZE KECCAK256 PUSH3 0x61636B PUSH8 0x726F756E643A2023 PUSH7 0x66663B20626F72 PUSH5 0x65722D636F PUSH13 0x6F723A20236666663B7D20406B PUSH6 0x796672616D65 PUSH20 0x20736C696465207B203025207B207472616E7366 PUSH16 0x726D3A207472616E736C617465582831 ADDRESS PUSH17 0x7829207D20353025207B7472616E73666F PUSH19 0x6D3A207472616E736C61746558282D31307078 0x29 KECCAK256 PUSH30 0x2031303025207B207472616E73666F726D3A207472616E736C6174655828 BALANCE ADDRESS PUSH17 0x7829207D7D202E74657874207B20706F73 PUSH10 0x74696F6E3A206162736F PUSH13 0x7574653B20746F703A20303B20 PUSH13 0x6566743A20303B207769647468 GASPRICE KECCAK256 BALANCE ADDRESS ADDRESS 0x25 EXTCODESIZE KECCAK256 PUSH9 0x65696768743A203130 ADDRESS 0x25 EXTCODESIZE KECCAK256 PUSH7 0x6F6E742D73697A PUSH6 0x3A2032347078 EXTCODESIZE KECCAK256 PUSH7 0x6F6E742D776569 PUSH8 0x68743A20626F6C64 EXTCODESIZE KECCAK256 PUSH21 0x6578742D7472616E73666F726D3A20757070657263 PUSH2 0x7365 EXTCODESIZE KECCAK256 PUSH2 0x6E69 PUSH14 0x6174696F6E3A20726F7461746520 BALANCE CALLVALUE PUSH20 0x206C696E65617220696E66696E6974653B206669 PUSH13 0x6C3A20236666663B7D20406B65 PUSH26 0x6672616D657320726F74617465207B2066726F6D207B20747261 PUSH15 0x73666F726D3A20726F746174652830 0x29 EXTCODESIZE KECCAK256 PUSH30 0x20746F207B207472616E73666F726D3A20726F7461746528333630646567 0x29 EXTCODESIZE KECCAK256 PUSH30 0x7D205D5D3E203C2F7374796C653E203C666F726569676E4F626A65637420 PUSH25 0x3D2232302220793D223230222077696474683D223330302220 PUSH9 0x65696768743D223330 ADDRESS 0x22 RETURNDATACOPY KECCAK256 EXTCODECOPY PUSH5 0x697620636C PUSH2 0x7373 RETURNDATASIZE 0x22 PUSH4 0x656E7465 PUSH19 0x2220786D6C6E733D22687474703A2F2F777777 0x2E PUSH24 0x332E6F72672F313939392F7868746D6C223E3C6469762063 PUSH13 0x6173733D22636972636C652220 PUSH25 0x6D6C6E733D22687474703A2F2F7777772E77332E6F72672F31 CODECOPY CODECOPY CODECOPY 0x2F PUSH25 0x68746D6C223E3C64697620636C6173733D226C6F676F222078 PUSH14 0x6C6E733D22687474703A2F2F7777 PUSH24 0x2E77332E6F72672F313939392F7868746D6C223E49493C2F PUSH5 0x69763E3C64 PUSH10 0x7620636C6173733D2274 PUSH6 0x78742220786D PUSH13 0x6E733D22687474703A2F2F7777 PUSH24 0x2E77332E6F72672F313939392F7868746D6C223E20203C73 PUSH23 0x6720783D22302220793D2230222076696577426F783D22 ADDRESS KECCAK256 ADDRESS KECCAK256 CALLER ADDRESS ADDRESS KECCAK256 CALLER ADDRESS ADDRESS 0x22 KECCAK256 PUSH6 0x6E61626C652D PUSH3 0x61636B PUSH8 0x726F756E643D226E PUSH6 0x772030203020 CALLER ADDRESS ADDRESS KECCAK256 CALLER ADDRESS ADDRESS 0x22 KECCAK256 PUSH25 0x6D6C3A73706163653D2270726573657276652220786D6C6E73 RETURNDATASIZE 0x22 PUSH9 0x7474703A2F2F777777 0x2E PUSH24 0x332E6F72672F323030302F737667223E203C646566733E20 EXTCODECOPY PUSH17 0x6174682069643D22636972636C65506174 PUSH9 0x2220643D22204D2031 CALLDATALOAD ADDRESS 0x2C KECCAK256 BALANCE CALLDATALOAD ADDRESS KECCAK256 PUSH14 0x202D3132302C2030206120313230 0x2C BALANCE ORIGIN ADDRESS KECCAK256 ADDRESS KECCAK256 ADDRESS 0x2C BALANCE KECCAK256 ORIGIN CALLVALUE ADDRESS 0x2C ADDRESS KECCAK256 PUSH2 0x2031 ORIGIN ADDRESS 0x2C BALANCE ORIGIN ADDRESS KECCAK256 ADDRESS KECCAK256 ADDRESS 0x2C BALANCE KECCAK256 0x2D ORIGIN CALLVALUE ADDRESS 0x2C ADDRESS KECCAK256 0x22 KECCAK256 KECCAK256 0x2F RETURNDATACOPY KECCAK256 EXTCODECOPY 0x2F PUSH5 0x6566733E20 EXTCODECOPY PUSH8 0x3E203C746578743E KECCAK256 EXTCODECOPY PUSH21 0x6578745061746820687265663D2223636972636C65 POP PUSH2 0x7468 0x22 KECCAK256 PUSH25 0x6D6C3A73706163653D227072657365727665223E4558506572 PUSH10 0x656E6365204E46542120 KECCAK256 KECCAK256 KECCAK256 KECCAK256 KECCAK256 KECCAK256 KECCAK256 KECCAK256 CHAINID PUSH16 0x722E45746865726E61757444414F2020 KECCAK256 KECCAK256 KECCAK256 KECCAK256 KECCAK256 KECCAK256 KECCAK256 0x4C PUSH6 0x76656C202D20 COINBASE TIMESTAMP NUMBER DIFFICULTY GASLIMIT CHAINID SELFBALANCE BASEFEE 0x49 0x4A 0x4B 0x4C 0x4D 0x4E 0x4F POP MLOAD MSTORE MSTORE8 SLOAD SSTORE JUMP JUMPI PC MSIZE GAS PUSH2 0x6263 PUSH5 0x6566676869 PUSH11 0x6B6C6D6E6F707172737475 PUSH23 0x7778797A303132333435363738392B2F3C2F7465787450 PUSH2 0x7468 RETURNDATACOPY EXTCODECOPY 0x2F PUSH21 0x6578743E3C2F673E3C2F7376673E3C2F6469763E3C PUSH5 0x697620636C PUSH2 0x7373 RETURNDATASIZE 0x22 PUSH3 0x757474 PUSH16 0x6E2220786D6C6E733D22687474703A2F 0x2F PUSH24 0x77772E77332E6F72672F313939392F7868746D6C223E5B45 PC POP 0x5D KECCAK256 TIMESTAMP PUSH2 0x6C61 PUSH15 0x6365202D20A2646970667358221220 0xBC 0xB1 PUSH1 0xB4 LT PUSH21 0x7623C2B71A9C2BE937FBC91585DDF2C1D05FB58F2C BYTE 0xF6 0xC3 CALLDATALOAD 0xAE PUSH5 0x736F6C6343 STOP ADDMOD 0xD STOP CALLER ","sha1":"bde78122ee6f54c2261e366442690671969aff0c","source":"// SPDX-License-Identifier: MIT\npragma solidity >=0.8.0;\nimport \"./libs/BadgeFactory.sol\";\nimport \"../interfaces/IERC20.sol\";\nimport \"./tokens/ERC721.sol\";\nimport \"./utils/Ownable.sol\";\n\ncontract EXPerienceNFT is ERC721, Ownable {\n    // Total supply - Should be exposed via getter\n    // Should start with zero anyway.\n    uint256 private _totalSupply;\n    // EXPToken contract address - To refer to EXP balance of the user \n    address private _EXPContractAddress;\n    // EXPToken Interface to get balanceOf\n    // Though we imported original IERC20 for this, we can potentially limit it to just balanceOf function\n    IERC20 private _expContract;\n    // Generator admins \n    mapping(address => bool) private _tokenAdmins;\n\n    // Events \n    event ExperienceNFTGenerated(address indexed _experienceGainer);\n    event TokenAdminSet(address indexed _admin, bool indexed _isAdmin);\n\n    // ================= ERRORS ======================\n    error ActionRestricted();\n\n    // Constructor of EXPerience NFT Contract, expects nama and symbol of the NFT Contract \n    // and address where EXP Token is deployed\n    constructor(string memory _name, string memory _symbol, address _expcontract) \n        ERC721(_name, _symbol) {\n        // Set EXP Contract address \n        _EXPContractAddress = _expcontract;\n        // Set msg sender the first admin \n        _tokenAdmins[msg.sender] = true;\n    }\n\n    // Add token admins who are allowed to mint NFT for any given address \n    function setTokenAdmin(address _admin, bool _isAdmin) public OnlyOwner {\n        _tokenAdmins[_admin] = _isAdmin;\n        emit TokenAdminSet(_admin, _isAdmin);\n    }\n\n    // A way to update EXPToken address (Keeping it for now)\n    function setExpContractAddress(address _contract) public OnlyOwner {\n        require(_contract != address(0), \"Invalid EXP Token Contract address\");\n        _EXPContractAddress = _contract;\n    }\n    // Generate EXPerience NFT for the address given \n    function genExperience(address _to) public {\n        // Make sure the message sender is one of the admins \n        require(_tokenAdmins[msg.sender] == true, \"EXPerience: You're not an admin\");\n        // We need to make sure _to actually holds some EXP \n        // Get the exp token contract  \n        _expContract = IERC20(_EXPContractAddress);\n        // Get _to's EXP token holdings \n        uint256 _expBalanceofTo = _expContract.balanceOf(_to);\n        // For Testing Only: Let's limit minting to address only if they any amount of exp token\n        require(_expBalanceofTo > 0, \"EXPerience: Insufficient EXP balance\");\n        \n        // Get TokenID \n        uint256 _tokenID = _totalSupply;\n        // Increment for next tokenID\n        ++_totalSupply;\n        // Mint the EXPerience NFT for the address (If address already holds the NFT, _mint will revert)\n        _safeMint(_to, _tokenID);\n        // Emit the event \n        emit ExperienceNFTGenerated(_to);\n    }\n\n    // Total supply \n    function totalSupply() public view returns (uint256) {\n        return _totalSupply;\n    }\n\n    // TokenURI(), this is where we will implement all our logic\n    // - We need to generate ASCII NFT art\n    // - Art could be a trophie showing achievement/level \n    // --- Null trophie for 0 EXP tokens in the account \n    // --- Distinct 5 trophies, each trophie for certain EXP token held in the account \n    // --- Ex: Tier-1 trophie for users who have 1 to 20 EXP tokens\n    // --- Tier-2 trophies for users who have 21 to 40 EXP tokens and so on...\n    function tokenURI(uint256 _tokenID) public view override returns (string memory) {\n        // Make sure _tokenID is valid \n        require(_exists(_tokenID), \"EXPerience NFT: Invalid TokenID\");\n        // Get the owner of the _tokenID\n        address owner = ownerOf(_tokenID); \n        // We need owner's EXP token balance\n        // Based on balance, we can prepare a variable that denotes which \n        // Symbol should be written in the center of the circle. \n        // Get owner's EXP token holdings\n        uint256 ownerBal = IERC20(_EXPContractAddress).balanceOf(owner);\n\n        // Now we have following details required to generate a tokenURI \n        // owner of the nft, nft token ID, owner's EXP balance \n        return BadgeFactory._generateTokenURI(_tokenID, ownerBal, owner);\n    }\n\n    function testURI(uint256 _tokenID) public pure returns (string memory) {\n        return BadgeFactory.callthisForImage(_tokenID);\n    }\n    /// @dev functions that are restricted \n    /// Overridden from ERC721 and modifier to reflect \n    /// Soulbound nature of the NFT\n    function approve(address, uint256) public view override {\n        revert ActionRestricted();\n    }\n\n    function getApproved(uint256) public view override returns (address) {\n        revert ActionRestricted();\n    }\n\n    function setApprovalForAll(address, bool) public view override {\n        revert ActionRestricted();\n    }\n\n    function isApprovedForAll(address, address) public view override returns (bool) {\n        revert ActionRestricted();\n    }\n\n    function transferFrom(address, address, uint256) public view override {\n        revert ActionRestricted();\n    }\n\n    function safeTransferFrom(address, address, uint256) public view override {\n        revert ActionRestricted();\n    }\n\n    function safeTransferFrom(address, address, uint256, bytes memory) public view override {\n         revert ActionRestricted();\n    }\n}","sourcePath":"contracts/EXPerienceNFT.sol","type":"contract","deployment":{"address":"0x7dc85c19f7b68071D1c5c12211e67407827744aE","chainid":"dev","blockHeight":80}}