{"bytecode":"60806040523480156200001157600080fd5b5060405162002449380380620024498339810160408190526200003491620002d3565b8251839083906200004d90600190602085019062000160565b5080516200006390600290602084019062000160565b50620000766380ac58cd60e01b620000dc565b62000088635b5e139f60e01b620000dc565b505060058054336001600160a01b03199182168117909255600780549091166001600160a01b0393909316929092179091556000908152600960205260409020805460ff19166001179055506200039c9050565b6001600160e01b031980821690036200013b5760405162461bcd60e51b815260206004820152601b60248201527f4552433136353a20496e76616c696420496e7465726661636549440000000000604482015260640160405180910390fd5b6001600160e01b0319166000908152602081905260409020805460ff19166001179055565b8280546200016e9062000360565b90600052602060002090601f016020900481019282620001925760008555620001dd565b82601f10620001ad57805160ff1916838001178555620001dd565b82800160010185558215620001dd579182015b82811115620001dd578251825591602001919060010190620001c0565b50620001eb929150620001ef565b5090565b5b80821115620001eb5760008155600101620001f0565b634e487b7160e01b600052604160045260246000fd5b600082601f8301126200022e57600080fd5b81516001600160401b03808211156200024b576200024b62000206565b604051601f8301601f19908116603f0116810190828211818310171562000276576200027662000206565b816040528381526020925086838588010111156200029357600080fd5b600091505b83821015620002b7578582018301518183018401529082019062000298565b83821115620002c95760008385830101525b9695505050505050565b600080600060608486031215620002e957600080fd5b83516001600160401b03808211156200030157600080fd5b6200030f878388016200021c565b945060208601519150808211156200032657600080fd5b5062000335868287016200021c565b604086015190935090506001600160a01b03811681146200035557600080fd5b809150509250925092565b600181811c908216806200037557607f821691505b6020821081036200039657634e487b7160e01b600052602260045260246000fd5b50919050565b61209d80620003ac6000396000f3fe608060405234801561001057600080fd5b506004361061012c5760003560e01c806370a08231116100ad578063c87b56dd11610071578063c87b56dd1461024f578063ccd2d6f514610262578063dbc31dca14610275578063e2fc14fb14610288578063e985e9c51461029b57600080fd5b806370a08231146102075780638da5cb5b1461021a57806395d89b411461022b578063a22cb46514610233578063b88d4fde1461024157600080fd5b806323b872dd116100f457806323b872dd146101c05780633789f8d1146101ce57806342842e0e146101c05780636352211e146101e15780637068cca7146101f457600080fd5b806301ffc9a71461013157806306fdde0314610159578063081812fc1461016e578063095ea7b31461019957806318160ddd146101ae575b600080fd5b61014461013f36600461149d565b6102a9565b60405190151581526020015b60405180910390f35b6101616102ba565b60405161015091906114fe565b61018161017c366004611531565b61034c565b6040516001600160a01b039091168152602001610150565b6101ac6101a7366004611561565b610367565b005b6006545b604051908152602001610150565b6101ac6101a736600461158b565b6101ac6101dc3660046115c7565b610380565b6101816101ef366004611531565b610416565b610161610202366004611531565b61048d565b6101b2610215366004611603565b610498565b6005546001600160a01b0316610181565b61016161051e565b6101ac6101a73660046115c7565b6101ac6101a7366004611634565b61016161025d366004611531565b61052d565b6101ac610270366004611603565b610628565b610161610283366004611531565b6107c5565b6101ac610296366004611603565b6107d0565b61014461017c366004611710565b60006102b48261088c565b92915050565b6060600180546102c990611743565b80601f01602080910402602001604051908101604052809291908181526020018280546102f590611743565b80156103425780601f1061031757610100808354040283529160200191610342565b820191906000526020600020905b81548152906001019060200180831161032557829003601f168201915b5050505050905090565b6000604051637a851da960e11b815260040160405180910390fd5b604051637a851da960e11b815260040160405180910390fd5b336103936005546001600160a01b031690565b6001600160a01b0316146103c25760405162461bcd60e51b81526004016103b99061177d565b60405180910390fd5b6001600160a01b038216600081815260096020526040808220805460ff191685151590811790915590519092917fc8fa0f05244aec5faf5a72346ef525e3e3bf52f240e55bd42d0c44f7ce14f9c391a35050565b6000818152600360205260408120546001600160a01b0316806102b45760405162461bcd60e51b815260206004820152602960248201527f4552433732313a206f776e657220717565727920666f72206e6f6e657869737460448201526832b73a103a37b5b2b760b91b60648201526084016103b9565b60606102b4826108c8565b60006001600160a01b0382166105025760405162461bcd60e51b815260206004820152602960248201527f4552433732313a2061646472657373207a65726f206973206e6f7420612076616044820152683634b21037bbb732b960b91b60648201526084016103b9565b506001600160a01b031660009081526004602052604090205490565b6060600280546102c990611743565b6000818152600360205260409020546060906001600160a01b03166105945760405162461bcd60e51b815260206004820152601f60248201527f455850657269656e6365204e46543a20496e76616c696420546f6b656e49440060448201526064016103b9565b600061059f83610416565b6007546040516370a0823160e01b81526001600160a01b038084166004830152929350600092909116906370a0823190602401602060405180830381865afa1580156105ef573d6000803e3d6000fd5b505050506040513d601f19601f8201168201806040525081019061061391906117c6565b905061062084828461095d565b949350505050565b3360009081526009602052604090205460ff16151560011461068c5760405162461bcd60e51b815260206004820152601f60248201527f455850657269656e63653a20596f75277265206e6f7420616e2061646d696e0060448201526064016103b9565b600754600880546001600160a01b0319166001600160a01b039283169081179091556040516370a0823160e01b815291831660048301526000916370a0823190602401602060405180830381865afa1580156106ec573d6000803e3d6000fd5b505050506040513d601f19601f8201168201806040525081019061071091906117c6565b90506000811161076e5760405162461bcd60e51b8152602060048201526024808201527f455850657269656e63653a20496e73756666696369656e74204558502062616c604482015263616e636560e01b60648201526084016103b9565b6006805490600061077e836117f5565b9091555061078c8382610a68565b6040516001600160a01b038416907fbd6e4913107c69e3c4fa02301595d1f386394fbefad6b73a2dbc6463ee96a19a90600090a2505050565b60606102b482610a76565b336107e36005546001600160a01b031690565b6001600160a01b0316146108095760405162461bcd60e51b81526004016103b99061177d565b6001600160a01b03811661086a5760405162461bcd60e51b815260206004820152602260248201527f496e76616c69642045585020546f6b656e20436f6e7472616374206164647265604482015261737360f01b60648201526084016103b9565b600780546001600160a01b0319166001600160a01b0392909216919091179055565b60006301ffc9a760e01b6001600160e01b0319831614806102b45750506001600160e01b03191660009081526020819052604090205460ff1690565b606060006109336040518061018001604052806101578152602001611e6d61015791396108f485610aed565b6040518060a0016040528060648152602001611fc46064913960405160200161091f9392919061182a565b604051602081830303815290604052610bee565b905080604051602001610946919061186d565b604051602081830303815290604052915050919050565b6060600061096a846108c8565b9050600061097785610d41565b90506000610983610e27565b905060006109b882856109a66109a1670de0b6b3a76400008c6118c8565b610aed565b60405160200161091f93929190611911565b6040516020016109c89190611a78565b604051602081830303815290604052905060006109e489610aed565b846040516020016109f6929190611ab6565b6040516020818303038152906040529050600081888785604051602001610a209493929190611c76565b6040516020818303038152906040529050610a3a81610bee565b604051602001610a4a9190611d1e565b60405160208183030381529060405296505050505050509392505050565b610a7282826112d9565b5050565b60606000610a83836108c8565b604080518082019091526002815261494960f01b60208201529091506000610aa9610e27565b90506000610ac3828560405160200161091f929190611d63565b604051602001610ad39190611a78565b60408051601f198184030181529190529695505050505050565b606081600003610b145750506040805180820190915260018152600360fc1b602082015290565b8160005b8115610b3e5780610b28816117f5565b9150610b379050600a836118c8565b9150610b18565b60008167ffffffffffffffff811115610b5957610b5961161e565b6040519080825280601f01601f191660200182016040528015610b83576020820181803683370190505b5090505b841561062057610b98600183611df4565b9150610ba5600a86611e0b565b610bb0906030611e1f565b60f81b818381518110610bc557610bc5611e37565b60200101906001600160f81b031916908160001a905350610be7600a866118c8565b9450610b87565b60608151600003610c0d57505060408051602081019091526000815290565b60006040518060600160405280604081526020016120286040913990506000600384516002610c3c9190611e1f565b610c4691906118c8565b610c51906004611e4d565b67ffffffffffffffff811115610c6957610c6961161e565b6040519080825280601f01601f191660200182016040528015610c93576020820181803683370190505b509050600182016020820185865187015b80821015610cff576003820191508151603f8160121c168501518453600184019350603f81600c1c168501518453600184019350603f8160061c168501518453600184019350603f8116850151845350600183019250610ca4565b5050600386510660018114610d1b5760028114610d2e57610d36565b603d6001830353603d6002830353610d36565b603d60018303535b509195945050505050565b606060148211610d685750506040805180820190915260018152604960f81b602082015290565b601482118015610d79575060288211155b15610d9c575050604080518082019091526002815261494960f01b602082015290565b602882118015610dad5750603c8211155b15610dd157505060408051808201909152600381526249494960e81b602082015290565b603c82118015610de2575060508211155b15610e0557505060408051808201909152600281526124ab60f11b602082015290565b50506040805180820190915260018152602b60f91b602082015290565b919050565b606060006040516020016112c3907f3c7374796c653e202a2c3a61667465722c3a6265666f72657b626f782d73697a81527f696e673a626f726465722d626f787d626f64797b6865696768743a313030766860208201527f3b6261636b67726f756e643a233030307d2e63656e7465727b6865696768743a60408201527f313030253b646973706c61793a666c65783b616c69676e2d6974656d733a636560608201527f6e7465723b6a7573746966792d636f6e74656e743a63656e7465723b7465787460808201527f2d616c69676e3a63656e7465727d2e636972636c657b706f736974696f6e3a7260a08201527f656c61746976653b77696474683a32303070783b6865696768743a323030707860c08201527f3b636f6c6f723a236666663b6261636b67726f756e643a233030303b626f726460e08201527f65722d7261646975733a3530253b626f726465723a32707820736f6c69647d2e6101008201527f6c6f676f7b666f6e742d73697a653a31343070783b6c696e652d6865696768746101208201527f3a32303070783b766572746963616c2d616c69676e3a6d6964646c657d2e62756101408201527f74746f6e7b706f736974696f6e3a6162736f6c7574653b626f74746f6d3a32306101608201527f70783b6c6566743a303b72696768743a303b70616464696e673a3870783b666f6101808201527f6e742d7765696768743a3730303b746578742d7472616e73666f726d3a7570706101a08201527f6572636173653b6261636b67726f756e643a233030303b626f726465723a32706101c08201527f7820736f6c69643b616e696d6174696f6e3a736c69646520312e3473206561736101e08201527f652d696e2d6f757420696e66696e6974653b637572736f723a706f696e7465726102008201527f7d2e627574746f6e3a686f7665727b636f6c6f723a233030303b6261636b67726102208201527f6f756e643a236666663b626f726465722d636f6c6f723a236666667d406b65796102408201527f6672616d657320736c6964657b30257b7472616e73666f726d3a7472616e736c6102608201527f617465582831307078297d3530257b7472616e73666f726d3a7472616e736c616102808201527f746558282d31307078297d313030257b7472616e73666f726d3a7472616e736c6102a08201527f617465582831307078297d7d2e746578747b706f736974696f6e3a6162736f6c6102c08201527f7574653b746f703a303b6c6566743a303b77696474683a313030253b686569676102e08201527f68743a313030253b666f6e742d73697a653a323470783b666f6e742d776569676103008201527f68743a3730303b746578742d7472616e73666f726d3a7570706572636173653b6103208201527f616e696d6174696f6e3a726f7461746520313473206c696e65617220696e66696103408201527f6e6974653b66696c6c3a236666667d406b65796672616d657320726f746174656103608201527f7b66726f6d7b7472616e73666f726d3a726f746174652830297d746f7b7472616103808201527f6e73666f726d3a726f7461746528333630646567297d7d203c2f7374796c653e6103a08201526103c00190565b60408051601f1981840301815291905292915050565b6001600160a01b03821661132f5760405162461bcd60e51b815260206004820181905260248201527f4552433732313a206d696e7420746f20746865207a65726f206164647265737360448201526064016103b9565b6000818152600360205260409020546001600160a01b0316156113945760405162461bcd60e51b815260206004820152601c60248201527f4552433732313a20746f6b656e20616c7265616479206d696e7465640000000060448201526064016103b9565b6001600160a01b038216600090815260046020526040902054156114165760405162461bcd60e51b815260206004820152603360248201527f4552433732313a204f6e6c79206f6e6520455850657269656e636556696577656044820152727220284e46542920706572206164647265737360681b60648201526084016103b9565b6001600160a01b038216600090815260046020526040812080546001929061143f908490611e1f565b909155505060008181526003602052604080822080546001600160a01b0319166001600160a01b03861690811790915590518392907fddf252ad1be2c89b69c2b068fc378daa952ba7f163c4a11628f55a4df523b3ef908290a45050565b6000602082840312156114af57600080fd5b81356001600160e01b0319811681146114c757600080fd5b9392505050565b60005b838110156114e95781810151838201526020016114d1565b838111156114f8576000848401525b50505050565b602081526000825180602084015261151d8160408501602087016114ce565b601f01601f19169190910160400192915050565b60006020828403121561154357600080fd5b5035919050565b80356001600160a01b0381168114610e2257600080fd5b6000806040838503121561157457600080fd5b61157d8361154a565b946020939093013593505050565b6000806000606084860312156115a057600080fd5b6115a98461154a565b92506115b76020850161154a565b9150604084013590509250925092565b600080604083850312156115da57600080fd5b6115e38361154a565b9150602083013580151581146115f857600080fd5b809150509250929050565b60006020828403121561161557600080fd5b6114c78261154a565b634e487b7160e01b600052604160045260246000fd5b6000806000806080858703121561164a57600080fd5b6116538561154a565b93506116616020860161154a565b925060408501359150606085013567ffffffffffffffff8082111561168557600080fd5b818701915087601f83011261169957600080fd5b8135818111156116ab576116ab61161e565b604051601f8201601f19908116603f011681019083821181831017156116d3576116d361161e565b816040528281528a60208487010111156116ec57600080fd5b82602086016020830137600060208483010152809550505050505092959194509250565b6000806040838503121561172357600080fd5b61172c8361154a565b915061173a6020840161154a565b90509250929050565b600181811c9082168061175757607f821691505b60208210810361177757634e487b7160e01b600052602260045260246000fd5b50919050565b60208082526029908201527f455850546f6b656e2028416363657373436f6e74726f6c293a204e6f742061756040820152683a3437b934bd32b21760b91b606082015260800190565b6000602082840312156117d857600080fd5b5051919050565b634e487b7160e01b600052601160045260246000fd5b600060018201611807576118076117df565b5060010190565b600081516118208185602086016114ce565b9290920192915050565b6000845161183c8184602089016114ce565b8451908301906118508183602089016114ce565b84519101906118638183602088016114ce565b0195945050505050565b7f646174613a696d6167652f7376672b786d6c3b6261736536342c0000000000008152600082516118a581601a8501602087016114ce565b91909101601a0192915050565b634e487b7160e01b600052601260045260246000fd5b6000826118d7576118d76118b2565b500490565b7f3c6f626a65637420747970653d22696d6167652f7376672b786d6c2220646174815262309e9160e91b602082015260230190565b741e10a227a1aa2ca82290343a36b61f1e343a36b61f60591b8152600084516119418160158501602089016114ce565b7f3c64697620636c6173733d2263656e746572223e3c64697620636c6173733d226015918401918201527f636972636c65223e3c64697620636c6173733d226c6f676f223e49493c2f64696035820152733b1f1e3234bb1031b630b9b99e913a32bc3a111f60611b60558201526119ba606982016118dc565b905084516119cc8183602089016114ce565b8082019150507f2220616c743d22455850657269656e63655f4e4654223e3c2f6f626a6563743e81527f3c2f6469763e3c64697620636c6173733d22627574746f6e223e5b4558505d2060208201526902130b630b731b29016960b51b60408201528351611a4181604a8401602088016114ce565b7f3c2f6469763e3c2f6469763e3c2f6469763e3c2f68746d6c3e00000000000000604a929091019182015260630195945050505050565b7519185d184e9d195e1d0bda1d1b5b0ed8985cd94d8d0b60521b815260008251611aa98160168501602087016114ce565b9190910160160192915050565b7f7b226e616d65223a2022455850657269656e6365204261646765230000000000815260008351611aee81601b8501602088016114ce565b7f222c20226465736372697074696f6e223a2022455850657269656e6365204261601b918401918201527f6467652e2050617274206f662045746865726e6175742044414f20626f756e74603b8201527f6965732e20536f756c626f756e6420746f6b656e2f6173736574206578706572605b8201527f69656e6365207468726f7567682045585020546f6b656e20616e642045585065607b8201526a3934b2b731b29027232a1760a91b609b8201527f222c202265787465726e616c5f75726c223a202268747470733a2f2f6769746860a68201527f75622e636f6d2f536f6c4465762d48502f455850657269656e63655f47616d6560c6820152601160f91b60e68201527f2c202261747472696275746573223a205b7b2274726169745f74797065223a2060e78201527f22455850657269656e6365204c6576656c222c202276616c7565223a20220000610107820152611c6d611c5261012583018661180e565b6e113eae96101137bbb732b9111d101160891b8152600f0190565b95945050505050565b60008551611c88818460208a016114ce565b606086901b6bffffffffffffffffffffffff19169083019081526c1116101134b6b0b3b2911d101160991b60148201528451611ccb8160218401602089016114ce565b741116101130b734b6b0ba34b7b72fbab936111d101160591b602192909101918201528351611d018160368401602088016114ce565b61227d60f01b603692909101918201526038019695505050505050565b7f646174613a6170706c69636174696f6e2f6a736f6e3b6261736536342c000000815260008251611d5681601d8501602087016114ce565b91909101601d0192915050565b741e10a227a1aa2ca82290343a36b61f1e343a36b61f60591b815260008351611d938160158501602088016114ce565b611da16015828501016118dc565b90508351611db38183602088016114ce565b7f2220616c743d22455850657269656e63655f4e4654223e3c2f6f626a6563743e9101908152661e17b43a36b61f60c91b6020820152602701949350505050565b600082821015611e0657611e066117df565b500390565b600082611e1a57611e1a6118b2565b500690565b60008219821115611e3257611e326117df565b500190565b634e487b7160e01b600052603260045260246000fd5b6000816000190483118215151615611e6757611e676117df565b50029056fe3c73766720786d6c6e733d22687474703a2f2f7777772e77332e6f72672f323030302f7376672220786d6c6e733a786c696e6b3d22687474703a2f2f7777772e77332e6f72672f313939392f786c696e6b2220783d22302220793d2230222076696577426f783d2230203020333030203330302220656e61626c652d6261636b67726f756e643d226e65772030203020333030203330302220786d6c3a73706163653d227072657365727665223e3c646566733e3c706174682069643d22636972636c65506174682220643d224d203135302c20313530206d202d3132302c20302061203132302c313230203020302c31203234302c302061203132302c313230203020302c31202d3234302c30222f3e3c2f646566733e3c673e3c746578743e3c746578745061746820786c696e6b3a687265663d2223636972636c6550617468223e455850657269656e6365204c6576656c202d2020202020202020202020202020202020202020202020202020202020202020202020202020202045746865726e61757444414f20426f756e7479202d20306d6963726f6e745f2e203c2f74657874506174683e3c2f746578743e3c2f673e3c2f7376673e4142434445464748494a4b4c4d4e4f505152535455565758595a6162636465666768696a6b6c6d6e6f707172737475767778797a303132333435363738392b2fa26469706673582212200c8be655a419b1bb61fa8b76eb949bf84d086678d48bda3f0d3c73df9a0cb93264736f6c634300080d0033","bytecodeSha1":"1dcadbd304610c34c17c041bddb554b34ef1462a","type":"contract","abi":[{"inputs":[{"internalType":"string","name":"_name","type":"string"},{"internalType":"string","name":"_symbol","type":"string"},{"internalType":"address","name":"_expcontract","type":"address"}],"stateMutability":"nonpayable","type":"constructor","name":"constructor"},{"inputs":[],"name":"OperationNotAllowed","type":"error"},{"inputs":[],"name":"TempDisabled","type":"error"},{"anonymous":false,"inputs":[{"indexed":true,"internalType":"address","name":"owner","type":"address"},{"indexed":true,"internalType":"address","name":"approved","type":"address"},{"indexed":true,"internalType":"uint256","name":"tokenId","type":"uint256"}],"name":"Approval","type":"event"},{"anonymous":false,"inputs":[{"indexed":true,"internalType":"address","name":"owner","type":"address"},{"indexed":true,"internalType":"address","name":"operator","type":"address"},{"indexed":false,"internalType":"bool","name":"approved","type":"bool"}],"name":"ApprovalForAll","type":"event"},{"anonymous":false,"inputs":[{"indexed":true,"internalType":"address","name":"_experienceGainer","type":"address"}],"name":"ExperienceNFTGenerated","type":"event"},{"anonymous":false,"inputs":[{"indexed":true,"internalType":"address","name":"_admin","type":"address"},{"indexed":true,"internalType":"bool","name":"_isAdmin","type":"bool"}],"name":"TokenAdminSet","type":"event"},{"anonymous":false,"inputs":[{"indexed":true,"internalType":"address","name":"from","type":"address"},{"indexed":true,"internalType":"address","name":"to","type":"address"},{"indexed":true,"internalType":"uint256","name":"tokenId","type":"uint256"}],"name":"Transfer","type":"event"},{"inputs":[{"internalType":"address","name":"","type":"address"},{"internalType":"uint256","name":"","type":"uint256"}],"name":"approve","outputs":[],"stateMutability":"nonpayable","type":"function"},{"inputs":[{"internalType":"address","name":"owner","type":"address"}],"name":"balanceOf","outputs":[{"internalType":"uint256","name":"","type":"uint256"}],"stateMutability":"view","type":"function"},{"inputs":[{"internalType":"address","name":"_to","type":"address"}],"name":"genExperience","outputs":[],"stateMutability":"nonpayable","type":"function"},{"inputs":[{"internalType":"uint256","name":"_tokenId","type":"uint256"}],"name":"getAnimurl","outputs":[{"internalType":"string","name":"","type":"string"}],"stateMutability":"pure","type":"function"},{"inputs":[{"internalType":"uint256","name":"","type":"uint256"}],"name":"getApproved","outputs":[{"internalType":"address","name":"","type":"address"}],"stateMutability":"view","type":"function"},{"inputs":[{"internalType":"uint256","name":"_tokenId","type":"uint256"}],"name":"getimgurl","outputs":[{"internalType":"string","name":"","type":"string"}],"stateMutability":"pure","type":"function"},{"inputs":[{"internalType":"address","name":"","type":"address"},{"internalType":"address","name":"","type":"address"}],"name":"isApprovedForAll","outputs":[{"internalType":"bool","name":"","type":"bool"}],"stateMutability":"view","type":"function"},{"inputs":[],"name":"name","outputs":[{"internalType":"string","name":"","type":"string"}],"stateMutability":"view","type":"function"},{"inputs":[],"name":"owner","outputs":[{"internalType":"address","name":"","type":"address"}],"stateMutability":"view","type":"function"},{"inputs":[{"internalType":"uint256","name":"tokenId","type":"uint256"}],"name":"ownerOf","outputs":[{"internalType":"address","name":"","type":"address"}],"stateMutability":"view","type":"function"},{"inputs":[{"internalType":"address","name":"","type":"address"},{"internalType":"address","name":"","type":"address"},{"internalType":"uint256","name":"","type":"uint256"}],"name":"safeTransferFrom","outputs":[],"stateMutability":"nonpayable","type":"function"},{"inputs":[{"internalType":"address","name":"","type":"address"},{"internalType":"address","name":"","type":"address"},{"internalType":"uint256","name":"","type":"uint256"},{"internalType":"bytes","name":"","type":"bytes"}],"name":"safeTransferFrom","outputs":[],"stateMutability":"nonpayable","type":"function"},{"inputs":[{"internalType":"address","name":"","type":"address"},{"internalType":"bool","name":"","type":"bool"}],"name":"setApprovalForAll","outputs":[],"stateMutability":"nonpayable","type":"function"},{"inputs":[{"internalType":"address","name":"_contract","type":"address"}],"name":"setExpContractAddress","outputs":[],"stateMutability":"nonpayable","type":"function"},{"inputs":[{"internalType":"address","name":"_admin","type":"address"},{"internalType":"bool","name":"_isAdmin","type":"bool"}],"name":"setTokenAdmin","outputs":[],"stateMutability":"nonpayable","type":"function"},{"inputs":[{"internalType":"bytes4","name":"interfaceId","type":"bytes4"}],"name":"supportsInterface","outputs":[{"internalType":"bool","name":"","type":"bool"}],"stateMutability":"view","type":"function"},{"inputs":[],"name":"symbol","outputs":[{"internalType":"string","name":"","type":"string"}],"stateMutability":"view","type":"function"},{"inputs":[{"internalType":"uint256","name":"_tokenID","type":"uint256"}],"name":"tokenURI","outputs":[{"internalType":"string","name":"","type":"string"}],"stateMutability":"view","type":"function"},{"inputs":[],"name":"totalSupply","outputs":[{"internalType":"uint256","name":"","type":"uint256"}],"stateMutability":"view","type":"function"},{"inputs":[{"internalType":"address","name":"","type":"address"},{"internalType":"address","name":"","type":"address"},{"internalType":"uint256","name":"","type":"uint256"}],"name":"transferFrom","outputs":[],"stateMutability":"nonpayable","type":"function"}],"compiler":{"version":"0.8.13+commit.abaa5c0e","evm_version":"istanbul","optimizer":{"enabled":true,"runs":200}},"contractName":"EXPerienceNFT","language":"Solidity","natspec":{"methods":{"approve(address,uint256)":{"details":"See {IERC721-approve}. Restricted"},"balanceOf(address)":{"details":"See {IERC721-balanceOf}. It'll always be between 0 and 1. We'll limit single nft per address"},"getApproved(uint256)":{"details":"See {IERC721-getApproved}. Restricted"},"isApprovedForAll(address,address)":{"details":"See {IERC721-isApprovedForAll}. Restricted"},"name()":{"details":"See {IERC721Metadata-name}."},"owner()":{"details":"Public function to check owner ","returns":{"_0":"address of the owner of this contract"}},"ownerOf(uint256)":{"details":"See {IERC721-ownerOf}."},"safeTransferFrom(address,address,uint256)":{"details":"See {IERC721-safeTransferFrom}. Restricted"},"safeTransferFrom(address,address,uint256,bytes)":{"details":"See {IERC721-safeTransferFrom}. Restricted"},"setApprovalForAll(address,bool)":{"details":"See {IERC721-setApprovalForAll}. Restricted"},"supportsInterface(bytes4)":{"details":"See {IERC165-supportsInterface}."},"symbol()":{"details":"See {IERC721Metadata-symbol}."},"transferFrom(address,address,uint256)":{"details":"See {IERC721-transferFrom}. Restricted"}},"kind":"dev","version":1},"opcodes":"PUSH1 0x80 PUSH1 0x40 MSTORE CALLVALUE DUP1 ISZERO PUSH2 0x10 JUMPI PUSH1 0x0 DUP1 REVERT JUMPDEST POP PUSH1 0x4 CALLDATASIZE LT PUSH2 0x12C JUMPI PUSH1 0x0 CALLDATALOAD PUSH1 0xE0 SHR DUP1 PUSH4 0x70A08231 GT PUSH2 0xAD JUMPI DUP1 PUSH4 0xC87B56DD GT PUSH2 0x71 JUMPI DUP1 PUSH4 0xC87B56DD EQ PUSH2 0x24F JUMPI DUP1 PUSH4 0xCCD2D6F5 EQ PUSH2 0x262 JUMPI DUP1 PUSH4 0xDBC31DCA EQ PUSH2 0x275 JUMPI DUP1 PUSH4 0xE2FC14FB EQ PUSH2 0x288 JUMPI DUP1 PUSH4 0xE985E9C5 EQ PUSH2 0x29B JUMPI PUSH1 0x0 DUP1 REVERT JUMPDEST DUP1 PUSH4 0x70A08231 EQ PUSH2 0x207 JUMPI DUP1 PUSH4 0x8DA5CB5B EQ PUSH2 0x21A JUMPI DUP1 PUSH4 0x95D89B41 EQ PUSH2 0x22B JUMPI DUP1 PUSH4 0xA22CB465 EQ PUSH2 0x233 JUMPI DUP1 PUSH4 0xB88D4FDE EQ PUSH2 0x241 JUMPI PUSH1 0x0 DUP1 REVERT JUMPDEST DUP1 PUSH4 0x23B872DD GT PUSH2 0xF4 JUMPI DUP1 PUSH4 0x23B872DD EQ PUSH2 0x1C0 JUMPI DUP1 PUSH4 0x3789F8D1 EQ PUSH2 0x1CE JUMPI DUP1 PUSH4 0x42842E0E EQ PUSH2 0x1C0 JUMPI DUP1 PUSH4 0x6352211E EQ PUSH2 0x1E1 JUMPI DUP1 PUSH4 0x7068CCA7 EQ PUSH2 0x1F4 JUMPI PUSH1 0x0 DUP1 REVERT JUMPDEST DUP1 PUSH4 0x1FFC9A7 EQ PUSH2 0x131 JUMPI DUP1 PUSH4 0x6FDDE03 EQ PUSH2 0x159 JUMPI DUP1 PUSH4 0x81812FC EQ PUSH2 0x16E JUMPI DUP1 PUSH4 0x95EA7B3 EQ PUSH2 0x199 JUMPI DUP1 PUSH4 0x18160DDD EQ PUSH2 0x1AE JUMPI JUMPDEST PUSH1 0x0 DUP1 REVERT JUMPDEST PUSH2 0x144 PUSH2 0x13F CALLDATASIZE PUSH1 0x4 PUSH2 0x149D JUMP JUMPDEST PUSH2 0x2A9 JUMP JUMPDEST PUSH1 0x40 MLOAD SWAP1 ISZERO ISZERO DUP2 MSTORE PUSH1 0x20 ADD JUMPDEST PUSH1 0x40 MLOAD DUP1 SWAP2 SUB SWAP1 RETURN JUMPDEST PUSH2 0x161 PUSH2 0x2BA JUMP JUMPDEST PUSH1 0x40 MLOAD PUSH2 0x150 SWAP2 SWAP1 PUSH2 0x14FE JUMP JUMPDEST PUSH2 0x181 PUSH2 0x17C CALLDATASIZE PUSH1 0x4 PUSH2 0x1531 JUMP JUMPDEST PUSH2 0x34C JUMP JUMPDEST PUSH1 0x40 MLOAD PUSH1 0x1 PUSH1 0x1 PUSH1 0xA0 SHL SUB SWAP1 SWAP2 AND DUP2 MSTORE PUSH1 0x20 ADD PUSH2 0x150 JUMP JUMPDEST PUSH2 0x1AC PUSH2 0x1A7 CALLDATASIZE PUSH1 0x4 PUSH2 0x1561 JUMP JUMPDEST PUSH2 0x367 JUMP JUMPDEST STOP JUMPDEST PUSH1 0x6 SLOAD JUMPDEST PUSH1 0x40 MLOAD SWAP1 DUP2 MSTORE PUSH1 0x20 ADD PUSH2 0x150 JUMP JUMPDEST PUSH2 0x1AC PUSH2 0x1A7 CALLDATASIZE PUSH1 0x4 PUSH2 0x158B JUMP JUMPDEST PUSH2 0x1AC PUSH2 0x1DC CALLDATASIZE PUSH1 0x4 PUSH2 0x15C7 JUMP JUMPDEST PUSH2 0x380 JUMP JUMPDEST PUSH2 0x181 PUSH2 0x1EF CALLDATASIZE PUSH1 0x4 PUSH2 0x1531 JUMP JUMPDEST PUSH2 0x416 JUMP JUMPDEST PUSH2 0x161 PUSH2 0x202 CALLDATASIZE PUSH1 0x4 PUSH2 0x1531 JUMP JUMPDEST PUSH2 0x48D JUMP JUMPDEST PUSH2 0x1B2 PUSH2 0x215 CALLDATASIZE PUSH1 0x4 PUSH2 0x1603 JUMP JUMPDEST PUSH2 0x498 JUMP JUMPDEST PUSH1 0x5 SLOAD PUSH1 0x1 PUSH1 0x1 PUSH1 0xA0 SHL SUB AND PUSH2 0x181 JUMP JUMPDEST PUSH2 0x161 PUSH2 0x51E JUMP JUMPDEST PUSH2 0x1AC PUSH2 0x1A7 CALLDATASIZE PUSH1 0x4 PUSH2 0x15C7 JUMP JUMPDEST PUSH2 0x1AC PUSH2 0x1A7 CALLDATASIZE PUSH1 0x4 PUSH2 0x1634 JUMP JUMPDEST PUSH2 0x161 PUSH2 0x25D CALLDATASIZE PUSH1 0x4 PUSH2 0x1531 JUMP JUMPDEST PUSH2 0x52D JUMP JUMPDEST PUSH2 0x1AC PUSH2 0x270 CALLDATASIZE PUSH1 0x4 PUSH2 0x1603 JUMP JUMPDEST PUSH2 0x628 JUMP JUMPDEST PUSH2 0x161 PUSH2 0x283 CALLDATASIZE PUSH1 0x4 PUSH2 0x1531 JUMP JUMPDEST PUSH2 0x7C5 JUMP JUMPDEST PUSH2 0x1AC PUSH2 0x296 CALLDATASIZE PUSH1 0x4 PUSH2 0x1603 JUMP JUMPDEST PUSH2 0x7D0 JUMP JUMPDEST PUSH2 0x144 PUSH2 0x17C CALLDATASIZE PUSH1 0x4 PUSH2 0x1710 JUMP JUMPDEST PUSH1 0x0 PUSH2 0x2B4 DUP3 PUSH2 0x88C JUMP JUMPDEST SWAP3 SWAP2 POP POP JUMP JUMPDEST PUSH1 0x60 PUSH1 0x1 DUP1 SLOAD PUSH2 0x2C9 SWAP1 PUSH2 0x1743 JUMP JUMPDEST DUP1 PUSH1 0x1F ADD PUSH1 0x20 DUP1 SWAP2 DIV MUL PUSH1 0x20 ADD PUSH1 0x40 MLOAD SWAP1 DUP2 ADD PUSH1 0x40 MSTORE DUP1 SWAP3 SWAP2 SWAP1 DUP2 DUP2 MSTORE PUSH1 0x20 ADD DUP3 DUP1 SLOAD PUSH2 0x2F5 SWAP1 PUSH2 0x1743 JUMP JUMPDEST DUP1 ISZERO PUSH2 0x342 JUMPI DUP1 PUSH1 0x1F LT PUSH2 0x317 JUMPI PUSH2 0x100 DUP1 DUP4 SLOAD DIV MUL DUP4 MSTORE SWAP2 PUSH1 0x20 ADD SWAP2 PUSH2 0x342 JUMP JUMPDEST DUP3 ADD SWAP2 SWAP1 PUSH1 0x0 MSTORE PUSH1 0x20 PUSH1 0x0 KECCAK256 SWAP1 JUMPDEST DUP2 SLOAD DUP2 MSTORE SWAP1 PUSH1 0x1 ADD SWAP1 PUSH1 0x20 ADD DUP1 DUP4 GT PUSH2 0x325 JUMPI DUP3 SWAP1 SUB PUSH1 0x1F AND DUP3 ADD SWAP2 JUMPDEST POP POP POP POP POP SWAP1 POP SWAP1 JUMP JUMPDEST PUSH1 0x0 PUSH1 0x40 MLOAD PUSH4 0x7A851DA9 PUSH1 0xE1 SHL DUP2 MSTORE PUSH1 0x4 ADD PUSH1 0x40 MLOAD DUP1 SWAP2 SUB SWAP1 REVERT JUMPDEST PUSH1 0x40 MLOAD PUSH4 0x7A851DA9 PUSH1 0xE1 SHL DUP2 MSTORE PUSH1 0x4 ADD PUSH1 0x40 MLOAD DUP1 SWAP2 SUB SWAP1 REVERT JUMPDEST CALLER PUSH2 0x393 PUSH1 0x5 SLOAD PUSH1 0x1 PUSH1 0x1 PUSH1 0xA0 SHL SUB AND SWAP1 JUMP JUMPDEST PUSH1 0x1 PUSH1 0x1 PUSH1 0xA0 SHL SUB AND EQ PUSH2 0x3C2 JUMPI PUSH1 0x40 MLOAD PUSH3 0x461BCD PUSH1 0xE5 SHL DUP2 MSTORE PUSH1 0x4 ADD PUSH2 0x3B9 SWAP1 PUSH2 0x177D JUMP JUMPDEST PUSH1 0x40 MLOAD DUP1 SWAP2 SUB SWAP1 REVERT JUMPDEST PUSH1 0x1 PUSH1 0x1 PUSH1 0xA0 SHL SUB DUP3 AND PUSH1 0x0 DUP2 DUP2 MSTORE PUSH1 0x9 PUSH1 0x20 MSTORE PUSH1 0x40 DUP1 DUP3 KECCAK256 DUP1 SLOAD PUSH1 0xFF NOT AND DUP6 ISZERO ISZERO SWAP1 DUP2 OR SWAP1 SWAP2 SSTORE SWAP1 MLOAD SWAP1 SWAP3 SWAP2 PUSH32 0xC8FA0F05244AEC5FAF5A72346EF525E3E3BF52F240E55BD42D0C44F7CE14F9C3 SWAP2 LOG3 POP POP JUMP JUMPDEST PUSH1 0x0 DUP2 DUP2 MSTORE PUSH1 0x3 PUSH1 0x20 MSTORE PUSH1 0x40 DUP2 KECCAK256 SLOAD PUSH1 0x1 PUSH1 0x1 PUSH1 0xA0 SHL SUB AND DUP1 PUSH2 0x2B4 JUMPI PUSH1 0x40 MLOAD PUSH3 0x461BCD PUSH1 0xE5 SHL DUP2 MSTORE PUSH1 0x20 PUSH1 0x4 DUP3 ADD MSTORE PUSH1 0x29 PUSH1 0x24 DUP3 ADD MSTORE PUSH32 0x4552433732313A206F776E657220717565727920666F72206E6F6E6578697374 PUSH1 0x44 DUP3 ADD MSTORE PUSH9 0x32B73A103A37B5B2B7 PUSH1 0xB9 SHL PUSH1 0x64 DUP3 ADD MSTORE PUSH1 0x84 ADD PUSH2 0x3B9 JUMP JUMPDEST PUSH1 0x60 PUSH2 0x2B4 DUP3 PUSH2 0x8C8 JUMP JUMPDEST PUSH1 0x0 PUSH1 0x1 PUSH1 0x1 PUSH1 0xA0 SHL SUB DUP3 AND PUSH2 0x502 JUMPI PUSH1 0x40 MLOAD PUSH3 0x461BCD PUSH1 0xE5 SHL DUP2 MSTORE PUSH1 0x20 PUSH1 0x4 DUP3 ADD MSTORE PUSH1 0x29 PUSH1 0x24 DUP3 ADD MSTORE PUSH32 0x4552433732313A2061646472657373207A65726F206973206E6F742061207661 PUSH1 0x44 DUP3 ADD MSTORE PUSH9 0x3634B21037BBB732B9 PUSH1 0xB9 SHL PUSH1 0x64 DUP3 ADD MSTORE PUSH1 0x84 ADD PUSH2 0x3B9 JUMP JUMPDEST POP PUSH1 0x1 PUSH1 0x1 PUSH1 0xA0 SHL SUB AND PUSH1 0x0 SWAP1 DUP2 MSTORE PUSH1 0x4 PUSH1 0x20 MSTORE PUSH1 0x40 SWAP1 KECCAK256 SLOAD SWAP1 JUMP JUMPDEST PUSH1 0x60 PUSH1 0x2 DUP1 SLOAD PUSH2 0x2C9 SWAP1 PUSH2 0x1743 JUMP JUMPDEST PUSH1 0x0 DUP2 DUP2 MSTORE PUSH1 0x3 PUSH1 0x20 MSTORE PUSH1 0x40 SWAP1 KECCAK256 SLOAD PUSH1 0x60 SWAP1 PUSH1 0x1 PUSH1 0x1 PUSH1 0xA0 SHL SUB AND PUSH2 0x594 JUMPI PUSH1 0x40 MLOAD PUSH3 0x461BCD PUSH1 0xE5 SHL DUP2 MSTORE PUSH1 0x20 PUSH1 0x4 DUP3 ADD MSTORE PUSH1 0x1F PUSH1 0x24 DUP3 ADD MSTORE PUSH32 0x455850657269656E6365204E46543A20496E76616C696420546F6B656E494400 PUSH1 0x44 DUP3 ADD MSTORE PUSH1 0x64 ADD PUSH2 0x3B9 JUMP JUMPDEST PUSH1 0x0 PUSH2 0x59F DUP4 PUSH2 0x416 JUMP JUMPDEST PUSH1 0x7 SLOAD PUSH1 0x40 MLOAD PUSH4 0x70A08231 PUSH1 0xE0 SHL DUP2 MSTORE PUSH1 0x1 PUSH1 0x1 PUSH1 0xA0 SHL SUB DUP1 DUP5 AND PUSH1 0x4 DUP4 ADD MSTORE SWAP3 SWAP4 POP PUSH1 0x0 SWAP3 SWAP1 SWAP2 AND SWAP1 PUSH4 0x70A08231 SWAP1 PUSH1 0x24 ADD PUSH1 0x20 PUSH1 0x40 MLOAD DUP1 DUP4 SUB DUP2 DUP7 GAS STATICCALL ISZERO DUP1 ISZERO PUSH2 0x5EF JUMPI RETURNDATASIZE PUSH1 0x0 DUP1 RETURNDATACOPY RETURNDATASIZE PUSH1 0x0 REVERT JUMPDEST POP POP POP POP PUSH1 0x40 MLOAD RETURNDATASIZE PUSH1 0x1F NOT PUSH1 0x1F DUP3 ADD AND DUP3 ADD DUP1 PUSH1 0x40 MSTORE POP DUP2 ADD SWAP1 PUSH2 0x613 SWAP2 SWAP1 PUSH2 0x17C6 JUMP JUMPDEST SWAP1 POP PUSH2 0x620 DUP5 DUP3 DUP5 PUSH2 0x95D JUMP JUMPDEST SWAP5 SWAP4 POP POP POP POP JUMP JUMPDEST CALLER PUSH1 0x0 SWAP1 DUP2 MSTORE PUSH1 0x9 PUSH1 0x20 MSTORE PUSH1 0x40 SWAP1 KECCAK256 SLOAD PUSH1 0xFF AND ISZERO ISZERO PUSH1 0x1 EQ PUSH2 0x68C JUMPI PUSH1 0x40 MLOAD PUSH3 0x461BCD PUSH1 0xE5 SHL DUP2 MSTORE PUSH1 0x20 PUSH1 0x4 DUP3 ADD MSTORE PUSH1 0x1F PUSH1 0x24 DUP3 ADD MSTORE PUSH32 0x455850657269656E63653A20596F75277265206E6F7420616E2061646D696E00 PUSH1 0x44 DUP3 ADD MSTORE PUSH1 0x64 ADD PUSH2 0x3B9 JUMP JUMPDEST PUSH1 0x7 SLOAD PUSH1 0x8 DUP1 SLOAD PUSH1 0x1 PUSH1 0x1 PUSH1 0xA0 SHL SUB NOT AND PUSH1 0x1 PUSH1 0x1 PUSH1 0xA0 SHL SUB SWAP3 DUP4 AND SWAP1 DUP2 OR SWAP1 SWAP2 SSTORE PUSH1 0x40 MLOAD PUSH4 0x70A08231 PUSH1 0xE0 SHL DUP2 MSTORE SWAP2 DUP4 AND PUSH1 0x4 DUP4 ADD MSTORE PUSH1 0x0 SWAP2 PUSH4 0x70A08231 SWAP1 PUSH1 0x24 ADD PUSH1 0x20 PUSH1 0x40 MLOAD DUP1 DUP4 SUB DUP2 DUP7 GAS STATICCALL ISZERO DUP1 ISZERO PUSH2 0x6EC JUMPI RETURNDATASIZE PUSH1 0x0 DUP1 RETURNDATACOPY RETURNDATASIZE PUSH1 0x0 REVERT JUMPDEST POP POP POP POP PUSH1 0x40 MLOAD RETURNDATASIZE PUSH1 0x1F NOT PUSH1 0x1F DUP3 ADD AND DUP3 ADD DUP1 PUSH1 0x40 MSTORE POP DUP2 ADD SWAP1 PUSH2 0x710 SWAP2 SWAP1 PUSH2 0x17C6 JUMP JUMPDEST SWAP1 POP PUSH1 0x0 DUP2 GT PUSH2 0x76E JUMPI PUSH1 0x40 MLOAD PUSH3 0x461BCD PUSH1 0xE5 SHL DUP2 MSTORE PUSH1 0x20 PUSH1 0x4 DUP3 ADD MSTORE PUSH1 0x24 DUP1 DUP3 ADD MSTORE PUSH32 0x455850657269656E63653A20496E73756666696369656E74204558502062616C PUSH1 0x44 DUP3 ADD MSTORE PUSH4 0x616E6365 PUSH1 0xE0 SHL PUSH1 0x64 DUP3 ADD MSTORE PUSH1 0x84 ADD PUSH2 0x3B9 JUMP JUMPDEST PUSH1 0x6 DUP1 SLOAD SWAP1 PUSH1 0x0 PUSH2 0x77E DUP4 PUSH2 0x17F5 JUMP JUMPDEST SWAP1 SWAP2 SSTORE POP PUSH2 0x78C DUP4 DUP3 PUSH2 0xA68 JUMP JUMPDEST PUSH1 0x40 MLOAD PUSH1 0x1 PUSH1 0x1 PUSH1 0xA0 SHL SUB DUP5 AND SWAP1 PUSH32 0xBD6E4913107C69E3C4FA02301595D1F386394FBEFAD6B73A2DBC6463EE96A19A SWAP1 PUSH1 0x0 SWAP1 LOG2 POP POP POP JUMP JUMPDEST PUSH1 0x60 PUSH2 0x2B4 DUP3 PUSH2 0xA76 JUMP JUMPDEST CALLER PUSH2 0x7E3 PUSH1 0x5 SLOAD PUSH1 0x1 PUSH1 0x1 PUSH1 0xA0 SHL SUB AND SWAP1 JUMP JUMPDEST PUSH1 0x1 PUSH1 0x1 PUSH1 0xA0 SHL SUB AND EQ PUSH2 0x809 JUMPI PUSH1 0x40 MLOAD PUSH3 0x461BCD PUSH1 0xE5 SHL DUP2 MSTORE PUSH1 0x4 ADD PUSH2 0x3B9 SWAP1 PUSH2 0x177D JUMP JUMPDEST PUSH1 0x1 PUSH1 0x1 PUSH1 0xA0 SHL SUB DUP2 AND PUSH2 0x86A JUMPI PUSH1 0x40 MLOAD PUSH3 0x461BCD PUSH1 0xE5 SHL DUP2 MSTORE PUSH1 0x20 PUSH1 0x4 DUP3 ADD MSTORE PUSH1 0x22 PUSH1 0x24 DUP3 ADD MSTORE PUSH32 0x496E76616C69642045585020546F6B656E20436F6E7472616374206164647265 PUSH1 0x44 DUP3 ADD MSTORE PUSH2 0x7373 PUSH1 0xF0 SHL PUSH1 0x64 DUP3 ADD MSTORE PUSH1 0x84 ADD PUSH2 0x3B9 JUMP JUMPDEST PUSH1 0x7 DUP1 SLOAD PUSH1 0x1 PUSH1 0x1 PUSH1 0xA0 SHL SUB NOT AND PUSH1 0x1 PUSH1 0x1 PUSH1 0xA0 SHL SUB SWAP3 SWAP1 SWAP3 AND SWAP2 SWAP1 SWAP2 OR SWAP1 SSTORE JUMP JUMPDEST PUSH1 0x0 PUSH4 0x1FFC9A7 PUSH1 0xE0 SHL PUSH1 0x1 PUSH1 0x1 PUSH1 0xE0 SHL SUB NOT DUP4 AND EQ DUP1 PUSH2 0x2B4 JUMPI POP POP PUSH1 0x1 PUSH1 0x1 PUSH1 0xE0 SHL SUB NOT AND PUSH1 0x0 SWAP1 DUP2 MSTORE PUSH1 0x20 DUP2 SWAP1 MSTORE PUSH1 0x40 SWAP1 KECCAK256 SLOAD PUSH1 0xFF AND SWAP1 JUMP JUMPDEST PUSH1 0x60 PUSH1 0x0 PUSH2 0x933 PUSH1 0x40 MLOAD DUP1 PUSH2 0x180 ADD PUSH1 0x40 MSTORE DUP1 PUSH2 0x157 DUP2 MSTORE PUSH1 0x20 ADD PUSH2 0x1E6D PUSH2 0x157 SWAP2 CODECOPY PUSH2 0x8F4 DUP6 PUSH2 0xAED JUMP JUMPDEST PUSH1 0x40 MLOAD DUP1 PUSH1 0xA0 ADD PUSH1 0x40 MSTORE DUP1 PUSH1 0x64 DUP2 MSTORE PUSH1 0x20 ADD PUSH2 0x1FC4 PUSH1 0x64 SWAP2 CODECOPY PUSH1 0x40 MLOAD PUSH1 0x20 ADD PUSH2 0x91F SWAP4 SWAP3 SWAP2 SWAP1 PUSH2 0x182A JUMP JUMPDEST PUSH1 0x40 MLOAD PUSH1 0x20 DUP2 DUP4 SUB SUB DUP2 MSTORE SWAP1 PUSH1 0x40 MSTORE PUSH2 0xBEE JUMP JUMPDEST SWAP1 POP DUP1 PUSH1 0x40 MLOAD PUSH1 0x20 ADD PUSH2 0x946 SWAP2 SWAP1 PUSH2 0x186D JUMP JUMPDEST PUSH1 0x40 MLOAD PUSH1 0x20 DUP2 DUP4 SUB SUB DUP2 MSTORE SWAP1 PUSH1 0x40 MSTORE SWAP2 POP POP SWAP2 SWAP1 POP JUMP JUMPDEST PUSH1 0x60 PUSH1 0x0 PUSH2 0x96A DUP5 PUSH2 0x8C8 JUMP JUMPDEST SWAP1 POP PUSH1 0x0 PUSH2 0x977 DUP6 PUSH2 0xD41 JUMP JUMPDEST SWAP1 POP PUSH1 0x0 PUSH2 0x983 PUSH2 0xE27 JUMP JUMPDEST SWAP1 POP PUSH1 0x0 PUSH2 0x9B8 DUP3 DUP6 PUSH2 0x9A6 PUSH2 0x9A1 PUSH8 0xDE0B6B3A7640000 DUP13 PUSH2 0x18C8 JUMP JUMPDEST PUSH2 0xAED JUMP JUMPDEST PUSH1 0x40 MLOAD PUSH1 0x20 ADD PUSH2 0x91F SWAP4 SWAP3 SWAP2 SWAP1 PUSH2 0x1911 JUMP JUMPDEST PUSH1 0x40 MLOAD PUSH1 0x20 ADD PUSH2 0x9C8 SWAP2 SWAP1 PUSH2 0x1A78 JUMP JUMPDEST PUSH1 0x40 MLOAD PUSH1 0x20 DUP2 DUP4 SUB SUB DUP2 MSTORE SWAP1 PUSH1 0x40 MSTORE SWAP1 POP PUSH1 0x0 PUSH2 0x9E4 DUP10 PUSH2 0xAED JUMP JUMPDEST DUP5 PUSH1 0x40 MLOAD PUSH1 0x20 ADD PUSH2 0x9F6 SWAP3 SWAP2 SWAP1 PUSH2 0x1AB6 JUMP JUMPDEST PUSH1 0x40 MLOAD PUSH1 0x20 DUP2 DUP4 SUB SUB DUP2 MSTORE SWAP1 PUSH1 0x40 MSTORE SWAP1 POP PUSH1 0x0 DUP2 DUP9 DUP8 DUP6 PUSH1 0x40 MLOAD PUSH1 0x20 ADD PUSH2 0xA20 SWAP5 SWAP4 SWAP3 SWAP2 SWAP1 PUSH2 0x1C76 JUMP JUMPDEST PUSH1 0x40 MLOAD PUSH1 0x20 DUP2 DUP4 SUB SUB DUP2 MSTORE SWAP1 PUSH1 0x40 MSTORE SWAP1 POP PUSH2 0xA3A DUP2 PUSH2 0xBEE JUMP JUMPDEST PUSH1 0x40 MLOAD PUSH1 0x20 ADD PUSH2 0xA4A SWAP2 SWAP1 PUSH2 0x1D1E JUMP JUMPDEST PUSH1 0x40 MLOAD PUSH1 0x20 DUP2 DUP4 SUB SUB DUP2 MSTORE SWAP1 PUSH1 0x40 MSTORE SWAP7 POP POP POP POP POP POP POP SWAP4 SWAP3 POP POP POP JUMP JUMPDEST PUSH2 0xA72 DUP3 DUP3 PUSH2 0x12D9 JUMP JUMPDEST POP POP JUMP JUMPDEST PUSH1 0x60 PUSH1 0x0 PUSH2 0xA83 DUP4 PUSH2 0x8C8 JUMP JUMPDEST PUSH1 0x40 DUP1 MLOAD DUP1 DUP3 ADD SWAP1 SWAP2 MSTORE PUSH1 0x2 DUP2 MSTORE PUSH2 0x4949 PUSH1 0xF0 SHL PUSH1 0x20 DUP3 ADD MSTORE SWAP1 SWAP2 POP PUSH1 0x0 PUSH2 0xAA9 PUSH2 0xE27 JUMP JUMPDEST SWAP1 POP PUSH1 0x0 PUSH2 0xAC3 DUP3 DUP6 PUSH1 0x40 MLOAD PUSH1 0x20 ADD PUSH2 0x91F SWAP3 SWAP2 SWAP1 PUSH2 0x1D63 JUMP JUMPDEST PUSH1 0x40 MLOAD PUSH1 0x20 ADD PUSH2 0xAD3 SWAP2 SWAP1 PUSH2 0x1A78 JUMP JUMPDEST PUSH1 0x40 DUP1 MLOAD PUSH1 0x1F NOT DUP2 DUP5 SUB ADD DUP2 MSTORE SWAP2 SWAP1 MSTORE SWAP7 SWAP6 POP POP POP POP POP POP JUMP JUMPDEST PUSH1 0x60 DUP2 PUSH1 0x0 SUB PUSH2 0xB14 JUMPI POP POP PUSH1 0x40 DUP1 MLOAD DUP1 DUP3 ADD SWAP1 SWAP2 MSTORE PUSH1 0x1 DUP2 MSTORE PUSH1 0x3 PUSH1 0xFC SHL PUSH1 0x20 DUP3 ADD MSTORE SWAP1 JUMP JUMPDEST DUP2 PUSH1 0x0 JUMPDEST DUP2 ISZERO PUSH2 0xB3E JUMPI DUP1 PUSH2 0xB28 DUP2 PUSH2 0x17F5 JUMP JUMPDEST SWAP2 POP PUSH2 0xB37 SWAP1 POP PUSH1 0xA DUP4 PUSH2 0x18C8 JUMP JUMPDEST SWAP2 POP PUSH2 0xB18 JUMP JUMPDEST PUSH1 0x0 DUP2 PUSH8 0xFFFFFFFFFFFFFFFF DUP2 GT ISZERO PUSH2 0xB59 JUMPI PUSH2 0xB59 PUSH2 0x161E JUMP JUMPDEST PUSH1 0x40 MLOAD SWAP1 DUP1 DUP3 MSTORE DUP1 PUSH1 0x1F ADD PUSH1 0x1F NOT AND PUSH1 0x20 ADD DUP3 ADD PUSH1 0x40 MSTORE DUP1 ISZERO PUSH2 0xB83 JUMPI PUSH1 0x20 DUP3 ADD DUP2 DUP1 CALLDATASIZE DUP4 CALLDATACOPY ADD SWAP1 POP JUMPDEST POP SWAP1 POP JUMPDEST DUP5 ISZERO PUSH2 0x620 JUMPI PUSH2 0xB98 PUSH1 0x1 DUP4 PUSH2 0x1DF4 JUMP JUMPDEST SWAP2 POP PUSH2 0xBA5 PUSH1 0xA DUP7 PUSH2 0x1E0B JUMP JUMPDEST PUSH2 0xBB0 SWAP1 PUSH1 0x30 PUSH2 0x1E1F JUMP JUMPDEST PUSH1 0xF8 SHL DUP2 DUP4 DUP2 MLOAD DUP2 LT PUSH2 0xBC5 JUMPI PUSH2 0xBC5 PUSH2 0x1E37 JUMP JUMPDEST PUSH1 0x20 ADD ADD SWAP1 PUSH1 0x1 PUSH1 0x1 PUSH1 0xF8 SHL SUB NOT AND SWAP1 DUP2 PUSH1 0x0 BYTE SWAP1 MSTORE8 POP PUSH2 0xBE7 PUSH1 0xA DUP7 PUSH2 0x18C8 JUMP JUMPDEST SWAP5 POP PUSH2 0xB87 JUMP JUMPDEST PUSH1 0x60 DUP2 MLOAD PUSH1 0x0 SUB PUSH2 0xC0D JUMPI POP POP PUSH1 0x40 DUP1 MLOAD PUSH1 0x20 DUP2 ADD SWAP1 SWAP2 MSTORE PUSH1 0x0 DUP2 MSTORE SWAP1 JUMP JUMPDEST PUSH1 0x0 PUSH1 0x40 MLOAD DUP1 PUSH1 0x60 ADD PUSH1 0x40 MSTORE DUP1 PUSH1 0x40 DUP2 MSTORE PUSH1 0x20 ADD PUSH2 0x2028 PUSH1 0x40 SWAP2 CODECOPY SWAP1 POP PUSH1 0x0 PUSH1 0x3 DUP5 MLOAD PUSH1 0x2 PUSH2 0xC3C SWAP2 SWAP1 PUSH2 0x1E1F JUMP JUMPDEST PUSH2 0xC46 SWAP2 SWAP1 PUSH2 0x18C8 JUMP JUMPDEST PUSH2 0xC51 SWAP1 PUSH1 0x4 PUSH2 0x1E4D JUMP JUMPDEST PUSH8 0xFFFFFFFFFFFFFFFF DUP2 GT ISZERO PUSH2 0xC69 JUMPI PUSH2 0xC69 PUSH2 0x161E JUMP JUMPDEST PUSH1 0x40 MLOAD SWAP1 DUP1 DUP3 MSTORE DUP1 PUSH1 0x1F ADD PUSH1 0x1F NOT AND PUSH1 0x20 ADD DUP3 ADD PUSH1 0x40 MSTORE DUP1 ISZERO PUSH2 0xC93 JUMPI PUSH1 0x20 DUP3 ADD DUP2 DUP1 CALLDATASIZE DUP4 CALLDATACOPY ADD SWAP1 POP JUMPDEST POP SWAP1 POP PUSH1 0x1 DUP3 ADD PUSH1 0x20 DUP3 ADD DUP6 DUP7 MLOAD DUP8 ADD JUMPDEST DUP1 DUP3 LT ISZERO PUSH2 0xCFF JUMPI PUSH1 0x3 DUP3 ADD SWAP2 POP DUP2 MLOAD PUSH1 0x3F DUP2 PUSH1 0x12 SHR AND DUP6 ADD MLOAD DUP5 MSTORE8 PUSH1 0x1 DUP5 ADD SWAP4 POP PUSH1 0x3F DUP2 PUSH1 0xC SHR AND DUP6 ADD MLOAD DUP5 MSTORE8 PUSH1 0x1 DUP5 ADD SWAP4 POP PUSH1 0x3F DUP2 PUSH1 0x6 SHR AND DUP6 ADD MLOAD DUP5 MSTORE8 PUSH1 0x1 DUP5 ADD SWAP4 POP PUSH1 0x3F DUP2 AND DUP6 ADD MLOAD DUP5 MSTORE8 POP PUSH1 0x1 DUP4 ADD SWAP3 POP PUSH2 0xCA4 JUMP JUMPDEST POP POP PUSH1 0x3 DUP7 MLOAD MOD PUSH1 0x1 DUP2 EQ PUSH2 0xD1B JUMPI PUSH1 0x2 DUP2 EQ PUSH2 0xD2E JUMPI PUSH2 0xD36 JUMP JUMPDEST PUSH1 0x3D PUSH1 0x1 DUP4 SUB MSTORE8 PUSH1 0x3D PUSH1 0x2 DUP4 SUB MSTORE8 PUSH2 0xD36 JUMP JUMPDEST PUSH1 0x3D PUSH1 0x1 DUP4 SUB MSTORE8 JUMPDEST POP SWAP2 SWAP6 SWAP5 POP POP POP POP POP JUMP JUMPDEST PUSH1 0x60 PUSH1 0x14 DUP3 GT PUSH2 0xD68 JUMPI POP POP PUSH1 0x40 DUP1 MLOAD DUP1 DUP3 ADD SWAP1 SWAP2 MSTORE PUSH1 0x1 DUP2 MSTORE PUSH1 0x49 PUSH1 0xF8 SHL PUSH1 0x20 DUP3 ADD MSTORE SWAP1 JUMP JUMPDEST PUSH1 0x14 DUP3 GT DUP1 ISZERO PUSH2 0xD79 JUMPI POP PUSH1 0x28 DUP3 GT ISZERO JUMPDEST ISZERO PUSH2 0xD9C JUMPI POP POP PUSH1 0x40 DUP1 MLOAD DUP1 DUP3 ADD SWAP1 SWAP2 MSTORE PUSH1 0x2 DUP2 MSTORE PUSH2 0x4949 PUSH1 0xF0 SHL PUSH1 0x20 DUP3 ADD MSTORE SWAP1 JUMP JUMPDEST PUSH1 0x28 DUP3 GT DUP1 ISZERO PUSH2 0xDAD JUMPI POP PUSH1 0x3C DUP3 GT ISZERO JUMPDEST ISZERO PUSH2 0xDD1 JUMPI POP POP PUSH1 0x40 DUP1 MLOAD DUP1 DUP3 ADD SWAP1 SWAP2 MSTORE PUSH1 0x3 DUP2 MSTORE PUSH3 0x494949 PUSH1 0xE8 SHL PUSH1 0x20 DUP3 ADD MSTORE SWAP1 JUMP JUMPDEST PUSH1 0x3C DUP3 GT DUP1 ISZERO PUSH2 0xDE2 JUMPI POP PUSH1 0x50 DUP3 GT ISZERO JUMPDEST ISZERO PUSH2 0xE05 JUMPI POP POP PUSH1 0x40 DUP1 MLOAD DUP1 DUP3 ADD SWAP1 SWAP2 MSTORE PUSH1 0x2 DUP2 MSTORE PUSH2 0x24AB PUSH1 0xF1 SHL PUSH1 0x20 DUP3 ADD MSTORE SWAP1 JUMP JUMPDEST POP POP PUSH1 0x40 DUP1 MLOAD DUP1 DUP3 ADD SWAP1 SWAP2 MSTORE PUSH1 0x1 DUP2 MSTORE PUSH1 0x2B PUSH1 0xF9 SHL PUSH1 0x20 DUP3 ADD MSTORE SWAP1 JUMP JUMPDEST SWAP2 SWAP1 POP JUMP JUMPDEST PUSH1 0x60 PUSH1 0x0 PUSH1 0x40 MLOAD PUSH1 0x20 ADD PUSH2 0x12C3 SWAP1 PUSH32 0x3C7374796C653E202A2C3A61667465722C3A6265666F72657B626F782D73697A DUP2 MSTORE PUSH32 0x696E673A626F726465722D626F787D626F64797B6865696768743A3130307668 PUSH1 0x20 DUP3 ADD MSTORE PUSH32 0x3B6261636B67726F756E643A233030307D2E63656E7465727B6865696768743A PUSH1 0x40 DUP3 ADD MSTORE PUSH32 0x313030253B646973706C61793A666C65783B616C69676E2D6974656D733A6365 PUSH1 0x60 DUP3 ADD MSTORE PUSH32 0x6E7465723B6A7573746966792D636F6E74656E743A63656E7465723B74657874 PUSH1 0x80 DUP3 ADD MSTORE PUSH32 0x2D616C69676E3A63656E7465727D2E636972636C657B706F736974696F6E3A72 PUSH1 0xA0 DUP3 ADD MSTORE PUSH32 0x656C61746976653B77696474683A32303070783B6865696768743A3230307078 PUSH1 0xC0 DUP3 ADD MSTORE PUSH32 0x3B636F6C6F723A236666663B6261636B67726F756E643A233030303B626F7264 PUSH1 0xE0 DUP3 ADD MSTORE PUSH32 0x65722D7261646975733A3530253B626F726465723A32707820736F6C69647D2E PUSH2 0x100 DUP3 ADD MSTORE PUSH32 0x6C6F676F7B666F6E742D73697A653A31343070783B6C696E652D686569676874 PUSH2 0x120 DUP3 ADD MSTORE PUSH32 0x3A32303070783B766572746963616C2D616C69676E3A6D6964646C657D2E6275 PUSH2 0x140 DUP3 ADD MSTORE PUSH32 0x74746F6E7B706F736974696F6E3A6162736F6C7574653B626F74746F6D3A3230 PUSH2 0x160 DUP3 ADD MSTORE PUSH32 0x70783B6C6566743A303B72696768743A303B70616464696E673A3870783B666F PUSH2 0x180 DUP3 ADD MSTORE PUSH32 0x6E742D7765696768743A3730303B746578742D7472616E73666F726D3A757070 PUSH2 0x1A0 DUP3 ADD MSTORE PUSH32 0x6572636173653B6261636B67726F756E643A233030303B626F726465723A3270 PUSH2 0x1C0 DUP3 ADD MSTORE PUSH32 0x7820736F6C69643B616E696D6174696F6E3A736C69646520312E347320656173 PUSH2 0x1E0 DUP3 ADD MSTORE PUSH32 0x652D696E2D6F757420696E66696E6974653B637572736F723A706F696E746572 PUSH2 0x200 DUP3 ADD MSTORE PUSH32 0x7D2E627574746F6E3A686F7665727B636F6C6F723A233030303B6261636B6772 PUSH2 0x220 DUP3 ADD MSTORE PUSH32 0x6F756E643A236666663B626F726465722D636F6C6F723A236666667D406B6579 PUSH2 0x240 DUP3 ADD MSTORE PUSH32 0x6672616D657320736C6964657B30257B7472616E73666F726D3A7472616E736C PUSH2 0x260 DUP3 ADD MSTORE PUSH32 0x617465582831307078297D3530257B7472616E73666F726D3A7472616E736C61 PUSH2 0x280 DUP3 ADD MSTORE PUSH32 0x746558282D31307078297D313030257B7472616E73666F726D3A7472616E736C PUSH2 0x2A0 DUP3 ADD MSTORE PUSH32 0x617465582831307078297D7D2E746578747B706F736974696F6E3A6162736F6C PUSH2 0x2C0 DUP3 ADD MSTORE PUSH32 0x7574653B746F703A303B6C6566743A303B77696474683A313030253B68656967 PUSH2 0x2E0 DUP3 ADD MSTORE PUSH32 0x68743A313030253B666F6E742D73697A653A323470783B666F6E742D77656967 PUSH2 0x300 DUP3 ADD MSTORE PUSH32 0x68743A3730303B746578742D7472616E73666F726D3A7570706572636173653B PUSH2 0x320 DUP3 ADD MSTORE PUSH32 0x616E696D6174696F6E3A726F7461746520313473206C696E65617220696E6669 PUSH2 0x340 DUP3 ADD MSTORE PUSH32 0x6E6974653B66696C6C3A236666667D406B65796672616D657320726F74617465 PUSH2 0x360 DUP3 ADD MSTORE PUSH32 0x7B66726F6D7B7472616E73666F726D3A726F746174652830297D746F7B747261 PUSH2 0x380 DUP3 ADD MSTORE PUSH32 0x6E73666F726D3A726F7461746528333630646567297D7D203C2F7374796C653E PUSH2 0x3A0 DUP3 ADD MSTORE PUSH2 0x3C0 ADD SWAP1 JUMP JUMPDEST PUSH1 0x40 DUP1 MLOAD PUSH1 0x1F NOT DUP2 DUP5 SUB ADD DUP2 MSTORE SWAP2 SWAP1 MSTORE SWAP3 SWAP2 POP POP JUMP JUMPDEST PUSH1 0x1 PUSH1 0x1 PUSH1 0xA0 SHL SUB DUP3 AND PUSH2 0x132F JUMPI PUSH1 0x40 MLOAD PUSH3 0x461BCD PUSH1 0xE5 SHL DUP2 MSTORE PUSH1 0x20 PUSH1 0x4 DUP3 ADD DUP2 SWAP1 MSTORE PUSH1 0x24 DUP3 ADD MSTORE PUSH32 0x4552433732313A206D696E7420746F20746865207A65726F2061646472657373 PUSH1 0x44 DUP3 ADD MSTORE PUSH1 0x64 ADD PUSH2 0x3B9 JUMP JUMPDEST PUSH1 0x0 DUP2 DUP2 MSTORE PUSH1 0x3 PUSH1 0x20 MSTORE PUSH1 0x40 SWAP1 KECCAK256 SLOAD PUSH1 0x1 PUSH1 0x1 PUSH1 0xA0 SHL SUB AND ISZERO PUSH2 0x1394 JUMPI PUSH1 0x40 MLOAD PUSH3 0x461BCD PUSH1 0xE5 SHL DUP2 MSTORE PUSH1 0x20 PUSH1 0x4 DUP3 ADD MSTORE PUSH1 0x1C PUSH1 0x24 DUP3 ADD MSTORE PUSH32 0x4552433732313A20746F6B656E20616C7265616479206D696E74656400000000 PUSH1 0x44 DUP3 ADD MSTORE PUSH1 0x64 ADD PUSH2 0x3B9 JUMP JUMPDEST PUSH1 0x1 PUSH1 0x1 PUSH1 0xA0 SHL SUB DUP3 AND PUSH1 0x0 SWAP1 DUP2 MSTORE PUSH1 0x4 PUSH1 0x20 MSTORE PUSH1 0x40 SWAP1 KECCAK256 SLOAD ISZERO PUSH2 0x1416 JUMPI PUSH1 0x40 MLOAD PUSH3 0x461BCD PUSH1 0xE5 SHL DUP2 MSTORE PUSH1 0x20 PUSH1 0x4 DUP3 ADD MSTORE PUSH1 0x33 PUSH1 0x24 DUP3 ADD MSTORE PUSH32 0x4552433732313A204F6E6C79206F6E6520455850657269656E63655669657765 PUSH1 0x44 DUP3 ADD MSTORE PUSH19 0x7220284E465429207065722061646472657373 PUSH1 0x68 SHL PUSH1 0x64 DUP3 ADD MSTORE PUSH1 0x84 ADD PUSH2 0x3B9 JUMP JUMPDEST PUSH1 0x1 PUSH1 0x1 PUSH1 0xA0 SHL SUB DUP3 AND PUSH1 0x0 SWAP1 DUP2 MSTORE PUSH1 0x4 PUSH1 0x20 MSTORE PUSH1 0x40 DUP2 KECCAK256 DUP1 SLOAD PUSH1 0x1 SWAP3 SWAP1 PUSH2 0x143F SWAP1 DUP5 SWAP1 PUSH2 0x1E1F JUMP JUMPDEST SWAP1 SWAP2 SSTORE POP POP PUSH1 0x0 DUP2 DUP2 MSTORE PUSH1 0x3 PUSH1 0x20 MSTORE PUSH1 0x40 DUP1 DUP3 KECCAK256 DUP1 SLOAD PUSH1 0x1 PUSH1 0x1 PUSH1 0xA0 SHL SUB NOT AND PUSH1 0x1 PUSH1 0x1 PUSH1 0xA0 SHL SUB DUP7 AND SWAP1 DUP2 OR SWAP1 SWAP2 SSTORE SWAP1 MLOAD DUP4 SWAP3 SWAP1 PUSH32 0xDDF252AD1BE2C89B69C2B068FC378DAA952BA7F163C4A11628F55A4DF523B3EF SWAP1 DUP3 SWAP1 LOG4 POP POP JUMP JUMPDEST PUSH1 0x0 PUSH1 0x20 DUP3 DUP5 SUB SLT ISZERO PUSH2 0x14AF JUMPI PUSH1 0x0 DUP1 REVERT JUMPDEST DUP2 CALLDATALOAD PUSH1 0x1 PUSH1 0x1 PUSH1 0xE0 SHL SUB NOT DUP2 AND DUP2 EQ PUSH2 0x14C7 JUMPI PUSH1 0x0 DUP1 REVERT JUMPDEST SWAP4 SWAP3 POP POP POP JUMP JUMPDEST PUSH1 0x0 JUMPDEST DUP4 DUP2 LT ISZERO PUSH2 0x14E9 JUMPI DUP2 DUP2 ADD MLOAD DUP4 DUP3 ADD MSTORE PUSH1 0x20 ADD PUSH2 0x14D1 JUMP JUMPDEST DUP4 DUP2 GT ISZERO PUSH2 0x14F8 JUMPI PUSH1 0x0 DUP5 DUP5 ADD MSTORE JUMPDEST POP POP POP POP JUMP JUMPDEST PUSH1 0x20 DUP2 MSTORE PUSH1 0x0 DUP3 MLOAD DUP1 PUSH1 0x20 DUP5 ADD MSTORE PUSH2 0x151D DUP2 PUSH1 0x40 DUP6 ADD PUSH1 0x20 DUP8 ADD PUSH2 0x14CE JUMP JUMPDEST PUSH1 0x1F ADD PUSH1 0x1F NOT AND SWAP2 SWAP1 SWAP2 ADD PUSH1 0x40 ADD SWAP3 SWAP2 POP POP JUMP JUMPDEST PUSH1 0x0 PUSH1 0x20 DUP3 DUP5 SUB SLT ISZERO PUSH2 0x1543 JUMPI PUSH1 0x0 DUP1 REVERT JUMPDEST POP CALLDATALOAD SWAP2 SWAP1 POP JUMP JUMPDEST DUP1 CALLDATALOAD PUSH1 0x1 PUSH1 0x1 PUSH1 0xA0 SHL SUB DUP2 AND DUP2 EQ PUSH2 0xE22 JUMPI PUSH1 0x0 DUP1 REVERT JUMPDEST PUSH1 0x0 DUP1 PUSH1 0x40 DUP4 DUP6 SUB SLT ISZERO PUSH2 0x1574 JUMPI PUSH1 0x0 DUP1 REVERT JUMPDEST PUSH2 0x157D DUP4 PUSH2 0x154A JUMP JUMPDEST SWAP5 PUSH1 0x20 SWAP4 SWAP1 SWAP4 ADD CALLDATALOAD SWAP4 POP POP POP JUMP JUMPDEST PUSH1 0x0 DUP1 PUSH1 0x0 PUSH1 0x60 DUP5 DUP7 SUB SLT ISZERO PUSH2 0x15A0 JUMPI PUSH1 0x0 DUP1 REVERT JUMPDEST PUSH2 0x15A9 DUP5 PUSH2 0x154A JUMP JUMPDEST SWAP3 POP PUSH2 0x15B7 PUSH1 0x20 DUP6 ADD PUSH2 0x154A JUMP JUMPDEST SWAP2 POP PUSH1 0x40 DUP5 ADD CALLDATALOAD SWAP1 POP SWAP3 POP SWAP3 POP SWAP3 JUMP JUMPDEST PUSH1 0x0 DUP1 PUSH1 0x40 DUP4 DUP6 SUB SLT ISZERO PUSH2 0x15DA JUMPI PUSH1 0x0 DUP1 REVERT JUMPDEST PUSH2 0x15E3 DUP4 PUSH2 0x154A JUMP JUMPDEST SWAP2 POP PUSH1 0x20 DUP4 ADD CALLDATALOAD DUP1 ISZERO ISZERO DUP2 EQ PUSH2 0x15F8 JUMPI PUSH1 0x0 DUP1 REVERT JUMPDEST DUP1 SWAP2 POP POP SWAP3 POP SWAP3 SWAP1 POP JUMP JUMPDEST PUSH1 0x0 PUSH1 0x20 DUP3 DUP5 SUB SLT ISZERO PUSH2 0x1615 JUMPI PUSH1 0x0 DUP1 REVERT JUMPDEST PUSH2 0x14C7 DUP3 PUSH2 0x154A JUMP JUMPDEST PUSH4 0x4E487B71 PUSH1 0xE0 SHL PUSH1 0x0 MSTORE PUSH1 0x41 PUSH1 0x4 MSTORE PUSH1 0x24 PUSH1 0x0 REVERT JUMPDEST PUSH1 0x0 DUP1 PUSH1 0x0 DUP1 PUSH1 0x80 DUP6 DUP8 SUB SLT ISZERO PUSH2 0x164A JUMPI PUSH1 0x0 DUP1 REVERT JUMPDEST PUSH2 0x1653 DUP6 PUSH2 0x154A JUMP JUMPDEST SWAP4 POP PUSH2 0x1661 PUSH1 0x20 DUP7 ADD PUSH2 0x154A JUMP JUMPDEST SWAP3 POP PUSH1 0x40 DUP6 ADD CALLDATALOAD SWAP2 POP PUSH1 0x60 DUP6 ADD CALLDATALOAD PUSH8 0xFFFFFFFFFFFFFFFF DUP1 DUP3 GT ISZERO PUSH2 0x1685 JUMPI PUSH1 0x0 DUP1 REVERT JUMPDEST DUP2 DUP8 ADD SWAP2 POP DUP8 PUSH1 0x1F DUP4 ADD SLT PUSH2 0x1699 JUMPI PUSH1 0x0 DUP1 REVERT JUMPDEST DUP2 CALLDATALOAD DUP2 DUP2 GT ISZERO PUSH2 0x16AB JUMPI PUSH2 0x16AB PUSH2 0x161E JUMP JUMPDEST PUSH1 0x40 MLOAD PUSH1 0x1F DUP3 ADD PUSH1 0x1F NOT SWAP1 DUP2 AND PUSH1 0x3F ADD AND DUP2 ADD SWAP1 DUP4 DUP3 GT DUP2 DUP4 LT OR ISZERO PUSH2 0x16D3 JUMPI PUSH2 0x16D3 PUSH2 0x161E JUMP JUMPDEST DUP2 PUSH1 0x40 MSTORE DUP3 DUP2 MSTORE DUP11 PUSH1 0x20 DUP5 DUP8 ADD ADD GT ISZERO PUSH2 0x16EC JUMPI PUSH1 0x0 DUP1 REVERT JUMPDEST DUP3 PUSH1 0x20 DUP7 ADD PUSH1 0x20 DUP4 ADD CALLDATACOPY PUSH1 0x0 PUSH1 0x20 DUP5 DUP4 ADD ADD MSTORE DUP1 SWAP6 POP POP POP POP POP POP SWAP3 SWAP6 SWAP2 SWAP5 POP SWAP3 POP JUMP JUMPDEST PUSH1 0x0 DUP1 PUSH1 0x40 DUP4 DUP6 SUB SLT ISZERO PUSH2 0x1723 JUMPI PUSH1 0x0 DUP1 REVERT JUMPDEST PUSH2 0x172C DUP4 PUSH2 0x154A JUMP JUMPDEST SWAP2 POP PUSH2 0x173A PUSH1 0x20 DUP5 ADD PUSH2 0x154A JUMP JUMPDEST SWAP1 POP SWAP3 POP SWAP3 SWAP1 POP JUMP JUMPDEST PUSH1 0x1 DUP2 DUP2 SHR SWAP1 DUP3 AND DUP1 PUSH2 0x1757 JUMPI PUSH1 0x7F DUP3 AND SWAP2 POP JUMPDEST PUSH1 0x20 DUP3 LT DUP2 SUB PUSH2 0x1777 JUMPI PUSH4 0x4E487B71 PUSH1 0xE0 SHL PUSH1 0x0 MSTORE PUSH1 0x22 PUSH1 0x4 MSTORE PUSH1 0x24 PUSH1 0x0 REVERT JUMPDEST POP SWAP2 SWAP1 POP JUMP JUMPDEST PUSH1 0x20 DUP1 DUP3 MSTORE PUSH1 0x29 SWAP1 DUP3 ADD MSTORE PUSH32 0x455850546F6B656E2028416363657373436F6E74726F6C293A204E6F74206175 PUSH1 0x40 DUP3 ADD MSTORE PUSH9 0x3A3437B934BD32B217 PUSH1 0xB9 SHL PUSH1 0x60 DUP3 ADD MSTORE PUSH1 0x80 ADD SWAP1 JUMP JUMPDEST PUSH1 0x0 PUSH1 0x20 DUP3 DUP5 SUB SLT ISZERO PUSH2 0x17D8 JUMPI PUSH1 0x0 DUP1 REVERT JUMPDEST POP MLOAD SWAP2 SWAP1 POP JUMP JUMPDEST PUSH4 0x4E487B71 PUSH1 0xE0 SHL PUSH1 0x0 MSTORE PUSH1 0x11 PUSH1 0x4 MSTORE PUSH1 0x24 PUSH1 0x0 REVERT JUMPDEST PUSH1 0x0 PUSH1 0x1 DUP3 ADD PUSH2 0x1807 JUMPI PUSH2 0x1807 PUSH2 0x17DF JUMP JUMPDEST POP PUSH1 0x1 ADD SWAP1 JUMP JUMPDEST PUSH1 0x0 DUP2 MLOAD PUSH2 0x1820 DUP2 DUP6 PUSH1 0x20 DUP7 ADD PUSH2 0x14CE JUMP JUMPDEST SWAP3 SWAP1 SWAP3 ADD SWAP3 SWAP2 POP POP JUMP JUMPDEST PUSH1 0x0 DUP5 MLOAD PUSH2 0x183C DUP2 DUP5 PUSH1 0x20 DUP10 ADD PUSH2 0x14CE JUMP JUMPDEST DUP5 MLOAD SWAP1 DUP4 ADD SWAP1 PUSH2 0x1850 DUP2 DUP4 PUSH1 0x20 DUP10 ADD PUSH2 0x14CE JUMP JUMPDEST DUP5 MLOAD SWAP2 ADD SWAP1 PUSH2 0x1863 DUP2 DUP4 PUSH1 0x20 DUP9 ADD PUSH2 0x14CE JUMP JUMPDEST ADD SWAP6 SWAP5 POP POP POP POP POP JUMP JUMPDEST PUSH32 0x646174613A696D6167652F7376672B786D6C3B6261736536342C000000000000 DUP2 MSTORE PUSH1 0x0 DUP3 MLOAD PUSH2 0x18A5 DUP2 PUSH1 0x1A DUP6 ADD PUSH1 0x20 DUP8 ADD PUSH2 0x14CE JUMP JUMPDEST SWAP2 SWAP1 SWAP2 ADD PUSH1 0x1A ADD SWAP3 SWAP2 POP POP JUMP JUMPDEST PUSH4 0x4E487B71 PUSH1 0xE0 SHL PUSH1 0x0 MSTORE PUSH1 0x12 PUSH1 0x4 MSTORE PUSH1 0x24 PUSH1 0x0 REVERT JUMPDEST PUSH1 0x0 DUP3 PUSH2 0x18D7 JUMPI PUSH2 0x18D7 PUSH2 0x18B2 JUMP JUMPDEST POP DIV SWAP1 JUMP JUMPDEST PUSH32 0x3C6F626A65637420747970653D22696D6167652F7376672B786D6C2220646174 DUP2 MSTORE PUSH3 0x309E91 PUSH1 0xE9 SHL PUSH1 0x20 DUP3 ADD MSTORE PUSH1 0x23 ADD SWAP1 JUMP JUMPDEST PUSH21 0x1E10A227A1AA2CA82290343A36B61F1E343A36B61F PUSH1 0x59 SHL DUP2 MSTORE PUSH1 0x0 DUP5 MLOAD PUSH2 0x1941 DUP2 PUSH1 0x15 DUP6 ADD PUSH1 0x20 DUP10 ADD PUSH2 0x14CE JUMP JUMPDEST PUSH32 0x3C64697620636C6173733D2263656E746572223E3C64697620636C6173733D22 PUSH1 0x15 SWAP2 DUP5 ADD SWAP2 DUP3 ADD MSTORE PUSH32 0x636972636C65223E3C64697620636C6173733D226C6F676F223E49493C2F6469 PUSH1 0x35 DUP3 ADD MSTORE PUSH20 0x3B1F1E3234BB1031B630B9B99E913A32BC3A111F PUSH1 0x61 SHL PUSH1 0x55 DUP3 ADD MSTORE PUSH2 0x19BA PUSH1 0x69 DUP3 ADD PUSH2 0x18DC JUMP JUMPDEST SWAP1 POP DUP5 MLOAD PUSH2 0x19CC DUP2 DUP4 PUSH1 0x20 DUP10 ADD PUSH2 0x14CE JUMP JUMPDEST DUP1 DUP3 ADD SWAP2 POP POP PUSH32 0x2220616C743D22455850657269656E63655F4E4654223E3C2F6F626A6563743E DUP2 MSTORE PUSH32 0x3C2F6469763E3C64697620636C6173733D22627574746F6E223E5B4558505D20 PUSH1 0x20 DUP3 ADD MSTORE PUSH10 0x2130B630B731B290169 PUSH1 0xB5 SHL PUSH1 0x40 DUP3 ADD MSTORE DUP4 MLOAD PUSH2 0x1A41 DUP2 PUSH1 0x4A DUP5 ADD PUSH1 0x20 DUP9 ADD PUSH2 0x14CE JUMP JUMPDEST PUSH32 0x3C2F6469763E3C2F6469763E3C2F6469763E3C2F68746D6C3E00000000000000 PUSH1 0x4A SWAP3 SWAP1 SWAP2 ADD SWAP2 DUP3 ADD MSTORE PUSH1 0x63 ADD SWAP6 SWAP5 POP POP POP POP POP JUMP JUMPDEST PUSH22 0x19185D184E9D195E1D0BDA1D1B5B0ED8985CD94D8D0B PUSH1 0x52 SHL DUP2 MSTORE PUSH1 0x0 DUP3 MLOAD PUSH2 0x1AA9 DUP2 PUSH1 0x16 DUP6 ADD PUSH1 0x20 DUP8 ADD PUSH2 0x14CE JUMP JUMPDEST SWAP2 SWAP1 SWAP2 ADD PUSH1 0x16 ADD SWAP3 SWAP2 POP POP JUMP JUMPDEST PUSH32 0x7B226E616D65223A2022455850657269656E6365204261646765230000000000 DUP2 MSTORE PUSH1 0x0 DUP4 MLOAD PUSH2 0x1AEE DUP2 PUSH1 0x1B DUP6 ADD PUSH1 0x20 DUP9 ADD PUSH2 0x14CE JUMP JUMPDEST PUSH32 0x222C20226465736372697074696F6E223A2022455850657269656E6365204261 PUSH1 0x1B SWAP2 DUP5 ADD SWAP2 DUP3 ADD MSTORE PUSH32 0x6467652E2050617274206F662045746865726E6175742044414F20626F756E74 PUSH1 0x3B DUP3 ADD MSTORE PUSH32 0x6965732E20536F756C626F756E6420746F6B656E2F6173736574206578706572 PUSH1 0x5B DUP3 ADD MSTORE PUSH32 0x69656E6365207468726F7567682045585020546F6B656E20616E642045585065 PUSH1 0x7B DUP3 ADD MSTORE PUSH11 0x3934B2B731B29027232A17 PUSH1 0xA9 SHL PUSH1 0x9B DUP3 ADD MSTORE PUSH32 0x222C202265787465726E616C5F75726C223A202268747470733A2F2F67697468 PUSH1 0xA6 DUP3 ADD MSTORE PUSH32 0x75622E636F6D2F536F6C4465762D48502F455850657269656E63655F47616D65 PUSH1 0xC6 DUP3 ADD MSTORE PUSH1 0x11 PUSH1 0xF9 SHL PUSH1 0xE6 DUP3 ADD MSTORE PUSH32 0x2C202261747472696275746573223A205B7B2274726169745F74797065223A20 PUSH1 0xE7 DUP3 ADD MSTORE PUSH32 0x22455850657269656E6365204C6576656C222C202276616C7565223A20220000 PUSH2 0x107 DUP3 ADD MSTORE PUSH2 0x1C6D PUSH2 0x1C52 PUSH2 0x125 DUP4 ADD DUP7 PUSH2 0x180E JUMP JUMPDEST PUSH15 0x113EAE96101137BBB732B9111D1011 PUSH1 0x89 SHL DUP2 MSTORE PUSH1 0xF ADD SWAP1 JUMP JUMPDEST SWAP6 SWAP5 POP POP POP POP POP JUMP JUMPDEST PUSH1 0x0 DUP6 MLOAD PUSH2 0x1C88 DUP2 DUP5 PUSH1 0x20 DUP11 ADD PUSH2 0x14CE JUMP JUMPDEST PUSH1 0x60 DUP7 SWAP1 SHL PUSH12 0xFFFFFFFFFFFFFFFFFFFFFFFF NOT AND SWAP1 DUP4 ADD SWAP1 DUP2 MSTORE PUSH13 0x1116101134B6B0B3B2911D1011 PUSH1 0x99 SHL PUSH1 0x14 DUP3 ADD MSTORE DUP5 MLOAD PUSH2 0x1CCB DUP2 PUSH1 0x21 DUP5 ADD PUSH1 0x20 DUP10 ADD PUSH2 0x14CE JUMP JUMPDEST PUSH21 0x1116101130B734B6B0BA34B7B72FBAB936111D1011 PUSH1 0x59 SHL PUSH1 0x21 SWAP3 SWAP1 SWAP2 ADD SWAP2 DUP3 ADD MSTORE DUP4 MLOAD PUSH2 0x1D01 DUP2 PUSH1 0x36 DUP5 ADD PUSH1 0x20 DUP9 ADD PUSH2 0x14CE JUMP JUMPDEST PUSH2 0x227D PUSH1 0xF0 SHL PUSH1 0x36 SWAP3 SWAP1 SWAP2 ADD SWAP2 DUP3 ADD MSTORE PUSH1 0x38 ADD SWAP7 SWAP6 POP POP POP POP POP POP JUMP JUMPDEST PUSH32 0x646174613A6170706C69636174696F6E2F6A736F6E3B6261736536342C000000 DUP2 MSTORE PUSH1 0x0 DUP3 MLOAD PUSH2 0x1D56 DUP2 PUSH1 0x1D DUP6 ADD PUSH1 0x20 DUP8 ADD PUSH2 0x14CE JUMP JUMPDEST SWAP2 SWAP1 SWAP2 ADD PUSH1 0x1D ADD SWAP3 SWAP2 POP POP JUMP JUMPDEST PUSH21 0x1E10A227A1AA2CA82290343A36B61F1E343A36B61F PUSH1 0x59 SHL DUP2 MSTORE PUSH1 0x0 DUP4 MLOAD PUSH2 0x1D93 DUP2 PUSH1 0x15 DUP6 ADD PUSH1 0x20 DUP9 ADD PUSH2 0x14CE JUMP JUMPDEST PUSH2 0x1DA1 PUSH1 0x15 DUP3 DUP6 ADD ADD PUSH2 0x18DC JUMP JUMPDEST SWAP1 POP DUP4 MLOAD PUSH2 0x1DB3 DUP2 DUP4 PUSH1 0x20 DUP9 ADD PUSH2 0x14CE JUMP JUMPDEST PUSH32 0x2220616C743D22455850657269656E63655F4E4654223E3C2F6F626A6563743E SWAP2 ADD SWAP1 DUP2 MSTORE PUSH7 0x1E17B43A36B61F PUSH1 0xC9 SHL PUSH1 0x20 DUP3 ADD MSTORE PUSH1 0x27 ADD SWAP5 SWAP4 POP POP POP POP JUMP JUMPDEST PUSH1 0x0 DUP3 DUP3 LT ISZERO PUSH2 0x1E06 JUMPI PUSH2 0x1E06 PUSH2 0x17DF JUMP JUMPDEST POP SUB SWAP1 JUMP JUMPDEST PUSH1 0x0 DUP3 PUSH2 0x1E1A JUMPI PUSH2 0x1E1A PUSH2 0x18B2 JUMP JUMPDEST POP MOD SWAP1 JUMP JUMPDEST PUSH1 0x0 DUP3 NOT DUP3 GT ISZERO PUSH2 0x1E32 JUMPI PUSH2 0x1E32 PUSH2 0x17DF JUMP JUMPDEST POP ADD SWAP1 JUMP JUMPDEST PUSH4 0x4E487B71 PUSH1 0xE0 SHL PUSH1 0x0 MSTORE PUSH1 0x32 PUSH1 0x4 MSTORE PUSH1 0x24 PUSH1 0x0 REVERT JUMPDEST PUSH1 0x0 DUP2 PUSH1 0x0 NOT DIV DUP4 GT DUP3 ISZERO ISZERO AND ISZERO PUSH2 0x1E67 JUMPI PUSH2 0x1E67 PUSH2 0x17DF JUMP JUMPDEST POP MUL SWAP1 JUMP INVALID EXTCODECOPY PUSH20 0x766720786D6C6E733D22687474703A2F2F777777 0x2E PUSH24 0x332E6F72672F323030302F7376672220786D6C6E733A786C PUSH10 0x6E6B3D22687474703A2F 0x2F PUSH24 0x77772E77332E6F72672F313939392F786C696E6B2220783D 0x22 ADDRESS 0x22 KECCAK256 PUSH26 0x3D2230222076696577426F783D22302030203330302033303022 KECCAK256 PUSH6 0x6E61626C652D PUSH3 0x61636B PUSH8 0x726F756E643D226E PUSH6 0x772030203020 CALLER ADDRESS ADDRESS KECCAK256 CALLER ADDRESS ADDRESS 0x22 KECCAK256 PUSH25 0x6D6C3A73706163653D227072657365727665223E3C64656673 RETURNDATACOPY EXTCODECOPY PUSH17 0x6174682069643D22636972636C65506174 PUSH9 0x2220643D224D203135 ADDRESS 0x2C KECCAK256 BALANCE CALLDATALOAD ADDRESS KECCAK256 PUSH14 0x202D3132302C2030206120313230 0x2C BALANCE ORIGIN ADDRESS KECCAK256 ADDRESS KECCAK256 ADDRESS 0x2C BALANCE KECCAK256 ORIGIN CALLVALUE ADDRESS 0x2C ADDRESS KECCAK256 PUSH2 0x2031 ORIGIN ADDRESS 0x2C BALANCE ORIGIN ADDRESS KECCAK256 ADDRESS KECCAK256 ADDRESS 0x2C BALANCE KECCAK256 0x2D ORIGIN CALLVALUE ADDRESS 0x2C ADDRESS 0x22 0x2F RETURNDATACOPY EXTCODECOPY 0x2F PUSH5 0x6566733E3C PUSH8 0x3E3C746578743E3C PUSH21 0x6578745061746820786C696E6B3A687265663D2223 PUSH4 0x6972636C PUSH6 0x50617468223E GASLIMIT PC POP PUSH6 0x7269656E6365 KECCAK256 0x4C PUSH6 0x76656C202D20 KECCAK256 KECCAK256 KECCAK256 KECCAK256 KECCAK256 KECCAK256 KECCAK256 KECCAK256 KECCAK256 KECCAK256 KECCAK256 KECCAK256 KECCAK256 KECCAK256 KECCAK256 KECCAK256 KECCAK256 KECCAK256 KECCAK256 KECCAK256 KECCAK256 KECCAK256 KECCAK256 KECCAK256 KECCAK256 KECCAK256 KECCAK256 KECCAK256 KECCAK256 KECCAK256 KECCAK256 KECCAK256 KECCAK256 KECCAK256 KECCAK256 KECCAK256 KECCAK256 KECCAK256 KECCAK256 GASLIMIT PUSH21 0x6865726E61757444414F20426F756E7479202D2030 PUSH14 0x6963726F6E745F2E203C2F746578 PUSH21 0x506174683E3C2F746578743E3C2F673E3C2F737667 RETURNDATACOPY COINBASE TIMESTAMP NUMBER DIFFICULTY GASLIMIT CHAINID SELFBALANCE BASEFEE 0x49 0x4A 0x4B 0x4C 0x4D 0x4E 0x4F POP MLOAD MSTORE MSTORE8 SLOAD SSTORE JUMP JUMPI PC MSIZE GAS PUSH2 0x6263 PUSH5 0x6566676869 PUSH11 0x6B6C6D6E6F707172737475 PUSH23 0x7778797A303132333435363738392B2FA2646970667358 0x22 SLT KECCAK256 0xC DUP12 0xE6 SSTORE LOG4 NOT 0xB1 0xBB PUSH2 0xFA8B PUSH23 0xEB949BF84D086678D48BDA3F0D3C73DF9A0CB93264736F PUSH13 0x634300080D0033000000000000 ","sha1":"d44acf9a7d8f245c8ae4f0f9d7fd4c6ebbdd2393","source":"// SPDX-License-Identifier: MIT\npragma solidity >=0.8.0;\nimport \"../interfaces/IERC20.sol\";\nimport \"./tokens/ERC721.sol\";\nimport \"./utils/Ownable.sol\";\nimport \"./libs/BadgeFactory.sol\";\n\ncontract EXPerienceNFT is ERC721, Ownable {\n    // Total supply - Should be exposed via getter\n    // Should start with zero anyway.\n    uint256 private _totalSupply;\n    // EXPToken contract address - To refer to EXP balance of the user \n    address private _EXPContractAddress;\n    // EXPToken Interface to get balanceOf\n    // Though we imported original IERC20 for this, we can potentially limit it to just balanceOf function\n    IERC20 private _expContract;\n    // Generator admins \n    mapping(address => bool) private _tokenAdmins;\n\n    // Events \n    event ExperienceNFTGenerated(address indexed _experienceGainer);\n    event TokenAdminSet(address indexed _admin, bool indexed _isAdmin);\n\n    // Constructor of EXPerience NFT Contract, expects nama and symbol of the NFT Contract \n    // and address where EXP Token is deployed\n    constructor(string memory _name, string memory _symbol, address _expcontract) \n        ERC721(_name, _symbol) {\n        // Set EXP Contract address \n        _EXPContractAddress = _expcontract;\n        // Set msg sender the first admin \n        _tokenAdmins[msg.sender] = true;\n    }\n\n    // Add token admins who are allowed to mint NFT for any given address \n    function setTokenAdmin(address _admin, bool _isAdmin) public OnlyOwner {\n        _tokenAdmins[_admin] = _isAdmin;\n        emit TokenAdminSet(_admin, _isAdmin);\n    }\n\n    // A way to update EXPToken address (Keeping it for now)\n    function setExpContractAddress(address _contract) public OnlyOwner {\n        require(_contract != address(0), \"Invalid EXP Token Contract address\");\n        _EXPContractAddress = _contract;\n    }\n    // Generate EXPerience NFT for the address given \n    function genExperience(address _to) public {\n        // Make sure the message sender is one of the admins \n        require(_tokenAdmins[msg.sender] == true, \"EXPerience: You're not an admin\");\n        // We need to make sure _to actually holds some EXP \n        // Get the exp token contract  \n        _expContract = IERC20(_EXPContractAddress);\n        // Get _to's EXP token holdings \n        uint256 _expBalanceofTo = _expContract.balanceOf(_to);\n        // For Testing Only: Let's limit minting to address only if they any amount of exp token\n        require(_expBalanceofTo > 0, \"EXPerience: Insufficient EXP balance\");\n        \n        // Get TokenID \n        uint256 _tokenID = _totalSupply;\n        // Increment for next tokenID\n        ++_totalSupply;\n        // Mint the EXPerience NFT for the address (If address already holds the NFT, _mint will revert)\n        _safeMint(_to, _tokenID);\n        // Emit the event \n        emit ExperienceNFTGenerated(_to);\n    }\n\n    // Total supply \n    function totalSupply() public view returns (uint256) {\n        return _totalSupply;\n    }\n\n    // TokenURI(), this is where we will implement all our logic\n    // - We need to generate ASCII NFT art\n    // - Art could be a trophie showing achievement/level \n    // --- Null trophie for 0 EXP tokens in the account \n    // --- Distinct 5 trophies, each trophie for certain EXP token held in the account \n    // --- Ex: Tier-1 trophie for users who have 1 to 20 EXP tokens\n    // --- Tier-2 trophies for users who have 21 to 40 EXP tokens and so on...\n    function tokenURI(uint256 _tokenID) public view override returns (string memory) {\n        // Make sure _tokenID is valid \n        require(_exists(_tokenID), \"EXPerience NFT: Invalid TokenID\");\n        // Get the owner of the _tokenID\n        address owner = ownerOf(_tokenID); \n        // We need owner's EXP token balance\n        // Based on balance, we can prepare a variable that denotes which \n        // Symbol should be written in the center of the circle. \n        // Get owner's EXP token holdings\n        uint256 ownerBal = IERC20(_EXPContractAddress).balanceOf(owner);\n\n        // Now we have following details required to generate a tokenURI \n        // owner of the nft, nft token ID, owner's EXP balance \n        return BadgeFactory._generateTokenURI(_tokenID, ownerBal, owner);\n    }\n\n    // Test functions \n    function getimgurl(uint256 _tokenId) public pure returns (string memory) {\n        return BadgeFactory._base64EncodeImage(_tokenId);\n    }\n    function getAnimurl(uint256 _tokenId) public pure returns (string memory) {\n        return BadgeFactory._returnMarkup(_tokenId);\n    }\n}","sourcePath":"contracts/EXPerienceNFT.sol","deployment":{"address":"0xcb862c350CE5eD7B39595F59a469df2fa04d6332","chainid":"dev","blockHeight":465}}