{
  "abi": [
    {
      "inputs": [
        {
          "internalType": "uint256",
          "name": "_tokenAmount",
          "type": "uint256"
        }
      ],
      "name": "callthisForImage",
      "outputs": [
        {
          "internalType": "string",
          "name": "",
          "type": "string"
        }
      ],
      "stateMutability": "pure",
      "type": "function"
    }
  ],
  "bytecode": "610ef561003a600b82828239805160001a60731461002d57634e487b7160e01b600052600060045260246000fd5b30600052607381538281f3fe73000000000000000000000000000000000000000030146080604052600436106100355760003560e01c8063352700151461003a575b600080fd5b61004d6100483660046104a1565b610063565b60405161005a91906104ea565b60405180910390f35b606060006100f260405180610760016040528061073881526020016106dd610738913961008f8561011c565b6040518060a00160405280606b8152602001610e55606b91396100b187610245565b6040518060600160405280602881526020016106b5602891396040516020016100de95949392919061051d565b60405160208183030381529060405261034e565b9050806040516020016101059190610588565b604051602081830303815290604052915050919050565b606060008211801561013757506801158e460913d000008211155b156101595750506040805180820190915260018152604960f81b602082015290565b6801158e460913d000008211801561017a575068022b1c8c1227a000008211155b1561019d575050604080518082019091526002815261494960f01b602082015290565b68022b1c8c1227a00000821180156101be5750680340aad21b3b7000008211155b156101e257505060408051808201909152600381526249494960e81b602082015290565b680340aad21b3b7000008211801561020357506804563918244f4000008211155b1561022657505060408051808201909152600281526124ab60f11b602082015290565b50506040805180820190915260038152622d472d60e81b602082015290565b60608160000361026c5750506040805180820190915260018152600360fc1b602082015290565b8160005b81156102965780610280816105e3565b915061028f9050600a83610612565b9150610270565b60008167ffffffffffffffff8111156102b1576102b1610626565b6040519080825280601f01601f1916602001820160405280156102db576020820181803683370190505b5090505b8415610346576102f060018361063c565b91506102fd600a86610653565b610308906030610667565b60f81b81838151811061031d5761031d61067f565b60200101906001600160f81b031916908160001a90535061033f600a86610612565b94506102df565b949350505050565b6060815160000361036d57505060408051602081019091526000815290565b6000604051806060016040528060408152602001610e15604091399050600060038451600261039c9190610667565b6103a69190610612565b6103b1906004610695565b67ffffffffffffffff8111156103c9576103c9610626565b6040519080825280601f01601f1916602001820160405280156103f3576020820181803683370190505b509050600182016020820185865187015b8082101561045f576003820191508151603f8160121c168501518453600184019350603f81600c1c168501518453600184019350603f8160061c168501518453600184019350603f8116850151845350600183019250610404565b505060038651066001811461047b576002811461048e57610496565b603d6001830353603d6002830353610496565b603d60018303535b509195945050505050565b6000602082840312156104b357600080fd5b5035919050565b60005b838110156104d55781810151838201526020016104bd565b838111156104e4576000848401525b50505050565b60208152600082518060208401526105098160408501602087016104ba565b601f01601f19169190910160400192915050565b6000865161052f818460208b016104ba565b865190830190610543818360208b016104ba565b8651910190610556818360208a016104ba565b85519101906105698183602089016104ba565b845191019061057c8183602088016104ba565b01979650505050505050565b7f646174613a696d6167652f7376672b786d6c3b6261736536342c0000000000008152600082516105c081601a8501602087016104ba565b91909101601a0192915050565b634e487b7160e01b600052601160045260246000fd5b6000600182016105f5576105f56105cd565b5060010190565b634e487b7160e01b600052601260045260246000fd5b600082610621576106216105fc565b500490565b634e487b7160e01b600052604160045260246000fd5b60008282101561064e5761064e6105cd565b500390565b600082610662576106626105fc565b500690565b6000821982111561067a5761067a6105cd565b500190565b634e487b7160e01b600052603260045260246000fd5b60008160001904831182151516156106af576106af6105cd565b50029056fe3c2f6469763e3c2f6469763e3c2f6469763e3c2f666f726569676e4f626a6563743e3c2f7376673e3c73766720786d6c6e733d22687474703a2f2f7777772e77332e6f72672f323030302f737667222076696577426f783d223020302033303020333030223e203c7374796c6520747970653d22746578742f637373223e203c215b43444154415b202a2c202a3a6265666f72652c202a3a6166746572207b20626f782d73697a696e673a20626f726465722d626f783b7d20626f6479207b206865696768743a2031303076683b206261636b67726f756e643a20233030303b7d202e63656e746572207b206865696768743a20313030253b20646973706c61793a20666c65783b20616c69676e2d6974656d733a2063656e7465723b206a7573746966792d636f6e74656e743a2063656e7465723b20746578742d616c69676e3a2063656e7465723b7d202e636972636c65207b20706f736974696f6e3a2072656c61746976653b2077696474683a2032303070783b206865696768743a2032303070783b20636f6c6f723a20236666663b206261636b67726f756e643a20233030303b20626f726465722d7261646975733a203530253b20626f726465723a2032707820736f6c69643b7d202e6c6f676f207b20666f6e742d73697a653a2031323570783b206c696e652d6865696768743a2031393070783b20766572746963616c2d616c69676e3a206d6964646c653b7d202e627574746f6e207b20706f736974696f6e3a206162736f6c7574653b20626f74746f6d3a203070783b206c6566743a20303b2072696768743a20303b2070616464696e673a203870783b20666f6e742d7765696768743a20626f6c643b20746578742d7472616e73666f726d3a207570706572636173653b206261636b67726f756e643a20233030303b20626f726465723a2032707820736f6c69643b20616e696d6174696f6e3a20736c69646520312e347320656173652d696e2d6f757420696e66696e6974653b20637572736f723a20706f696e7465723b7d202e627574746f6e3a686f766572207b20636f6c6f723a20233030303b206261636b67726f756e643a20236666663b20626f726465722d636f6c6f723a20236666663b7d20406b65796672616d657320736c696465207b203025207b207472616e73666f726d3a207472616e736c61746558283130707829207d20353025207b7472616e73666f726d3a207472616e736c61746558282d3130707829207d2031303025207b207472616e73666f726d3a207472616e736c61746558283130707829207d7d202e74657874207b20706f736974696f6e3a206162736f6c7574653b20746f703a20303b206c6566743a20303b2077696474683a20313030253b206865696768743a20313030253b20666f6e742d73697a653a20323470783b20666f6e742d7765696768743a20626f6c643b20746578742d7472616e73666f726d3a207570706572636173653b20616e696d6174696f6e3a20726f7461746520313473206c696e65617220696e66696e6974653b2066696c6c3a20236666663b7d20406b65796672616d657320726f74617465207b2066726f6d207b207472616e73666f726d3a20726f746174652830293b207d20746f207b207472616e73666f726d3a20726f7461746528333630646567293b207d7d205d5d3e203c2f7374796c653e203c666f726569676e4f626a65637420783d2232302220793d223230222077696474683d2233303022206865696768743d22333030223e203c64697620636c6173733d2263656e7465722220786d6c6e733d22687474703a2f2f7777772e77332e6f72672f313939392f7868746d6c223e3c64697620636c6173733d22636972636c652220786d6c6e733d22687474703a2f2f7777772e77332e6f72672f313939392f7868746d6c223e3c64697620636c6173733d226c6f676f2220786d6c6e733d22687474703a2f2f7777772e77332e6f72672f313939392f7868746d6c223e49493c2f6469763e3c64697620636c6173733d22746578742220786d6c6e733d22687474703a2f2f7777772e77332e6f72672f313939392f7868746d6c223e20203c73766720783d22302220793d2230222076696577426f783d2230203020333030203330302220656e61626c652d6261636b67726f756e643d226e65772030203020333030203330302220786d6c3a73706163653d2270726573657276652220786d6c6e733d22687474703a2f2f7777772e77332e6f72672f323030302f737667223e203c646566733e203c706174682069643d22636972636c65506174682220643d22204d203135302c20313530206d202d3132302c20302061203132302c313230203020302c31203234302c302061203132302c313230203020302c31202d3234302c30202220202f3e203c2f646566733e203c673e203c746578743e203c746578745061746820687265663d2223636972636c65506174682220786d6c3a73706163653d227072657365727665223e455850657269656e6365204e465421202020202020202020466f722e45746865726e61757444414f2020202020202020204c6576656c202d204142434445464748494a4b4c4d4e4f505152535455565758595a6162636465666768696a6b6c6d6e6f707172737475767778797a303132333435363738392b2f3c2f74657874506174683e3c2f746578743e3c2f673e3c2f7376673e3c2f6469763e3c64697620636c6173733d22627574746f6e2220786d6c6e733d22687474703a2f2f7777772e77332e6f72672f313939392f7868746d6c223e5b4558505d2042616c616e6365202d20a2646970667358221220d0a13ec9e72eded15f7f103410b6d5be7198885220195e51a50b95bd8925407564736f6c634300080d0033",
  "bytecodeSha1": "065aaaccb93b1294fcf24706a0d568bc2b5faf3b",
  "compiler": {
    "evm_version": "istanbul",
    "optimizer": {
      "enabled": true,
      "runs": 200
    },
    "version": "0.8.13+commit.abaa5c0e"
  },
  "contractName": "BadgeFactory",
  "language": "Solidity",
  "natspec": {
    "kind": "dev",
    "methods": {},
    "version": 1
  },
  "opcodes": "PUSH20 0x0 ADDRESS EQ PUSH1 0x80 PUSH1 0x40 MSTORE PUSH1 0x4 CALLDATASIZE LT PUSH2 0x35 JUMPI PUSH1 0x0 CALLDATALOAD PUSH1 0xE0 SHR DUP1 PUSH4 0x35270015 EQ PUSH2 0x3A JUMPI JUMPDEST PUSH1 0x0 DUP1 REVERT JUMPDEST PUSH2 0x4D PUSH2 0x48 CALLDATASIZE PUSH1 0x4 PUSH2 0x4A1 JUMP JUMPDEST PUSH2 0x63 JUMP JUMPDEST PUSH1 0x40 MLOAD PUSH2 0x5A SWAP2 SWAP1 PUSH2 0x4EA JUMP JUMPDEST PUSH1 0x40 MLOAD DUP1 SWAP2 SUB SWAP1 RETURN JUMPDEST PUSH1 0x60 PUSH1 0x0 PUSH2 0xF2 PUSH1 0x40 MLOAD DUP1 PUSH2 0x760 ADD PUSH1 0x40 MSTORE DUP1 PUSH2 0x738 DUP2 MSTORE PUSH1 0x20 ADD PUSH2 0x6DD PUSH2 0x738 SWAP2 CODECOPY PUSH2 0x8F DUP6 PUSH2 0x11C JUMP JUMPDEST PUSH1 0x40 MLOAD DUP1 PUSH1 0xA0 ADD PUSH1 0x40 MSTORE DUP1 PUSH1 0x6B DUP2 MSTORE PUSH1 0x20 ADD PUSH2 0xE55 PUSH1 0x6B SWAP2 CODECOPY PUSH2 0xB1 DUP8 PUSH2 0x245 JUMP JUMPDEST PUSH1 0x40 MLOAD DUP1 PUSH1 0x60 ADD PUSH1 0x40 MSTORE DUP1 PUSH1 0x28 DUP2 MSTORE PUSH1 0x20 ADD PUSH2 0x6B5 PUSH1 0x28 SWAP2 CODECOPY PUSH1 0x40 MLOAD PUSH1 0x20 ADD PUSH2 0xDE SWAP6 SWAP5 SWAP4 SWAP3 SWAP2 SWAP1 PUSH2 0x51D JUMP JUMPDEST PUSH1 0x40 MLOAD PUSH1 0x20 DUP2 DUP4 SUB SUB DUP2 MSTORE SWAP1 PUSH1 0x40 MSTORE PUSH2 0x34E JUMP JUMPDEST SWAP1 POP DUP1 PUSH1 0x40 MLOAD PUSH1 0x20 ADD PUSH2 0x105 SWAP2 SWAP1 PUSH2 0x588 JUMP JUMPDEST PUSH1 0x40 MLOAD PUSH1 0x20 DUP2 DUP4 SUB SUB DUP2 MSTORE SWAP1 PUSH1 0x40 MSTORE SWAP2 POP POP SWAP2 SWAP1 POP JUMP JUMPDEST PUSH1 0x60 PUSH1 0x0 DUP3 GT DUP1 ISZERO PUSH2 0x137 JUMPI POP PUSH9 0x1158E460913D00000 DUP3 GT ISZERO JUMPDEST ISZERO PUSH2 0x159 JUMPI POP POP PUSH1 0x40 DUP1 MLOAD DUP1 DUP3 ADD SWAP1 SWAP2 MSTORE PUSH1 0x1 DUP2 MSTORE PUSH1 0x49 PUSH1 0xF8 SHL PUSH1 0x20 DUP3 ADD MSTORE SWAP1 JUMP JUMPDEST PUSH9 0x1158E460913D00000 DUP3 GT DUP1 ISZERO PUSH2 0x17A JUMPI POP PUSH9 0x22B1C8C1227A00000 DUP3 GT ISZERO JUMPDEST ISZERO PUSH2 0x19D JUMPI POP POP PUSH1 0x40 DUP1 MLOAD DUP1 DUP3 ADD SWAP1 SWAP2 MSTORE PUSH1 0x2 DUP2 MSTORE PUSH2 0x4949 PUSH1 0xF0 SHL PUSH1 0x20 DUP3 ADD MSTORE SWAP1 JUMP JUMPDEST PUSH9 0x22B1C8C1227A00000 DUP3 GT DUP1 ISZERO PUSH2 0x1BE JUMPI POP PUSH9 0x340AAD21B3B700000 DUP3 GT ISZERO JUMPDEST ISZERO PUSH2 0x1E2 JUMPI POP POP PUSH1 0x40 DUP1 MLOAD DUP1 DUP3 ADD SWAP1 SWAP2 MSTORE PUSH1 0x3 DUP2 MSTORE PUSH3 0x494949 PUSH1 0xE8 SHL PUSH1 0x20 DUP3 ADD MSTORE SWAP1 JUMP JUMPDEST PUSH9 0x340AAD21B3B700000 DUP3 GT DUP1 ISZERO PUSH2 0x203 JUMPI POP PUSH9 0x4563918244F400000 DUP3 GT ISZERO JUMPDEST ISZERO PUSH2 0x226 JUMPI POP POP PUSH1 0x40 DUP1 MLOAD DUP1 DUP3 ADD SWAP1 SWAP2 MSTORE PUSH1 0x2 DUP2 MSTORE PUSH2 0x24AB PUSH1 0xF1 SHL PUSH1 0x20 DUP3 ADD MSTORE SWAP1 JUMP JUMPDEST POP POP PUSH1 0x40 DUP1 MLOAD DUP1 DUP3 ADD SWAP1 SWAP2 MSTORE PUSH1 0x3 DUP2 MSTORE PUSH3 0x2D472D PUSH1 0xE8 SHL PUSH1 0x20 DUP3 ADD MSTORE SWAP1 JUMP JUMPDEST PUSH1 0x60 DUP2 PUSH1 0x0 SUB PUSH2 0x26C JUMPI POP POP PUSH1 0x40 DUP1 MLOAD DUP1 DUP3 ADD SWAP1 SWAP2 MSTORE PUSH1 0x1 DUP2 MSTORE PUSH1 0x3 PUSH1 0xFC SHL PUSH1 0x20 DUP3 ADD MSTORE SWAP1 JUMP JUMPDEST DUP2 PUSH1 0x0 JUMPDEST DUP2 ISZERO PUSH2 0x296 JUMPI DUP1 PUSH2 0x280 DUP2 PUSH2 0x5E3 JUMP JUMPDEST SWAP2 POP PUSH2 0x28F SWAP1 POP PUSH1 0xA DUP4 PUSH2 0x612 JUMP JUMPDEST SWAP2 POP PUSH2 0x270 JUMP JUMPDEST PUSH1 0x0 DUP2 PUSH8 0xFFFFFFFFFFFFFFFF DUP2 GT ISZERO PUSH2 0x2B1 JUMPI PUSH2 0x2B1 PUSH2 0x626 JUMP JUMPDEST PUSH1 0x40 MLOAD SWAP1 DUP1 DUP3 MSTORE DUP1 PUSH1 0x1F ADD PUSH1 0x1F NOT AND PUSH1 0x20 ADD DUP3 ADD PUSH1 0x40 MSTORE DUP1 ISZERO PUSH2 0x2DB JUMPI PUSH1 0x20 DUP3 ADD DUP2 DUP1 CALLDATASIZE DUP4 CALLDATACOPY ADD SWAP1 POP JUMPDEST POP SWAP1 POP JUMPDEST DUP5 ISZERO PUSH2 0x346 JUMPI PUSH2 0x2F0 PUSH1 0x1 DUP4 PUSH2 0x63C JUMP JUMPDEST SWAP2 POP PUSH2 0x2FD PUSH1 0xA DUP7 PUSH2 0x653 JUMP JUMPDEST PUSH2 0x308 SWAP1 PUSH1 0x30 PUSH2 0x667 JUMP JUMPDEST PUSH1 0xF8 SHL DUP2 DUP4 DUP2 MLOAD DUP2 LT PUSH2 0x31D JUMPI PUSH2 0x31D PUSH2 0x67F JUMP JUMPDEST PUSH1 0x20 ADD ADD SWAP1 PUSH1 0x1 PUSH1 0x1 PUSH1 0xF8 SHL SUB NOT AND SWAP1 DUP2 PUSH1 0x0 BYTE SWAP1 MSTORE8 POP PUSH2 0x33F PUSH1 0xA DUP7 PUSH2 0x612 JUMP JUMPDEST SWAP5 POP PUSH2 0x2DF JUMP JUMPDEST SWAP5 SWAP4 POP POP POP POP JUMP JUMPDEST PUSH1 0x60 DUP2 MLOAD PUSH1 0x0 SUB PUSH2 0x36D JUMPI POP POP PUSH1 0x40 DUP1 MLOAD PUSH1 0x20 DUP2 ADD SWAP1 SWAP2 MSTORE PUSH1 0x0 DUP2 MSTORE SWAP1 JUMP JUMPDEST PUSH1 0x0 PUSH1 0x40 MLOAD DUP1 PUSH1 0x60 ADD PUSH1 0x40 MSTORE DUP1 PUSH1 0x40 DUP2 MSTORE PUSH1 0x20 ADD PUSH2 0xE15 PUSH1 0x40 SWAP2 CODECOPY SWAP1 POP PUSH1 0x0 PUSH1 0x3 DUP5 MLOAD PUSH1 0x2 PUSH2 0x39C SWAP2 SWAP1 PUSH2 0x667 JUMP JUMPDEST PUSH2 0x3A6 SWAP2 SWAP1 PUSH2 0x612 JUMP JUMPDEST PUSH2 0x3B1 SWAP1 PUSH1 0x4 PUSH2 0x695 JUMP JUMPDEST PUSH8 0xFFFFFFFFFFFFFFFF DUP2 GT ISZERO PUSH2 0x3C9 JUMPI PUSH2 0x3C9 PUSH2 0x626 JUMP JUMPDEST PUSH1 0x40 MLOAD SWAP1 DUP1 DUP3 MSTORE DUP1 PUSH1 0x1F ADD PUSH1 0x1F NOT AND PUSH1 0x20 ADD DUP3 ADD PUSH1 0x40 MSTORE DUP1 ISZERO PUSH2 0x3F3 JUMPI PUSH1 0x20 DUP3 ADD DUP2 DUP1 CALLDATASIZE DUP4 CALLDATACOPY ADD SWAP1 POP JUMPDEST POP SWAP1 POP PUSH1 0x1 DUP3 ADD PUSH1 0x20 DUP3 ADD DUP6 DUP7 MLOAD DUP8 ADD JUMPDEST DUP1 DUP3 LT ISZERO PUSH2 0x45F JUMPI PUSH1 0x3 DUP3 ADD SWAP2 POP DUP2 MLOAD PUSH1 0x3F DUP2 PUSH1 0x12 SHR AND DUP6 ADD MLOAD DUP5 MSTORE8 PUSH1 0x1 DUP5 ADD SWAP4 POP PUSH1 0x3F DUP2 PUSH1 0xC SHR AND DUP6 ADD MLOAD DUP5 MSTORE8 PUSH1 0x1 DUP5 ADD SWAP4 POP PUSH1 0x3F DUP2 PUSH1 0x6 SHR AND DUP6 ADD MLOAD DUP5 MSTORE8 PUSH1 0x1 DUP5 ADD SWAP4 POP PUSH1 0x3F DUP2 AND DUP6 ADD MLOAD DUP5 MSTORE8 POP PUSH1 0x1 DUP4 ADD SWAP3 POP PUSH2 0x404 JUMP JUMPDEST POP POP PUSH1 0x3 DUP7 MLOAD MOD PUSH1 0x1 DUP2 EQ PUSH2 0x47B JUMPI PUSH1 0x2 DUP2 EQ PUSH2 0x48E JUMPI PUSH2 0x496 JUMP JUMPDEST PUSH1 0x3D PUSH1 0x1 DUP4 SUB MSTORE8 PUSH1 0x3D PUSH1 0x2 DUP4 SUB MSTORE8 PUSH2 0x496 JUMP JUMPDEST PUSH1 0x3D PUSH1 0x1 DUP4 SUB MSTORE8 JUMPDEST POP SWAP2 SWAP6 SWAP5 POP POP POP POP POP JUMP JUMPDEST PUSH1 0x0 PUSH1 0x20 DUP3 DUP5 SUB SLT ISZERO PUSH2 0x4B3 JUMPI PUSH1 0x0 DUP1 REVERT JUMPDEST POP CALLDATALOAD SWAP2 SWAP1 POP JUMP JUMPDEST PUSH1 0x0 JUMPDEST DUP4 DUP2 LT ISZERO PUSH2 0x4D5 JUMPI DUP2 DUP2 ADD MLOAD DUP4 DUP3 ADD MSTORE PUSH1 0x20 ADD PUSH2 0x4BD JUMP JUMPDEST DUP4 DUP2 GT ISZERO PUSH2 0x4E4 JUMPI PUSH1 0x0 DUP5 DUP5 ADD MSTORE JUMPDEST POP POP POP POP JUMP JUMPDEST PUSH1 0x20 DUP2 MSTORE PUSH1 0x0 DUP3 MLOAD DUP1 PUSH1 0x20 DUP5 ADD MSTORE PUSH2 0x509 DUP2 PUSH1 0x40 DUP6 ADD PUSH1 0x20 DUP8 ADD PUSH2 0x4BA JUMP JUMPDEST PUSH1 0x1F ADD PUSH1 0x1F NOT AND SWAP2 SWAP1 SWAP2 ADD PUSH1 0x40 ADD SWAP3 SWAP2 POP POP JUMP JUMPDEST PUSH1 0x0 DUP7 MLOAD PUSH2 0x52F DUP2 DUP5 PUSH1 0x20 DUP12 ADD PUSH2 0x4BA JUMP JUMPDEST DUP7 MLOAD SWAP1 DUP4 ADD SWAP1 PUSH2 0x543 DUP2 DUP4 PUSH1 0x20 DUP12 ADD PUSH2 0x4BA JUMP JUMPDEST DUP7 MLOAD SWAP2 ADD SWAP1 PUSH2 0x556 DUP2 DUP4 PUSH1 0x20 DUP11 ADD PUSH2 0x4BA JUMP JUMPDEST DUP6 MLOAD SWAP2 ADD SWAP1 PUSH2 0x569 DUP2 DUP4 PUSH1 0x20 DUP10 ADD PUSH2 0x4BA JUMP JUMPDEST DUP5 MLOAD SWAP2 ADD SWAP1 PUSH2 0x57C DUP2 DUP4 PUSH1 0x20 DUP9 ADD PUSH2 0x4BA JUMP JUMPDEST ADD SWAP8 SWAP7 POP POP POP POP POP POP POP JUMP JUMPDEST PUSH32 0x646174613A696D6167652F7376672B786D6C3B6261736536342C000000000000 DUP2 MSTORE PUSH1 0x0 DUP3 MLOAD PUSH2 0x5C0 DUP2 PUSH1 0x1A DUP6 ADD PUSH1 0x20 DUP8 ADD PUSH2 0x4BA JUMP JUMPDEST SWAP2 SWAP1 SWAP2 ADD PUSH1 0x1A ADD SWAP3 SWAP2 POP POP JUMP JUMPDEST PUSH4 0x4E487B71 PUSH1 0xE0 SHL PUSH1 0x0 MSTORE PUSH1 0x11 PUSH1 0x4 MSTORE PUSH1 0x24 PUSH1 0x0 REVERT JUMPDEST PUSH1 0x0 PUSH1 0x1 DUP3 ADD PUSH2 0x5F5 JUMPI PUSH2 0x5F5 PUSH2 0x5CD JUMP JUMPDEST POP PUSH1 0x1 ADD SWAP1 JUMP JUMPDEST PUSH4 0x4E487B71 PUSH1 0xE0 SHL PUSH1 0x0 MSTORE PUSH1 0x12 PUSH1 0x4 MSTORE PUSH1 0x24 PUSH1 0x0 REVERT JUMPDEST PUSH1 0x0 DUP3 PUSH2 0x621 JUMPI PUSH2 0x621 PUSH2 0x5FC JUMP JUMPDEST POP DIV SWAP1 JUMP JUMPDEST PUSH4 0x4E487B71 PUSH1 0xE0 SHL PUSH1 0x0 MSTORE PUSH1 0x41 PUSH1 0x4 MSTORE PUSH1 0x24 PUSH1 0x0 REVERT JUMPDEST PUSH1 0x0 DUP3 DUP3 LT ISZERO PUSH2 0x64E JUMPI PUSH2 0x64E PUSH2 0x5CD JUMP JUMPDEST POP SUB SWAP1 JUMP JUMPDEST PUSH1 0x0 DUP3 PUSH2 0x662 JUMPI PUSH2 0x662 PUSH2 0x5FC JUMP JUMPDEST POP MOD SWAP1 JUMP JUMPDEST PUSH1 0x0 DUP3 NOT DUP3 GT ISZERO PUSH2 0x67A JUMPI PUSH2 0x67A PUSH2 0x5CD JUMP JUMPDEST POP ADD SWAP1 JUMP JUMPDEST PUSH4 0x4E487B71 PUSH1 0xE0 SHL PUSH1 0x0 MSTORE PUSH1 0x32 PUSH1 0x4 MSTORE PUSH1 0x24 PUSH1 0x0 REVERT JUMPDEST PUSH1 0x0 DUP2 PUSH1 0x0 NOT DIV DUP4 GT DUP3 ISZERO ISZERO AND ISZERO PUSH2 0x6AF JUMPI PUSH2 0x6AF PUSH2 0x5CD JUMP JUMPDEST POP MUL SWAP1 JUMP INVALID EXTCODECOPY 0x2F PUSH5 0x69763E3C2F PUSH5 0x69763E3C2F PUSH5 0x69763E3C2F PUSH7 0x6F726569676E4F PUSH3 0x6A6563 PUSH21 0x3E3C2F7376673E3C73766720786D6C6E733D226874 PUSH21 0x703A2F2F7777772E77332E6F72672F323030302F73 PUSH23 0x67222076696577426F783D223020302033303020333030 0x22 RETURNDATACOPY KECCAK256 EXTCODECOPY PUSH20 0x74796C6520747970653D22746578742F63737322 RETURNDATACOPY KECCAK256 EXTCODECOPY 0x21 JUMPDEST NUMBER DIFFICULTY COINBASE SLOAD COINBASE JUMPDEST KECCAK256 0x2A 0x2C KECCAK256 0x2A GASPRICE PUSH3 0x65666F PUSH19 0x652C202A3A6166746572207B20626F782D7369 PUSH27 0x696E673A20626F726465722D626F783B7D20626F6479207B206865 PUSH10 0x6768743A203130307668 EXTCODESIZE KECCAK256 PUSH3 0x61636B PUSH8 0x726F756E643A2023 ADDRESS ADDRESS ADDRESS EXTCODESIZE PUSH30 0x202E63656E746572207B206865696768743A20313030253B20646973706C PUSH2 0x793A KECCAK256 PUSH7 0x6C65783B20616C PUSH10 0x676E2D6974656D733A20 PUSH4 0x656E7465 PUSH19 0x3B206A7573746966792D636F6E74656E743A20 PUSH4 0x656E7465 PUSH19 0x3B20746578742D616C69676E3A2063656E7465 PUSH19 0x3B7D202E636972636C65207B20706F73697469 PUSH16 0x6E3A2072656C61746976653B20776964 PUSH21 0x683A2032303070783B206865696768743A20323030 PUSH17 0x783B20636F6C6F723A20236666663B2062 PUSH2 0x636B PUSH8 0x726F756E643A2023 ADDRESS ADDRESS ADDRESS EXTCODESIZE KECCAK256 PUSH3 0x6F7264 PUSH6 0x722D72616469 PUSH22 0x733A203530253B20626F726465723A2032707820736F PUSH13 0x69643B7D202E6C6F676F207B20 PUSH7 0x6F6E742D73697A PUSH6 0x3A2031323570 PUSH25 0x3B206C696E652D6865696768743A2031393070783B20766572 PUSH21 0x6963616C2D616C69676E3A206D6964646C653B7D20 0x2E PUSH3 0x757474 PUSH16 0x6E207B20706F736974696F6E3A206162 PUSH20 0x6F6C7574653B20626F74746F6D3A203070783B20 PUSH13 0x6566743A20303B207269676874 GASPRICE KECCAK256 ADDRESS EXTCODESIZE KECCAK256 PUSH17 0x616464696E673A203870783B20666F6E74 0x2D PUSH24 0x65696768743A20626F6C643B20746578742D7472616E7366 PUSH16 0x726D3A207570706572636173653B2062 PUSH2 0x636B PUSH8 0x726F756E643A2023 ADDRESS ADDRESS ADDRESS EXTCODESIZE KECCAK256 PUSH3 0x6F7264 PUSH6 0x723A20327078 KECCAK256 PUSH20 0x6F6C69643B20616E696D6174696F6E3A20736C69 PUSH5 0x6520312E34 PUSH20 0x20656173652D696E2D6F757420696E66696E6974 PUSH6 0x3B2063757273 PUSH16 0x723A20706F696E7465723B7D202E6275 PUSH21 0x746F6E3A686F766572207B20636F6C6F723A202330 ADDRESS ADDRESS EXTCODESIZE KECCAK256 PUSH3 0x61636B PUSH8 0x726F756E643A2023 PUSH7 0x66663B20626F72 PUSH5 0x65722D636F PUSH13 0x6F723A20236666663B7D20406B PUSH6 0x796672616D65 PUSH20 0x20736C696465207B203025207B207472616E7366 PUSH16 0x726D3A207472616E736C617465582831 ADDRESS PUSH17 0x7829207D20353025207B7472616E73666F PUSH19 0x6D3A207472616E736C61746558282D31307078 0x29 KECCAK256 PUSH30 0x2031303025207B207472616E73666F726D3A207472616E736C6174655828 BALANCE ADDRESS PUSH17 0x7829207D7D202E74657874207B20706F73 PUSH10 0x74696F6E3A206162736F PUSH13 0x7574653B20746F703A20303B20 PUSH13 0x6566743A20303B207769647468 GASPRICE KECCAK256 BALANCE ADDRESS ADDRESS 0x25 EXTCODESIZE KECCAK256 PUSH9 0x65696768743A203130 ADDRESS 0x25 EXTCODESIZE KECCAK256 PUSH7 0x6F6E742D73697A PUSH6 0x3A2032347078 EXTCODESIZE KECCAK256 PUSH7 0x6F6E742D776569 PUSH8 0x68743A20626F6C64 EXTCODESIZE KECCAK256 PUSH21 0x6578742D7472616E73666F726D3A20757070657263 PUSH2 0x7365 EXTCODESIZE KECCAK256 PUSH2 0x6E69 PUSH14 0x6174696F6E3A20726F7461746520 BALANCE CALLVALUE PUSH20 0x206C696E65617220696E66696E6974653B206669 PUSH13 0x6C3A20236666663B7D20406B65 PUSH26 0x6672616D657320726F74617465207B2066726F6D207B20747261 PUSH15 0x73666F726D3A20726F746174652830 0x29 EXTCODESIZE KECCAK256 PUSH30 0x20746F207B207472616E73666F726D3A20726F7461746528333630646567 0x29 EXTCODESIZE KECCAK256 PUSH30 0x7D205D5D3E203C2F7374796C653E203C666F726569676E4F626A65637420 PUSH25 0x3D2232302220793D223230222077696474683D223330302220 PUSH9 0x65696768743D223330 ADDRESS 0x22 RETURNDATACOPY KECCAK256 EXTCODECOPY PUSH5 0x697620636C PUSH2 0x7373 RETURNDATASIZE 0x22 PUSH4 0x656E7465 PUSH19 0x2220786D6C6E733D22687474703A2F2F777777 0x2E PUSH24 0x332E6F72672F313939392F7868746D6C223E3C6469762063 PUSH13 0x6173733D22636972636C652220 PUSH25 0x6D6C6E733D22687474703A2F2F7777772E77332E6F72672F31 CODECOPY CODECOPY CODECOPY 0x2F PUSH25 0x68746D6C223E3C64697620636C6173733D226C6F676F222078 PUSH14 0x6C6E733D22687474703A2F2F7777 PUSH24 0x2E77332E6F72672F313939392F7868746D6C223E49493C2F PUSH5 0x69763E3C64 PUSH10 0x7620636C6173733D2274 PUSH6 0x78742220786D PUSH13 0x6E733D22687474703A2F2F7777 PUSH24 0x2E77332E6F72672F313939392F7868746D6C223E20203C73 PUSH23 0x6720783D22302220793D2230222076696577426F783D22 ADDRESS KECCAK256 ADDRESS KECCAK256 CALLER ADDRESS ADDRESS KECCAK256 CALLER ADDRESS ADDRESS 0x22 KECCAK256 PUSH6 0x6E61626C652D PUSH3 0x61636B PUSH8 0x726F756E643D226E PUSH6 0x772030203020 CALLER ADDRESS ADDRESS KECCAK256 CALLER ADDRESS ADDRESS 0x22 KECCAK256 PUSH25 0x6D6C3A73706163653D2270726573657276652220786D6C6E73 RETURNDATASIZE 0x22 PUSH9 0x7474703A2F2F777777 0x2E PUSH24 0x332E6F72672F323030302F737667223E203C646566733E20 EXTCODECOPY PUSH17 0x6174682069643D22636972636C65506174 PUSH9 0x2220643D22204D2031 CALLDATALOAD ADDRESS 0x2C KECCAK256 BALANCE CALLDATALOAD ADDRESS KECCAK256 PUSH14 0x202D3132302C2030206120313230 0x2C BALANCE ORIGIN ADDRESS KECCAK256 ADDRESS KECCAK256 ADDRESS 0x2C BALANCE KECCAK256 ORIGIN CALLVALUE ADDRESS 0x2C ADDRESS KECCAK256 PUSH2 0x2031 ORIGIN ADDRESS 0x2C BALANCE ORIGIN ADDRESS KECCAK256 ADDRESS KECCAK256 ADDRESS 0x2C BALANCE KECCAK256 0x2D ORIGIN CALLVALUE ADDRESS 0x2C ADDRESS KECCAK256 0x22 KECCAK256 KECCAK256 0x2F RETURNDATACOPY KECCAK256 EXTCODECOPY 0x2F PUSH5 0x6566733E20 EXTCODECOPY PUSH8 0x3E203C746578743E KECCAK256 EXTCODECOPY PUSH21 0x6578745061746820687265663D2223636972636C65 POP PUSH2 0x7468 0x22 KECCAK256 PUSH25 0x6D6C3A73706163653D227072657365727665223E4558506572 PUSH10 0x656E6365204E46542120 KECCAK256 KECCAK256 KECCAK256 KECCAK256 KECCAK256 KECCAK256 KECCAK256 KECCAK256 CHAINID PUSH16 0x722E45746865726E61757444414F2020 KECCAK256 KECCAK256 KECCAK256 KECCAK256 KECCAK256 KECCAK256 KECCAK256 0x4C PUSH6 0x76656C202D20 COINBASE TIMESTAMP NUMBER DIFFICULTY GASLIMIT CHAINID SELFBALANCE BASEFEE 0x49 0x4A 0x4B 0x4C 0x4D 0x4E 0x4F POP MLOAD MSTORE MSTORE8 SLOAD SSTORE JUMP JUMPI PC MSIZE GAS PUSH2 0x6263 PUSH5 0x6566676869 PUSH11 0x6B6C6D6E6F707172737475 PUSH23 0x7778797A303132333435363738392B2F3C2F7465787450 PUSH2 0x7468 RETURNDATACOPY EXTCODECOPY 0x2F PUSH21 0x6578743E3C2F673E3C2F7376673E3C2F6469763E3C PUSH5 0x697620636C PUSH2 0x7373 RETURNDATASIZE 0x22 PUSH3 0x757474 PUSH16 0x6E2220786D6C6E733D22687474703A2F 0x2F PUSH24 0x77772E77332E6F72672F313939392F7868746D6C223E5B45 PC POP 0x5D KECCAK256 TIMESTAMP PUSH2 0x6C61 PUSH15 0x6365202D20A2646970667358221220 0xD0 LOG1 RETURNDATACOPY 0xC9 0xE7 0x2E 0xDE 0xD1 0x5F PUSH32 0x103410B6D5BE7198885220195E51A50B95BD8925407564736F6C634300080D00 CALLER ",
  "sha1": "9d7e50c7c06a3123392a225d445ad7bfe6d6e8b2",
  "source": "// SPDX-License-Identifier: MIT\npragma solidity >=0.8.0;\n\nimport \"../utils/Strings.sol\";\nimport \"../utils/Base64.sol\";\n\n// BadgeFactory that will be used by EXPerienceNFT \n// to generate badges that support necessary update passed in\n// by tokenURI() function call \nlibrary BadgeFactory {\n    // Define our SVG - We are capping our viewbox to 300 300 \n    // SVG containers \n\n    // Finally found a solution to intergate css animation and svg inside an svg. Current output is satisfying \n    // with expected quality expectations matching. Still requires continuous updates and improvements\n    string internal constant _svgCont_Start = '<svg xmlns=\"http://www.w3.org/2000/svg\" viewBox=\"0 0 300 300\"> <style type=\"text/css\"> <![CDATA[ *, *:before, *:after { box-sizing: border-box;} body { height: 100vh; background: #000;} .center { height: 100%; display: flex; align-items: center; justify-content: center; text-align: center;} .circle { position: relative; width: 200px; height: 200px; color: #fff; background: #000; border-radius: 50%; border: 2px solid;} .logo { font-size: 125px; line-height: 190px; vertical-align: middle;} .button { position: absolute; bottom: 0px; left: 0; right: 0; padding: 8px; font-weight: bold; text-transform: uppercase; background: #000; border: 2px solid; animation: slide 1.4s ease-in-out infinite; cursor: pointer;} .button:hover { color: #000; background: #fff; border-color: #fff;} @keyframes slide { 0% { transform: translateX(10px) } 50% {transform: translateX(-10px) } 100% { transform: translateX(10px) }} .text { position: absolute; top: 0; left: 0; width: 100%; height: 100%; font-size: 24px; font-weight: bold; text-transform: uppercase; animation: rotate 14s linear infinite; fill: #fff;} @keyframes rotate { from { transform: rotate(0); } to { transform: rotate(360deg); }} ]]> </style> <foreignObject x=\"20\" y=\"20\" width=\"300\" height=\"300\"> <div class=\"center\" xmlns=\"http://www.w3.org/1999/xhtml\"><div class=\"circle\" xmlns=\"http://www.w3.org/1999/xhtml\"><div class=\"logo\" xmlns=\"http://www.w3.org/1999/xhtml\">II</div><div class=\"text\" xmlns=\"http://www.w3.org/1999/xhtml\">  <svg x=\"0\" y=\"0\" viewBox=\"0 0 300 300\" enable-background=\"new 0 0 300 300\" xml:space=\"preserve\" xmlns=\"http://www.w3.org/2000/svg\"> <defs> <path id=\"circlePath\" d=\" M 150, 150 m -120, 0 a 120,120 0 0,1 240,0 a 120,120 0 0,1 -240,0 \"  /> </defs> <g> <text> <textPath href=\"#circlePath\" xml:space=\"preserve\">EXPerience NFT!         For.EthernautDAO         Level - ';\n\n    string internal constant _svgCont_Mid = '</textPath></text></g></svg></div><div class=\"button\" xmlns=\"http://www.w3.org/1999/xhtml\">[EXP] Balance - ';\n\n    string internal constant _svgCont_End = '</div></div></div></foreignObject></svg>';\n\n    // Get experience level based on EXP token amount being held by user \n    // The easiest I could come up with in order to prototype this\n    function _getExperienceLevel(uint256 _tokenAmount) internal pure returns (string memory) {\n        if(_tokenAmount > 0 && _tokenAmount <= 20 * 10 ** 18)\n            return \"I\";\n        else if(_tokenAmount > 20 * 10 ** 18 && _tokenAmount <= 40 * 10 ** 18)\n            return \"II\";\n        else if(_tokenAmount > 40 * 10 ** 18 && _tokenAmount <= 60 * 10 ** 18)\n            return \"III\";\n        else if(_tokenAmount > 60 * 10 ** 18 && _tokenAmount <= 80 * 10 ** 18)\n            return \"IV\";\n        else \n            return \"-G-\";\n    }\n\n    // Base64 encoded version of the svg container with styles added\n    // Now our SVG container contains enough information about person holding the NFT, their EXP balance \n    // Everything on-chain (The exciting part or the part that motivates me further to develop better solutions) \n    function _base64EncodeImage(uint256 _tokenAmount) internal pure returns (string memory) {\n        string memory _returning_svg = Base64.encode(abi.encodePacked(\n                _svgCont_Start,\n                _getExperienceLevel(_tokenAmount),  \n                _svgCont_Mid,\n                Strings.toString(_tokenAmount),\n                _svgCont_End \n            ));\n\n        return string(abi.encodePacked(\"data:image/svg+xml;base64,\", _returning_svg)); \n    }\n\n    function callthisForImage(uint256 _tokenAmount) public pure returns (string memory) {\n        string memory _returning_svg = Base64.encode(abi.encodePacked(\n                _svgCont_Start,\n                _getExperienceLevel(_tokenAmount),  \n                _svgCont_Mid,\n                Strings.toString(_tokenAmount),\n                _svgCont_End \n            ));\n\n        return string(abi.encodePacked(\"data:image/svg+xml;base64,\", _returning_svg)); \n    }\n\n    // Styles for the image \n    //function _getStyleForAnimation() internal pure returns (string memory) {\n        // If ever required internal styles, use this function\n    //}\n\n    // Now the main function that will handle generating actual token url \n    /// @param _nftID - NFT token ID for which this function call is happening \n    /// @param _tokenAmount - Value of total EXP Token the owner of the NFT has \n    function _generateTokenURI(uint256 _nftID, uint256 _tokenAmount, address _owner) internal pure returns (string memory tokenURI) {\n        // Get our image url prepared with _tokenAmount \n        string memory _imgUrl = _base64EncodeImage(_tokenAmount);\n        // Get experience level that can be show in the middle of the image \n        string memory _expLevel = _getExperienceLevel(_tokenAmount);\n        \n        // Json that will be returned when tokenURI function request is received \n        // This prepared the expected response format, including all the necessary data \n        // to display image after call to tokenURI\n        bytes memory _metaJson_start = abi.encodePacked(\n            '{ \"name\": \"EXPerience NFT - ',\n            Strings.toString(_nftID),\n            '\"description\": \"EXPerience NFT. Part of Ethernaut DAO bounties. Soulbound token/asset experience through EXP Token and EXPerience NFT.',\n            '\", \"external_url\": \"https://github.com/SolDev-HP/EXPerience_Game\"',\n            ', \"attributes\": [{\"trait_type\": \"EXPerience Level\", \"value\": \"',\n            _expLevel,\n            '\"}], \"owner\": \"'\n        );\n\n        bytes memory _metaJson_end = abi.encodePacked(\n            _metaJson_start,\n            _owner,\n            '\", \"image\": \"',\n            _imgUrl,\n            '\", \"animation_url\": \"',\n            _imgUrl,\n            '\"}'\n        );\n        \n        tokenURI = string(\n            abi.encodePacked(\n                'data:application/json;base64,',\n                Base64.encode(_metaJson_end)\n            )\n        );\n    }\n}",
  "sourcePath": "contracts/libs/BadgeFactory.sol",
  "type": "library"
}