{
  "abi": [
    {
      "inputs": [
        {
          "internalType": "string",
          "name": "",
          "type": "string"
        }
      ],
      "name": "func1",
      "outputs": [
        {
          "internalType": "bool",
          "name": "",
          "type": "bool"
        }
      ],
      "stateMutability": "view",
      "type": "function"
    },
    {
      "inputs": [],
      "name": "func2",
      "outputs": [
        {
          "internalType": "string",
          "name": "",
          "type": "string"
        }
      ],
      "stateMutability": "nonpayable",
      "type": "function"
    },
    {
      "inputs": [],
      "name": "supportedInterfaces",
      "outputs": [
        {
          "internalType": "bytes4",
          "name": "",
          "type": "bytes4"
        }
      ],
      "stateMutability": "pure",
      "type": "function"
    },
    {
      "inputs": [],
      "name": "supportedInterfacesBySelectors",
      "outputs": [
        {
          "internalType": "bytes4",
          "name": "",
          "type": "bytes4"
        }
      ],
      "stateMutability": "pure",
      "type": "function"
    },
    {
      "inputs": [],
      "name": "supportsImpMe",
      "outputs": [
        {
          "internalType": "bytes4",
          "name": "",
          "type": "bytes4"
        }
      ],
      "stateMutability": "pure",
      "type": "function"
    }
  ],
  "bytecode": "608060405234801561001057600080fd5b50610215806100206000396000f3fe608060405234801561001057600080fd5b50600436106100575760003560e01c8063037cc0e61461005c57806367d00d6b146100835780637716c3731461005c5780639f4c4ba714610090578063b1ade4db146100b4575b600080fd5b630bb86bdf60e21b5b6040516001600160e01b031990911681526020015b60405180910390f35b634931a21760e01b610065565b6100a461009e3660046100d9565b50600090565b604051901515815260200161007a565b606060405161007a919061018a565b634e487b7160e01b600052604160045260246000fd5b6000602082840312156100eb57600080fd5b813567ffffffffffffffff8082111561010357600080fd5b818401915084601f83011261011757600080fd5b813581811115610129576101296100c3565b604051601f8201601f19908116603f01168101908382118183101715610151576101516100c3565b8160405282815287602084870101111561016a57600080fd5b826020860160208301376000928101602001929092525095945050505050565b600060208083528351808285015260005b818110156101b75785810183015185820160400152820161019b565b818111156101c9576000604083870101525b50601f01601f191692909201604001939250505056fea2646970667358221220c59840b641bc858f0e2ab9ff44002c254fe7cf1be2d43ed7351baca1b20fad4b64736f6c634300080d0033",
  "bytecodeSha1": "edc2a270aa58637a8c285e9eb2e71b6be904cbc6",
  "compiler": {
    "evm_version": "istanbul",
    "optimizer": {
      "enabled": true,
      "runs": 200
    },
    "version": "0.8.13+commit.abaa5c0e"
  },
  "contractName": "BaseCon",
  "language": "Solidity",
  "natspec": {
    "kind": "dev",
    "methods": {},
    "version": 1
  },
  "opcodes": "PUSH1 0x80 PUSH1 0x40 MSTORE CALLVALUE DUP1 ISZERO PUSH2 0x10 JUMPI PUSH1 0x0 DUP1 REVERT JUMPDEST POP PUSH1 0x4 CALLDATASIZE LT PUSH2 0x57 JUMPI PUSH1 0x0 CALLDATALOAD PUSH1 0xE0 SHR DUP1 PUSH4 0x37CC0E6 EQ PUSH2 0x5C JUMPI DUP1 PUSH4 0x67D00D6B EQ PUSH2 0x83 JUMPI DUP1 PUSH4 0x7716C373 EQ PUSH2 0x5C JUMPI DUP1 PUSH4 0x9F4C4BA7 EQ PUSH2 0x90 JUMPI DUP1 PUSH4 0xB1ADE4DB EQ PUSH2 0xB4 JUMPI JUMPDEST PUSH1 0x0 DUP1 REVERT JUMPDEST PUSH4 0xBB86BDF PUSH1 0xE2 SHL JUMPDEST PUSH1 0x40 MLOAD PUSH1 0x1 PUSH1 0x1 PUSH1 0xE0 SHL SUB NOT SWAP1 SWAP2 AND DUP2 MSTORE PUSH1 0x20 ADD JUMPDEST PUSH1 0x40 MLOAD DUP1 SWAP2 SUB SWAP1 RETURN JUMPDEST PUSH4 0x4931A217 PUSH1 0xE0 SHL PUSH2 0x65 JUMP JUMPDEST PUSH2 0xA4 PUSH2 0x9E CALLDATASIZE PUSH1 0x4 PUSH2 0xD9 JUMP JUMPDEST POP PUSH1 0x0 SWAP1 JUMP JUMPDEST PUSH1 0x40 MLOAD SWAP1 ISZERO ISZERO DUP2 MSTORE PUSH1 0x20 ADD PUSH2 0x7A JUMP JUMPDEST PUSH1 0x60 PUSH1 0x40 MLOAD PUSH2 0x7A SWAP2 SWAP1 PUSH2 0x18A JUMP JUMPDEST PUSH4 0x4E487B71 PUSH1 0xE0 SHL PUSH1 0x0 MSTORE PUSH1 0x41 PUSH1 0x4 MSTORE PUSH1 0x24 PUSH1 0x0 REVERT JUMPDEST PUSH1 0x0 PUSH1 0x20 DUP3 DUP5 SUB SLT ISZERO PUSH2 0xEB JUMPI PUSH1 0x0 DUP1 REVERT JUMPDEST DUP2 CALLDATALOAD PUSH8 0xFFFFFFFFFFFFFFFF DUP1 DUP3 GT ISZERO PUSH2 0x103 JUMPI PUSH1 0x0 DUP1 REVERT JUMPDEST DUP2 DUP5 ADD SWAP2 POP DUP5 PUSH1 0x1F DUP4 ADD SLT PUSH2 0x117 JUMPI PUSH1 0x0 DUP1 REVERT JUMPDEST DUP2 CALLDATALOAD DUP2 DUP2 GT ISZERO PUSH2 0x129 JUMPI PUSH2 0x129 PUSH2 0xC3 JUMP JUMPDEST PUSH1 0x40 MLOAD PUSH1 0x1F DUP3 ADD PUSH1 0x1F NOT SWAP1 DUP2 AND PUSH1 0x3F ADD AND DUP2 ADD SWAP1 DUP4 DUP3 GT DUP2 DUP4 LT OR ISZERO PUSH2 0x151 JUMPI PUSH2 0x151 PUSH2 0xC3 JUMP JUMPDEST DUP2 PUSH1 0x40 MSTORE DUP3 DUP2 MSTORE DUP8 PUSH1 0x20 DUP5 DUP8 ADD ADD GT ISZERO PUSH2 0x16A JUMPI PUSH1 0x0 DUP1 REVERT JUMPDEST DUP3 PUSH1 0x20 DUP7 ADD PUSH1 0x20 DUP4 ADD CALLDATACOPY PUSH1 0x0 SWAP3 DUP2 ADD PUSH1 0x20 ADD SWAP3 SWAP1 SWAP3 MSTORE POP SWAP6 SWAP5 POP POP POP POP POP JUMP JUMPDEST PUSH1 0x0 PUSH1 0x20 DUP1 DUP4 MSTORE DUP4 MLOAD DUP1 DUP3 DUP6 ADD MSTORE PUSH1 0x0 JUMPDEST DUP2 DUP2 LT ISZERO PUSH2 0x1B7 JUMPI DUP6 DUP2 ADD DUP4 ADD MLOAD DUP6 DUP3 ADD PUSH1 0x40 ADD MSTORE DUP3 ADD PUSH2 0x19B JUMP JUMPDEST DUP2 DUP2 GT ISZERO PUSH2 0x1C9 JUMPI PUSH1 0x0 PUSH1 0x40 DUP4 DUP8 ADD ADD MSTORE JUMPDEST POP PUSH1 0x1F ADD PUSH1 0x1F NOT AND SWAP3 SWAP1 SWAP3 ADD PUSH1 0x40 ADD SWAP4 SWAP3 POP POP POP JUMP INVALID LOG2 PUSH5 0x6970667358 0x22 SLT KECCAK256 0xC5 SWAP9 BLOCKHASH 0xB6 COINBASE 0xBC DUP6 DUP16 0xE 0x2A 0xB9 SELFDESTRUCT DIFFICULTY STOP 0x2C 0x25 0x4F 0xE7 0xCF SHL 0xE2 0xD4 RETURNDATACOPY 0xD7 CALLDATALOAD SHL 0xAC LOG1 0xB2 0xF 0xAD 0x4B PUSH5 0x736F6C6343 STOP ADDMOD 0xD STOP CALLER ",
  "sha1": "2c0aedc465d1a659cff000ceae246cf00d96c433",
  "source": "// SPDX-License-Identifier: MIT\npragma solidity >=0.8.0;\ninterface ImpMe {\n    function func1(string memory) external returns (bool);\n    function func2() external returns (string memory);\n}\n\ninterface IERC20Metadata {\n    /**\n     * @dev Returns the name of the token.\n     */\n    function name() external view returns (string memory);\n\n    /**\n     * @dev Returns the symbol of the token.\n     */\n    function symbol() external view returns (string memory);\n\n    /**\n     * @dev Returns the decimals places of the token.\n     */\n    function decimals() external view returns (uint8);\n}\n\ncontract BaseCon is ImpMe {\n    function supportedInterfacesBySelectors() external pure returns (bytes4) {\n        return this.supportedInterfacesBySelectors.selector ^ this.func1.selector ^ this.func2.selector;\n    }\n\n    function supportedInterfaces() external pure returns (bytes4) {\n        return this.func1.selector ^ this.func2.selector;               // Should yield same results as type(ImpMe).interfaceId\n    }\n    function supportsImpMe() external pure returns (bytes4) {\n        return type(ImpMe).interfaceId;\n    }\n    function func1(string memory) external view returns (bool) { }\n    function func2() external returns (string memory) { }\n}\n\ncontract BaseTwo is IERC20Metadata {\n    function baseTwoInterface() public pure returns (bytes4) {\n        return type(IERC20Metadata).interfaceId;\n    }\n\n    function name() external view returns (string memory) { }\n    function symbol() external view returns (string memory) { }\n    function decimals() external view returns (uint8) { }\n}",
  "sourcePath": "contracts/kb_contracts/InterfaceIDTest.sol",
  "type": "contract"
}