{
  "abi": [
    {
      "inputs": [],
      "name": "baseTwoInterface",
      "outputs": [
        {
          "internalType": "bytes4",
          "name": "",
          "type": "bytes4"
        }
      ],
      "stateMutability": "pure",
      "type": "function"
    },
    {
      "inputs": [],
      "name": "decimals",
      "outputs": [
        {
          "internalType": "uint8",
          "name": "",
          "type": "uint8"
        }
      ],
      "stateMutability": "view",
      "type": "function"
    },
    {
      "inputs": [],
      "name": "name",
      "outputs": [
        {
          "internalType": "string",
          "name": "",
          "type": "string"
        }
      ],
      "stateMutability": "view",
      "type": "function"
    },
    {
      "inputs": [],
      "name": "symbol",
      "outputs": [
        {
          "internalType": "string",
          "name": "",
          "type": "string"
        }
      ],
      "stateMutability": "view",
      "type": "function"
    }
  ],
  "bytecode": "608060405234801561001057600080fd5b5061010b806100206000396000f3fe6080604052348015600f57600080fd5b506004361060465760003560e01c806306fdde0314604b578063313ce56714606157806395d89b4114604b578063d1b0054614606f575b600080fd5b6060604051605891906083565b60405180910390f35b604051600081526020016058565b60405163a219a02560e01b81526020016058565b600060208083528351808285015260005b8181101560ae578581018301518582016040015282016094565b8181111560bf576000604083870101525b50601f01601f191692909201604001939250505056fea26469706673582212208c079f0cd0c7c12da2a7e400db644d931f6c81cae3794aa713a093037687c8c164736f6c634300080d0033",
  "bytecodeSha1": "259dcdd2b06f054cb79c14082d8d5865e9dfcfc8",
  "compiler": {
    "evm_version": "istanbul",
    "optimizer": {
      "enabled": true,
      "runs": 200
    },
    "version": "0.8.13+commit.abaa5c0e"
  },
  "contractName": "BaseTwo",
  "language": "Solidity",
  "natspec": {
    "kind": "dev",
    "methods": {
      "decimals()": {
        "details": "Returns the decimals places of the token."
      },
      "name()": {
        "details": "Returns the name of the token."
      },
      "symbol()": {
        "details": "Returns the symbol of the token."
      }
    },
    "version": 1
  },
  "opcodes": "PUSH1 0x80 PUSH1 0x40 MSTORE CALLVALUE DUP1 ISZERO PUSH1 0xF JUMPI PUSH1 0x0 DUP1 REVERT JUMPDEST POP PUSH1 0x4 CALLDATASIZE LT PUSH1 0x46 JUMPI PUSH1 0x0 CALLDATALOAD PUSH1 0xE0 SHR DUP1 PUSH4 0x6FDDE03 EQ PUSH1 0x4B JUMPI DUP1 PUSH4 0x313CE567 EQ PUSH1 0x61 JUMPI DUP1 PUSH4 0x95D89B41 EQ PUSH1 0x4B JUMPI DUP1 PUSH4 0xD1B00546 EQ PUSH1 0x6F JUMPI JUMPDEST PUSH1 0x0 DUP1 REVERT JUMPDEST PUSH1 0x60 PUSH1 0x40 MLOAD PUSH1 0x58 SWAP2 SWAP1 PUSH1 0x83 JUMP JUMPDEST PUSH1 0x40 MLOAD DUP1 SWAP2 SUB SWAP1 RETURN JUMPDEST PUSH1 0x40 MLOAD PUSH1 0x0 DUP2 MSTORE PUSH1 0x20 ADD PUSH1 0x58 JUMP JUMPDEST PUSH1 0x40 MLOAD PUSH4 0xA219A025 PUSH1 0xE0 SHL DUP2 MSTORE PUSH1 0x20 ADD PUSH1 0x58 JUMP JUMPDEST PUSH1 0x0 PUSH1 0x20 DUP1 DUP4 MSTORE DUP4 MLOAD DUP1 DUP3 DUP6 ADD MSTORE PUSH1 0x0 JUMPDEST DUP2 DUP2 LT ISZERO PUSH1 0xAE JUMPI DUP6 DUP2 ADD DUP4 ADD MLOAD DUP6 DUP3 ADD PUSH1 0x40 ADD MSTORE DUP3 ADD PUSH1 0x94 JUMP JUMPDEST DUP2 DUP2 GT ISZERO PUSH1 0xBF JUMPI PUSH1 0x0 PUSH1 0x40 DUP4 DUP8 ADD ADD MSTORE JUMPDEST POP PUSH1 0x1F ADD PUSH1 0x1F NOT AND SWAP3 SWAP1 SWAP3 ADD PUSH1 0x40 ADD SWAP4 SWAP3 POP POP POP JUMP INVALID LOG2 PUSH5 0x6970667358 0x22 SLT KECCAK256 DUP13 SMOD SWAP16 0xC 0xD0 0xC7 0xC1 0x2D LOG2 0xA7 0xE4 STOP 0xDB PUSH5 0x4D931F6C81 0xCA 0xE3 PUSH26 0x4AA713A093037687C8C164736F6C634300080D00330000000000 ",
  "sha1": "2c0aedc465d1a659cff000ceae246cf00d96c433",
  "source": "// SPDX-License-Identifier: MIT\npragma solidity >=0.8.0;\ninterface ImpMe {\n    function func1(string memory) external returns (bool);\n    function func2() external returns (string memory);\n}\n\ninterface IERC20Metadata {\n    /**\n     * @dev Returns the name of the token.\n     */\n    function name() external view returns (string memory);\n\n    /**\n     * @dev Returns the symbol of the token.\n     */\n    function symbol() external view returns (string memory);\n\n    /**\n     * @dev Returns the decimals places of the token.\n     */\n    function decimals() external view returns (uint8);\n}\n\ncontract BaseCon is ImpMe {\n    function supportedInterfacesBySelectors() external pure returns (bytes4) {\n        return this.supportedInterfacesBySelectors.selector ^ this.func1.selector ^ this.func2.selector;\n    }\n\n    function supportedInterfaces() external pure returns (bytes4) {\n        return this.func1.selector ^ this.func2.selector;               // Should yield same results as type(ImpMe).interfaceId\n    }\n    function supportsImpMe() external pure returns (bytes4) {\n        return type(ImpMe).interfaceId;\n    }\n    function func1(string memory) external view returns (bool) { }\n    function func2() external returns (string memory) { }\n}\n\ncontract BaseTwo is IERC20Metadata {\n    function baseTwoInterface() public pure returns (bytes4) {\n        return type(IERC20Metadata).interfaceId;\n    }\n\n    function name() external view returns (string memory) { }\n    function symbol() external view returns (string memory) { }\n    function decimals() external view returns (uint8) { }\n}",
  "sourcePath": "contracts/kb_contracts/InterfaceIDTest.sol",
  "type": "contract"
}