{
  "abi": [
    {
      "inputs": [
        {
          "internalType": "string",
          "name": "_name",
          "type": "string"
        },
        {
          "internalType": "string",
          "name": "_symbol",
          "type": "string"
        },
        {
          "internalType": "address",
          "name": "_expcontract",
          "type": "address"
        }
      ],
      "stateMutability": "nonpayable",
      "type": "constructor"
    },
    {
      "inputs": [],
      "name": "ActionRestricted",
      "type": "error"
    },
    {
      "anonymous": false,
      "inputs": [
        {
          "indexed": true,
          "internalType": "address",
          "name": "owner",
          "type": "address"
        },
        {
          "indexed": true,
          "internalType": "address",
          "name": "approved",
          "type": "address"
        },
        {
          "indexed": true,
          "internalType": "uint256",
          "name": "tokenId",
          "type": "uint256"
        }
      ],
      "name": "Approval",
      "type": "event"
    },
    {
      "anonymous": false,
      "inputs": [
        {
          "indexed": true,
          "internalType": "address",
          "name": "owner",
          "type": "address"
        },
        {
          "indexed": true,
          "internalType": "address",
          "name": "operator",
          "type": "address"
        },
        {
          "indexed": false,
          "internalType": "bool",
          "name": "approved",
          "type": "bool"
        }
      ],
      "name": "ApprovalForAll",
      "type": "event"
    },
    {
      "anonymous": false,
      "inputs": [
        {
          "indexed": true,
          "internalType": "address",
          "name": "_experienceGainer",
          "type": "address"
        }
      ],
      "name": "ExperienceNFTGenerated",
      "type": "event"
    },
    {
      "anonymous": false,
      "inputs": [
        {
          "indexed": true,
          "internalType": "address",
          "name": "_admin",
          "type": "address"
        },
        {
          "indexed": true,
          "internalType": "bool",
          "name": "_isAdmin",
          "type": "bool"
        }
      ],
      "name": "TokenAdminSet",
      "type": "event"
    },
    {
      "anonymous": false,
      "inputs": [
        {
          "indexed": true,
          "internalType": "address",
          "name": "from",
          "type": "address"
        },
        {
          "indexed": true,
          "internalType": "address",
          "name": "to",
          "type": "address"
        },
        {
          "indexed": true,
          "internalType": "uint256",
          "name": "tokenId",
          "type": "uint256"
        }
      ],
      "name": "Transfer",
      "type": "event"
    },
    {
      "inputs": [
        {
          "internalType": "address",
          "name": "",
          "type": "address"
        },
        {
          "internalType": "uint256",
          "name": "",
          "type": "uint256"
        }
      ],
      "name": "approve",
      "outputs": [],
      "stateMutability": "view",
      "type": "function"
    },
    {
      "inputs": [
        {
          "internalType": "address",
          "name": "owner",
          "type": "address"
        }
      ],
      "name": "balanceOf",
      "outputs": [
        {
          "internalType": "uint256",
          "name": "",
          "type": "uint256"
        }
      ],
      "stateMutability": "view",
      "type": "function"
    },
    {
      "inputs": [
        {
          "internalType": "address",
          "name": "_to",
          "type": "address"
        }
      ],
      "name": "genExperience",
      "outputs": [],
      "stateMutability": "nonpayable",
      "type": "function"
    },
    {
      "inputs": [
        {
          "internalType": "uint256",
          "name": "",
          "type": "uint256"
        }
      ],
      "name": "getApproved",
      "outputs": [
        {
          "internalType": "address",
          "name": "",
          "type": "address"
        }
      ],
      "stateMutability": "view",
      "type": "function"
    },
    {
      "inputs": [
        {
          "internalType": "address",
          "name": "",
          "type": "address"
        },
        {
          "internalType": "address",
          "name": "",
          "type": "address"
        }
      ],
      "name": "isApprovedForAll",
      "outputs": [
        {
          "internalType": "bool",
          "name": "",
          "type": "bool"
        }
      ],
      "stateMutability": "view",
      "type": "function"
    },
    {
      "inputs": [],
      "name": "name",
      "outputs": [
        {
          "internalType": "string",
          "name": "",
          "type": "string"
        }
      ],
      "stateMutability": "view",
      "type": "function"
    },
    {
      "inputs": [],
      "name": "owner",
      "outputs": [
        {
          "internalType": "address",
          "name": "",
          "type": "address"
        }
      ],
      "stateMutability": "view",
      "type": "function"
    },
    {
      "inputs": [
        {
          "internalType": "uint256",
          "name": "tokenId",
          "type": "uint256"
        }
      ],
      "name": "ownerOf",
      "outputs": [
        {
          "internalType": "address",
          "name": "",
          "type": "address"
        }
      ],
      "stateMutability": "view",
      "type": "function"
    },
    {
      "inputs": [
        {
          "internalType": "address",
          "name": "",
          "type": "address"
        },
        {
          "internalType": "address",
          "name": "",
          "type": "address"
        },
        {
          "internalType": "uint256",
          "name": "",
          "type": "uint256"
        }
      ],
      "name": "safeTransferFrom",
      "outputs": [],
      "stateMutability": "view",
      "type": "function"
    },
    {
      "inputs": [
        {
          "internalType": "address",
          "name": "",
          "type": "address"
        },
        {
          "internalType": "address",
          "name": "",
          "type": "address"
        },
        {
          "internalType": "uint256",
          "name": "",
          "type": "uint256"
        },
        {
          "internalType": "bytes",
          "name": "",
          "type": "bytes"
        }
      ],
      "name": "safeTransferFrom",
      "outputs": [],
      "stateMutability": "view",
      "type": "function"
    },
    {
      "inputs": [
        {
          "internalType": "address",
          "name": "",
          "type": "address"
        },
        {
          "internalType": "bool",
          "name": "",
          "type": "bool"
        }
      ],
      "name": "setApprovalForAll",
      "outputs": [],
      "stateMutability": "view",
      "type": "function"
    },
    {
      "inputs": [
        {
          "internalType": "address",
          "name": "_contract",
          "type": "address"
        }
      ],
      "name": "setExpContractAddress",
      "outputs": [],
      "stateMutability": "nonpayable",
      "type": "function"
    },
    {
      "inputs": [
        {
          "internalType": "address",
          "name": "_admin",
          "type": "address"
        },
        {
          "internalType": "bool",
          "name": "_isAdmin",
          "type": "bool"
        }
      ],
      "name": "setTokenAdmin",
      "outputs": [],
      "stateMutability": "nonpayable",
      "type": "function"
    },
    {
      "inputs": [
        {
          "internalType": "bytes4",
          "name": "interfaceId",
          "type": "bytes4"
        }
      ],
      "name": "supportsInterface",
      "outputs": [
        {
          "internalType": "bool",
          "name": "",
          "type": "bool"
        }
      ],
      "stateMutability": "view",
      "type": "function"
    },
    {
      "inputs": [],
      "name": "symbol",
      "outputs": [
        {
          "internalType": "string",
          "name": "",
          "type": "string"
        }
      ],
      "stateMutability": "view",
      "type": "function"
    },
    {
      "inputs": [
        {
          "internalType": "uint256",
          "name": "_tokenID",
          "type": "uint256"
        }
      ],
      "name": "testURI",
      "outputs": [
        {
          "internalType": "string",
          "name": "",
          "type": "string"
        }
      ],
      "stateMutability": "pure",
      "type": "function"
    },
    {
      "inputs": [
        {
          "internalType": "uint256",
          "name": "_tokenID",
          "type": "uint256"
        }
      ],
      "name": "tokenURI",
      "outputs": [
        {
          "internalType": "string",
          "name": "",
          "type": "string"
        }
      ],
      "stateMutability": "view",
      "type": "function"
    },
    {
      "inputs": [],
      "name": "totalSupply",
      "outputs": [
        {
          "internalType": "uint256",
          "name": "",
          "type": "uint256"
        }
      ],
      "stateMutability": "view",
      "type": "function"
    },
    {
      "inputs": [
        {
          "internalType": "address",
          "name": "",
          "type": "address"
        },
        {
          "internalType": "address",
          "name": "",
          "type": "address"
        },
        {
          "internalType": "uint256",
          "name": "",
          "type": "uint256"
        }
      ],
      "name": "transferFrom",
      "outputs": [],
      "stateMutability": "view",
      "type": "function"
    }
  ],
  "bytecode": "60806040523480156200001157600080fd5b50604051620023ee380380620023ee8339810160408190526200003491620002d3565b8251839083906200004d90600190602085019062000160565b5080516200006390600290602084019062000160565b50620000766380ac58cd60e01b620000dc565b62000088635b5e139f60e01b620000dc565b505060078054336001600160a01b03199182168117909255600980549091166001600160a01b0393909316929092179091556000908152600b60205260409020805460ff19166001179055506200039c9050565b6001600160e01b031980821690036200013b5760405162461bcd60e51b815260206004820152601b60248201527f4552433136353a20496e76616c696420496e7465726661636549440000000000604482015260640160405180910390fd5b6001600160e01b0319166000908152602081905260409020805460ff19166001179055565b8280546200016e9062000360565b90600052602060002090601f016020900481019282620001925760008555620001dd565b82601f10620001ad57805160ff1916838001178555620001dd565b82800160010185558215620001dd579182015b82811115620001dd578251825591602001919060010190620001c0565b50620001eb929150620001ef565b5090565b5b80821115620001eb5760008155600101620001f0565b634e487b7160e01b600052604160045260246000fd5b600082601f8301126200022e57600080fd5b81516001600160401b03808211156200024b576200024b62000206565b604051601f8301601f19908116603f0116810190828211818310171562000276576200027662000206565b816040528381526020925086838588010111156200029357600080fd5b600091505b83821015620002b7578582018301518183018401529082019062000298565b83821115620002c95760008385830101525b9695505050505050565b600080600060608486031215620002e957600080fd5b83516001600160401b03808211156200030157600080fd5b6200030f878388016200021c565b945060208601519150808211156200032657600080fd5b5062000335868287016200021c565b604086015190935090506001600160a01b03811681146200035557600080fd5b809150509250925092565b600181811c908216806200037557607f821691505b6020821081036200039657634e487b7160e01b600052602260045260246000fd5b50919050565b61204280620003ac6000396000f3fe608060405234801561001057600080fd5b50600436106101215760003560e01c806370a08231116100ad578063c87b56dd11610071578063c87b56dd14610231578063ccd2d6f514610244578063e2fc14fb14610257578063e985e9c51461026a578063f04c92581461027857600080fd5b806370a08231146101e95780638da5cb5b146101fc57806395d89b411461020d578063a22cb46514610215578063b88d4fde1461022357600080fd5b806318160ddd116100f457806318160ddd146101a357806323b872dd146101b55780633789f8d1146101c357806342842e0e146101b55780636352211e146101d657600080fd5b806301ffc9a71461012657806306fdde031461014e578063081812fc14610163578063095ea7b31461018e575b600080fd5b610139610134366004610fe4565b61028b565b60405190151581526020015b60405180910390f35b61015661029c565b6040516101459190611045565b610176610171366004611078565b61032e565b6040516001600160a01b039091168152602001610145565b6101a161019c3660046110a8565b610349565b005b6008545b604051908152602001610145565b6101a161019c3660046110d2565b6101a16101d136600461110e565b610362565b6101766101e4366004611078565b6103f8565b6101a76101f736600461114a565b61046f565b6007546001600160a01b0316610176565b6101566104f5565b6101a161019c36600461110e565b6101a161019c3660046111d4565b61015661023f366004611078565b610504565b6101a161025236600461114a565b6105ff565b6101a161026536600461114a565b61079c565b61013961017136600461127f565b610156610286366004611078565b610858565b6000610296826108d3565b92915050565b6060600180546102ab906112b2565b80601f01602080910402602001604051908101604052809291908181526020018280546102d7906112b2565b80156103245780601f106102f957610100808354040283529160200191610324565b820191906000526020600020905b81548152906001019060200180831161030757829003601f168201915b5050505050905090565b6000604051633991fca960e21b815260040160405180910390fd5b604051633991fca960e21b815260040160405180910390fd5b336103756007546001600160a01b031690565b6001600160a01b0316146103a45760405162461bcd60e51b815260040161039b906112ec565b60405180910390fd5b6001600160a01b0382166000818152600b6020526040808220805460ff191685151590811790915590519092917fc8fa0f05244aec5faf5a72346ef525e3e3bf52f240e55bd42d0c44f7ce14f9c391a35050565b6000818152600360205260408120546001600160a01b0316806102965760405162461bcd60e51b815260206004820152602960248201527f4552433732313a206f776e657220717565727920666f72206e6f6e657869737460448201526832b73a103a37b5b2b760b91b606482015260840161039b565b60006001600160a01b0382166104d95760405162461bcd60e51b815260206004820152602960248201527f4552433732313a2061646472657373207a65726f206973206e6f7420612076616044820152683634b21037bbb732b960b91b606482015260840161039b565b506001600160a01b031660009081526004602052604090205490565b6060600280546102ab906112b2565b6000818152600360205260409020546060906001600160a01b031661056b5760405162461bcd60e51b815260206004820152601f60248201527f455850657269656e6365204e46543a20496e76616c696420546f6b656e494400604482015260640161039b565b6000610576836103f8565b6009546040516370a0823160e01b81526001600160a01b038084166004830152929350600092909116906370a0823190602401602060405180830381865afa1580156105c6573d6000803e3d6000fd5b505050506040513d601f19601f820116820180604052508101906105ea9190611335565b90506105f784828461090f565b949350505050565b336000908152600b602052604090205460ff1615156001146106635760405162461bcd60e51b815260206004820152601f60248201527f455850657269656e63653a20596f75277265206e6f7420616e2061646d696e00604482015260640161039b565b600954600a80546001600160a01b0319166001600160a01b039283169081179091556040516370a0823160e01b815291831660048301526000916370a0823190602401602060405180830381865afa1580156106c3573d6000803e3d6000fd5b505050506040513d601f19601f820116820180604052508101906106e79190611335565b9050600081116107455760405162461bcd60e51b8152602060048201526024808201527f455850657269656e63653a20496e73756666696369656e74204558502062616c604482015263616e636560e01b606482015260840161039b565b6008805490600061075583611364565b9091555061076383826109b8565b6040516001600160a01b038416907fbd6e4913107c69e3c4fa02301595d1f386394fbefad6b73a2dbc6463ee96a19a90600090a2505050565b336107af6007546001600160a01b031690565b6001600160a01b0316146107d55760405162461bcd60e51b815260040161039b906112ec565b6001600160a01b0381166108365760405162461bcd60e51b815260206004820152602260248201527f496e76616c69642045585020546f6b656e20436f6e7472616374206164647265604482015261737360f01b606482015260840161039b565b600980546001600160a01b0319166001600160a01b0392909216919091179055565b604051633527001560e01b81526004810182905260609073__BadgeFactory__________________________90633527001590602401600060405180830381865af41580156108ab573d6000803e3d6000fd5b505050506040513d6000823e601f3d908101601f19168201604052610296919081019061137d565b60006301ffc9a760e01b6001600160e01b0319831614806102965750506001600160e01b03191660009081526020819052604090205460ff1690565b6060600061091c846109d6565b9050600061092985610a8f565b9050600061093687610bbd565b82604051602001610948929190611410565b604051602081830303815290604052905060008186858660405160200161097294939291906115c2565b604051602081830303815290604052905061098c81610cbe565b60405160200161099c919061166a565b6040516020818303038152906040529450505050509392505050565b6109d2828260405180602001604052806000815250610e11565b5050565b60606000610a65604051806107600160405280610738815260200161182a6107389139610a0285610a8f565b6040518060a00160405280606b8152602001611fa2606b9139610a2487610bbd565b60405180606001604052806028815260200161180260289139604051602001610a519594939291906116af565b604051602081830303815290604052610cbe565b905080604051602001610a78919061171a565b604051602081830303815290604052915050919050565b6060600082118015610aaa57506801158e460913d000008211155b15610acc5750506040805180820190915260018152604960f81b602082015290565b6801158e460913d0000082118015610aed575068022b1c8c1227a000008211155b15610b10575050604080518082019091526002815261494960f01b602082015290565b68022b1c8c1227a0000082118015610b315750680340aad21b3b7000008211155b15610b5557505060408051808201909152600381526249494960e81b602082015290565b680340aad21b3b70000082118015610b7657506804563918244f4000008211155b15610b9957505060408051808201909152600281526124ab60f11b602082015290565b50506040805180820190915260038152622d472d60e81b602082015290565b919050565b606081600003610be45750506040805180820190915260018152600360fc1b602082015290565b8160005b8115610c0e5780610bf881611364565b9150610c079050600a83611775565b9150610be8565b60008167ffffffffffffffff811115610c2957610c29611165565b6040519080825280601f01601f191660200182016040528015610c53576020820181803683370190505b5090505b84156105f757610c68600183611789565b9150610c75600a866117a0565b610c809060306117b4565b60f81b818381518110610c9557610c956117cc565b60200101906001600160f81b031916908160001a905350610cb7600a86611775565b9450610c57565b60608151600003610cdd57505060408051602081019091526000815290565b6000604051806060016040528060408152602001611f626040913990506000600384516002610d0c91906117b4565b610d169190611775565b610d219060046117e2565b67ffffffffffffffff811115610d3957610d39611165565b6040519080825280601f01601f191660200182016040528015610d63576020820181803683370190505b509050600182016020820185865187015b80821015610dcf576003820191508151603f8160121c168501518453600184019350603f81600c1c168501518453600184019350603f8160061c168501518453600184019350603f8116850151845350600183019250610d74565b5050600386510660018114610deb5760028114610dfe57610e06565b603d6001830353603d6002830353610e06565b603d60018303535b509195945050505050565b610e1b8383610e20565b505050565b6001600160a01b038216610e765760405162461bcd60e51b815260206004820181905260248201527f4552433732313a206d696e7420746f20746865207a65726f2061646472657373604482015260640161039b565b6000818152600360205260409020546001600160a01b031615610edb5760405162461bcd60e51b815260206004820152601c60248201527f4552433732313a20746f6b656e20616c7265616479206d696e74656400000000604482015260640161039b565b6001600160a01b03821660009081526004602052604090205415610f5d5760405162461bcd60e51b815260206004820152603360248201527f4552433732313a204f6e6c79206f6e6520455850657269656e636556696577656044820152727220284e46542920706572206164647265737360681b606482015260840161039b565b6001600160a01b0382166000908152600460205260408120805460019290610f869084906117b4565b909155505060008181526003602052604080822080546001600160a01b0319166001600160a01b03861690811790915590518392907fddf252ad1be2c89b69c2b068fc378daa952ba7f163c4a11628f55a4df523b3ef908290a45050565b600060208284031215610ff657600080fd5b81356001600160e01b03198116811461100e57600080fd5b9392505050565b60005b83811015611030578181015183820152602001611018565b8381111561103f576000848401525b50505050565b6020815260008251806020840152611064816040850160208701611015565b601f01601f19169190910160400192915050565b60006020828403121561108a57600080fd5b5035919050565b80356001600160a01b0381168114610bb857600080fd5b600080604083850312156110bb57600080fd5b6110c483611091565b946020939093013593505050565b6000806000606084860312156110e757600080fd5b6110f084611091565b92506110fe60208501611091565b9150604084013590509250925092565b6000806040838503121561112157600080fd5b61112a83611091565b91506020830135801515811461113f57600080fd5b809150509250929050565b60006020828403121561115c57600080fd5b61100e82611091565b634e487b7160e01b600052604160045260246000fd5b604051601f8201601f1916810167ffffffffffffffff811182821017156111a4576111a4611165565b604052919050565b600067ffffffffffffffff8211156111c6576111c6611165565b50601f01601f191660200190565b600080600080608085870312156111ea57600080fd5b6111f385611091565b935061120160208601611091565b925060408501359150606085013567ffffffffffffffff81111561122457600080fd5b8501601f8101871361123557600080fd5b8035611248611243826111ac565b61117b565b81815288602083850101111561125d57600080fd5b8160208401602083013760006020838301015280935050505092959194509250565b6000806040838503121561129257600080fd5b61129b83611091565b91506112a960208401611091565b90509250929050565b600181811c908216806112c657607f821691505b6020821081036112e657634e487b7160e01b600052602260045260246000fd5b50919050565b60208082526029908201527f455850546f6b656e2028416363657373436f6e74726f6c293a204e6f742061756040820152683a3437b934bd32b21760b91b606082015260800190565b60006020828403121561134757600080fd5b5051919050565b634e487b7160e01b600052601160045260246000fd5b6000600182016113765761137661134e565b5060010190565b60006020828403121561138f57600080fd5b815167ffffffffffffffff8111156113a657600080fd5b8201601f810184136113b757600080fd5b80516113c5611243826111ac565b8181528560208385010111156113da57600080fd5b6113eb826020830160208601611015565b95945050505050565b60008151611406818560208601611015565b9290920192915050565b7f7b20226e616d65223a2022455850657269656e6365204e4654202d200000000081526000835161144881601c850160208801611015565b7f226465736372697074696f6e223a2022455850657269656e6365204e46542e20601c918401918201527f50617274206f662045746865726e6175742044414f20626f756e746965732e20603c8201527f536f756c626f756e6420746f6b656e2f617373657420657870657269656e6365605c8201527f207468726f7567682045585020546f6b656e20616e6420455850657269656e63607c82015265329027232a1760d11b609c8201527f222c202265787465726e616c5f75726c223a202268747470733a2f2f6769746860a28201527f75622e636f6d2f536f6c4465762d48502f455850657269656e63655f47616d6560c2820152601160f91b60e28201527f2c202261747472696275746573223a205b7b2274726169745f74797065223a2060e38201527f22455850657269656e6365204c6576656c222c202276616c7565223a202200006101038201526113eb6115a76101218301866113f4565b6e113eae96101137bbb732b9111d101160891b8152600f0190565b600085516115d4818460208a01611015565b606086901b6bffffffffffffffffffffffff19169083019081526c1116101134b6b0b3b2911d101160991b60148201528451611617816021840160208901611015565b741116101130b734b6b0ba34b7b72fbab936111d101160591b60219290910191820152835161164d816036840160208801611015565b61227d60f01b603692909101918201526038019695505050505050565b7f646174613a6170706c69636174696f6e2f6a736f6e3b6261736536342c0000008152600082516116a281601d850160208701611015565b91909101601d0192915050565b600086516116c1818460208b01611015565b8651908301906116d5818360208b01611015565b86519101906116e8818360208a01611015565b85519101906116fb818360208901611015565b845191019061170e818360208801611015565b01979650505050505050565b7f646174613a696d6167652f7376672b786d6c3b6261736536342c00000000000081526000825161175281601a850160208701611015565b91909101601a0192915050565b634e487b7160e01b600052601260045260246000fd5b6000826117845761178461175f565b500490565b60008282101561179b5761179b61134e565b500390565b6000826117af576117af61175f565b500690565b600082198211156117c7576117c761134e565b500190565b634e487b7160e01b600052603260045260246000fd5b60008160001904831182151516156117fc576117fc61134e565b50029056fe3c2f6469763e3c2f6469763e3c2f6469763e3c2f666f726569676e4f626a6563743e3c2f7376673e3c73766720786d6c6e733d22687474703a2f2f7777772e77332e6f72672f323030302f737667222076696577426f783d223020302033303020333030223e203c7374796c6520747970653d22746578742f637373223e203c215b43444154415b202a2c202a3a6265666f72652c202a3a6166746572207b20626f782d73697a696e673a20626f726465722d626f783b7d20626f6479207b206865696768743a2031303076683b206261636b67726f756e643a20233030303b7d202e63656e746572207b206865696768743a20313030253b20646973706c61793a20666c65783b20616c69676e2d6974656d733a2063656e7465723b206a7573746966792d636f6e74656e743a2063656e7465723b20746578742d616c69676e3a2063656e7465723b7d202e636972636c65207b20706f736974696f6e3a2072656c61746976653b2077696474683a2032303070783b206865696768743a2032303070783b20636f6c6f723a20236666663b206261636b67726f756e643a20233030303b20626f726465722d7261646975733a203530253b20626f726465723a2032707820736f6c69643b7d202e6c6f676f207b20666f6e742d73697a653a2031323570783b206c696e652d6865696768743a2031393070783b20766572746963616c2d616c69676e3a206d6964646c653b7d202e627574746f6e207b20706f736974696f6e3a206162736f6c7574653b20626f74746f6d3a203070783b206c6566743a20303b2072696768743a20303b2070616464696e673a203870783b20666f6e742d7765696768743a20626f6c643b20746578742d7472616e73666f726d3a207570706572636173653b206261636b67726f756e643a20233030303b20626f726465723a2032707820736f6c69643b20616e696d6174696f6e3a20736c69646520312e347320656173652d696e2d6f757420696e66696e6974653b20637572736f723a20706f696e7465723b7d202e627574746f6e3a686f766572207b20636f6c6f723a20233030303b206261636b67726f756e643a20236666663b20626f726465722d636f6c6f723a20236666663b7d20406b65796672616d657320736c696465207b203025207b207472616e73666f726d3a207472616e736c61746558283130707829207d20353025207b7472616e73666f726d3a207472616e736c61746558282d3130707829207d2031303025207b207472616e73666f726d3a207472616e736c61746558283130707829207d7d202e74657874207b20706f736974696f6e3a206162736f6c7574653b20746f703a20303b206c6566743a20303b2077696474683a20313030253b206865696768743a20313030253b20666f6e742d73697a653a20323470783b20666f6e742d7765696768743a20626f6c643b20746578742d7472616e73666f726d3a207570706572636173653b20616e696d6174696f6e3a20726f7461746520313473206c696e65617220696e66696e6974653b2066696c6c3a20236666663b7d20406b65796672616d657320726f74617465207b2066726f6d207b207472616e73666f726d3a20726f746174652830293b207d20746f207b207472616e73666f726d3a20726f7461746528333630646567293b207d7d205d5d3e203c2f7374796c653e203c666f726569676e4f626a65637420783d2232302220793d223230222077696474683d2233303022206865696768743d22333030223e203c64697620636c6173733d2263656e7465722220786d6c6e733d22687474703a2f2f7777772e77332e6f72672f313939392f7868746d6c223e3c64697620636c6173733d22636972636c652220786d6c6e733d22687474703a2f2f7777772e77332e6f72672f313939392f7868746d6c223e3c64697620636c6173733d226c6f676f2220786d6c6e733d22687474703a2f2f7777772e77332e6f72672f313939392f7868746d6c223e49493c2f6469763e3c64697620636c6173733d22746578742220786d6c6e733d22687474703a2f2f7777772e77332e6f72672f313939392f7868746d6c223e20203c73766720783d22302220793d2230222076696577426f783d2230203020333030203330302220656e61626c652d6261636b67726f756e643d226e65772030203020333030203330302220786d6c3a73706163653d2270726573657276652220786d6c6e733d22687474703a2f2f7777772e77332e6f72672f323030302f737667223e203c646566733e203c706174682069643d22636972636c65506174682220643d22204d203135302c20313530206d202d3132302c20302061203132302c313230203020302c31203234302c302061203132302c313230203020302c31202d3234302c30202220202f3e203c2f646566733e203c673e203c746578743e203c746578745061746820687265663d2223636972636c65506174682220786d6c3a73706163653d227072657365727665223e455850657269656e6365204e465421202020202020202020466f722e45746865726e61757444414f2020202020202020204c6576656c202d204142434445464748494a4b4c4d4e4f505152535455565758595a6162636465666768696a6b6c6d6e6f707172737475767778797a303132333435363738392b2f3c2f74657874506174683e3c2f746578743e3c2f673e3c2f7376673e3c2f6469763e3c64697620636c6173733d22627574746f6e2220786d6c6e733d22687474703a2f2f7777772e77332e6f72672f313939392f7868746d6c223e5b4558505d2042616c616e6365202d20a26469706673582212204b75e40861a9c4561b43ab23d217756469949b97a2c948aed351e8bb6ce3038464736f6c634300080d0033",
  "bytecodeSha1": "e8192b7c3be9982d0e0cf401a2bf594d1691a2d8",
  "compiler": {
    "evm_version": "istanbul",
    "optimizer": {
      "enabled": true,
      "runs": 200
    },
    "version": "0.8.13+commit.abaa5c0e"
  },
  "contractName": "EXPerienceNFT",
  "deployedBytecode": "608060405234801561001057600080fd5b50600436106101215760003560e01c806370a08231116100ad578063c87b56dd11610071578063c87b56dd14610231578063ccd2d6f514610244578063e2fc14fb14610257578063e985e9c51461026a578063f04c92581461027857600080fd5b806370a08231146101e95780638da5cb5b146101fc57806395d89b411461020d578063a22cb46514610215578063b88d4fde1461022357600080fd5b806318160ddd116100f457806318160ddd146101a357806323b872dd146101b55780633789f8d1146101c357806342842e0e146101b55780636352211e146101d657600080fd5b806301ffc9a71461012657806306fdde031461014e578063081812fc14610163578063095ea7b31461018e575b600080fd5b610139610134366004610fe4565b61028b565b60405190151581526020015b60405180910390f35b61015661029c565b6040516101459190611045565b610176610171366004611078565b61032e565b6040516001600160a01b039091168152602001610145565b6101a161019c3660046110a8565b610349565b005b6008545b604051908152602001610145565b6101a161019c3660046110d2565b6101a16101d136600461110e565b610362565b6101766101e4366004611078565b6103f8565b6101a76101f736600461114a565b61046f565b6007546001600160a01b0316610176565b6101566104f5565b6101a161019c36600461110e565b6101a161019c3660046111d4565b61015661023f366004611078565b610504565b6101a161025236600461114a565b6105ff565b6101a161026536600461114a565b61079c565b61013961017136600461127f565b610156610286366004611078565b610858565b6000610296826108d3565b92915050565b6060600180546102ab906112b2565b80601f01602080910402602001604051908101604052809291908181526020018280546102d7906112b2565b80156103245780601f106102f957610100808354040283529160200191610324565b820191906000526020600020905b81548152906001019060200180831161030757829003601f168201915b5050505050905090565b6000604051633991fca960e21b815260040160405180910390fd5b604051633991fca960e21b815260040160405180910390fd5b336103756007546001600160a01b031690565b6001600160a01b0316146103a45760405162461bcd60e51b815260040161039b906112ec565b60405180910390fd5b6001600160a01b0382166000818152600b6020526040808220805460ff191685151590811790915590519092917fc8fa0f05244aec5faf5a72346ef525e3e3bf52f240e55bd42d0c44f7ce14f9c391a35050565b6000818152600360205260408120546001600160a01b0316806102965760405162461bcd60e51b815260206004820152602960248201527f4552433732313a206f776e657220717565727920666f72206e6f6e657869737460448201526832b73a103a37b5b2b760b91b606482015260840161039b565b60006001600160a01b0382166104d95760405162461bcd60e51b815260206004820152602960248201527f4552433732313a2061646472657373207a65726f206973206e6f7420612076616044820152683634b21037bbb732b960b91b606482015260840161039b565b506001600160a01b031660009081526004602052604090205490565b6060600280546102ab906112b2565b6000818152600360205260409020546060906001600160a01b031661056b5760405162461bcd60e51b815260206004820152601f60248201527f455850657269656e6365204e46543a20496e76616c696420546f6b656e494400604482015260640161039b565b6000610576836103f8565b6009546040516370a0823160e01b81526001600160a01b038084166004830152929350600092909116906370a0823190602401602060405180830381865afa1580156105c6573d6000803e3d6000fd5b505050506040513d601f19601f820116820180604052508101906105ea9190611335565b90506105f784828461090f565b949350505050565b336000908152600b602052604090205460ff1615156001146106635760405162461bcd60e51b815260206004820152601f60248201527f455850657269656e63653a20596f75277265206e6f7420616e2061646d696e00604482015260640161039b565b600954600a80546001600160a01b0319166001600160a01b039283169081179091556040516370a0823160e01b815291831660048301526000916370a0823190602401602060405180830381865afa1580156106c3573d6000803e3d6000fd5b505050506040513d601f19601f820116820180604052508101906106e79190611335565b9050600081116107455760405162461bcd60e51b8152602060048201526024808201527f455850657269656e63653a20496e73756666696369656e74204558502062616c604482015263616e636560e01b606482015260840161039b565b6008805490600061075583611364565b9091555061076383826109b8565b6040516001600160a01b038416907fbd6e4913107c69e3c4fa02301595d1f386394fbefad6b73a2dbc6463ee96a19a90600090a2505050565b336107af6007546001600160a01b031690565b6001600160a01b0316146107d55760405162461bcd60e51b815260040161039b906112ec565b6001600160a01b0381166108365760405162461bcd60e51b815260206004820152602260248201527f496e76616c69642045585020546f6b656e20436f6e7472616374206164647265604482015261737360f01b606482015260840161039b565b600980546001600160a01b0319166001600160a01b0392909216919091179055565b604051633527001560e01b81526004810182905260609073__$a6421dbda4be40071d369f6ca168c746bf$__90633527001590602401600060405180830381865af41580156108ab573d6000803e3d6000fd5b505050506040513d6000823e601f3d908101601f19168201604052610296919081019061137d565b60006301ffc9a760e01b6001600160e01b0319831614806102965750506001600160e01b03191660009081526020819052604090205460ff1690565b6060600061091c846109d6565b9050600061092985610a8f565b9050600061093687610bbd565b82604051602001610948929190611410565b604051602081830303815290604052905060008186858660405160200161097294939291906115c2565b604051602081830303815290604052905061098c81610cbe565b60405160200161099c919061166a565b6040516020818303038152906040529450505050509392505050565b6109d2828260405180602001604052806000815250610e11565b5050565b60606000610a65604051806107600160405280610738815260200161182a6107389139610a0285610a8f565b6040518060a00160405280606b8152602001611fa2606b9139610a2487610bbd565b60405180606001604052806028815260200161180260289139604051602001610a519594939291906116af565b604051602081830303815290604052610cbe565b905080604051602001610a78919061171a565b604051602081830303815290604052915050919050565b6060600082118015610aaa57506801158e460913d000008211155b15610acc5750506040805180820190915260018152604960f81b602082015290565b6801158e460913d0000082118015610aed575068022b1c8c1227a000008211155b15610b10575050604080518082019091526002815261494960f01b602082015290565b68022b1c8c1227a0000082118015610b315750680340aad21b3b7000008211155b15610b5557505060408051808201909152600381526249494960e81b602082015290565b680340aad21b3b70000082118015610b7657506804563918244f4000008211155b15610b9957505060408051808201909152600281526124ab60f11b602082015290565b50506040805180820190915260038152622d472d60e81b602082015290565b919050565b606081600003610be45750506040805180820190915260018152600360fc1b602082015290565b8160005b8115610c0e5780610bf881611364565b9150610c079050600a83611775565b9150610be8565b60008167ffffffffffffffff811115610c2957610c29611165565b6040519080825280601f01601f191660200182016040528015610c53576020820181803683370190505b5090505b84156105f757610c68600183611789565b9150610c75600a866117a0565b610c809060306117b4565b60f81b818381518110610c9557610c956117cc565b60200101906001600160f81b031916908160001a905350610cb7600a86611775565b9450610c57565b60608151600003610cdd57505060408051602081019091526000815290565b6000604051806060016040528060408152602001611f626040913990506000600384516002610d0c91906117b4565b610d169190611775565b610d219060046117e2565b67ffffffffffffffff811115610d3957610d39611165565b6040519080825280601f01601f191660200182016040528015610d63576020820181803683370190505b509050600182016020820185865187015b80821015610dcf576003820191508151603f8160121c168501518453600184019350603f81600c1c168501518453600184019350603f8160061c168501518453600184019350603f8116850151845350600183019250610d74565b5050600386510660018114610deb5760028114610dfe57610e06565b603d6001830353603d6002830353610e06565b603d60018303535b509195945050505050565b610e1b8383610e20565b505050565b6001600160a01b038216610e765760405162461bcd60e51b815260206004820181905260248201527f4552433732313a206d696e7420746f20746865207a65726f2061646472657373604482015260640161039b565b6000818152600360205260409020546001600160a01b031615610edb5760405162461bcd60e51b815260206004820152601c60248201527f4552433732313a20746f6b656e20616c7265616479206d696e74656400000000604482015260640161039b565b6001600160a01b03821660009081526004602052604090205415610f5d5760405162461bcd60e51b815260206004820152603360248201527f4552433732313a204f6e6c79206f6e6520455850657269656e636556696577656044820152727220284e46542920706572206164647265737360681b606482015260840161039b565b6001600160a01b0382166000908152600460205260408120805460019290610f869084906117b4565b909155505060008181526003602052604080822080546001600160a01b0319166001600160a01b03861690811790915590518392907fddf252ad1be2c89b69c2b068fc378daa952ba7f163c4a11628f55a4df523b3ef908290a45050565b600060208284031215610ff657600080fd5b81356001600160e01b03198116811461100e57600080fd5b9392505050565b60005b83811015611030578181015183820152602001611018565b8381111561103f576000848401525b50505050565b6020815260008251806020840152611064816040850160208701611015565b601f01601f19169190910160400192915050565b60006020828403121561108a57600080fd5b5035919050565b80356001600160a01b0381168114610bb857600080fd5b600080604083850312156110bb57600080fd5b6110c483611091565b946020939093013593505050565b6000806000606084860312156110e757600080fd5b6110f084611091565b92506110fe60208501611091565b9150604084013590509250925092565b6000806040838503121561112157600080fd5b61112a83611091565b91506020830135801515811461113f57600080fd5b809150509250929050565b60006020828403121561115c57600080fd5b61100e82611091565b634e487b7160e01b600052604160045260246000fd5b604051601f8201601f1916810167ffffffffffffffff811182821017156111a4576111a4611165565b604052919050565b600067ffffffffffffffff8211156111c6576111c6611165565b50601f01601f191660200190565b600080600080608085870312156111ea57600080fd5b6111f385611091565b935061120160208601611091565b925060408501359150606085013567ffffffffffffffff81111561122457600080fd5b8501601f8101871361123557600080fd5b8035611248611243826111ac565b61117b565b81815288602083850101111561125d57600080fd5b8160208401602083013760006020838301015280935050505092959194509250565b6000806040838503121561129257600080fd5b61129b83611091565b91506112a960208401611091565b90509250929050565b600181811c908216806112c657607f821691505b6020821081036112e657634e487b7160e01b600052602260045260246000fd5b50919050565b60208082526029908201527f455850546f6b656e2028416363657373436f6e74726f6c293a204e6f742061756040820152683a3437b934bd32b21760b91b606082015260800190565b60006020828403121561134757600080fd5b5051919050565b634e487b7160e01b600052601160045260246000fd5b6000600182016113765761137661134e565b5060010190565b60006020828403121561138f57600080fd5b815167ffffffffffffffff8111156113a657600080fd5b8201601f810184136113b757600080fd5b80516113c5611243826111ac565b8181528560208385010111156113da57600080fd5b6113eb826020830160208601611015565b95945050505050565b60008151611406818560208601611015565b9290920192915050565b7f7b20226e616d65223a2022455850657269656e6365204e4654202d200000000081526000835161144881601c850160208801611015565b7f226465736372697074696f6e223a2022455850657269656e6365204e46542e20601c918401918201527f50617274206f662045746865726e6175742044414f20626f756e746965732e20603c8201527f536f756c626f756e6420746f6b656e2f617373657420657870657269656e6365605c8201527f207468726f7567682045585020546f6b656e20616e6420455850657269656e63607c82015265329027232a1760d11b609c8201527f222c202265787465726e616c5f75726c223a202268747470733a2f2f6769746860a28201527f75622e636f6d2f536f6c4465762d48502f455850657269656e63655f47616d6560c2820152601160f91b60e28201527f2c202261747472696275746573223a205b7b2274726169745f74797065223a2060e38201527f22455850657269656e6365204c6576656c222c202276616c7565223a202200006101038201526113eb6115a76101218301866113f4565b6e113eae96101137bbb732b9111d101160891b8152600f0190565b600085516115d4818460208a01611015565b606086901b6bffffffffffffffffffffffff19169083019081526c1116101134b6b0b3b2911d101160991b60148201528451611617816021840160208901611015565b741116101130b734b6b0ba34b7b72fbab936111d101160591b60219290910191820152835161164d816036840160208801611015565b61227d60f01b603692909101918201526038019695505050505050565b7f646174613a6170706c69636174696f6e2f6a736f6e3b6261736536342c0000008152600082516116a281601d850160208701611015565b91909101601d0192915050565b600086516116c1818460208b01611015565b8651908301906116d5818360208b01611015565b86519101906116e8818360208a01611015565b85519101906116fb818360208901611015565b845191019061170e818360208801611015565b01979650505050505050565b7f646174613a696d6167652f7376672b786d6c3b6261736536342c00000000000081526000825161175281601a850160208701611015565b91909101601a0192915050565b634e487b7160e01b600052601260045260246000fd5b6000826117845761178461175f565b500490565b60008282101561179b5761179b61134e565b500390565b6000826117af576117af61175f565b500690565b600082198211156117c7576117c761134e565b500190565b634e487b7160e01b600052603260045260246000fd5b60008160001904831182151516156117fc576117fc61134e565b50029056fe3c2f6469763e3c2f6469763e3c2f6469763e3c2f666f726569676e4f626a6563743e3c2f7376673e3c73766720786d6c6e733d22687474703a2f2f7777772e77332e6f72672f323030302f737667222076696577426f783d223020302033303020333030223e203c7374796c6520747970653d22746578742f637373223e203c215b43444154415b202a2c202a3a6265666f72652c202a3a6166746572207b20626f782d73697a696e673a20626f726465722d626f783b7d20626f6479207b206865696768743a2031303076683b206261636b67726f756e643a20233030303b7d202e63656e746572207b206865696768743a20313030253b20646973706c61793a20666c65783b20616c69676e2d6974656d733a2063656e7465723b206a7573746966792d636f6e74656e743a2063656e7465723b20746578742d616c69676e3a2063656e7465723b7d202e636972636c65207b20706f736974696f6e3a2072656c61746976653b2077696474683a2032303070783b206865696768743a2032303070783b20636f6c6f723a20236666663b206261636b67726f756e643a20233030303b20626f726465722d7261646975733a203530253b20626f726465723a2032707820736f6c69643b7d202e6c6f676f207b20666f6e742d73697a653a2031323570783b206c696e652d6865696768743a2031393070783b20766572746963616c2d616c69676e3a206d6964646c653b7d202e627574746f6e207b20706f736974696f6e3a206162736f6c7574653b20626f74746f6d3a203070783b206c6566743a20303b2072696768743a20303b2070616464696e673a203870783b20666f6e742d7765696768743a20626f6c643b20746578742d7472616e73666f726d3a207570706572636173653b206261636b67726f756e643a20233030303b20626f726465723a2032707820736f6c69643b20616e696d6174696f6e3a20736c69646520312e347320656173652d696e2d6f757420696e66696e6974653b20637572736f723a20706f696e7465723b7d202e627574746f6e3a686f766572207b20636f6c6f723a20233030303b206261636b67726f756e643a20236666663b20626f726465722d636f6c6f723a20236666663b7d20406b65796672616d657320736c696465207b203025207b207472616e73666f726d3a207472616e736c61746558283130707829207d20353025207b7472616e73666f726d3a207472616e736c61746558282d3130707829207d2031303025207b207472616e73666f726d3a207472616e736c61746558283130707829207d7d202e74657874207b20706f736974696f6e3a206162736f6c7574653b20746f703a20303b206c6566743a20303b2077696474683a20313030253b206865696768743a20313030253b20666f6e742d73697a653a20323470783b20666f6e742d7765696768743a20626f6c643b20746578742d7472616e73666f726d3a207570706572636173653b20616e696d6174696f6e3a20726f7461746520313473206c696e65617220696e66696e6974653b2066696c6c3a20236666663b7d20406b65796672616d657320726f74617465207b2066726f6d207b207472616e73666f726d3a20726f746174652830293b207d20746f207b207472616e73666f726d3a20726f7461746528333630646567293b207d7d205d5d3e203c2f7374796c653e203c666f726569676e4f626a65637420783d2232302220793d223230222077696474683d2233303022206865696768743d22333030223e203c64697620636c6173733d2263656e7465722220786d6c6e733d22687474703a2f2f7777772e77332e6f72672f313939392f7868746d6c223e3c64697620636c6173733d22636972636c652220786d6c6e733d22687474703a2f2f7777772e77332e6f72672f313939392f7868746d6c223e3c64697620636c6173733d226c6f676f2220786d6c6e733d22687474703a2f2f7777772e77332e6f72672f313939392f7868746d6c223e49493c2f6469763e3c64697620636c6173733d22746578742220786d6c6e733d22687474703a2f2f7777772e77332e6f72672f313939392f7868746d6c223e20203c73766720783d22302220793d2230222076696577426f783d2230203020333030203330302220656e61626c652d6261636b67726f756e643d226e65772030203020333030203330302220786d6c3a73706163653d2270726573657276652220786d6c6e733d22687474703a2f2f7777772e77332e6f72672f323030302f737667223e203c646566733e203c706174682069643d22636972636c65506174682220643d22204d203135302c20313530206d202d3132302c20302061203132302c313230203020302c31203234302c302061203132302c313230203020302c31202d3234302c30202220202f3e203c2f646566733e203c673e203c746578743e203c746578745061746820687265663d2223636972636c65506174682220786d6c3a73706163653d227072657365727665223e455850657269656e6365204e465421202020202020202020466f722e45746865726e61757444414f2020202020202020204c6576656c202d204142434445464748494a4b4c4d4e4f505152535455565758595a6162636465666768696a6b6c6d6e6f707172737475767778797a303132333435363738392b2f3c2f74657874506174683e3c2f746578743e3c2f673e3c2f7376673e3c2f6469763e3c64697620636c6173733d22627574746f6e2220786d6c6e733d22687474703a2f2f7777772e77332e6f72672f313939392f7868746d6c223e5b4558505d2042616c616e6365202d20a26469706673582212204b75e40861a9c4561b43ab23d217756469949b97a2c948aed351e8bb6ce3038464736f6c634300080d0033",
  "language": "Solidity",
  "natspec": {
    "kind": "dev",
    "methods": {
      "approve(address,uint256)": {
        "details": "functions that are restricted  Overridden from ERC721 and modifier to reflect  Soulbound nature of the NFT"
      },
      "balanceOf(address)": {
        "details": "See {IERC721-balanceOf}. It'll always be between 0 and 1. We'll limit single nft per address"
      },
      "name()": {
        "details": "See {IERC721Metadata-name}."
      },
      "owner()": {
        "details": "Public function to check owner ",
        "returns": {
          "_0": "address of the owner of this contract"
        }
      },
      "ownerOf(uint256)": {
        "details": "See {IERC721-ownerOf}."
      },
      "supportsInterface(bytes4)": {
        "details": "See {IERC165-supportsInterface}."
      },
      "symbol()": {
        "details": "See {IERC721Metadata-symbol}."
      }
    },
    "version": 1
  },
  "opcodes": "PUSH1 0x80 PUSH1 0x40 MSTORE CALLVALUE DUP1 ISZERO PUSH2 0x10 JUMPI PUSH1 0x0 DUP1 REVERT JUMPDEST POP PUSH1 0x4 CALLDATASIZE LT PUSH2 0x121 JUMPI PUSH1 0x0 CALLDATALOAD PUSH1 0xE0 SHR DUP1 PUSH4 0x70A08231 GT PUSH2 0xAD JUMPI DUP1 PUSH4 0xC87B56DD GT PUSH2 0x71 JUMPI DUP1 PUSH4 0xC87B56DD EQ PUSH2 0x231 JUMPI DUP1 PUSH4 0xCCD2D6F5 EQ PUSH2 0x244 JUMPI DUP1 PUSH4 0xE2FC14FB EQ PUSH2 0x257 JUMPI DUP1 PUSH4 0xE985E9C5 EQ PUSH2 0x26A JUMPI DUP1 PUSH4 0xF04C9258 EQ PUSH2 0x278 JUMPI PUSH1 0x0 DUP1 REVERT JUMPDEST DUP1 PUSH4 0x70A08231 EQ PUSH2 0x1E9 JUMPI DUP1 PUSH4 0x8DA5CB5B EQ PUSH2 0x1FC JUMPI DUP1 PUSH4 0x95D89B41 EQ PUSH2 0x20D JUMPI DUP1 PUSH4 0xA22CB465 EQ PUSH2 0x215 JUMPI DUP1 PUSH4 0xB88D4FDE EQ PUSH2 0x223 JUMPI PUSH1 0x0 DUP1 REVERT JUMPDEST DUP1 PUSH4 0x18160DDD GT PUSH2 0xF4 JUMPI DUP1 PUSH4 0x18160DDD EQ PUSH2 0x1A3 JUMPI DUP1 PUSH4 0x23B872DD EQ PUSH2 0x1B5 JUMPI DUP1 PUSH4 0x3789F8D1 EQ PUSH2 0x1C3 JUMPI DUP1 PUSH4 0x42842E0E EQ PUSH2 0x1B5 JUMPI DUP1 PUSH4 0x6352211E EQ PUSH2 0x1D6 JUMPI PUSH1 0x0 DUP1 REVERT JUMPDEST DUP1 PUSH4 0x1FFC9A7 EQ PUSH2 0x126 JUMPI DUP1 PUSH4 0x6FDDE03 EQ PUSH2 0x14E JUMPI DUP1 PUSH4 0x81812FC EQ PUSH2 0x163 JUMPI DUP1 PUSH4 0x95EA7B3 EQ PUSH2 0x18E JUMPI JUMPDEST PUSH1 0x0 DUP1 REVERT JUMPDEST PUSH2 0x139 PUSH2 0x134 CALLDATASIZE PUSH1 0x4 PUSH2 0xFE4 JUMP JUMPDEST PUSH2 0x28B JUMP JUMPDEST PUSH1 0x40 MLOAD SWAP1 ISZERO ISZERO DUP2 MSTORE PUSH1 0x20 ADD JUMPDEST PUSH1 0x40 MLOAD DUP1 SWAP2 SUB SWAP1 RETURN JUMPDEST PUSH2 0x156 PUSH2 0x29C JUMP JUMPDEST PUSH1 0x40 MLOAD PUSH2 0x145 SWAP2 SWAP1 PUSH2 0x1045 JUMP JUMPDEST PUSH2 0x176 PUSH2 0x171 CALLDATASIZE PUSH1 0x4 PUSH2 0x1078 JUMP JUMPDEST PUSH2 0x32E JUMP JUMPDEST PUSH1 0x40 MLOAD PUSH1 0x1 PUSH1 0x1 PUSH1 0xA0 SHL SUB SWAP1 SWAP2 AND DUP2 MSTORE PUSH1 0x20 ADD PUSH2 0x145 JUMP JUMPDEST PUSH2 0x1A1 PUSH2 0x19C CALLDATASIZE PUSH1 0x4 PUSH2 0x10A8 JUMP JUMPDEST PUSH2 0x349 JUMP JUMPDEST STOP JUMPDEST PUSH1 0x8 SLOAD JUMPDEST PUSH1 0x40 MLOAD SWAP1 DUP2 MSTORE PUSH1 0x20 ADD PUSH2 0x145 JUMP JUMPDEST PUSH2 0x1A1 PUSH2 0x19C CALLDATASIZE PUSH1 0x4 PUSH2 0x10D2 JUMP JUMPDEST PUSH2 0x1A1 PUSH2 0x1D1 CALLDATASIZE PUSH1 0x4 PUSH2 0x110E JUMP JUMPDEST PUSH2 0x362 JUMP JUMPDEST PUSH2 0x176 PUSH2 0x1E4 CALLDATASIZE PUSH1 0x4 PUSH2 0x1078 JUMP JUMPDEST PUSH2 0x3F8 JUMP JUMPDEST PUSH2 0x1A7 PUSH2 0x1F7 CALLDATASIZE PUSH1 0x4 PUSH2 0x114A JUMP JUMPDEST PUSH2 0x46F JUMP JUMPDEST PUSH1 0x7 SLOAD PUSH1 0x1 PUSH1 0x1 PUSH1 0xA0 SHL SUB AND PUSH2 0x176 JUMP JUMPDEST PUSH2 0x156 PUSH2 0x4F5 JUMP JUMPDEST PUSH2 0x1A1 PUSH2 0x19C CALLDATASIZE PUSH1 0x4 PUSH2 0x110E JUMP JUMPDEST PUSH2 0x1A1 PUSH2 0x19C CALLDATASIZE PUSH1 0x4 PUSH2 0x11D4 JUMP JUMPDEST PUSH2 0x156 PUSH2 0x23F CALLDATASIZE PUSH1 0x4 PUSH2 0x1078 JUMP JUMPDEST PUSH2 0x504 JUMP JUMPDEST PUSH2 0x1A1 PUSH2 0x252 CALLDATASIZE PUSH1 0x4 PUSH2 0x114A JUMP JUMPDEST PUSH2 0x5FF JUMP JUMPDEST PUSH2 0x1A1 PUSH2 0x265 CALLDATASIZE PUSH1 0x4 PUSH2 0x114A JUMP JUMPDEST PUSH2 0x79C JUMP JUMPDEST PUSH2 0x139 PUSH2 0x171 CALLDATASIZE PUSH1 0x4 PUSH2 0x127F JUMP JUMPDEST PUSH2 0x156 PUSH2 0x286 CALLDATASIZE PUSH1 0x4 PUSH2 0x1078 JUMP JUMPDEST PUSH2 0x858 JUMP JUMPDEST PUSH1 0x0 PUSH2 0x296 DUP3 PUSH2 0x8D3 JUMP JUMPDEST SWAP3 SWAP2 POP POP JUMP JUMPDEST PUSH1 0x60 PUSH1 0x1 DUP1 SLOAD PUSH2 0x2AB SWAP1 PUSH2 0x12B2 JUMP JUMPDEST DUP1 PUSH1 0x1F ADD PUSH1 0x20 DUP1 SWAP2 DIV MUL PUSH1 0x20 ADD PUSH1 0x40 MLOAD SWAP1 DUP2 ADD PUSH1 0x40 MSTORE DUP1 SWAP3 SWAP2 SWAP1 DUP2 DUP2 MSTORE PUSH1 0x20 ADD DUP3 DUP1 SLOAD PUSH2 0x2D7 SWAP1 PUSH2 0x12B2 JUMP JUMPDEST DUP1 ISZERO PUSH2 0x324 JUMPI DUP1 PUSH1 0x1F LT PUSH2 0x2F9 JUMPI PUSH2 0x100 DUP1 DUP4 SLOAD DIV MUL DUP4 MSTORE SWAP2 PUSH1 0x20 ADD SWAP2 PUSH2 0x324 JUMP JUMPDEST DUP3 ADD SWAP2 SWAP1 PUSH1 0x0 MSTORE PUSH1 0x20 PUSH1 0x0 KECCAK256 SWAP1 JUMPDEST DUP2 SLOAD DUP2 MSTORE SWAP1 PUSH1 0x1 ADD SWAP1 PUSH1 0x20 ADD DUP1 DUP4 GT PUSH2 0x307 JUMPI DUP3 SWAP1 SUB PUSH1 0x1F AND DUP3 ADD SWAP2 JUMPDEST POP POP POP POP POP SWAP1 POP SWAP1 JUMP JUMPDEST PUSH1 0x0 PUSH1 0x40 MLOAD PUSH4 0x3991FCA9 PUSH1 0xE2 SHL DUP2 MSTORE PUSH1 0x4 ADD PUSH1 0x40 MLOAD DUP1 SWAP2 SUB SWAP1 REVERT JUMPDEST PUSH1 0x40 MLOAD PUSH4 0x3991FCA9 PUSH1 0xE2 SHL DUP2 MSTORE PUSH1 0x4 ADD PUSH1 0x40 MLOAD DUP1 SWAP2 SUB SWAP1 REVERT JUMPDEST CALLER PUSH2 0x375 PUSH1 0x7 SLOAD PUSH1 0x1 PUSH1 0x1 PUSH1 0xA0 SHL SUB AND SWAP1 JUMP JUMPDEST PUSH1 0x1 PUSH1 0x1 PUSH1 0xA0 SHL SUB AND EQ PUSH2 0x3A4 JUMPI PUSH1 0x40 MLOAD PUSH3 0x461BCD PUSH1 0xE5 SHL DUP2 MSTORE PUSH1 0x4 ADD PUSH2 0x39B SWAP1 PUSH2 0x12EC JUMP JUMPDEST PUSH1 0x40 MLOAD DUP1 SWAP2 SUB SWAP1 REVERT JUMPDEST PUSH1 0x1 PUSH1 0x1 PUSH1 0xA0 SHL SUB DUP3 AND PUSH1 0x0 DUP2 DUP2 MSTORE PUSH1 0xB PUSH1 0x20 MSTORE PUSH1 0x40 DUP1 DUP3 KECCAK256 DUP1 SLOAD PUSH1 0xFF NOT AND DUP6 ISZERO ISZERO SWAP1 DUP2 OR SWAP1 SWAP2 SSTORE SWAP1 MLOAD SWAP1 SWAP3 SWAP2 PUSH32 0xC8FA0F05244AEC5FAF5A72346EF525E3E3BF52F240E55BD42D0C44F7CE14F9C3 SWAP2 LOG3 POP POP JUMP JUMPDEST PUSH1 0x0 DUP2 DUP2 MSTORE PUSH1 0x3 PUSH1 0x20 MSTORE PUSH1 0x40 DUP2 KECCAK256 SLOAD PUSH1 0x1 PUSH1 0x1 PUSH1 0xA0 SHL SUB AND DUP1 PUSH2 0x296 JUMPI PUSH1 0x40 MLOAD PUSH3 0x461BCD PUSH1 0xE5 SHL DUP2 MSTORE PUSH1 0x20 PUSH1 0x4 DUP3 ADD MSTORE PUSH1 0x29 PUSH1 0x24 DUP3 ADD MSTORE PUSH32 0x4552433732313A206F776E657220717565727920666F72206E6F6E6578697374 PUSH1 0x44 DUP3 ADD MSTORE PUSH9 0x32B73A103A37B5B2B7 PUSH1 0xB9 SHL PUSH1 0x64 DUP3 ADD MSTORE PUSH1 0x84 ADD PUSH2 0x39B JUMP JUMPDEST PUSH1 0x0 PUSH1 0x1 PUSH1 0x1 PUSH1 0xA0 SHL SUB DUP3 AND PUSH2 0x4D9 JUMPI PUSH1 0x40 MLOAD PUSH3 0x461BCD PUSH1 0xE5 SHL DUP2 MSTORE PUSH1 0x20 PUSH1 0x4 DUP3 ADD MSTORE PUSH1 0x29 PUSH1 0x24 DUP3 ADD MSTORE PUSH32 0x4552433732313A2061646472657373207A65726F206973206E6F742061207661 PUSH1 0x44 DUP3 ADD MSTORE PUSH9 0x3634B21037BBB732B9 PUSH1 0xB9 SHL PUSH1 0x64 DUP3 ADD MSTORE PUSH1 0x84 ADD PUSH2 0x39B JUMP JUMPDEST POP PUSH1 0x1 PUSH1 0x1 PUSH1 0xA0 SHL SUB AND PUSH1 0x0 SWAP1 DUP2 MSTORE PUSH1 0x4 PUSH1 0x20 MSTORE PUSH1 0x40 SWAP1 KECCAK256 SLOAD SWAP1 JUMP JUMPDEST PUSH1 0x60 PUSH1 0x2 DUP1 SLOAD PUSH2 0x2AB SWAP1 PUSH2 0x12B2 JUMP JUMPDEST PUSH1 0x0 DUP2 DUP2 MSTORE PUSH1 0x3 PUSH1 0x20 MSTORE PUSH1 0x40 SWAP1 KECCAK256 SLOAD PUSH1 0x60 SWAP1 PUSH1 0x1 PUSH1 0x1 PUSH1 0xA0 SHL SUB AND PUSH2 0x56B JUMPI PUSH1 0x40 MLOAD PUSH3 0x461BCD PUSH1 0xE5 SHL DUP2 MSTORE PUSH1 0x20 PUSH1 0x4 DUP3 ADD MSTORE PUSH1 0x1F PUSH1 0x24 DUP3 ADD MSTORE PUSH32 0x455850657269656E6365204E46543A20496E76616C696420546F6B656E494400 PUSH1 0x44 DUP3 ADD MSTORE PUSH1 0x64 ADD PUSH2 0x39B JUMP JUMPDEST PUSH1 0x0 PUSH2 0x576 DUP4 PUSH2 0x3F8 JUMP JUMPDEST PUSH1 0x9 SLOAD PUSH1 0x40 MLOAD PUSH4 0x70A08231 PUSH1 0xE0 SHL DUP2 MSTORE PUSH1 0x1 PUSH1 0x1 PUSH1 0xA0 SHL SUB DUP1 DUP5 AND PUSH1 0x4 DUP4 ADD MSTORE SWAP3 SWAP4 POP PUSH1 0x0 SWAP3 SWAP1 SWAP2 AND SWAP1 PUSH4 0x70A08231 SWAP1 PUSH1 0x24 ADD PUSH1 0x20 PUSH1 0x40 MLOAD DUP1 DUP4 SUB DUP2 DUP7 GAS STATICCALL ISZERO DUP1 ISZERO PUSH2 0x5C6 JUMPI RETURNDATASIZE PUSH1 0x0 DUP1 RETURNDATACOPY RETURNDATASIZE PUSH1 0x0 REVERT JUMPDEST POP POP POP POP PUSH1 0x40 MLOAD RETURNDATASIZE PUSH1 0x1F NOT PUSH1 0x1F DUP3 ADD AND DUP3 ADD DUP1 PUSH1 0x40 MSTORE POP DUP2 ADD SWAP1 PUSH2 0x5EA SWAP2 SWAP1 PUSH2 0x1335 JUMP JUMPDEST SWAP1 POP PUSH2 0x5F7 DUP5 DUP3 DUP5 PUSH2 0x90F JUMP JUMPDEST SWAP5 SWAP4 POP POP POP POP JUMP JUMPDEST CALLER PUSH1 0x0 SWAP1 DUP2 MSTORE PUSH1 0xB PUSH1 0x20 MSTORE PUSH1 0x40 SWAP1 KECCAK256 SLOAD PUSH1 0xFF AND ISZERO ISZERO PUSH1 0x1 EQ PUSH2 0x663 JUMPI PUSH1 0x40 MLOAD PUSH3 0x461BCD PUSH1 0xE5 SHL DUP2 MSTORE PUSH1 0x20 PUSH1 0x4 DUP3 ADD MSTORE PUSH1 0x1F PUSH1 0x24 DUP3 ADD MSTORE PUSH32 0x455850657269656E63653A20596F75277265206E6F7420616E2061646D696E00 PUSH1 0x44 DUP3 ADD MSTORE PUSH1 0x64 ADD PUSH2 0x39B JUMP JUMPDEST PUSH1 0x9 SLOAD PUSH1 0xA DUP1 SLOAD PUSH1 0x1 PUSH1 0x1 PUSH1 0xA0 SHL SUB NOT AND PUSH1 0x1 PUSH1 0x1 PUSH1 0xA0 SHL SUB SWAP3 DUP4 AND SWAP1 DUP2 OR SWAP1 SWAP2 SSTORE PUSH1 0x40 MLOAD PUSH4 0x70A08231 PUSH1 0xE0 SHL DUP2 MSTORE SWAP2 DUP4 AND PUSH1 0x4 DUP4 ADD MSTORE PUSH1 0x0 SWAP2 PUSH4 0x70A08231 SWAP1 PUSH1 0x24 ADD PUSH1 0x20 PUSH1 0x40 MLOAD DUP1 DUP4 SUB DUP2 DUP7 GAS STATICCALL ISZERO DUP1 ISZERO PUSH2 0x6C3 JUMPI RETURNDATASIZE PUSH1 0x0 DUP1 RETURNDATACOPY RETURNDATASIZE PUSH1 0x0 REVERT JUMPDEST POP POP POP POP PUSH1 0x40 MLOAD RETURNDATASIZE PUSH1 0x1F NOT PUSH1 0x1F DUP3 ADD AND DUP3 ADD DUP1 PUSH1 0x40 MSTORE POP DUP2 ADD SWAP1 PUSH2 0x6E7 SWAP2 SWAP1 PUSH2 0x1335 JUMP JUMPDEST SWAP1 POP PUSH1 0x0 DUP2 GT PUSH2 0x745 JUMPI PUSH1 0x40 MLOAD PUSH3 0x461BCD PUSH1 0xE5 SHL DUP2 MSTORE PUSH1 0x20 PUSH1 0x4 DUP3 ADD MSTORE PUSH1 0x24 DUP1 DUP3 ADD MSTORE PUSH32 0x455850657269656E63653A20496E73756666696369656E74204558502062616C PUSH1 0x44 DUP3 ADD MSTORE PUSH4 0x616E6365 PUSH1 0xE0 SHL PUSH1 0x64 DUP3 ADD MSTORE PUSH1 0x84 ADD PUSH2 0x39B JUMP JUMPDEST PUSH1 0x8 DUP1 SLOAD SWAP1 PUSH1 0x0 PUSH2 0x755 DUP4 PUSH2 0x1364 JUMP JUMPDEST SWAP1 SWAP2 SSTORE POP PUSH2 0x763 DUP4 DUP3 PUSH2 0x9B8 JUMP JUMPDEST PUSH1 0x40 MLOAD PUSH1 0x1 PUSH1 0x1 PUSH1 0xA0 SHL SUB DUP5 AND SWAP1 PUSH32 0xBD6E4913107C69E3C4FA02301595D1F386394FBEFAD6B73A2DBC6463EE96A19A SWAP1 PUSH1 0x0 SWAP1 LOG2 POP POP POP JUMP JUMPDEST CALLER PUSH2 0x7AF PUSH1 0x7 SLOAD PUSH1 0x1 PUSH1 0x1 PUSH1 0xA0 SHL SUB AND SWAP1 JUMP JUMPDEST PUSH1 0x1 PUSH1 0x1 PUSH1 0xA0 SHL SUB AND EQ PUSH2 0x7D5 JUMPI PUSH1 0x40 MLOAD PUSH3 0x461BCD PUSH1 0xE5 SHL DUP2 MSTORE PUSH1 0x4 ADD PUSH2 0x39B SWAP1 PUSH2 0x12EC JUMP JUMPDEST PUSH1 0x1 PUSH1 0x1 PUSH1 0xA0 SHL SUB DUP2 AND PUSH2 0x836 JUMPI PUSH1 0x40 MLOAD PUSH3 0x461BCD PUSH1 0xE5 SHL DUP2 MSTORE PUSH1 0x20 PUSH1 0x4 DUP3 ADD MSTORE PUSH1 0x22 PUSH1 0x24 DUP3 ADD MSTORE PUSH32 0x496E76616C69642045585020546F6B656E20436F6E7472616374206164647265 PUSH1 0x44 DUP3 ADD MSTORE PUSH2 0x7373 PUSH1 0xF0 SHL PUSH1 0x64 DUP3 ADD MSTORE PUSH1 0x84 ADD PUSH2 0x39B JUMP JUMPDEST PUSH1 0x9 DUP1 SLOAD PUSH1 0x1 PUSH1 0x1 PUSH1 0xA0 SHL SUB NOT AND PUSH1 0x1 PUSH1 0x1 PUSH1 0xA0 SHL SUB SWAP3 SWAP1 SWAP3 AND SWAP2 SWAP1 SWAP2 OR SWAP1 SSTORE JUMP JUMPDEST PUSH1 0x40 MLOAD PUSH4 0x35270015 PUSH1 0xE0 SHL DUP2 MSTORE PUSH1 0x4 DUP2 ADD DUP3 SWAP1 MSTORE PUSH1 0x60 SWAP1 PUSH20 0x0 SWAP1 PUSH4 0x35270015 SWAP1 PUSH1 0x24 ADD PUSH1 0x0 PUSH1 0x40 MLOAD DUP1 DUP4 SUB DUP2 DUP7 GAS DELEGATECALL ISZERO DUP1 ISZERO PUSH2 0x8AB JUMPI RETURNDATASIZE PUSH1 0x0 DUP1 RETURNDATACOPY RETURNDATASIZE PUSH1 0x0 REVERT JUMPDEST POP POP POP POP PUSH1 0x40 MLOAD RETURNDATASIZE PUSH1 0x0 DUP3 RETURNDATACOPY PUSH1 0x1F RETURNDATASIZE SWAP1 DUP2 ADD PUSH1 0x1F NOT AND DUP3 ADD PUSH1 0x40 MSTORE PUSH2 0x296 SWAP2 SWAP1 DUP2 ADD SWAP1 PUSH2 0x137D JUMP JUMPDEST PUSH1 0x0 PUSH4 0x1FFC9A7 PUSH1 0xE0 SHL PUSH1 0x1 PUSH1 0x1 PUSH1 0xE0 SHL SUB NOT DUP4 AND EQ DUP1 PUSH2 0x296 JUMPI POP POP PUSH1 0x1 PUSH1 0x1 PUSH1 0xE0 SHL SUB NOT AND PUSH1 0x0 SWAP1 DUP2 MSTORE PUSH1 0x20 DUP2 SWAP1 MSTORE PUSH1 0x40 SWAP1 KECCAK256 SLOAD PUSH1 0xFF AND SWAP1 JUMP JUMPDEST PUSH1 0x60 PUSH1 0x0 PUSH2 0x91C DUP5 PUSH2 0x9D6 JUMP JUMPDEST SWAP1 POP PUSH1 0x0 PUSH2 0x929 DUP6 PUSH2 0xA8F JUMP JUMPDEST SWAP1 POP PUSH1 0x0 PUSH2 0x936 DUP8 PUSH2 0xBBD JUMP JUMPDEST DUP3 PUSH1 0x40 MLOAD PUSH1 0x20 ADD PUSH2 0x948 SWAP3 SWAP2 SWAP1 PUSH2 0x1410 JUMP JUMPDEST PUSH1 0x40 MLOAD PUSH1 0x20 DUP2 DUP4 SUB SUB DUP2 MSTORE SWAP1 PUSH1 0x40 MSTORE SWAP1 POP PUSH1 0x0 DUP2 DUP7 DUP6 DUP7 PUSH1 0x40 MLOAD PUSH1 0x20 ADD PUSH2 0x972 SWAP5 SWAP4 SWAP3 SWAP2 SWAP1 PUSH2 0x15C2 JUMP JUMPDEST PUSH1 0x40 MLOAD PUSH1 0x20 DUP2 DUP4 SUB SUB DUP2 MSTORE SWAP1 PUSH1 0x40 MSTORE SWAP1 POP PUSH2 0x98C DUP2 PUSH2 0xCBE JUMP JUMPDEST PUSH1 0x40 MLOAD PUSH1 0x20 ADD PUSH2 0x99C SWAP2 SWAP1 PUSH2 0x166A JUMP JUMPDEST PUSH1 0x40 MLOAD PUSH1 0x20 DUP2 DUP4 SUB SUB DUP2 MSTORE SWAP1 PUSH1 0x40 MSTORE SWAP5 POP POP POP POP POP SWAP4 SWAP3 POP POP POP JUMP JUMPDEST PUSH2 0x9D2 DUP3 DUP3 PUSH1 0x40 MLOAD DUP1 PUSH1 0x20 ADD PUSH1 0x40 MSTORE DUP1 PUSH1 0x0 DUP2 MSTORE POP PUSH2 0xE11 JUMP JUMPDEST POP POP JUMP JUMPDEST PUSH1 0x60 PUSH1 0x0 PUSH2 0xA65 PUSH1 0x40 MLOAD DUP1 PUSH2 0x760 ADD PUSH1 0x40 MSTORE DUP1 PUSH2 0x738 DUP2 MSTORE PUSH1 0x20 ADD PUSH2 0x182A PUSH2 0x738 SWAP2 CODECOPY PUSH2 0xA02 DUP6 PUSH2 0xA8F JUMP JUMPDEST PUSH1 0x40 MLOAD DUP1 PUSH1 0xA0 ADD PUSH1 0x40 MSTORE DUP1 PUSH1 0x6B DUP2 MSTORE PUSH1 0x20 ADD PUSH2 0x1FA2 PUSH1 0x6B SWAP2 CODECOPY PUSH2 0xA24 DUP8 PUSH2 0xBBD JUMP JUMPDEST PUSH1 0x40 MLOAD DUP1 PUSH1 0x60 ADD PUSH1 0x40 MSTORE DUP1 PUSH1 0x28 DUP2 MSTORE PUSH1 0x20 ADD PUSH2 0x1802 PUSH1 0x28 SWAP2 CODECOPY PUSH1 0x40 MLOAD PUSH1 0x20 ADD PUSH2 0xA51 SWAP6 SWAP5 SWAP4 SWAP3 SWAP2 SWAP1 PUSH2 0x16AF JUMP JUMPDEST PUSH1 0x40 MLOAD PUSH1 0x20 DUP2 DUP4 SUB SUB DUP2 MSTORE SWAP1 PUSH1 0x40 MSTORE PUSH2 0xCBE JUMP JUMPDEST SWAP1 POP DUP1 PUSH1 0x40 MLOAD PUSH1 0x20 ADD PUSH2 0xA78 SWAP2 SWAP1 PUSH2 0x171A JUMP JUMPDEST PUSH1 0x40 MLOAD PUSH1 0x20 DUP2 DUP4 SUB SUB DUP2 MSTORE SWAP1 PUSH1 0x40 MSTORE SWAP2 POP POP SWAP2 SWAP1 POP JUMP JUMPDEST PUSH1 0x60 PUSH1 0x0 DUP3 GT DUP1 ISZERO PUSH2 0xAAA JUMPI POP PUSH9 0x1158E460913D00000 DUP3 GT ISZERO JUMPDEST ISZERO PUSH2 0xACC JUMPI POP POP PUSH1 0x40 DUP1 MLOAD DUP1 DUP3 ADD SWAP1 SWAP2 MSTORE PUSH1 0x1 DUP2 MSTORE PUSH1 0x49 PUSH1 0xF8 SHL PUSH1 0x20 DUP3 ADD MSTORE SWAP1 JUMP JUMPDEST PUSH9 0x1158E460913D00000 DUP3 GT DUP1 ISZERO PUSH2 0xAED JUMPI POP PUSH9 0x22B1C8C1227A00000 DUP3 GT ISZERO JUMPDEST ISZERO PUSH2 0xB10 JUMPI POP POP PUSH1 0x40 DUP1 MLOAD DUP1 DUP3 ADD SWAP1 SWAP2 MSTORE PUSH1 0x2 DUP2 MSTORE PUSH2 0x4949 PUSH1 0xF0 SHL PUSH1 0x20 DUP3 ADD MSTORE SWAP1 JUMP JUMPDEST PUSH9 0x22B1C8C1227A00000 DUP3 GT DUP1 ISZERO PUSH2 0xB31 JUMPI POP PUSH9 0x340AAD21B3B700000 DUP3 GT ISZERO JUMPDEST ISZERO PUSH2 0xB55 JUMPI POP POP PUSH1 0x40 DUP1 MLOAD DUP1 DUP3 ADD SWAP1 SWAP2 MSTORE PUSH1 0x3 DUP2 MSTORE PUSH3 0x494949 PUSH1 0xE8 SHL PUSH1 0x20 DUP3 ADD MSTORE SWAP1 JUMP JUMPDEST PUSH9 0x340AAD21B3B700000 DUP3 GT DUP1 ISZERO PUSH2 0xB76 JUMPI POP PUSH9 0x4563918244F400000 DUP3 GT ISZERO JUMPDEST ISZERO PUSH2 0xB99 JUMPI POP POP PUSH1 0x40 DUP1 MLOAD DUP1 DUP3 ADD SWAP1 SWAP2 MSTORE PUSH1 0x2 DUP2 MSTORE PUSH2 0x24AB PUSH1 0xF1 SHL PUSH1 0x20 DUP3 ADD MSTORE SWAP1 JUMP JUMPDEST POP POP PUSH1 0x40 DUP1 MLOAD DUP1 DUP3 ADD SWAP1 SWAP2 MSTORE PUSH1 0x3 DUP2 MSTORE PUSH3 0x2D472D PUSH1 0xE8 SHL PUSH1 0x20 DUP3 ADD MSTORE SWAP1 JUMP JUMPDEST SWAP2 SWAP1 POP JUMP JUMPDEST PUSH1 0x60 DUP2 PUSH1 0x0 SUB PUSH2 0xBE4 JUMPI POP POP PUSH1 0x40 DUP1 MLOAD DUP1 DUP3 ADD SWAP1 SWAP2 MSTORE PUSH1 0x1 DUP2 MSTORE PUSH1 0x3 PUSH1 0xFC SHL PUSH1 0x20 DUP3 ADD MSTORE SWAP1 JUMP JUMPDEST DUP2 PUSH1 0x0 JUMPDEST DUP2 ISZERO PUSH2 0xC0E JUMPI DUP1 PUSH2 0xBF8 DUP2 PUSH2 0x1364 JUMP JUMPDEST SWAP2 POP PUSH2 0xC07 SWAP1 POP PUSH1 0xA DUP4 PUSH2 0x1775 JUMP JUMPDEST SWAP2 POP PUSH2 0xBE8 JUMP JUMPDEST PUSH1 0x0 DUP2 PUSH8 0xFFFFFFFFFFFFFFFF DUP2 GT ISZERO PUSH2 0xC29 JUMPI PUSH2 0xC29 PUSH2 0x1165 JUMP JUMPDEST PUSH1 0x40 MLOAD SWAP1 DUP1 DUP3 MSTORE DUP1 PUSH1 0x1F ADD PUSH1 0x1F NOT AND PUSH1 0x20 ADD DUP3 ADD PUSH1 0x40 MSTORE DUP1 ISZERO PUSH2 0xC53 JUMPI PUSH1 0x20 DUP3 ADD DUP2 DUP1 CALLDATASIZE DUP4 CALLDATACOPY ADD SWAP1 POP JUMPDEST POP SWAP1 POP JUMPDEST DUP5 ISZERO PUSH2 0x5F7 JUMPI PUSH2 0xC68 PUSH1 0x1 DUP4 PUSH2 0x1789 JUMP JUMPDEST SWAP2 POP PUSH2 0xC75 PUSH1 0xA DUP7 PUSH2 0x17A0 JUMP JUMPDEST PUSH2 0xC80 SWAP1 PUSH1 0x30 PUSH2 0x17B4 JUMP JUMPDEST PUSH1 0xF8 SHL DUP2 DUP4 DUP2 MLOAD DUP2 LT PUSH2 0xC95 JUMPI PUSH2 0xC95 PUSH2 0x17CC JUMP JUMPDEST PUSH1 0x20 ADD ADD SWAP1 PUSH1 0x1 PUSH1 0x1 PUSH1 0xF8 SHL SUB NOT AND SWAP1 DUP2 PUSH1 0x0 BYTE SWAP1 MSTORE8 POP PUSH2 0xCB7 PUSH1 0xA DUP7 PUSH2 0x1775 JUMP JUMPDEST SWAP5 POP PUSH2 0xC57 JUMP JUMPDEST PUSH1 0x60 DUP2 MLOAD PUSH1 0x0 SUB PUSH2 0xCDD JUMPI POP POP PUSH1 0x40 DUP1 MLOAD PUSH1 0x20 DUP2 ADD SWAP1 SWAP2 MSTORE PUSH1 0x0 DUP2 MSTORE SWAP1 JUMP JUMPDEST PUSH1 0x0 PUSH1 0x40 MLOAD DUP1 PUSH1 0x60 ADD PUSH1 0x40 MSTORE DUP1 PUSH1 0x40 DUP2 MSTORE PUSH1 0x20 ADD PUSH2 0x1F62 PUSH1 0x40 SWAP2 CODECOPY SWAP1 POP PUSH1 0x0 PUSH1 0x3 DUP5 MLOAD PUSH1 0x2 PUSH2 0xD0C SWAP2 SWAP1 PUSH2 0x17B4 JUMP JUMPDEST PUSH2 0xD16 SWAP2 SWAP1 PUSH2 0x1775 JUMP JUMPDEST PUSH2 0xD21 SWAP1 PUSH1 0x4 PUSH2 0x17E2 JUMP JUMPDEST PUSH8 0xFFFFFFFFFFFFFFFF DUP2 GT ISZERO PUSH2 0xD39 JUMPI PUSH2 0xD39 PUSH2 0x1165 JUMP JUMPDEST PUSH1 0x40 MLOAD SWAP1 DUP1 DUP3 MSTORE DUP1 PUSH1 0x1F ADD PUSH1 0x1F NOT AND PUSH1 0x20 ADD DUP3 ADD PUSH1 0x40 MSTORE DUP1 ISZERO PUSH2 0xD63 JUMPI PUSH1 0x20 DUP3 ADD DUP2 DUP1 CALLDATASIZE DUP4 CALLDATACOPY ADD SWAP1 POP JUMPDEST POP SWAP1 POP PUSH1 0x1 DUP3 ADD PUSH1 0x20 DUP3 ADD DUP6 DUP7 MLOAD DUP8 ADD JUMPDEST DUP1 DUP3 LT ISZERO PUSH2 0xDCF JUMPI PUSH1 0x3 DUP3 ADD SWAP2 POP DUP2 MLOAD PUSH1 0x3F DUP2 PUSH1 0x12 SHR AND DUP6 ADD MLOAD DUP5 MSTORE8 PUSH1 0x1 DUP5 ADD SWAP4 POP PUSH1 0x3F DUP2 PUSH1 0xC SHR AND DUP6 ADD MLOAD DUP5 MSTORE8 PUSH1 0x1 DUP5 ADD SWAP4 POP PUSH1 0x3F DUP2 PUSH1 0x6 SHR AND DUP6 ADD MLOAD DUP5 MSTORE8 PUSH1 0x1 DUP5 ADD SWAP4 POP PUSH1 0x3F DUP2 AND DUP6 ADD MLOAD DUP5 MSTORE8 POP PUSH1 0x1 DUP4 ADD SWAP3 POP PUSH2 0xD74 JUMP JUMPDEST POP POP PUSH1 0x3 DUP7 MLOAD MOD PUSH1 0x1 DUP2 EQ PUSH2 0xDEB JUMPI PUSH1 0x2 DUP2 EQ PUSH2 0xDFE JUMPI PUSH2 0xE06 JUMP JUMPDEST PUSH1 0x3D PUSH1 0x1 DUP4 SUB MSTORE8 PUSH1 0x3D PUSH1 0x2 DUP4 SUB MSTORE8 PUSH2 0xE06 JUMP JUMPDEST PUSH1 0x3D PUSH1 0x1 DUP4 SUB MSTORE8 JUMPDEST POP SWAP2 SWAP6 SWAP5 POP POP POP POP POP JUMP JUMPDEST PUSH2 0xE1B DUP4 DUP4 PUSH2 0xE20 JUMP JUMPDEST POP POP POP JUMP JUMPDEST PUSH1 0x1 PUSH1 0x1 PUSH1 0xA0 SHL SUB DUP3 AND PUSH2 0xE76 JUMPI PUSH1 0x40 MLOAD PUSH3 0x461BCD PUSH1 0xE5 SHL DUP2 MSTORE PUSH1 0x20 PUSH1 0x4 DUP3 ADD DUP2 SWAP1 MSTORE PUSH1 0x24 DUP3 ADD MSTORE PUSH32 0x4552433732313A206D696E7420746F20746865207A65726F2061646472657373 PUSH1 0x44 DUP3 ADD MSTORE PUSH1 0x64 ADD PUSH2 0x39B JUMP JUMPDEST PUSH1 0x0 DUP2 DUP2 MSTORE PUSH1 0x3 PUSH1 0x20 MSTORE PUSH1 0x40 SWAP1 KECCAK256 SLOAD PUSH1 0x1 PUSH1 0x1 PUSH1 0xA0 SHL SUB AND ISZERO PUSH2 0xEDB JUMPI PUSH1 0x40 MLOAD PUSH3 0x461BCD PUSH1 0xE5 SHL DUP2 MSTORE PUSH1 0x20 PUSH1 0x4 DUP3 ADD MSTORE PUSH1 0x1C PUSH1 0x24 DUP3 ADD MSTORE PUSH32 0x4552433732313A20746F6B656E20616C7265616479206D696E74656400000000 PUSH1 0x44 DUP3 ADD MSTORE PUSH1 0x64 ADD PUSH2 0x39B JUMP JUMPDEST PUSH1 0x1 PUSH1 0x1 PUSH1 0xA0 SHL SUB DUP3 AND PUSH1 0x0 SWAP1 DUP2 MSTORE PUSH1 0x4 PUSH1 0x20 MSTORE PUSH1 0x40 SWAP1 KECCAK256 SLOAD ISZERO PUSH2 0xF5D JUMPI PUSH1 0x40 MLOAD PUSH3 0x461BCD PUSH1 0xE5 SHL DUP2 MSTORE PUSH1 0x20 PUSH1 0x4 DUP3 ADD MSTORE PUSH1 0x33 PUSH1 0x24 DUP3 ADD MSTORE PUSH32 0x4552433732313A204F6E6C79206F6E6520455850657269656E63655669657765 PUSH1 0x44 DUP3 ADD MSTORE PUSH19 0x7220284E465429207065722061646472657373 PUSH1 0x68 SHL PUSH1 0x64 DUP3 ADD MSTORE PUSH1 0x84 ADD PUSH2 0x39B JUMP JUMPDEST PUSH1 0x1 PUSH1 0x1 PUSH1 0xA0 SHL SUB DUP3 AND PUSH1 0x0 SWAP1 DUP2 MSTORE PUSH1 0x4 PUSH1 0x20 MSTORE PUSH1 0x40 DUP2 KECCAK256 DUP1 SLOAD PUSH1 0x1 SWAP3 SWAP1 PUSH2 0xF86 SWAP1 DUP5 SWAP1 PUSH2 0x17B4 JUMP JUMPDEST SWAP1 SWAP2 SSTORE POP POP PUSH1 0x0 DUP2 DUP2 MSTORE PUSH1 0x3 PUSH1 0x20 MSTORE PUSH1 0x40 DUP1 DUP3 KECCAK256 DUP1 SLOAD PUSH1 0x1 PUSH1 0x1 PUSH1 0xA0 SHL SUB NOT AND PUSH1 0x1 PUSH1 0x1 PUSH1 0xA0 SHL SUB DUP7 AND SWAP1 DUP2 OR SWAP1 SWAP2 SSTORE SWAP1 MLOAD DUP4 SWAP3 SWAP1 PUSH32 0xDDF252AD1BE2C89B69C2B068FC378DAA952BA7F163C4A11628F55A4DF523B3EF SWAP1 DUP3 SWAP1 LOG4 POP POP JUMP JUMPDEST PUSH1 0x0 PUSH1 0x20 DUP3 DUP5 SUB SLT ISZERO PUSH2 0xFF6 JUMPI PUSH1 0x0 DUP1 REVERT JUMPDEST DUP2 CALLDATALOAD PUSH1 0x1 PUSH1 0x1 PUSH1 0xE0 SHL SUB NOT DUP2 AND DUP2 EQ PUSH2 0x100E JUMPI PUSH1 0x0 DUP1 REVERT JUMPDEST SWAP4 SWAP3 POP POP POP JUMP JUMPDEST PUSH1 0x0 JUMPDEST DUP4 DUP2 LT ISZERO PUSH2 0x1030 JUMPI DUP2 DUP2 ADD MLOAD DUP4 DUP3 ADD MSTORE PUSH1 0x20 ADD PUSH2 0x1018 JUMP JUMPDEST DUP4 DUP2 GT ISZERO PUSH2 0x103F JUMPI PUSH1 0x0 DUP5 DUP5 ADD MSTORE JUMPDEST POP POP POP POP JUMP JUMPDEST PUSH1 0x20 DUP2 MSTORE PUSH1 0x0 DUP3 MLOAD DUP1 PUSH1 0x20 DUP5 ADD MSTORE PUSH2 0x1064 DUP2 PUSH1 0x40 DUP6 ADD PUSH1 0x20 DUP8 ADD PUSH2 0x1015 JUMP JUMPDEST PUSH1 0x1F ADD PUSH1 0x1F NOT AND SWAP2 SWAP1 SWAP2 ADD PUSH1 0x40 ADD SWAP3 SWAP2 POP POP JUMP JUMPDEST PUSH1 0x0 PUSH1 0x20 DUP3 DUP5 SUB SLT ISZERO PUSH2 0x108A JUMPI PUSH1 0x0 DUP1 REVERT JUMPDEST POP CALLDATALOAD SWAP2 SWAP1 POP JUMP JUMPDEST DUP1 CALLDATALOAD PUSH1 0x1 PUSH1 0x1 PUSH1 0xA0 SHL SUB DUP2 AND DUP2 EQ PUSH2 0xBB8 JUMPI PUSH1 0x0 DUP1 REVERT JUMPDEST PUSH1 0x0 DUP1 PUSH1 0x40 DUP4 DUP6 SUB SLT ISZERO PUSH2 0x10BB JUMPI PUSH1 0x0 DUP1 REVERT JUMPDEST PUSH2 0x10C4 DUP4 PUSH2 0x1091 JUMP JUMPDEST SWAP5 PUSH1 0x20 SWAP4 SWAP1 SWAP4 ADD CALLDATALOAD SWAP4 POP POP POP JUMP JUMPDEST PUSH1 0x0 DUP1 PUSH1 0x0 PUSH1 0x60 DUP5 DUP7 SUB SLT ISZERO PUSH2 0x10E7 JUMPI PUSH1 0x0 DUP1 REVERT JUMPDEST PUSH2 0x10F0 DUP5 PUSH2 0x1091 JUMP JUMPDEST SWAP3 POP PUSH2 0x10FE PUSH1 0x20 DUP6 ADD PUSH2 0x1091 JUMP JUMPDEST SWAP2 POP PUSH1 0x40 DUP5 ADD CALLDATALOAD SWAP1 POP SWAP3 POP SWAP3 POP SWAP3 JUMP JUMPDEST PUSH1 0x0 DUP1 PUSH1 0x40 DUP4 DUP6 SUB SLT ISZERO PUSH2 0x1121 JUMPI PUSH1 0x0 DUP1 REVERT JUMPDEST PUSH2 0x112A DUP4 PUSH2 0x1091 JUMP JUMPDEST SWAP2 POP PUSH1 0x20 DUP4 ADD CALLDATALOAD DUP1 ISZERO ISZERO DUP2 EQ PUSH2 0x113F JUMPI PUSH1 0x0 DUP1 REVERT JUMPDEST DUP1 SWAP2 POP POP SWAP3 POP SWAP3 SWAP1 POP JUMP JUMPDEST PUSH1 0x0 PUSH1 0x20 DUP3 DUP5 SUB SLT ISZERO PUSH2 0x115C JUMPI PUSH1 0x0 DUP1 REVERT JUMPDEST PUSH2 0x100E DUP3 PUSH2 0x1091 JUMP JUMPDEST PUSH4 0x4E487B71 PUSH1 0xE0 SHL PUSH1 0x0 MSTORE PUSH1 0x41 PUSH1 0x4 MSTORE PUSH1 0x24 PUSH1 0x0 REVERT JUMPDEST PUSH1 0x40 MLOAD PUSH1 0x1F DUP3 ADD PUSH1 0x1F NOT AND DUP2 ADD PUSH8 0xFFFFFFFFFFFFFFFF DUP2 GT DUP3 DUP3 LT OR ISZERO PUSH2 0x11A4 JUMPI PUSH2 0x11A4 PUSH2 0x1165 JUMP JUMPDEST PUSH1 0x40 MSTORE SWAP2 SWAP1 POP JUMP JUMPDEST PUSH1 0x0 PUSH8 0xFFFFFFFFFFFFFFFF DUP3 GT ISZERO PUSH2 0x11C6 JUMPI PUSH2 0x11C6 PUSH2 0x1165 JUMP JUMPDEST POP PUSH1 0x1F ADD PUSH1 0x1F NOT AND PUSH1 0x20 ADD SWAP1 JUMP JUMPDEST PUSH1 0x0 DUP1 PUSH1 0x0 DUP1 PUSH1 0x80 DUP6 DUP8 SUB SLT ISZERO PUSH2 0x11EA JUMPI PUSH1 0x0 DUP1 REVERT JUMPDEST PUSH2 0x11F3 DUP6 PUSH2 0x1091 JUMP JUMPDEST SWAP4 POP PUSH2 0x1201 PUSH1 0x20 DUP7 ADD PUSH2 0x1091 JUMP JUMPDEST SWAP3 POP PUSH1 0x40 DUP6 ADD CALLDATALOAD SWAP2 POP PUSH1 0x60 DUP6 ADD CALLDATALOAD PUSH8 0xFFFFFFFFFFFFFFFF DUP2 GT ISZERO PUSH2 0x1224 JUMPI PUSH1 0x0 DUP1 REVERT JUMPDEST DUP6 ADD PUSH1 0x1F DUP2 ADD DUP8 SGT PUSH2 0x1235 JUMPI PUSH1 0x0 DUP1 REVERT JUMPDEST DUP1 CALLDATALOAD PUSH2 0x1248 PUSH2 0x1243 DUP3 PUSH2 0x11AC JUMP JUMPDEST PUSH2 0x117B JUMP JUMPDEST DUP2 DUP2 MSTORE DUP9 PUSH1 0x20 DUP4 DUP6 ADD ADD GT ISZERO PUSH2 0x125D JUMPI PUSH1 0x0 DUP1 REVERT JUMPDEST DUP2 PUSH1 0x20 DUP5 ADD PUSH1 0x20 DUP4 ADD CALLDATACOPY PUSH1 0x0 PUSH1 0x20 DUP4 DUP4 ADD ADD MSTORE DUP1 SWAP4 POP POP POP POP SWAP3 SWAP6 SWAP2 SWAP5 POP SWAP3 POP JUMP JUMPDEST PUSH1 0x0 DUP1 PUSH1 0x40 DUP4 DUP6 SUB SLT ISZERO PUSH2 0x1292 JUMPI PUSH1 0x0 DUP1 REVERT JUMPDEST PUSH2 0x129B DUP4 PUSH2 0x1091 JUMP JUMPDEST SWAP2 POP PUSH2 0x12A9 PUSH1 0x20 DUP5 ADD PUSH2 0x1091 JUMP JUMPDEST SWAP1 POP SWAP3 POP SWAP3 SWAP1 POP JUMP JUMPDEST PUSH1 0x1 DUP2 DUP2 SHR SWAP1 DUP3 AND DUP1 PUSH2 0x12C6 JUMPI PUSH1 0x7F DUP3 AND SWAP2 POP JUMPDEST PUSH1 0x20 DUP3 LT DUP2 SUB PUSH2 0x12E6 JUMPI PUSH4 0x4E487B71 PUSH1 0xE0 SHL PUSH1 0x0 MSTORE PUSH1 0x22 PUSH1 0x4 MSTORE PUSH1 0x24 PUSH1 0x0 REVERT JUMPDEST POP SWAP2 SWAP1 POP JUMP JUMPDEST PUSH1 0x20 DUP1 DUP3 MSTORE PUSH1 0x29 SWAP1 DUP3 ADD MSTORE PUSH32 0x455850546F6B656E2028416363657373436F6E74726F6C293A204E6F74206175 PUSH1 0x40 DUP3 ADD MSTORE PUSH9 0x3A3437B934BD32B217 PUSH1 0xB9 SHL PUSH1 0x60 DUP3 ADD MSTORE PUSH1 0x80 ADD SWAP1 JUMP JUMPDEST PUSH1 0x0 PUSH1 0x20 DUP3 DUP5 SUB SLT ISZERO PUSH2 0x1347 JUMPI PUSH1 0x0 DUP1 REVERT JUMPDEST POP MLOAD SWAP2 SWAP1 POP JUMP JUMPDEST PUSH4 0x4E487B71 PUSH1 0xE0 SHL PUSH1 0x0 MSTORE PUSH1 0x11 PUSH1 0x4 MSTORE PUSH1 0x24 PUSH1 0x0 REVERT JUMPDEST PUSH1 0x0 PUSH1 0x1 DUP3 ADD PUSH2 0x1376 JUMPI PUSH2 0x1376 PUSH2 0x134E JUMP JUMPDEST POP PUSH1 0x1 ADD SWAP1 JUMP JUMPDEST PUSH1 0x0 PUSH1 0x20 DUP3 DUP5 SUB SLT ISZERO PUSH2 0x138F JUMPI PUSH1 0x0 DUP1 REVERT JUMPDEST DUP2 MLOAD PUSH8 0xFFFFFFFFFFFFFFFF DUP2 GT ISZERO PUSH2 0x13A6 JUMPI PUSH1 0x0 DUP1 REVERT JUMPDEST DUP3 ADD PUSH1 0x1F DUP2 ADD DUP5 SGT PUSH2 0x13B7 JUMPI PUSH1 0x0 DUP1 REVERT JUMPDEST DUP1 MLOAD PUSH2 0x13C5 PUSH2 0x1243 DUP3 PUSH2 0x11AC JUMP JUMPDEST DUP2 DUP2 MSTORE DUP6 PUSH1 0x20 DUP4 DUP6 ADD ADD GT ISZERO PUSH2 0x13DA JUMPI PUSH1 0x0 DUP1 REVERT JUMPDEST PUSH2 0x13EB DUP3 PUSH1 0x20 DUP4 ADD PUSH1 0x20 DUP7 ADD PUSH2 0x1015 JUMP JUMPDEST SWAP6 SWAP5 POP POP POP POP POP JUMP JUMPDEST PUSH1 0x0 DUP2 MLOAD PUSH2 0x1406 DUP2 DUP6 PUSH1 0x20 DUP7 ADD PUSH2 0x1015 JUMP JUMPDEST SWAP3 SWAP1 SWAP3 ADD SWAP3 SWAP2 POP POP JUMP JUMPDEST PUSH32 0x7B20226E616D65223A2022455850657269656E6365204E4654202D2000000000 DUP2 MSTORE PUSH1 0x0 DUP4 MLOAD PUSH2 0x1448 DUP2 PUSH1 0x1C DUP6 ADD PUSH1 0x20 DUP9 ADD PUSH2 0x1015 JUMP JUMPDEST PUSH32 0x226465736372697074696F6E223A2022455850657269656E6365204E46542E20 PUSH1 0x1C SWAP2 DUP5 ADD SWAP2 DUP3 ADD MSTORE PUSH32 0x50617274206F662045746865726E6175742044414F20626F756E746965732E20 PUSH1 0x3C DUP3 ADD MSTORE PUSH32 0x536F756C626F756E6420746F6B656E2F617373657420657870657269656E6365 PUSH1 0x5C DUP3 ADD MSTORE PUSH32 0x207468726F7567682045585020546F6B656E20616E6420455850657269656E63 PUSH1 0x7C DUP3 ADD MSTORE PUSH6 0x329027232A17 PUSH1 0xD1 SHL PUSH1 0x9C DUP3 ADD MSTORE PUSH32 0x222C202265787465726E616C5F75726C223A202268747470733A2F2F67697468 PUSH1 0xA2 DUP3 ADD MSTORE PUSH32 0x75622E636F6D2F536F6C4465762D48502F455850657269656E63655F47616D65 PUSH1 0xC2 DUP3 ADD MSTORE PUSH1 0x11 PUSH1 0xF9 SHL PUSH1 0xE2 DUP3 ADD MSTORE PUSH32 0x2C202261747472696275746573223A205B7B2274726169745F74797065223A20 PUSH1 0xE3 DUP3 ADD MSTORE PUSH32 0x22455850657269656E6365204C6576656C222C202276616C7565223A20220000 PUSH2 0x103 DUP3 ADD MSTORE PUSH2 0x13EB PUSH2 0x15A7 PUSH2 0x121 DUP4 ADD DUP7 PUSH2 0x13F4 JUMP JUMPDEST PUSH15 0x113EAE96101137BBB732B9111D1011 PUSH1 0x89 SHL DUP2 MSTORE PUSH1 0xF ADD SWAP1 JUMP JUMPDEST PUSH1 0x0 DUP6 MLOAD PUSH2 0x15D4 DUP2 DUP5 PUSH1 0x20 DUP11 ADD PUSH2 0x1015 JUMP JUMPDEST PUSH1 0x60 DUP7 SWAP1 SHL PUSH12 0xFFFFFFFFFFFFFFFFFFFFFFFF NOT AND SWAP1 DUP4 ADD SWAP1 DUP2 MSTORE PUSH13 0x1116101134B6B0B3B2911D1011 PUSH1 0x99 SHL PUSH1 0x14 DUP3 ADD MSTORE DUP5 MLOAD PUSH2 0x1617 DUP2 PUSH1 0x21 DUP5 ADD PUSH1 0x20 DUP10 ADD PUSH2 0x1015 JUMP JUMPDEST PUSH21 0x1116101130B734B6B0BA34B7B72FBAB936111D1011 PUSH1 0x59 SHL PUSH1 0x21 SWAP3 SWAP1 SWAP2 ADD SWAP2 DUP3 ADD MSTORE DUP4 MLOAD PUSH2 0x164D DUP2 PUSH1 0x36 DUP5 ADD PUSH1 0x20 DUP9 ADD PUSH2 0x1015 JUMP JUMPDEST PUSH2 0x227D PUSH1 0xF0 SHL PUSH1 0x36 SWAP3 SWAP1 SWAP2 ADD SWAP2 DUP3 ADD MSTORE PUSH1 0x38 ADD SWAP7 SWAP6 POP POP POP POP POP POP JUMP JUMPDEST PUSH32 0x646174613A6170706C69636174696F6E2F6A736F6E3B6261736536342C000000 DUP2 MSTORE PUSH1 0x0 DUP3 MLOAD PUSH2 0x16A2 DUP2 PUSH1 0x1D DUP6 ADD PUSH1 0x20 DUP8 ADD PUSH2 0x1015 JUMP JUMPDEST SWAP2 SWAP1 SWAP2 ADD PUSH1 0x1D ADD SWAP3 SWAP2 POP POP JUMP JUMPDEST PUSH1 0x0 DUP7 MLOAD PUSH2 0x16C1 DUP2 DUP5 PUSH1 0x20 DUP12 ADD PUSH2 0x1015 JUMP JUMPDEST DUP7 MLOAD SWAP1 DUP4 ADD SWAP1 PUSH2 0x16D5 DUP2 DUP4 PUSH1 0x20 DUP12 ADD PUSH2 0x1015 JUMP JUMPDEST DUP7 MLOAD SWAP2 ADD SWAP1 PUSH2 0x16E8 DUP2 DUP4 PUSH1 0x20 DUP11 ADD PUSH2 0x1015 JUMP JUMPDEST DUP6 MLOAD SWAP2 ADD SWAP1 PUSH2 0x16FB DUP2 DUP4 PUSH1 0x20 DUP10 ADD PUSH2 0x1015 JUMP JUMPDEST DUP5 MLOAD SWAP2 ADD SWAP1 PUSH2 0x170E DUP2 DUP4 PUSH1 0x20 DUP9 ADD PUSH2 0x1015 JUMP JUMPDEST ADD SWAP8 SWAP7 POP POP POP POP POP POP POP JUMP JUMPDEST PUSH32 0x646174613A696D6167652F7376672B786D6C3B6261736536342C000000000000 DUP2 MSTORE PUSH1 0x0 DUP3 MLOAD PUSH2 0x1752 DUP2 PUSH1 0x1A DUP6 ADD PUSH1 0x20 DUP8 ADD PUSH2 0x1015 JUMP JUMPDEST SWAP2 SWAP1 SWAP2 ADD PUSH1 0x1A ADD SWAP3 SWAP2 POP POP JUMP JUMPDEST PUSH4 0x4E487B71 PUSH1 0xE0 SHL PUSH1 0x0 MSTORE PUSH1 0x12 PUSH1 0x4 MSTORE PUSH1 0x24 PUSH1 0x0 REVERT JUMPDEST PUSH1 0x0 DUP3 PUSH2 0x1784 JUMPI PUSH2 0x1784 PUSH2 0x175F JUMP JUMPDEST POP DIV SWAP1 JUMP JUMPDEST PUSH1 0x0 DUP3 DUP3 LT ISZERO PUSH2 0x179B JUMPI PUSH2 0x179B PUSH2 0x134E JUMP JUMPDEST POP SUB SWAP1 JUMP JUMPDEST PUSH1 0x0 DUP3 PUSH2 0x17AF JUMPI PUSH2 0x17AF PUSH2 0x175F JUMP JUMPDEST POP MOD SWAP1 JUMP JUMPDEST PUSH1 0x0 DUP3 NOT DUP3 GT ISZERO PUSH2 0x17C7 JUMPI PUSH2 0x17C7 PUSH2 0x134E JUMP JUMPDEST POP ADD SWAP1 JUMP JUMPDEST PUSH4 0x4E487B71 PUSH1 0xE0 SHL PUSH1 0x0 MSTORE PUSH1 0x32 PUSH1 0x4 MSTORE PUSH1 0x24 PUSH1 0x0 REVERT JUMPDEST PUSH1 0x0 DUP2 PUSH1 0x0 NOT DIV DUP4 GT DUP3 ISZERO ISZERO AND ISZERO PUSH2 0x17FC JUMPI PUSH2 0x17FC PUSH2 0x134E JUMP JUMPDEST POP MUL SWAP1 JUMP INVALID EXTCODECOPY 0x2F PUSH5 0x69763E3C2F PUSH5 0x69763E3C2F PUSH5 0x69763E3C2F PUSH7 0x6F726569676E4F PUSH3 0x6A6563 PUSH21 0x3E3C2F7376673E3C73766720786D6C6E733D226874 PUSH21 0x703A2F2F7777772E77332E6F72672F323030302F73 PUSH23 0x67222076696577426F783D223020302033303020333030 0x22 RETURNDATACOPY KECCAK256 EXTCODECOPY PUSH20 0x74796C6520747970653D22746578742F63737322 RETURNDATACOPY KECCAK256 EXTCODECOPY 0x21 JUMPDEST NUMBER DIFFICULTY COINBASE SLOAD COINBASE JUMPDEST KECCAK256 0x2A 0x2C KECCAK256 0x2A GASPRICE PUSH3 0x65666F PUSH19 0x652C202A3A6166746572207B20626F782D7369 PUSH27 0x696E673A20626F726465722D626F783B7D20626F6479207B206865 PUSH10 0x6768743A203130307668 EXTCODESIZE KECCAK256 PUSH3 0x61636B PUSH8 0x726F756E643A2023 ADDRESS ADDRESS ADDRESS EXTCODESIZE PUSH30 0x202E63656E746572207B206865696768743A20313030253B20646973706C PUSH2 0x793A KECCAK256 PUSH7 0x6C65783B20616C PUSH10 0x676E2D6974656D733A20 PUSH4 0x656E7465 PUSH19 0x3B206A7573746966792D636F6E74656E743A20 PUSH4 0x656E7465 PUSH19 0x3B20746578742D616C69676E3A2063656E7465 PUSH19 0x3B7D202E636972636C65207B20706F73697469 PUSH16 0x6E3A2072656C61746976653B20776964 PUSH21 0x683A2032303070783B206865696768743A20323030 PUSH17 0x783B20636F6C6F723A20236666663B2062 PUSH2 0x636B PUSH8 0x726F756E643A2023 ADDRESS ADDRESS ADDRESS EXTCODESIZE KECCAK256 PUSH3 0x6F7264 PUSH6 0x722D72616469 PUSH22 0x733A203530253B20626F726465723A2032707820736F PUSH13 0x69643B7D202E6C6F676F207B20 PUSH7 0x6F6E742D73697A PUSH6 0x3A2031323570 PUSH25 0x3B206C696E652D6865696768743A2031393070783B20766572 PUSH21 0x6963616C2D616C69676E3A206D6964646C653B7D20 0x2E PUSH3 0x757474 PUSH16 0x6E207B20706F736974696F6E3A206162 PUSH20 0x6F6C7574653B20626F74746F6D3A203070783B20 PUSH13 0x6566743A20303B207269676874 GASPRICE KECCAK256 ADDRESS EXTCODESIZE KECCAK256 PUSH17 0x616464696E673A203870783B20666F6E74 0x2D PUSH24 0x65696768743A20626F6C643B20746578742D7472616E7366 PUSH16 0x726D3A207570706572636173653B2062 PUSH2 0x636B PUSH8 0x726F756E643A2023 ADDRESS ADDRESS ADDRESS EXTCODESIZE KECCAK256 PUSH3 0x6F7264 PUSH6 0x723A20327078 KECCAK256 PUSH20 0x6F6C69643B20616E696D6174696F6E3A20736C69 PUSH5 0x6520312E34 PUSH20 0x20656173652D696E2D6F757420696E66696E6974 PUSH6 0x3B2063757273 PUSH16 0x723A20706F696E7465723B7D202E6275 PUSH21 0x746F6E3A686F766572207B20636F6C6F723A202330 ADDRESS ADDRESS EXTCODESIZE KECCAK256 PUSH3 0x61636B PUSH8 0x726F756E643A2023 PUSH7 0x66663B20626F72 PUSH5 0x65722D636F PUSH13 0x6F723A20236666663B7D20406B PUSH6 0x796672616D65 PUSH20 0x20736C696465207B203025207B207472616E7366 PUSH16 0x726D3A207472616E736C617465582831 ADDRESS PUSH17 0x7829207D20353025207B7472616E73666F PUSH19 0x6D3A207472616E736C61746558282D31307078 0x29 KECCAK256 PUSH30 0x2031303025207B207472616E73666F726D3A207472616E736C6174655828 BALANCE ADDRESS PUSH17 0x7829207D7D202E74657874207B20706F73 PUSH10 0x74696F6E3A206162736F PUSH13 0x7574653B20746F703A20303B20 PUSH13 0x6566743A20303B207769647468 GASPRICE KECCAK256 BALANCE ADDRESS ADDRESS 0x25 EXTCODESIZE KECCAK256 PUSH9 0x65696768743A203130 ADDRESS 0x25 EXTCODESIZE KECCAK256 PUSH7 0x6F6E742D73697A PUSH6 0x3A2032347078 EXTCODESIZE KECCAK256 PUSH7 0x6F6E742D776569 PUSH8 0x68743A20626F6C64 EXTCODESIZE KECCAK256 PUSH21 0x6578742D7472616E73666F726D3A20757070657263 PUSH2 0x7365 EXTCODESIZE KECCAK256 PUSH2 0x6E69 PUSH14 0x6174696F6E3A20726F7461746520 BALANCE CALLVALUE PUSH20 0x206C696E65617220696E66696E6974653B206669 PUSH13 0x6C3A20236666663B7D20406B65 PUSH26 0x6672616D657320726F74617465207B2066726F6D207B20747261 PUSH15 0x73666F726D3A20726F746174652830 0x29 EXTCODESIZE KECCAK256 PUSH30 0x20746F207B207472616E73666F726D3A20726F7461746528333630646567 0x29 EXTCODESIZE KECCAK256 PUSH30 0x7D205D5D3E203C2F7374796C653E203C666F726569676E4F626A65637420 PUSH25 0x3D2232302220793D223230222077696474683D223330302220 PUSH9 0x65696768743D223330 ADDRESS 0x22 RETURNDATACOPY KECCAK256 EXTCODECOPY PUSH5 0x697620636C PUSH2 0x7373 RETURNDATASIZE 0x22 PUSH4 0x656E7465 PUSH19 0x2220786D6C6E733D22687474703A2F2F777777 0x2E PUSH24 0x332E6F72672F313939392F7868746D6C223E3C6469762063 PUSH13 0x6173733D22636972636C652220 PUSH25 0x6D6C6E733D22687474703A2F2F7777772E77332E6F72672F31 CODECOPY CODECOPY CODECOPY 0x2F PUSH25 0x68746D6C223E3C64697620636C6173733D226C6F676F222078 PUSH14 0x6C6E733D22687474703A2F2F7777 PUSH24 0x2E77332E6F72672F313939392F7868746D6C223E49493C2F PUSH5 0x69763E3C64 PUSH10 0x7620636C6173733D2274 PUSH6 0x78742220786D PUSH13 0x6E733D22687474703A2F2F7777 PUSH24 0x2E77332E6F72672F313939392F7868746D6C223E20203C73 PUSH23 0x6720783D22302220793D2230222076696577426F783D22 ADDRESS KECCAK256 ADDRESS KECCAK256 CALLER ADDRESS ADDRESS KECCAK256 CALLER ADDRESS ADDRESS 0x22 KECCAK256 PUSH6 0x6E61626C652D PUSH3 0x61636B PUSH8 0x726F756E643D226E PUSH6 0x772030203020 CALLER ADDRESS ADDRESS KECCAK256 CALLER ADDRESS ADDRESS 0x22 KECCAK256 PUSH25 0x6D6C3A73706163653D2270726573657276652220786D6C6E73 RETURNDATASIZE 0x22 PUSH9 0x7474703A2F2F777777 0x2E PUSH24 0x332E6F72672F323030302F737667223E203C646566733E20 EXTCODECOPY PUSH17 0x6174682069643D22636972636C65506174 PUSH9 0x2220643D22204D2031 CALLDATALOAD ADDRESS 0x2C KECCAK256 BALANCE CALLDATALOAD ADDRESS KECCAK256 PUSH14 0x202D3132302C2030206120313230 0x2C BALANCE ORIGIN ADDRESS KECCAK256 ADDRESS KECCAK256 ADDRESS 0x2C BALANCE KECCAK256 ORIGIN CALLVALUE ADDRESS 0x2C ADDRESS KECCAK256 PUSH2 0x2031 ORIGIN ADDRESS 0x2C BALANCE ORIGIN ADDRESS KECCAK256 ADDRESS KECCAK256 ADDRESS 0x2C BALANCE KECCAK256 0x2D ORIGIN CALLVALUE ADDRESS 0x2C ADDRESS KECCAK256 0x22 KECCAK256 KECCAK256 0x2F RETURNDATACOPY KECCAK256 EXTCODECOPY 0x2F PUSH5 0x6566733E20 EXTCODECOPY PUSH8 0x3E203C746578743E KECCAK256 EXTCODECOPY PUSH21 0x6578745061746820687265663D2223636972636C65 POP PUSH2 0x7468 0x22 KECCAK256 PUSH25 0x6D6C3A73706163653D227072657365727665223E4558506572 PUSH10 0x656E6365204E46542120 KECCAK256 KECCAK256 KECCAK256 KECCAK256 KECCAK256 KECCAK256 KECCAK256 KECCAK256 CHAINID PUSH16 0x722E45746865726E61757444414F2020 KECCAK256 KECCAK256 KECCAK256 KECCAK256 KECCAK256 KECCAK256 KECCAK256 0x4C PUSH6 0x76656C202D20 COINBASE TIMESTAMP NUMBER DIFFICULTY GASLIMIT CHAINID SELFBALANCE BASEFEE 0x49 0x4A 0x4B 0x4C 0x4D 0x4E 0x4F POP MLOAD MSTORE MSTORE8 SLOAD SSTORE JUMP JUMPI PC MSIZE GAS PUSH2 0x6263 PUSH5 0x6566676869 PUSH11 0x6B6C6D6E6F707172737475 PUSH23 0x7778797A303132333435363738392B2F3C2F7465787450 PUSH2 0x7468 RETURNDATACOPY EXTCODECOPY 0x2F PUSH21 0x6578743E3C2F673E3C2F7376673E3C2F6469763E3C PUSH5 0x697620636C PUSH2 0x7373 RETURNDATASIZE 0x22 PUSH3 0x757474 PUSH16 0x6E2220786D6C6E733D22687474703A2F 0x2F PUSH24 0x77772E77332E6F72672F313939392F7868746D6C223E5B45 PC POP 0x5D KECCAK256 TIMESTAMP PUSH2 0x6C61 PUSH15 0x6365202D20A2646970667358221220 0x4B PUSH22 0xE40861A9C4561B43AB23D217756469949B97A2C948AE 0xD3 MLOAD 0xE8 0xBB PUSH13 0xE3038464736F6C634300080D00 CALLER ",
  "sha1": "bde78122ee6f54c2261e366442690671969aff0c",
  "source": "// SPDX-License-Identifier: MIT\npragma solidity >=0.8.0;\nimport \"./libs/BadgeFactory.sol\";\nimport \"../interfaces/IERC20.sol\";\nimport \"./tokens/ERC721.sol\";\nimport \"./utils/Ownable.sol\";\n\ncontract EXPerienceNFT is ERC721, Ownable {\n    // Total supply - Should be exposed via getter\n    // Should start with zero anyway.\n    uint256 private _totalSupply;\n    // EXPToken contract address - To refer to EXP balance of the user \n    address private _EXPContractAddress;\n    // EXPToken Interface to get balanceOf\n    // Though we imported original IERC20 for this, we can potentially limit it to just balanceOf function\n    IERC20 private _expContract;\n    // Generator admins \n    mapping(address => bool) private _tokenAdmins;\n\n    // Events \n    event ExperienceNFTGenerated(address indexed _experienceGainer);\n    event TokenAdminSet(address indexed _admin, bool indexed _isAdmin);\n\n    // ================= ERRORS ======================\n    error ActionRestricted();\n\n    // Constructor of EXPerience NFT Contract, expects nama and symbol of the NFT Contract \n    // and address where EXP Token is deployed\n    constructor(string memory _name, string memory _symbol, address _expcontract) \n        ERC721(_name, _symbol) {\n        // Set EXP Contract address \n        _EXPContractAddress = _expcontract;\n        // Set msg sender the first admin \n        _tokenAdmins[msg.sender] = true;\n    }\n\n    // Add token admins who are allowed to mint NFT for any given address \n    function setTokenAdmin(address _admin, bool _isAdmin) public OnlyOwner {\n        _tokenAdmins[_admin] = _isAdmin;\n        emit TokenAdminSet(_admin, _isAdmin);\n    }\n\n    // A way to update EXPToken address (Keeping it for now)\n    function setExpContractAddress(address _contract) public OnlyOwner {\n        require(_contract != address(0), \"Invalid EXP Token Contract address\");\n        _EXPContractAddress = _contract;\n    }\n    // Generate EXPerience NFT for the address given \n    function genExperience(address _to) public {\n        // Make sure the message sender is one of the admins \n        require(_tokenAdmins[msg.sender] == true, \"EXPerience: You're not an admin\");\n        // We need to make sure _to actually holds some EXP \n        // Get the exp token contract  \n        _expContract = IERC20(_EXPContractAddress);\n        // Get _to's EXP token holdings \n        uint256 _expBalanceofTo = _expContract.balanceOf(_to);\n        // For Testing Only: Let's limit minting to address only if they any amount of exp token\n        require(_expBalanceofTo > 0, \"EXPerience: Insufficient EXP balance\");\n        \n        // Get TokenID \n        uint256 _tokenID = _totalSupply;\n        // Increment for next tokenID\n        ++_totalSupply;\n        // Mint the EXPerience NFT for the address (If address already holds the NFT, _mint will revert)\n        _safeMint(_to, _tokenID);\n        // Emit the event \n        emit ExperienceNFTGenerated(_to);\n    }\n\n    // Total supply \n    function totalSupply() public view returns (uint256) {\n        return _totalSupply;\n    }\n\n    // TokenURI(), this is where we will implement all our logic\n    // - We need to generate ASCII NFT art\n    // - Art could be a trophie showing achievement/level \n    // --- Null trophie for 0 EXP tokens in the account \n    // --- Distinct 5 trophies, each trophie for certain EXP token held in the account \n    // --- Ex: Tier-1 trophie for users who have 1 to 20 EXP tokens\n    // --- Tier-2 trophies for users who have 21 to 40 EXP tokens and so on...\n    function tokenURI(uint256 _tokenID) public view override returns (string memory) {\n        // Make sure _tokenID is valid \n        require(_exists(_tokenID), \"EXPerience NFT: Invalid TokenID\");\n        // Get the owner of the _tokenID\n        address owner = ownerOf(_tokenID); \n        // We need owner's EXP token balance\n        // Based on balance, we can prepare a variable that denotes which \n        // Symbol should be written in the center of the circle. \n        // Get owner's EXP token holdings\n        uint256 ownerBal = IERC20(_EXPContractAddress).balanceOf(owner);\n\n        // Now we have following details required to generate a tokenURI \n        // owner of the nft, nft token ID, owner's EXP balance \n        return BadgeFactory._generateTokenURI(_tokenID, ownerBal, owner);\n    }\n\n    function testURI(uint256 _tokenID) public pure returns (string memory) {\n        return BadgeFactory.callthisForImage(_tokenID);\n    }\n    /// @dev functions that are restricted \n    /// Overridden from ERC721 and modifier to reflect \n    /// Soulbound nature of the NFT\n    function approve(address, uint256) public view override {\n        revert ActionRestricted();\n    }\n\n    function getApproved(uint256) public view override returns (address) {\n        revert ActionRestricted();\n    }\n\n    function setApprovalForAll(address, bool) public view override {\n        revert ActionRestricted();\n    }\n\n    function isApprovedForAll(address, address) public view override returns (bool) {\n        revert ActionRestricted();\n    }\n\n    function transferFrom(address, address, uint256) public view override {\n        revert ActionRestricted();\n    }\n\n    function safeTransferFrom(address, address, uint256) public view override {\n        revert ActionRestricted();\n    }\n\n    function safeTransferFrom(address, address, uint256, bytes memory) public view override {\n         revert ActionRestricted();\n    }\n}",
  "sourcePath": "contracts/EXPerienceNFT.sol",
  "type": "contract"
}