{
  "abi": [
    {
      "inputs": [
        {
          "internalType": "string",
          "name": "name_",
          "type": "string"
        },
        {
          "internalType": "string",
          "name": "symbol_",
          "type": "string"
        }
      ],
      "stateMutability": "nonpayable",
      "type": "constructor"
    },
    {
      "inputs": [],
      "name": "OperationNotAllowed",
      "type": "error"
    },
    {
      "inputs": [],
      "name": "UnsupportedAction",
      "type": "error"
    },
    {
      "anonymous": false,
      "inputs": [
        {
          "indexed": true,
          "internalType": "address",
          "name": "owner",
          "type": "address"
        },
        {
          "indexed": true,
          "internalType": "address",
          "name": "spender",
          "type": "address"
        },
        {
          "indexed": false,
          "internalType": "uint256",
          "name": "value",
          "type": "uint256"
        }
      ],
      "name": "Approval",
      "type": "event"
    },
    {
      "anonymous": false,
      "inputs": [
        {
          "indexed": true,
          "internalType": "address",
          "name": "admin_",
          "type": "address"
        },
        {
          "indexed": true,
          "internalType": "bool",
          "name": "isAdmin_",
          "type": "bool"
        }
      ],
      "name": "TokenAdminUpdated",
      "type": "event"
    },
    {
      "anonymous": false,
      "inputs": [
        {
          "indexed": true,
          "internalType": "address",
          "name": "from",
          "type": "address"
        },
        {
          "indexed": true,
          "internalType": "address",
          "name": "to",
          "type": "address"
        },
        {
          "indexed": false,
          "internalType": "uint256",
          "name": "value",
          "type": "uint256"
        }
      ],
      "name": "Transfer",
      "type": "event"
    },
    {
      "inputs": [
        {
          "internalType": "address",
          "name": "",
          "type": "address"
        },
        {
          "internalType": "address",
          "name": "",
          "type": "address"
        }
      ],
      "name": "allowance",
      "outputs": [
        {
          "internalType": "uint256",
          "name": "",
          "type": "uint256"
        }
      ],
      "stateMutability": "view",
      "type": "function"
    },
    {
      "inputs": [
        {
          "internalType": "address",
          "name": "",
          "type": "address"
        },
        {
          "internalType": "uint256",
          "name": "",
          "type": "uint256"
        }
      ],
      "name": "approve",
      "outputs": [
        {
          "internalType": "bool",
          "name": "",
          "type": "bool"
        }
      ],
      "stateMutability": "nonpayable",
      "type": "function"
    },
    {
      "inputs": [
        {
          "internalType": "address",
          "name": "account",
          "type": "address"
        }
      ],
      "name": "balanceOf",
      "outputs": [
        {
          "internalType": "uint256",
          "name": "",
          "type": "uint256"
        }
      ],
      "stateMutability": "view",
      "type": "function"
    },
    {
      "inputs": [],
      "name": "decimals",
      "outputs": [
        {
          "internalType": "uint8",
          "name": "",
          "type": "uint8"
        }
      ],
      "stateMutability": "view",
      "type": "function"
    },
    {
      "inputs": [
        {
          "internalType": "address",
          "name": "",
          "type": "address"
        },
        {
          "internalType": "uint256",
          "name": "",
          "type": "uint256"
        }
      ],
      "name": "decreaseAllowance",
      "outputs": [
        {
          "internalType": "bool",
          "name": "",
          "type": "bool"
        }
      ],
      "stateMutability": "nonpayable",
      "type": "function"
    },
    {
      "inputs": [
        {
          "internalType": "address",
          "name": "gainer_",
          "type": "address"
        },
        {
          "internalType": "uint256",
          "name": "gainAmount_",
          "type": "uint256"
        }
      ],
      "name": "gainExperience",
      "outputs": [],
      "stateMutability": "nonpayable",
      "type": "function"
    },
    {
      "inputs": [
        {
          "internalType": "address",
          "name": "",
          "type": "address"
        },
        {
          "internalType": "uint256",
          "name": "",
          "type": "uint256"
        }
      ],
      "name": "increaseAllowance",
      "outputs": [
        {
          "internalType": "bool",
          "name": "",
          "type": "bool"
        }
      ],
      "stateMutability": "nonpayable",
      "type": "function"
    },
    {
      "inputs": [],
      "name": "name",
      "outputs": [
        {
          "internalType": "string",
          "name": "",
          "type": "string"
        }
      ],
      "stateMutability": "view",
      "type": "function"
    },
    {
      "inputs": [],
      "name": "owner",
      "outputs": [
        {
          "internalType": "address",
          "name": "",
          "type": "address"
        }
      ],
      "stateMutability": "view",
      "type": "function"
    },
    {
      "inputs": [
        {
          "internalType": "address",
          "name": "looser_",
          "type": "address"
        },
        {
          "internalType": "uint256",
          "name": "lostAmount_",
          "type": "uint256"
        }
      ],
      "name": "reduceExperience",
      "outputs": [],
      "stateMutability": "nonpayable",
      "type": "function"
    },
    {
      "inputs": [
        {
          "internalType": "address",
          "name": "admin_",
          "type": "address"
        },
        {
          "internalType": "bool",
          "name": "isSet_",
          "type": "bool"
        }
      ],
      "name": "setTokenAdmins",
      "outputs": [],
      "stateMutability": "nonpayable",
      "type": "function"
    },
    {
      "inputs": [
        {
          "internalType": "bytes4",
          "name": "interfaceId",
          "type": "bytes4"
        }
      ],
      "name": "supportsInterface",
      "outputs": [
        {
          "internalType": "bool",
          "name": "",
          "type": "bool"
        }
      ],
      "stateMutability": "view",
      "type": "function"
    },
    {
      "inputs": [],
      "name": "symbol",
      "outputs": [
        {
          "internalType": "string",
          "name": "",
          "type": "string"
        }
      ],
      "stateMutability": "view",
      "type": "function"
    },
    {
      "inputs": [],
      "name": "totalSupply",
      "outputs": [
        {
          "internalType": "uint256",
          "name": "",
          "type": "uint256"
        }
      ],
      "stateMutability": "view",
      "type": "function"
    },
    {
      "inputs": [
        {
          "internalType": "address",
          "name": "",
          "type": "address"
        },
        {
          "internalType": "uint256",
          "name": "",
          "type": "uint256"
        }
      ],
      "name": "transfer",
      "outputs": [
        {
          "internalType": "bool",
          "name": "",
          "type": "bool"
        }
      ],
      "stateMutability": "nonpayable",
      "type": "function"
    },
    {
      "inputs": [
        {
          "internalType": "address",
          "name": "",
          "type": "address"
        },
        {
          "internalType": "address",
          "name": "",
          "type": "address"
        },
        {
          "internalType": "uint256",
          "name": "",
          "type": "uint256"
        }
      ],
      "name": "transferFrom",
      "outputs": [
        {
          "internalType": "bool",
          "name": "",
          "type": "bool"
        }
      ],
      "stateMutability": "nonpayable",
      "type": "function"
    }
  ],
  "bytecode": "60806040523480156200001157600080fd5b5060405162000e7a38038062000e7a833981016040819052620000349162000210565b8151829082906200004d9060029060208501906200009d565b508051620000639060039060208401906200009d565b5050600480546001600160a01b031916339081179091556000908152600560205260409020805460ff1916600117905550620002b6915050565b828054620000ab906200027a565b90600052602060002090601f016020900481019282620000cf57600085556200011a565b82601f10620000ea57805160ff19168380011785556200011a565b828001600101855582156200011a579182015b828111156200011a578251825591602001919060010190620000fd565b50620001289291506200012c565b5090565b5b808211156200012857600081556001016200012d565b634e487b7160e01b600052604160045260246000fd5b600082601f8301126200016b57600080fd5b81516001600160401b038082111562000188576200018862000143565b604051601f8301601f19908116603f01168101908282118183101715620001b357620001b362000143565b81604052838152602092508683858801011115620001d057600080fd5b600091505b83821015620001f45785820183015181830184015290820190620001d5565b83821115620002065760008385830101525b9695505050505050565b600080604083850312156200022457600080fd5b82516001600160401b03808211156200023c57600080fd5b6200024a8683870162000159565b935060208501519150808211156200026157600080fd5b50620002708582860162000159565b9150509250929050565b600181811c908216806200028f57607f821691505b602082108103620002b057634e487b7160e01b600052602260045260246000fd5b50919050565b610bb480620002c66000396000f3fe608060405234801561001057600080fd5b50600436106101005760003560e01c806370a0823111610097578063a9059cbb11610066578063a9059cbb14610142578063dd62ed3e146101f8578063e0b1e94014610206578063f56bbc9c1461021957600080fd5b806370a08231146101ac5780638da5cb5b146101d557806395d89b41146101f0578063a457c2d71461018457600080fd5b806323b872dd116100d357806323b872dd14610167578063313ce5671461017557806339509351146101845780633d14b86c1461019757600080fd5b806301ffc9a71461010557806306fdde031461012d578063095ea7b31461014257806318160ddd14610155575b600080fd5b610118610113366004610924565b61022c565b60405190151581526020015b60405180910390f35b61013561027e565b6040516101249190610955565b6101186101503660046109c6565b610310565b6001545b604051908152602001610124565b6101186101503660046109f0565b60405160128152602001610124565b6101186101923660046109c6565b61032b565b6101aa6101a5366004610a2c565b610346565b005b6101596101ba366004610a68565b6001600160a01b031660009081526020819052604090205490565b6004546040516001600160a01b039091168152602001610124565b61013561041f565b610159610192366004610a83565b6101aa6102143660046109c6565b61042e565b6101aa6102273660046109c6565b610584565b60006001600160e01b031982166336372b0760e01b148061025d57506001600160e01b0319821663a219a02560e01b145b8061027857506301ffc9a760e01b6001600160e01b03198316145b92915050565b60606002805461028d90610ab6565b80601f01602080910402602001604051908101604052809291908181526020018280546102b990610ab6565b80156103065780601f106102db57610100808354040283529160200191610306565b820191906000526020600020905b8154815290600101906020018083116102e957829003601f168201915b5050505050905090565b6000604051637a851da960e11b815260040160405180910390fd5b60006040516325e9714f60e01b815260040160405180910390fd5b336103596004546001600160a01b031690565b6001600160a01b0316146103cb5760405162461bcd60e51b815260206004820152602e60248201527f416363657373436f6e74726f6c3a20556e617574686f72697a6564206163636560448201526d1cdcc81b9bdd08185b1b1bddd95960921b60648201526084015b60405180910390fd5b6001600160a01b038216600081815260056020526040808220805460ff191685151590811790915590519092917f507c66f2fcbb2af591aed924c5f0865a477d80298478209850211a5653c00c9291a35050565b60606003805461028d90610ab6565b3360009081526005602052604090205460ff1615156001146104625760405162461bcd60e51b81526004016103c290610af0565b6001600160a01b038216600090815260208190526040902054806104e45760405162461bcd60e51b815260206004820152603360248201527f455850546f6b656e3a205573657220646f656e2774206861766520656e6f75676044820152726820657870657269656e636520706f696e747360681b60648201526084016103c2565b60006104f08383610b4f565b116105755760405162461bcd60e51b815260206004820152604960248201527f455850546f6b656e3a205468697320616374696f6e2077696c6c206272696e6760448201527f207573657220657870657269656e63652062656c6f77207a65726f2e204e6f746064820152681030b63637bbb2b21760b91b608482015260a4016103c2565b61057f83836106f7565b505050565b3360009081526005602052604090205460ff1615156001146105b85760405162461bcd60e51b81526004016103c290610af0565b6001600160a01b03821660009081526020819052604090205468056bc75e2d63100000811061064f5760405162461bcd60e51b815260206004820152603960248201527f455850546f6b656e3a205573657220616c7265616479206174206d617820657860448201527f70657269656e636520706f696e747320706f737369626c652e0000000000000060648201526084016103c2565b68056bc75e2d631000006106638383610b66565b11156106ed5760405162461bcd60e51b815260206004820152604d60248201527f455850546f6b656e3a2054686973206d696e742077696c6c2073656e6420757360448201527f65722061626f766520636170706564206578707269656e636520706f696e742e60648201526c102737ba1030b63637bbb2b21760991b608482015260a4016103c2565b61057f8383610845565b6001600160a01b0382166107575760405162461bcd60e51b815260206004820152602160248201527f45524332303a206275726e2066726f6d20746865207a65726f206164647265736044820152607360f81b60648201526084016103c2565b6001600160a01b038216600090815260208190526040902054818110156107cb5760405162461bcd60e51b815260206004820152602260248201527f45524332303a206275726e20616d6f756e7420657863656564732062616c616e604482015261636560f01b60648201526084016103c2565b6001600160a01b03831660009081526020819052604081208383039055600180548492906107fa908490610b4f565b90915550506040518281526000906001600160a01b038516907fddf252ad1be2c89b69c2b068fc378daa952ba7f163c4a11628f55a4df523b3ef9060200160405180910390a3505050565b6001600160a01b03821661089b5760405162461bcd60e51b815260206004820152601f60248201527f45524332303a206d696e7420746f20746865207a65726f20616464726573730060448201526064016103c2565b80600160008282546108ad9190610b66565b90915550506001600160a01b038216600090815260208190526040812080548392906108da908490610b66565b90915550506040518181526001600160a01b038316906000907fddf252ad1be2c89b69c2b068fc378daa952ba7f163c4a11628f55a4df523b3ef9060200160405180910390a35050565b60006020828403121561093657600080fd5b81356001600160e01b03198116811461094e57600080fd5b9392505050565b600060208083528351808285015260005b8181101561098257858101830151858201604001528201610966565b81811115610994576000604083870101525b50601f01601f1916929092016040019392505050565b80356001600160a01b03811681146109c157600080fd5b919050565b600080604083850312156109d957600080fd5b6109e2836109aa565b946020939093013593505050565b600080600060608486031215610a0557600080fd5b610a0e846109aa565b9250610a1c602085016109aa565b9150604084013590509250925092565b60008060408385031215610a3f57600080fd5b610a48836109aa565b915060208301358015158114610a5d57600080fd5b809150509250929050565b600060208284031215610a7a57600080fd5b61094e826109aa565b60008060408385031215610a9657600080fd5b610a9f836109aa565b9150610aad602084016109aa565b90509250929050565b600181811c90821680610aca57607f821691505b602082108103610aea57634e487b7160e01b600052602260045260246000fd5b50919050565b60208082526029908201527f455850546f6b656e2028416363657373436f6e74726f6c293a204e6f742061756040820152683a3437b934bd32b21760b91b606082015260800190565b634e487b7160e01b600052601160045260246000fd5b600082821015610b6157610b61610b39565b500390565b60008219821115610b7957610b79610b39565b50019056fea2646970667358221220d0abe11021b3e9afcd5760abd472a93ca98795377e627588a28b711b6c5b87b864736f6c634300080d0033",
  "bytecodeSha1": "2043ee707cf493c441a5afdcbf67864d32b060fc",
  "compiler": {
    "evm_version": "istanbul",
    "optimizer": {
      "enabled": true,
      "runs": 200
    },
    "version": "0.8.13+commit.abaa5c0e"
  },
  "contractName": "EXPToken",
  "language": "Solidity",
  "natspec": {
    "author": "0micronat_. - https://github.com/SolDev-HP (Playground)",
    "details": "EXPToken (EXP) contract that handles minting and assigning EXP to the users  Only primary admin can add other admins  All admin can _mint token to given address, and _burn token from given address ",
    "kind": "dev",
    "methods": {
      "allowance(address,address)": {
        "details": "See {IERC20-allowance}. Unsupported"
      },
      "approve(address,uint256)": {
        "details": "See {IERC20-approve}. Restricted "
      },
      "balanceOf(address)": {
        "details": "See {IERC20-balanceOf}."
      },
      "constructor": {
        "details": "Initialize contract by providing Token name ex: \"EXPToken\" and symbol ex: \"EXP\" This should be able to create ERC20 token, initiator will be the primary admin who  can add or remove other admins "
      },
      "decimals()": {
        "details": "Returns the number of decimals used to get its user representation. For example, if `decimals` equals `2`, a balance of `505` tokens should be displayed to a user as `5.05` (`505 / 10 ** 2`). Tokens usually opt for a value of 18, imitating the relationship between Ether and Wei. This is the value {ERC20} uses, unless this function is overridden; NOTE: This information is only used for _display_ purposes: it in no way affects any of the arithmetic of the contract, including {IERC20-balanceOf} and {IERC20-transfer}."
      },
      "decreaseAllowance(address,uint256)": {
        "details": "Atomically decreases the allowance granted to `spender` by the caller. Unsupported"
      },
      "gainExperience(address,uint256)": {
        "details": "gainExperience function to add experience points to user's EXP balance  Need to make sure we cap experience to max exp limit"
      },
      "increaseAllowance(address,uint256)": {
        "details": "Atomically increases the allowance granted to `spender` by the caller. Unsupported"
      },
      "name()": {
        "details": "Returns the name of the token."
      },
      "owner()": {
        "details": "Public function to check owner ",
        "returns": {
          "_0": "address of the owner of this contract"
        }
      },
      "reduceExperience(address,uint256)": {
        "details": "reduceExperience function to remove exp from user's balance  Need to make sure, it doesn't go below 0 after deduction and user's balance isn't already zero"
      },
      "setTokenAdmins(address,bool)": {
        "details": "Allow adding/removing admins for EXPToken"
      },
      "supportsInterface(bytes4)": {
        "details": "See {IERC165-supportsInterface}."
      },
      "symbol()": {
        "details": "Returns the symbol of the token, usually a shorter version of the name."
      },
      "totalSupply()": {
        "details": "See {IERC20-totalSupply}."
      },
      "transfer(address,uint256)": {
        "details": "See {IERC20-transfer}. Restricted"
      },
      "transferFrom(address,address,uint256)": {
        "details": "See {IERC20-transferFrom}. Restricted"
      }
    },
    "version": 1
  },
  "opcodes": "PUSH1 0x80 PUSH1 0x40 MSTORE CALLVALUE DUP1 ISZERO PUSH2 0x10 JUMPI PUSH1 0x0 DUP1 REVERT JUMPDEST POP PUSH1 0x4 CALLDATASIZE LT PUSH2 0x100 JUMPI PUSH1 0x0 CALLDATALOAD PUSH1 0xE0 SHR DUP1 PUSH4 0x70A08231 GT PUSH2 0x97 JUMPI DUP1 PUSH4 0xA9059CBB GT PUSH2 0x66 JUMPI DUP1 PUSH4 0xA9059CBB EQ PUSH2 0x142 JUMPI DUP1 PUSH4 0xDD62ED3E EQ PUSH2 0x1F8 JUMPI DUP1 PUSH4 0xE0B1E940 EQ PUSH2 0x206 JUMPI DUP1 PUSH4 0xF56BBC9C EQ PUSH2 0x219 JUMPI PUSH1 0x0 DUP1 REVERT JUMPDEST DUP1 PUSH4 0x70A08231 EQ PUSH2 0x1AC JUMPI DUP1 PUSH4 0x8DA5CB5B EQ PUSH2 0x1D5 JUMPI DUP1 PUSH4 0x95D89B41 EQ PUSH2 0x1F0 JUMPI DUP1 PUSH4 0xA457C2D7 EQ PUSH2 0x184 JUMPI PUSH1 0x0 DUP1 REVERT JUMPDEST DUP1 PUSH4 0x23B872DD GT PUSH2 0xD3 JUMPI DUP1 PUSH4 0x23B872DD EQ PUSH2 0x167 JUMPI DUP1 PUSH4 0x313CE567 EQ PUSH2 0x175 JUMPI DUP1 PUSH4 0x39509351 EQ PUSH2 0x184 JUMPI DUP1 PUSH4 0x3D14B86C EQ PUSH2 0x197 JUMPI PUSH1 0x0 DUP1 REVERT JUMPDEST DUP1 PUSH4 0x1FFC9A7 EQ PUSH2 0x105 JUMPI DUP1 PUSH4 0x6FDDE03 EQ PUSH2 0x12D JUMPI DUP1 PUSH4 0x95EA7B3 EQ PUSH2 0x142 JUMPI DUP1 PUSH4 0x18160DDD EQ PUSH2 0x155 JUMPI JUMPDEST PUSH1 0x0 DUP1 REVERT JUMPDEST PUSH2 0x118 PUSH2 0x113 CALLDATASIZE PUSH1 0x4 PUSH2 0x924 JUMP JUMPDEST PUSH2 0x22C JUMP JUMPDEST PUSH1 0x40 MLOAD SWAP1 ISZERO ISZERO DUP2 MSTORE PUSH1 0x20 ADD JUMPDEST PUSH1 0x40 MLOAD DUP1 SWAP2 SUB SWAP1 RETURN JUMPDEST PUSH2 0x135 PUSH2 0x27E JUMP JUMPDEST PUSH1 0x40 MLOAD PUSH2 0x124 SWAP2 SWAP1 PUSH2 0x955 JUMP JUMPDEST PUSH2 0x118 PUSH2 0x150 CALLDATASIZE PUSH1 0x4 PUSH2 0x9C6 JUMP JUMPDEST PUSH2 0x310 JUMP JUMPDEST PUSH1 0x1 SLOAD JUMPDEST PUSH1 0x40 MLOAD SWAP1 DUP2 MSTORE PUSH1 0x20 ADD PUSH2 0x124 JUMP JUMPDEST PUSH2 0x118 PUSH2 0x150 CALLDATASIZE PUSH1 0x4 PUSH2 0x9F0 JUMP JUMPDEST PUSH1 0x40 MLOAD PUSH1 0x12 DUP2 MSTORE PUSH1 0x20 ADD PUSH2 0x124 JUMP JUMPDEST PUSH2 0x118 PUSH2 0x192 CALLDATASIZE PUSH1 0x4 PUSH2 0x9C6 JUMP JUMPDEST PUSH2 0x32B JUMP JUMPDEST PUSH2 0x1AA PUSH2 0x1A5 CALLDATASIZE PUSH1 0x4 PUSH2 0xA2C JUMP JUMPDEST PUSH2 0x346 JUMP JUMPDEST STOP JUMPDEST PUSH2 0x159 PUSH2 0x1BA CALLDATASIZE PUSH1 0x4 PUSH2 0xA68 JUMP JUMPDEST PUSH1 0x1 PUSH1 0x1 PUSH1 0xA0 SHL SUB AND PUSH1 0x0 SWAP1 DUP2 MSTORE PUSH1 0x20 DUP2 SWAP1 MSTORE PUSH1 0x40 SWAP1 KECCAK256 SLOAD SWAP1 JUMP JUMPDEST PUSH1 0x4 SLOAD PUSH1 0x40 MLOAD PUSH1 0x1 PUSH1 0x1 PUSH1 0xA0 SHL SUB SWAP1 SWAP2 AND DUP2 MSTORE PUSH1 0x20 ADD PUSH2 0x124 JUMP JUMPDEST PUSH2 0x135 PUSH2 0x41F JUMP JUMPDEST PUSH2 0x159 PUSH2 0x192 CALLDATASIZE PUSH1 0x4 PUSH2 0xA83 JUMP JUMPDEST PUSH2 0x1AA PUSH2 0x214 CALLDATASIZE PUSH1 0x4 PUSH2 0x9C6 JUMP JUMPDEST PUSH2 0x42E JUMP JUMPDEST PUSH2 0x1AA PUSH2 0x227 CALLDATASIZE PUSH1 0x4 PUSH2 0x9C6 JUMP JUMPDEST PUSH2 0x584 JUMP JUMPDEST PUSH1 0x0 PUSH1 0x1 PUSH1 0x1 PUSH1 0xE0 SHL SUB NOT DUP3 AND PUSH4 0x36372B07 PUSH1 0xE0 SHL EQ DUP1 PUSH2 0x25D JUMPI POP PUSH1 0x1 PUSH1 0x1 PUSH1 0xE0 SHL SUB NOT DUP3 AND PUSH4 0xA219A025 PUSH1 0xE0 SHL EQ JUMPDEST DUP1 PUSH2 0x278 JUMPI POP PUSH4 0x1FFC9A7 PUSH1 0xE0 SHL PUSH1 0x1 PUSH1 0x1 PUSH1 0xE0 SHL SUB NOT DUP4 AND EQ JUMPDEST SWAP3 SWAP2 POP POP JUMP JUMPDEST PUSH1 0x60 PUSH1 0x2 DUP1 SLOAD PUSH2 0x28D SWAP1 PUSH2 0xAB6 JUMP JUMPDEST DUP1 PUSH1 0x1F ADD PUSH1 0x20 DUP1 SWAP2 DIV MUL PUSH1 0x20 ADD PUSH1 0x40 MLOAD SWAP1 DUP2 ADD PUSH1 0x40 MSTORE DUP1 SWAP3 SWAP2 SWAP1 DUP2 DUP2 MSTORE PUSH1 0x20 ADD DUP3 DUP1 SLOAD PUSH2 0x2B9 SWAP1 PUSH2 0xAB6 JUMP JUMPDEST DUP1 ISZERO PUSH2 0x306 JUMPI DUP1 PUSH1 0x1F LT PUSH2 0x2DB JUMPI PUSH2 0x100 DUP1 DUP4 SLOAD DIV MUL DUP4 MSTORE SWAP2 PUSH1 0x20 ADD SWAP2 PUSH2 0x306 JUMP JUMPDEST DUP3 ADD SWAP2 SWAP1 PUSH1 0x0 MSTORE PUSH1 0x20 PUSH1 0x0 KECCAK256 SWAP1 JUMPDEST DUP2 SLOAD DUP2 MSTORE SWAP1 PUSH1 0x1 ADD SWAP1 PUSH1 0x20 ADD DUP1 DUP4 GT PUSH2 0x2E9 JUMPI DUP3 SWAP1 SUB PUSH1 0x1F AND DUP3 ADD SWAP2 JUMPDEST POP POP POP POP POP SWAP1 POP SWAP1 JUMP JUMPDEST PUSH1 0x0 PUSH1 0x40 MLOAD PUSH4 0x7A851DA9 PUSH1 0xE1 SHL DUP2 MSTORE PUSH1 0x4 ADD PUSH1 0x40 MLOAD DUP1 SWAP2 SUB SWAP1 REVERT JUMPDEST PUSH1 0x0 PUSH1 0x40 MLOAD PUSH4 0x25E9714F PUSH1 0xE0 SHL DUP2 MSTORE PUSH1 0x4 ADD PUSH1 0x40 MLOAD DUP1 SWAP2 SUB SWAP1 REVERT JUMPDEST CALLER PUSH2 0x359 PUSH1 0x4 SLOAD PUSH1 0x1 PUSH1 0x1 PUSH1 0xA0 SHL SUB AND SWAP1 JUMP JUMPDEST PUSH1 0x1 PUSH1 0x1 PUSH1 0xA0 SHL SUB AND EQ PUSH2 0x3CB JUMPI PUSH1 0x40 MLOAD PUSH3 0x461BCD PUSH1 0xE5 SHL DUP2 MSTORE PUSH1 0x20 PUSH1 0x4 DUP3 ADD MSTORE PUSH1 0x2E PUSH1 0x24 DUP3 ADD MSTORE PUSH32 0x416363657373436F6E74726F6C3A20556E617574686F72697A65642061636365 PUSH1 0x44 DUP3 ADD MSTORE PUSH14 0x1CDCC81B9BDD08185B1B1BDDD959 PUSH1 0x92 SHL PUSH1 0x64 DUP3 ADD MSTORE PUSH1 0x84 ADD JUMPDEST PUSH1 0x40 MLOAD DUP1 SWAP2 SUB SWAP1 REVERT JUMPDEST PUSH1 0x1 PUSH1 0x1 PUSH1 0xA0 SHL SUB DUP3 AND PUSH1 0x0 DUP2 DUP2 MSTORE PUSH1 0x5 PUSH1 0x20 MSTORE PUSH1 0x40 DUP1 DUP3 KECCAK256 DUP1 SLOAD PUSH1 0xFF NOT AND DUP6 ISZERO ISZERO SWAP1 DUP2 OR SWAP1 SWAP2 SSTORE SWAP1 MLOAD SWAP1 SWAP3 SWAP2 PUSH32 0x507C66F2FCBB2AF591AED924C5F0865A477D80298478209850211A5653C00C92 SWAP2 LOG3 POP POP JUMP JUMPDEST PUSH1 0x60 PUSH1 0x3 DUP1 SLOAD PUSH2 0x28D SWAP1 PUSH2 0xAB6 JUMP JUMPDEST CALLER PUSH1 0x0 SWAP1 DUP2 MSTORE PUSH1 0x5 PUSH1 0x20 MSTORE PUSH1 0x40 SWAP1 KECCAK256 SLOAD PUSH1 0xFF AND ISZERO ISZERO PUSH1 0x1 EQ PUSH2 0x462 JUMPI PUSH1 0x40 MLOAD PUSH3 0x461BCD PUSH1 0xE5 SHL DUP2 MSTORE PUSH1 0x4 ADD PUSH2 0x3C2 SWAP1 PUSH2 0xAF0 JUMP JUMPDEST PUSH1 0x1 PUSH1 0x1 PUSH1 0xA0 SHL SUB DUP3 AND PUSH1 0x0 SWAP1 DUP2 MSTORE PUSH1 0x20 DUP2 SWAP1 MSTORE PUSH1 0x40 SWAP1 KECCAK256 SLOAD DUP1 PUSH2 0x4E4 JUMPI PUSH1 0x40 MLOAD PUSH3 0x461BCD PUSH1 0xE5 SHL DUP2 MSTORE PUSH1 0x20 PUSH1 0x4 DUP3 ADD MSTORE PUSH1 0x33 PUSH1 0x24 DUP3 ADD MSTORE PUSH32 0x455850546F6B656E3A205573657220646F656E2774206861766520656E6F7567 PUSH1 0x44 DUP3 ADD MSTORE PUSH19 0x6820657870657269656E636520706F696E7473 PUSH1 0x68 SHL PUSH1 0x64 DUP3 ADD MSTORE PUSH1 0x84 ADD PUSH2 0x3C2 JUMP JUMPDEST PUSH1 0x0 PUSH2 0x4F0 DUP4 DUP4 PUSH2 0xB4F JUMP JUMPDEST GT PUSH2 0x575 JUMPI PUSH1 0x40 MLOAD PUSH3 0x461BCD PUSH1 0xE5 SHL DUP2 MSTORE PUSH1 0x20 PUSH1 0x4 DUP3 ADD MSTORE PUSH1 0x49 PUSH1 0x24 DUP3 ADD MSTORE PUSH32 0x455850546F6B656E3A205468697320616374696F6E2077696C6C206272696E67 PUSH1 0x44 DUP3 ADD MSTORE PUSH32 0x207573657220657870657269656E63652062656C6F77207A65726F2E204E6F74 PUSH1 0x64 DUP3 ADD MSTORE PUSH9 0x1030B63637BBB2B217 PUSH1 0xB9 SHL PUSH1 0x84 DUP3 ADD MSTORE PUSH1 0xA4 ADD PUSH2 0x3C2 JUMP JUMPDEST PUSH2 0x57F DUP4 DUP4 PUSH2 0x6F7 JUMP JUMPDEST POP POP POP JUMP JUMPDEST CALLER PUSH1 0x0 SWAP1 DUP2 MSTORE PUSH1 0x5 PUSH1 0x20 MSTORE PUSH1 0x40 SWAP1 KECCAK256 SLOAD PUSH1 0xFF AND ISZERO ISZERO PUSH1 0x1 EQ PUSH2 0x5B8 JUMPI PUSH1 0x40 MLOAD PUSH3 0x461BCD PUSH1 0xE5 SHL DUP2 MSTORE PUSH1 0x4 ADD PUSH2 0x3C2 SWAP1 PUSH2 0xAF0 JUMP JUMPDEST PUSH1 0x1 PUSH1 0x1 PUSH1 0xA0 SHL SUB DUP3 AND PUSH1 0x0 SWAP1 DUP2 MSTORE PUSH1 0x20 DUP2 SWAP1 MSTORE PUSH1 0x40 SWAP1 KECCAK256 SLOAD PUSH9 0x56BC75E2D63100000 DUP2 LT PUSH2 0x64F JUMPI PUSH1 0x40 MLOAD PUSH3 0x461BCD PUSH1 0xE5 SHL DUP2 MSTORE PUSH1 0x20 PUSH1 0x4 DUP3 ADD MSTORE PUSH1 0x39 PUSH1 0x24 DUP3 ADD MSTORE PUSH32 0x455850546F6B656E3A205573657220616C7265616479206174206D6178206578 PUSH1 0x44 DUP3 ADD MSTORE PUSH32 0x70657269656E636520706F696E747320706F737369626C652E00000000000000 PUSH1 0x64 DUP3 ADD MSTORE PUSH1 0x84 ADD PUSH2 0x3C2 JUMP JUMPDEST PUSH9 0x56BC75E2D63100000 PUSH2 0x663 DUP4 DUP4 PUSH2 0xB66 JUMP JUMPDEST GT ISZERO PUSH2 0x6ED JUMPI PUSH1 0x40 MLOAD PUSH3 0x461BCD PUSH1 0xE5 SHL DUP2 MSTORE PUSH1 0x20 PUSH1 0x4 DUP3 ADD MSTORE PUSH1 0x4D PUSH1 0x24 DUP3 ADD MSTORE PUSH32 0x455850546F6B656E3A2054686973206D696E742077696C6C2073656E64207573 PUSH1 0x44 DUP3 ADD MSTORE PUSH32 0x65722061626F766520636170706564206578707269656E636520706F696E742E PUSH1 0x64 DUP3 ADD MSTORE PUSH13 0x102737BA1030B63637BBB2B217 PUSH1 0x99 SHL PUSH1 0x84 DUP3 ADD MSTORE PUSH1 0xA4 ADD PUSH2 0x3C2 JUMP JUMPDEST PUSH2 0x57F DUP4 DUP4 PUSH2 0x845 JUMP JUMPDEST PUSH1 0x1 PUSH1 0x1 PUSH1 0xA0 SHL SUB DUP3 AND PUSH2 0x757 JUMPI PUSH1 0x40 MLOAD PUSH3 0x461BCD PUSH1 0xE5 SHL DUP2 MSTORE PUSH1 0x20 PUSH1 0x4 DUP3 ADD MSTORE PUSH1 0x21 PUSH1 0x24 DUP3 ADD MSTORE PUSH32 0x45524332303A206275726E2066726F6D20746865207A65726F20616464726573 PUSH1 0x44 DUP3 ADD MSTORE PUSH1 0x73 PUSH1 0xF8 SHL PUSH1 0x64 DUP3 ADD MSTORE PUSH1 0x84 ADD PUSH2 0x3C2 JUMP JUMPDEST PUSH1 0x1 PUSH1 0x1 PUSH1 0xA0 SHL SUB DUP3 AND PUSH1 0x0 SWAP1 DUP2 MSTORE PUSH1 0x20 DUP2 SWAP1 MSTORE PUSH1 0x40 SWAP1 KECCAK256 SLOAD DUP2 DUP2 LT ISZERO PUSH2 0x7CB JUMPI PUSH1 0x40 MLOAD PUSH3 0x461BCD PUSH1 0xE5 SHL DUP2 MSTORE PUSH1 0x20 PUSH1 0x4 DUP3 ADD MSTORE PUSH1 0x22 PUSH1 0x24 DUP3 ADD MSTORE PUSH32 0x45524332303A206275726E20616D6F756E7420657863656564732062616C616E PUSH1 0x44 DUP3 ADD MSTORE PUSH2 0x6365 PUSH1 0xF0 SHL PUSH1 0x64 DUP3 ADD MSTORE PUSH1 0x84 ADD PUSH2 0x3C2 JUMP JUMPDEST PUSH1 0x1 PUSH1 0x1 PUSH1 0xA0 SHL SUB DUP4 AND PUSH1 0x0 SWAP1 DUP2 MSTORE PUSH1 0x20 DUP2 SWAP1 MSTORE PUSH1 0x40 DUP2 KECCAK256 DUP4 DUP4 SUB SWAP1 SSTORE PUSH1 0x1 DUP1 SLOAD DUP5 SWAP3 SWAP1 PUSH2 0x7FA SWAP1 DUP5 SWAP1 PUSH2 0xB4F JUMP JUMPDEST SWAP1 SWAP2 SSTORE POP POP PUSH1 0x40 MLOAD DUP3 DUP2 MSTORE PUSH1 0x0 SWAP1 PUSH1 0x1 PUSH1 0x1 PUSH1 0xA0 SHL SUB DUP6 AND SWAP1 PUSH32 0xDDF252AD1BE2C89B69C2B068FC378DAA952BA7F163C4A11628F55A4DF523B3EF SWAP1 PUSH1 0x20 ADD PUSH1 0x40 MLOAD DUP1 SWAP2 SUB SWAP1 LOG3 POP POP POP JUMP JUMPDEST PUSH1 0x1 PUSH1 0x1 PUSH1 0xA0 SHL SUB DUP3 AND PUSH2 0x89B JUMPI PUSH1 0x40 MLOAD PUSH3 0x461BCD PUSH1 0xE5 SHL DUP2 MSTORE PUSH1 0x20 PUSH1 0x4 DUP3 ADD MSTORE PUSH1 0x1F PUSH1 0x24 DUP3 ADD MSTORE PUSH32 0x45524332303A206D696E7420746F20746865207A65726F206164647265737300 PUSH1 0x44 DUP3 ADD MSTORE PUSH1 0x64 ADD PUSH2 0x3C2 JUMP JUMPDEST DUP1 PUSH1 0x1 PUSH1 0x0 DUP3 DUP3 SLOAD PUSH2 0x8AD SWAP2 SWAP1 PUSH2 0xB66 JUMP JUMPDEST SWAP1 SWAP2 SSTORE POP POP PUSH1 0x1 PUSH1 0x1 PUSH1 0xA0 SHL SUB DUP3 AND PUSH1 0x0 SWAP1 DUP2 MSTORE PUSH1 0x20 DUP2 SWAP1 MSTORE PUSH1 0x40 DUP2 KECCAK256 DUP1 SLOAD DUP4 SWAP3 SWAP1 PUSH2 0x8DA SWAP1 DUP5 SWAP1 PUSH2 0xB66 JUMP JUMPDEST SWAP1 SWAP2 SSTORE POP POP PUSH1 0x40 MLOAD DUP2 DUP2 MSTORE PUSH1 0x1 PUSH1 0x1 PUSH1 0xA0 SHL SUB DUP4 AND SWAP1 PUSH1 0x0 SWAP1 PUSH32 0xDDF252AD1BE2C89B69C2B068FC378DAA952BA7F163C4A11628F55A4DF523B3EF SWAP1 PUSH1 0x20 ADD PUSH1 0x40 MLOAD DUP1 SWAP2 SUB SWAP1 LOG3 POP POP JUMP JUMPDEST PUSH1 0x0 PUSH1 0x20 DUP3 DUP5 SUB SLT ISZERO PUSH2 0x936 JUMPI PUSH1 0x0 DUP1 REVERT JUMPDEST DUP2 CALLDATALOAD PUSH1 0x1 PUSH1 0x1 PUSH1 0xE0 SHL SUB NOT DUP2 AND DUP2 EQ PUSH2 0x94E JUMPI PUSH1 0x0 DUP1 REVERT JUMPDEST SWAP4 SWAP3 POP POP POP JUMP JUMPDEST PUSH1 0x0 PUSH1 0x20 DUP1 DUP4 MSTORE DUP4 MLOAD DUP1 DUP3 DUP6 ADD MSTORE PUSH1 0x0 JUMPDEST DUP2 DUP2 LT ISZERO PUSH2 0x982 JUMPI DUP6 DUP2 ADD DUP4 ADD MLOAD DUP6 DUP3 ADD PUSH1 0x40 ADD MSTORE DUP3 ADD PUSH2 0x966 JUMP JUMPDEST DUP2 DUP2 GT ISZERO PUSH2 0x994 JUMPI PUSH1 0x0 PUSH1 0x40 DUP4 DUP8 ADD ADD MSTORE JUMPDEST POP PUSH1 0x1F ADD PUSH1 0x1F NOT AND SWAP3 SWAP1 SWAP3 ADD PUSH1 0x40 ADD SWAP4 SWAP3 POP POP POP JUMP JUMPDEST DUP1 CALLDATALOAD PUSH1 0x1 PUSH1 0x1 PUSH1 0xA0 SHL SUB DUP2 AND DUP2 EQ PUSH2 0x9C1 JUMPI PUSH1 0x0 DUP1 REVERT JUMPDEST SWAP2 SWAP1 POP JUMP JUMPDEST PUSH1 0x0 DUP1 PUSH1 0x40 DUP4 DUP6 SUB SLT ISZERO PUSH2 0x9D9 JUMPI PUSH1 0x0 DUP1 REVERT JUMPDEST PUSH2 0x9E2 DUP4 PUSH2 0x9AA JUMP JUMPDEST SWAP5 PUSH1 0x20 SWAP4 SWAP1 SWAP4 ADD CALLDATALOAD SWAP4 POP POP POP JUMP JUMPDEST PUSH1 0x0 DUP1 PUSH1 0x0 PUSH1 0x60 DUP5 DUP7 SUB SLT ISZERO PUSH2 0xA05 JUMPI PUSH1 0x0 DUP1 REVERT JUMPDEST PUSH2 0xA0E DUP5 PUSH2 0x9AA JUMP JUMPDEST SWAP3 POP PUSH2 0xA1C PUSH1 0x20 DUP6 ADD PUSH2 0x9AA JUMP JUMPDEST SWAP2 POP PUSH1 0x40 DUP5 ADD CALLDATALOAD SWAP1 POP SWAP3 POP SWAP3 POP SWAP3 JUMP JUMPDEST PUSH1 0x0 DUP1 PUSH1 0x40 DUP4 DUP6 SUB SLT ISZERO PUSH2 0xA3F JUMPI PUSH1 0x0 DUP1 REVERT JUMPDEST PUSH2 0xA48 DUP4 PUSH2 0x9AA JUMP JUMPDEST SWAP2 POP PUSH1 0x20 DUP4 ADD CALLDATALOAD DUP1 ISZERO ISZERO DUP2 EQ PUSH2 0xA5D JUMPI PUSH1 0x0 DUP1 REVERT JUMPDEST DUP1 SWAP2 POP POP SWAP3 POP SWAP3 SWAP1 POP JUMP JUMPDEST PUSH1 0x0 PUSH1 0x20 DUP3 DUP5 SUB SLT ISZERO PUSH2 0xA7A JUMPI PUSH1 0x0 DUP1 REVERT JUMPDEST PUSH2 0x94E DUP3 PUSH2 0x9AA JUMP JUMPDEST PUSH1 0x0 DUP1 PUSH1 0x40 DUP4 DUP6 SUB SLT ISZERO PUSH2 0xA96 JUMPI PUSH1 0x0 DUP1 REVERT JUMPDEST PUSH2 0xA9F DUP4 PUSH2 0x9AA JUMP JUMPDEST SWAP2 POP PUSH2 0xAAD PUSH1 0x20 DUP5 ADD PUSH2 0x9AA JUMP JUMPDEST SWAP1 POP SWAP3 POP SWAP3 SWAP1 POP JUMP JUMPDEST PUSH1 0x1 DUP2 DUP2 SHR SWAP1 DUP3 AND DUP1 PUSH2 0xACA JUMPI PUSH1 0x7F DUP3 AND SWAP2 POP JUMPDEST PUSH1 0x20 DUP3 LT DUP2 SUB PUSH2 0xAEA JUMPI PUSH4 0x4E487B71 PUSH1 0xE0 SHL PUSH1 0x0 MSTORE PUSH1 0x22 PUSH1 0x4 MSTORE PUSH1 0x24 PUSH1 0x0 REVERT JUMPDEST POP SWAP2 SWAP1 POP JUMP JUMPDEST PUSH1 0x20 DUP1 DUP3 MSTORE PUSH1 0x29 SWAP1 DUP3 ADD MSTORE PUSH32 0x455850546F6B656E2028416363657373436F6E74726F6C293A204E6F74206175 PUSH1 0x40 DUP3 ADD MSTORE PUSH9 0x3A3437B934BD32B217 PUSH1 0xB9 SHL PUSH1 0x60 DUP3 ADD MSTORE PUSH1 0x80 ADD SWAP1 JUMP JUMPDEST PUSH4 0x4E487B71 PUSH1 0xE0 SHL PUSH1 0x0 MSTORE PUSH1 0x11 PUSH1 0x4 MSTORE PUSH1 0x24 PUSH1 0x0 REVERT JUMPDEST PUSH1 0x0 DUP3 DUP3 LT ISZERO PUSH2 0xB61 JUMPI PUSH2 0xB61 PUSH2 0xB39 JUMP JUMPDEST POP SUB SWAP1 JUMP JUMPDEST PUSH1 0x0 DUP3 NOT DUP3 GT ISZERO PUSH2 0xB79 JUMPI PUSH2 0xB79 PUSH2 0xB39 JUMP JUMPDEST POP ADD SWAP1 JUMP INVALID LOG2 PUSH5 0x6970667358 0x22 SLT KECCAK256 0xD0 0xAB 0xE1 LT 0x21 0xB3 0xE9 0xAF 0xCD JUMPI PUSH1 0xAB 0xD4 PUSH19 0xA93CA98795377E627588A28B711B6C5B87B864 PUSH20 0x6F6C634300080D00330000000000000000000000 ",
  "sha1": "d532dff9b24548ee222d3d9725a973173b3e3587",
  "source": "// SPDX-License-Identifier: MIT\npragma solidity >=0.8.0;\nimport \"./ERC20.sol\";\nimport \"./utils/Ownable.sol\";\n\n/// @author 0micronat_. - https://github.com/SolDev-HP (Playground)\n/// @dev EXPToken (EXP) contract that handles minting and assigning EXP to the users \n/// Only primary admin can add other admins \n/// All admin can _mint token to given address, and _burn token from given address \n\ncontract EXPToken is ERC20, Ownable {\n    // ================= State Vars ==================\n    // Token admins \n    mapping(address => bool) internal _TokenAdmins;\n    // Per user experience point capping = 100 * 10 ** 18\n    uint256 internal constant MAXEXP = 100000000000000000000;\n\n\n    // ================= EVENTS ======================\n    event TokenAdminUpdated(address indexed admin_, bool indexed isAdmin_);\n\n    /// @dev Initialize contract by providing Token name ex: \"EXPToken\" and symbol ex: \"EXP\"\n    /// This should be able to create ERC20 token, initiator will be the primary admin who \n    /// can add or remove other admins \n    constructor(string memory name_, string memory symbol_) ERC20(name_, symbol_) {\n        /// Make msg sender the first admin \n        _TokenAdmins[msg.sender] = true;\n    }\n\n    /// @dev Allow adding/removing admins for EXPToken\n    function setTokenAdmins(address admin_, bool isSet_) public OnlyOwner {\n        // Add/Remove token admins \n        _TokenAdmins[admin_] = isSet_;\n        // Emit the admin update event \n        emit TokenAdminUpdated(admin_, isSet_);\n    }\n\n    /// @dev gainExperience function to add experience points to user's EXP balance \n    /// Need to make sure we cap experience to max exp limit\n    function gainExperience(address gainer_, uint256 gainAmount_) public {\n        // Make sure only admins can call this function \n        require(_TokenAdmins[msg.sender] == true, \"EXPToken (AccessControl): Not authorized.\");\n        // Make use of state variable only once if it's being used multiple times within function\n        // In this case, balanceOf will access user's balance state var \n        uint256 _balance = balanceOf(gainer_);\n        // Make sure user doesn't already have max exprience points \n        require(_balance < MAXEXP, \"EXPToken: User already at max experience points possible.\");\n        // Make sure it doesn't go above capped possible points after _minting \n        require(_balance + gainAmount_ <= MAXEXP, \"EXPToken: This mint will send user above capped exprience point. Not allowed.\");\n        // Mint tokens to the address\n        _mint(gainer_, gainAmount_);\n    }\n\n    /// @dev reduceExperience function to remove exp from user's balance \n    /// Need to make sure, it doesn't go below 0 after deduction and user's balance isn't already zero\n    function reduceExperience(address looser_, uint256 lostAmount_) public {\n        // Make sure only admins can call this function \n        require(_TokenAdmins[msg.sender] == true, \"EXPToken (AccessControl): Not authorized.\");\n        // Make use of state variable only once if it's being used multiple times within function\n        // In this case, balanceOf will access user's balance state var \n        uint256 _balance = balanceOf(looser_);\n        // Make sure user's balance isn't already zero \n        require(_balance > 0, \"EXPToken: User doen't have enough experience points\");\n        // Make sure our calculation doesn't bring it below zero \n        require(_balance - lostAmount_ > 0, \"EXPToken: This action will bring user experience below zero. Not allowed.\");\n        // Burn given amount from user's balance \n        _burn(looser_, lostAmount_);\n    }\n}",
  "sourcePath": "contracts/EXPToken.sol",
  "type": "contract"
}